:10000000006F0010810A0100310C0100350C010065
:10001000390C01003D0C0100410C01006249F9EF6F
:1000200000000000000000000000000045A20000E9
:10003000490C010000000000F3A1000089A00000AD
:10004000550C0100079F0000276F0000296E00007B
:10005000650C0100FDA500007B8000000000000091
:100060005FDE0000790C01007D0C0100810C0100B5
:10007000850C0100890C01008D0C0100910C010020
:10008000950C0100990C01009D0C01009B6E000075
:10009000A50C01007B780000AD0C0100B10C010043
:1000A000B50C0100B90C0100BD0C0100C10C010030
:1000B000C10C0100C90C0100CD0C0100D10C0100E4
:0400C000D50C01005A
:1003000038B500250C2003F027FF2800C0B200F00C
:1003100055F804F077F800284CD004F00AF80400EF
:10032000E4B2012C06D03AD3032C16D006D3042C09
:100330001FD034E00C2003F00FFF3EE0EDB2002DA3
:1003400003D0EDB228006D1E02E008252800C0B2DF
:100350002800C0B200F032F821E0EDB2681C09219B
:1003600090FBF1F201FB12052800C0B200F026F864
:1003700015E0EDB2DFF8500650F8250000280AD04D
:10038000EDB2DFF8440650F8250080472800C0B2DF
:1003900000F014F803E00C2003F0DEFE0DE0322044
:1003A00004F00BF9DFF8A8080068401CDFF8A0187B
:1003B0000860AEE70C2003F0CFFE31BD10B504009D
:1003C0000021002003F0ABFEDFF8D40703F0E2FECB
:1003D0000121002003F0A3FEE4B2DFF8780850F812
:1003E000240003F0D7FE0121002003F098FE7E20B8
:1003F00003F0B2FE10BD38B500250C2003F0ACFEB2
:100400002800C0B200F043F803F0FCFF00283DD004
:1004100003F08FFF0400E4B2012C18D032D3032C78
:1004200025D015D3042C2DD1EDB2DFF8680850F893
:10043000250000280AD0EDB2DFF8580850F8250052
:1004400080472800C0B200F022F81BE01EE01DE04B
:10045000EDB2002D03D0EDB228006D1E02E007259D
:100460002800C0B22800C0B200F011F80AE0EDB2D6
:10047000681C082190FBF1F505FB11052800C0B2AE
:1004800000F005F8322004F098F8BDE731BD10B552
:1004900004000021002003F042FEDFF8FC0703F017
:1004A00079FE0121002003F03AFEE4B2DFF84C08A7
:1004B00050F8240003F06EFE0121002003F02FFE0F
:1004C0007E2003F049FE10BD30B585B0002004F059
:1004D0009AFC05000C2003F03FFEDFF8C00703F094
:1004E00059FE03F08FFF00282FD003F022FF0400F5
:1004F000E4B2012C0AD016D3032C10D00AD3042C5A
:1005000011D1290089B2002004F02FFC0C2003F047
:1005100023FE1AE0ADB21F2D00DB6D1E03E0ADB26D
:10052000B42D00DA6D1CADB22A00DFF8B01800A8B7
:1005300005F02EFE0121062003F0F1FD00A803F0D6
:1005400029FE322004F039F8CBE705B030BD30B5D4
:1005500085B0012004F057FC05000C2003F0FCFDE1
:10056000DFF89C0703F016FE03F04CFF00282FD0A5
:1005700003F0DFFE0400E4B2012C0AD016D3032CF2
:1005800010D00AD3042C11D1290089B2012004F023
:10059000ECFB0C2003F0E0FD1AE0ADB23D2D00DBDA
:1005A0006D1E03E0ADB2C82D00DA6D1CADB22A009D
:1005B000DFF82C1800A805F0EBFD0121062003F060
:1005C000AEFD00A803F0E6FD322003F0F6FFCBE716
:1005D00005B030BD30B585B0022004F014FC050034
:1005E0000C2003F0B9FDDFF8FC0703F0D3FD03F0A6
:1005F00009FF00285CD003F09CFE0400E4B2012C4B
:100600000AD03ED3032C23D00AD3042C39D129009D
:1006100089B2022004F0A9FB0C2003F09DFD47E005
:10062000ADB2B5F5FA6F12DDDFF8BC07006841F234
:100630008931884201D36D1E09E0DFF8AC070068FC
:1006400040F6B931884201D30A3D00E0643D1DE027
:10065000ADB244F25060854212DADFF88C070068D0
:1006600041F28931884201D36D1C09E0DFF8780737
:10067000006840F6B931884201D30A3500E064359C
:1006800004E0DFF8640741F288310160ADB22A006E
:10069000DFF85C1800A805F07BFD0121032003F0C2
:1006A0003EFD00A803F076FD322003F086FF9EE7B2
:1006B00005B030BD30B585B0052004F0A4FB0500C1
:1006C0000C2003F049FDDFF82C0803F063FD03F074
:1006D00099FE002831D003F02CFE0400E4B2012C76
:1006E0000AD018D3032C10D00AD3042C13D129001C
:1006F00089B2052004F039FB0C2003F02DFD1CE02D
:10070000ADB2022D00DB6D1E05E0ADB240F2E73068
:10071000854200DA6D1CADB22A00DFF8B01800A8DF
:1007200005F036FD0121032003F0F9FC00A803F0D9
:1007300031FD322003F041FFC9E705B030BD2DE99E
:10074000F04385B00400002600A8DFF884180CC927
:100750000CC0083908385FF000085FF001090C2070
:1007600003F0FAFCDFF86C0803F014FD03F04AFE16
:10077000002800F0908003F0DCFD0500EDB2012DB3
:100780003ED060D3032D3DD04DD3042D5BD1761CDC
:10079000F6B2042E33DB9DF800004FF47A719DF819
:1007A000012064235A4301FB00209DF802100A2215
:1007B00002FB01009DF80310081800F53C50B03012
:1007C0000700BFB2A4B2A74201D1FF2064E00C2011
:1007D00003F0C2FCDFF8000803F0DCFC012100207C
:1007E00003F09DFCDFF8C80803F0D4FC40F6B830F5
:1007F00003F0E3FE0C2003F0AFFC00204CE022E00D
:10080000002049E0F6B200A8305C401CF6B200A916
:100810007054F6B200A8305C3A2803DBF6B200A8A8
:10082000302131540FE0F6B200A8305C401EF6B221
:1008300000A97054F6B200A8305C302803DAF6B292
:1008400000A839213154B9F101094846C0B2002845
:100850001DD1042081465FFA88F87FEA0808042247
:1008600000A902A805F0AEFC00208DF80C005FFA8C
:1008700088F8B8F1000F03D0F6B202A85F21315416
:100880000121062003F04BFC02A803F083FC322078
:1008900003F093FE6AE7002005B0BDE8F08330B5B1
:1008A00085B000250DF10D00019003A800900DF119
:1008B0000B030DF10A020DF1090102A804F087FBF8
:1008C0000C2003F049FCDFF8780A03F063FCEDB27A
:1008D00002A8295C2800C0B200F05AF803F092FD8B
:1008E000002853D003F025FD0400E4B2012C28D0E9
:1008F00048D3032C26D034D3042C43D1EDB2062D9B
:1009000010D19DF80D0001909DF80C0000909DF80D
:100910000B309DF80A209DF809109DF8080004F09E
:10092000F3FA33E0EDB202A8285CC043EDB202A9AD
:100930006854EDB202A8295C2800C0B200F028F883
:1009400020E023E0EDB2681C072190FBF1F201FBEF
:100950001205EDB202A8295C2800C0B200F018F818
:1009600010E0EDB2002D03D0EDB228006D1E02E0C4
:1009700006252800C0B2EDB202A8295C2800C0B24A
:1009800000F006F8322003F018FEA7E705B030BDEE
:1009900038B504000D000121002003F0C0FBE4B2D3
:1009A000DFF8DC0A50F8240003F0F4FBE4B2062C74
:1009B00009DAEDB2002D06D00121022003F0AFFBD1
:1009C000582003F0C9FB31BDB0F600002DE9F04F0F
:1009D0008BB00026002701249D48006805F00EFC1E
:1009E00005F01CFC42F2107190FBF1F201FB120ABF
:1009F0000C2003F0B1FB1FFA8AFA5246DFF8FC190B
:100A000000A805F0C5FB00A803F0C4FB01210020ED
:100A100003F085FBDFF8E80903F0BCFBDFF8E4191D
:100A200000A805F0B5FB03F0EDFC002800F0B48051
:100A300003F07FFC0500EDB2012D68D0C0F0898085
:100A4000032D65D075D3042D40F08380F6B2052EBA
:100A50005BDB9DF80000DFF864169DF8012042F290
:100A600010735A4301FB00209DF802104FF47A7274
:100A700002FB01009DF80310642202FB01009DF8B7
:100A800004100A2202FB01009DF805100818DFF887
:100A90008C1711EB000B5FEA8B3B5FEA9B3B5FEA35
:100AA0009B30804658468004800C40F6BC3148405C
:100AB00081460C2003F050FB1FFA89F91FFA8AFACD
:100AC000D14511D15FFA88F8404605F021FCDFF8E6
:100AD000B40903F05FFB0121002003F020FBDFF8E5
:100AE000A80903F057FB0BE0DFF8EC0403F052FB1E
:100AF0000121002003F013FBDFF8FC0A03F04AFB9E
:100B000040F6B83003F059FD46E0761C21E043E0A2
:100B1000F6B200A8305C401CF6B200A97054F6B2E0
:100B200000A8305C3A2803DBF6B200A8302131542B
:100B30000FE0F6B200A8305C401EF6B200A9705477
:100B4000F6B200A8305C302803DAF6B200A83921EA
:100B50003154601E0400C0B2002819D104200400E2
:100B6000FFB2FF43112200A905A805F02BFB0020CE
:100B70008DF81B00FFB2002F03D0F6B205A85F214D
:100B800031540121072003F0CAFA05A803F002FB43
:100B9000322003F012FD46E70BB0BDE8F08F0000F5
:100BA0005006010038B5002505F0CAFA80B2FFF7FB
:100BB000C6FD00284AD00C2003F0CEFA2800C0B2AF
:100BC00000F04AF803F01EFC00283FD003F0B1FB10
:100BD0000400E4B2012C17D034D3032C18D023D353
:100BE000042C2FD1EDB2DFF8D00A50F825000028F0
:100BF0000AD0EDB2DFF8C00A50F82500804728007F
:100C0000C0B200F029F81DE00C2003F0A5FA1DE0A9
:100C1000EDB2681C082190FBF1F505FB11052800D9
:100C2000C0B200F019F80DE0EDB2002D03D0EDB226
:100C300028006D1E02E007252800C0B22800C0B2BF
:100C400000F00AF8642003F0B8FCBBE731BD0000F7
:100C5000486B00108003001010B504000021002034
:100C600003F05DFADFF8940903F094FA0121002003
:100C700003F055FAE4B2DFF8480A50F8240003F014
:100C800089FA0121002003F04AFA7E2003F064FA79
:100C900010BD000000F700006006010040010100E7
:100CA00030B585B004F044FA05002A00DFF8141AC4
:100CB00000A805F06DFA0C2003F04EFADFF8C00A28
:100CC00003F068FA0121002003F029FA00A803F0DC
:100CD00061FA03F097FB00280DD003F02AFB040013
:100CE000E4B22000012801D0042800D103E06420F0
:100CF00003F063FCEDE705B030BD0000A403001075
:100D00005401010010B50C2003F026FADFF8B809F1
:100D100003F040FA0121002003F001FADFF8AC09EA
:100D200003F038FA03F005FB0400E4B2042C01D10F
:100D300005F03AFBE4B2012CF4D105F001FA80B2DF
:100D4000FFF7FDFC00281BD00C2003F005FADFF8AC
:100D5000340A03F01FFA0121002003F0E0F9DFF864
:100D6000280A03F017FA002004F009FA002004F022
:100D7000ACFD002005F05AF941F2883003F01DFC6B
:100D800010BD30B585B004F01DFA05002A00DFF86B
:100D9000341900A805F0FCF90C2003F0DDF9DFF8A8
:100DA000900A03F0F7F90121002003F0B8F900A838
:100DB00003F0F0F903F026FB00280DD003F0B9FA98
:100DC0000400E4B22000012801D0042800D103E08F
:100DD000642003F0F2FBEDE705B030BD0C0B010021
:100DE000140B010068010100746B001030B585B070
:100DF00004F032FA05000C2003F0AEF9DFF8940994
:100E000003F0C8F903F0FEFA002836D003F091FA97
:100E10000400E4B2012C09D01DD3032C0AD010D356
:100E2000042C18D1280080B204F037FA0C2003F00B
:100E300093F922E00A35ADB2792D01DB00200500DF
:100E400009E0ADB2002D03D00A3D280080B202E0D7
:100E50007825280080B2ADB22A00DFF8DC1900A89E
:100E600005F096F90121062003F059F900A803F0D6
:100E700091F9642003F0A1FBC4E705B030BD000088
:100E800038B504F027FA05000C2003F065F9DFF807
:100E9000A40903F07FF903F0B5FA002827D003F086
:100EA00048FA0400E4B2012C09D00ED3032C0AD076
:100EB00009D3042C09D1280080B204F02CFA0C20AC
:100EC00003F04AF913E0ADB2ED430121062003F02F
:100ED00026F9ADB2002D03D076A003F05BF902E055
:100EE00075A003F057F9642003F067FBD3E731BD29
:100EF000B80801007C01010030B585B004F062FA49
:100F000005000C2003F028F9DFF8AC0903F042F9E2
:100F100003F078FA002857D003F00BFA0400E4B28B
:100F2000012C09D039D3032C20D009D3042C34D17F
:100F3000280080B204F029FA0C2003F00DF943E0F8
:100F4000ADB2B5F5FA6F10DDDFF870090068B0F5E5
:100F50007A7F01D96D1E08E0DFF860090068B0F5FE
:100F6000FA7F01D90A3D00E0643D1BE0ADB244F2D6
:100F70005060854210DADFF844090068B0F57A7FE6
:100F800001D96D1C08E0DFF834090068B0F5FA7F7C
:100F900001D90A3500E0643504E0DFF8200940F6A5
:100FA000B8310160ADB22A00DFF8841A00A805F05C
:100FB000EFF80121032003F0B2F800A803F0EAF8EB
:100FC000322003F0FAFAA3E705B030BDC4080100EF
:100FD0001C0B010090010100240B010030B585B00D
:100FE00004F040FA05000C2003F0B6F8DFF8F4092D
:100FF00003F0D0F803F006FA002857D003F099F96F
:101000000400E4B2012C09D039D3032C20D009D339
:10101000042C34D1280080B204F007FA0C2003F02D
:101020009BF843E0ADB2B5F5FA6F10DDDFF88C0840
:101030000068B0F57A7F01D96D1E08E0DFF87C0802
:101040000068B0F5FA7F01D90A3D00E0643D1BE07D
:10105000ADB244F25060854210DADFF860080068F3
:10106000B0F57A7F01D96D1C08E0DFF85008006800
:10107000B0F5FA7F01D90A3500E0643504E0DFF805
:101080003C0840F6B8310160ADB22A00DFF8A01983
:1010900000A805F07DF80121032003F040F800A826
:1010A00003F078F8322003F088FAA3E705B030BDEA
:1010B000D008010053494D004E414F00A086010069
:1010C00030B585B004F046FA05000C2003F044F872
:1010D000DFF8400A03F05EF803F094F900282ED000
:1010E00003F027F90400E4B2012C09D015D3032C36
:1010F0000FD009D3042C10D1280080B204F059FA83
:101100000C2003F029F81AE0ADB2022D00DB6D1EB1
:1011100003E0ADB2782D00DA6D1CADB22A00DFF825
:10112000001B00A805F034F80121062002F0F7FFAB
:1011300000A803F02FF8322003F03FFACCE705B007
:1011400030BD30B585B004F051FA05000C2003F035
:1011500003F8DFF8C40903F01DF803F053F9002881
:101160005AD003F0E6F80400E4B2012C09D03CD3D5
:10117000032C23D009D3042C37D1280080B204F0EB
:1011800067FA0C2002F0E8FF46E0ADB241F2893088
:10119000854212DBDFF82407006841F2893188427A
:1011A00001D36D1E09E0DFF81407006841F28931B0
:1011B000884201D30A3D00E0643D1BE0ADB244F239
:1011C0005060854210DADFF8F4060068B0F57A7FE7
:1011D00001D96D1C08E0DFF8E4060068B0F5FA7F7D
:1011E00001D90A3500E0643504E0DFF8D00640F6A6
:1011F000B8310160ADB22A00DFF8341800A804F05D
:10120000C7FF0121062002F08AFF00A802F0C2FFFA
:10121000322003F0D2F9A0E705B030BDB09EAEFF9A
:1012200038B500252800C0B200F043F803F0EAF812
:1012300000283DD003F07DF80400E4B2012C18D062
:1012400032D3032C25D015D3042C2DD1EDB2DFF8E9
:10125000F80A50F8250000280AD0EDB2DFF8E80AB5
:1012600050F8250080472800C0B200F022F81BE0AB
:101270001EE01DE0EDB2002D03D0EDB228006D1E82
:1012800002E012252800C0B22800C0B200F011F818
:101290000AE0EDB2681C132190FBF1F201FB12058C
:1012A0002800C0B200F005F8322003F086F9BDE74F
:1012B00031BD10B504000021002002F030FFDFF83E
:1012C0008C0A02F067FF0121002002F028FFE4B23F
:1012D000DFF87C0A50F8240002F05CFF01210020B6
:1012E00002F01DFF7E2002F037FF10BD7FB50C20FD
:1012F00002F032FFDFF85C0A02F04CFF03F019F84D
:101300000400E4B2012C19D005F048FB05F0A8FB5D
:101310000500280005F0B8FB06003200DFF8381A97
:1013200000A804F035FF0121002002F0F8FE00A81B
:1013300002F030FF642003F040F9DFE77FBD0000DA
:10134000A401010070B586B00C2002F005FFDFF8A3
:101350000C0A02F01FFF042003F055FD050002F007
:10136000E8FF0400E4B2012C46D0E4B2042C1DD105
:101370000121002002F0D3FEDFF8E40902F00AFFA9
:101380000121002002F0CBFE280005F096FB00288A
:1013900004D0DFF8D00902F0FDFE03E0DFF8C80951
:1013A00002F0F8FE40F6B83003F007F905F038FB1C
:1013B0000600B6B23200DFF8B41900A804F0E8FE67
:1013C0000121012002F0ABFE00A802F0E3FE0121A2
:1013D000082002F0A4FE05F0A4FB002804D0DFF8EA
:1013E000900902F0D7FE03E0DFF8880902F0D2FE90
:1013F000642003F0E2F8B2E706B070BDDC0801003B
:101400002C0B0100340B010038B50C2002F0A4FEB7
:10141000DFF8640902F0BEFE02F08BFF0400E4B2C4
:101420002000012814D0042813D10121002002F04B
:1014300076FEDFF8480902F0ADFE05F09CFB0121C5
:10144000002002F06CFEDFF8380902F0A3FE00E095
:1014500014E005F0C1FB05000121052002F05FFE4C
:10146000EDB2002D03D095A002F094FE02E0C3A0DF
:1014700002F090FE642003F0A0F8CDE731BD00003B
:10148000E4030010E8080100F40801002DE9F0432E
:1014900085B05FF000084FF47A664FF4E1670C20E6
:1014A00002F05AFEDFF8DC0802F074FE02F041FFA1
:1014B0000400E4B2012C17D02DD3032C15D020D377
:1014C000042C28D15FFA88F87FEA08085FFA88F8C8
:1014D000B8F1000F04D0B6B2300005F05EFD02E0B6
:1014E000002005F05AFD16E056E0DFF8D00340F684
:1014F000B8310160B6B242F6E060864200DA643686
:1015000009E0DFF8B80340F6B8310160B6B2B6F5CD
:10151000167F00DD643EDFF8A403006800280DD1CB
:10152000B6B2BFB2BE4209D05FFA88F8B8F1000F78
:1015300004D0B6B2300005F030FD37005FFA88F80D
:10154000B8F1000F02D00FF2442901E00FF2402958
:10155000DFF868030068002802D0B6B2300001E06E
:1015600005F03EFD4B460200DFF8AC1A00A804F07F
:101570000FFE00A805F0E2FD05000121EDB2D5F156
:1015800010004010C0B202F0CAFD00A802F002FE36
:10159000642003F012F889E705B0BDE8F08310B5C8
:1015A00086B00C2002F0D8FDDFF8680A02F0F2FDE8
:1015B000FF2005F02DFD02F0BCFE0400E4B2012C7A
:1015C00003D1002005F024FD13E005F0A9FC80B252
:1015D0000200DFF8481A00A804F0DAFD0121052016
:1015E00002F09DFD00A802F0D5FD642002F0E5FFA9
:1015F000E1E706B010BD000000090100B8010100DC
:1016000070B50025042003F0FEFB06000C2002F05C
:10161000A3FDDFF80C0A02F0BDFD02F08AFE040013
:10162000E4B2012C32D032D3032C0FD00ED3042CD1
:101630002DD1EDB2ED43EDB2002D03D0012005F028
:101640007CFA02E0002005F078FA20E00121002079
:1016500002F065FDDFF8080702F09CFD0121002083
:1016600002F05DFDB6B2300005F027FA002804D084
:10167000DFF8F00602F08EFD03E0DFF8EC0602F082
:1016800089FD40F6B83002F098FF00E013E0012138
:10169000002002F044FDEDB2002D04D0DFF88409F3
:1016A00002F078FD03E0DFF8C00A02F073FD642069
:1016B00002F083FFB1E770BD20F700005B315D00F1
:1016C000C40300100C090100E0010100F401010055
:1016D00070B586B00025002006F03EF80C2002F020
:1016E0003BFDDFF8440902F055FD02F022FE040044
:1016F000E4B2012C15D017D3032C03D002D3042C51
:1017000003D011E006F082F80EE0EDB2ED432800C0
:10171000C0B206F05AF800220021002006F0BFFBFC
:1017200002E006F073F827E005F09BFE06003000AB
:1017300006F070FC02000B00DFF8301A00A804F07D
:1017400027FD0121002002F0EAFC00A802F022FDA2
:101750000121082002F0E3FCEDB2002D04D0DFF8F7
:10176000100A02F017FD03E0DFF8B00A02F012FDE4
:10177000642002F022FFB8E706B070BD5B305D0068
:10178000CC01010018090100240901004F4E00009E
:101790004F4646001C02010070B5052501260C20AD
:1017A00002F0DAFCDFF8780A02F0F4FC02F0C1FD86
:1017B0000400E4B2012C39D06D1E2800C0B200280C
:1017C00030D10520050000220021012006F067FB32
:1017D00000220021022006F062FB002200210320EB
:1017E00006F05DFB00220021042006F058FB0022D9
:1017F0000021052006F053FB00220021062006F000
:101800004EFB01220021072006F049FB01220121A5
:101810003000C0B206F043FB761CF6B2082E01DBA6
:1018200001200600642002F0C8FEBFE770BD000082
:1018300008020100300201003009010038B503F050
:10184000B8FF0500ADB2002D02D04FF6FF700500C5
:101850000C2002F081FCDFF8280B02F09BFC02F068
:10186000D1FD002827D002F064FD0400E4B2012C71
:1018700009D00ED3032C0AD009D3042C09D1280097
:1018800080B203F0BEFF0C2002F066FC13E0ADB2A4
:10189000ED430121062002F042FCADB2002D03D041
:1018A0009AA002F077FC02E099A002F073FC642099
:1018B00002F083FED3E731BD44020100746B0010D7
:1018C00030B583B000250C2002F046FCDFF8B40AE6
:1018D00002F060FC03F0CFFF050002F093FD00284A
:1018E0005BD002F026FD0400E4B2012C09D00FD336
:1018F000032C07D008D3042C0AD1280080B203F0AF
:101900009DFF4AE06D1C03E0ADB2022D00DB6D1EB1
:10191000ADB24FF47A7095FBF0F00A2190FBF1F232
:1019200001FB120030308DF80000ADB2642095FB51
:10193000F0F00A2190FBF1F201FB120030308DF83B
:101940000100ADB20A2095FBF0F00A2190FBF1F204
:1019500001FB120030308DF802002E208DF80300BC
:10196000ADB20A2095FBF0F100FB115030308DF83C
:10197000040020208DF8050025208DF806000020A9
:101980008DF807000121062002F0C9FB00A802F033
:1019900001FC642002F011FE9FE737BD10B50C205A
:1019A00002F0DAFBDFF8E80902F0F4FB02F0C1FC18
:1019B0000400E4B2012C14D00121032002F0AFFB9B
:1019C00002F038FD002804D0DFF8C80902F0E2FB7D
:1019D00003E0DFF8C40902F0DDFB642002F0EDFD56
:1019E000E4E710BD5802010010B50C2002F0B4FB72
:1019F000DFF8A80902F0CEFB02F09BFC0400E4B281
:101A0000012C14D00121032002F089FB02F0FDFC1F
:101A1000002804D0DFF87C0902F0BCFB03E0DFF80B
:101A2000780902F0B7FB642002F0C7FDE4E710BDBF
:101A3000B808010010B588B00C2002F08DFBDFF86B
:101A4000600902F0A7FB02F074FC0400E4B2012C70
:101A500028D00121032002F062FB00200790002023
:101A600006900020059000200490002003900020A4
:101A7000029000200190002000900023002200210D
:101A8000012006F066FB002804D0DFF8180902F0F8
:101A900081FB03E0DFF8140902F07CFB642002F014
:101AA0008CFDD0E708B010BD38B500250C2002F041
:101AB00053FBDFF8F40802F06DFB02F03AFC04007F
:101AC000E4B22000012804D0042806D195F0FF05D7
:101AD00003E0002004F04BFC17E02800C0B204F043
:101AE00046FC0121032002F01AFBEDB2002D04D0C8
:101AF000DFF8BC0802F04EFB03E0DFF8B80802F0A4
:101B000049FB642002F059FDD7E731BD53494D0030
:101B10004E414F006C0201008002010030B585B0DB
:101B200077250C2002F018FBDFF88C0802F032FB5E
:101B3000022003F068F980B205F02FFA64217320C7
:101B400005F04BFA02F0F5FB0400E4B2012C08D0DA
:101B50001FD3032C0DD013D3042C1AD10020050061
:101B600017E0002005F019FA0021002005F035FAF1
:101B700054E06D1C6421ADB2280005F02EFA08E097
:101B8000ADB2002D00D06D1E6421ADB2280005F06D
:101B900024FA01210A2002F0C2FA5B208DF800002D
:101BA000ADB24FF47A7095FBF0F00A2190FBF1F2A0
:101BB00001FB120030308DF80100ADB2642095FBBE
:101BC000F0F00A2190FBF1F201FB120030308DF8A9
:101BD0000200ADB20A2095FBF0F00A2190FBF1F271
:101BE00001FB120030308DF80300ADB20A2095FBE6
:101BF000F0F100FB115030308DF804005D208DF8BD
:101C0000050000208DF8060000A802F0C3FA0020AD
:101C100006F0FAFF642002F0D0FC93E705B030BD77
:101C20003C09010000B583B040F68E40FEF787FD09
:101C3000002803D10C2002F08FFA42E0502100204E
:101C400003F093F86421012003F08FF841F2EC31A6
:101C5000022003F08AF8412003F07AFB28210420B7
:101C600003F083F843F2D40003F08FFB43F2C82063
:101C700003F0DBFB032003F09CFC43F6982003F009
:101C8000E7FC41F24A5003F032FD052003F045FC29
:101C9000142003F071FD0C2002F05EFA412003F0E5
:101CA00097FE0020019000200090002300220121D7
:101CB000012003F029F90A2003F0EFFA012003F0D4
:101CC0002AFB07BD38B504F03BFA80B2FEF737FDBA
:101CD000002803D10C2002F03FFA34E00C2002F07F
:101CE0003BFADFF8AC0702F055FA03F055FE0500A9
:101CF00002F088FB002826D002F01BFB0400E4B2AF
:101D0000012C09D00BD3032C07D006D3042C06D109
:101D10002800C0B203F023FE15E095F0FF05012175
:101D2000052002F0FCF9EDB2002D04D0DFF8A00789
:101D300002F030FA03E0DFF89C0702F02BFA3220C1
:101D400002F03BFCD4E731BDB8F30000940201007F
:101D50008C020010700601003C0B0100800601009F
:101D600090060100A0060100B0060100440B01002E
:101D70004C0B0100540B01004809010054090100FB
:101D800060090100C00601002DE9F04F8BB000266C
:101D9000002701245FF00008DFF83C07006804F02A
:101DA0002DFA04F03BFA42F2107190FBF1F201FBC4
:101DB000120A0C2002F0D0F91FFA8AFA5246DFF814
:101DC0001C1700A804F0E4F900A802F0E3F90121CF
:101DD000002002F0A4F9DFF8080702F0DBF9DFF8D1
:101DE000041700A804F0D4F902F00CFB002800F05E
:101DF000CD8002F09EFA0500EDB2012D00F0818049
:101E0000C0F0A180032D7DD0C0F08D80042D40F066
:101E10009A80F6B2052E72DB9DF80000DFF8C81636
:101E20009DF8012042F210735A4301FB00209DF8F7
:101E300002104FF47A7202FB01009DF80310642235
:101E400002FB01009DF804100A2202FB01009DF82C
:101E500005100818DFF8941611EB000B5FEA8B3BB6
:101E60005FEA9B3B5FEA9B30804658468004800CCB
:101E700040F6BC31484081460C2002F06DF91FFA53
:101E800089F91FFA8AFAD14528D1DFF8640602F0F1
:101E900081F90121002002F042F9DFF8B80702F0D1
:101EA00079F9002003F021F9002003F068F90020FF
:101EB00003F0AFF9002003F008FD002003F0BEFF9F
:101EC000002004F0B3F8002004F0FAF8002003F03A
:101ED00007FF41F2883002F070FB0BE0DFF8780773
:101EE00002F058F90121002002F019F9DFF86C071F
:101EF00002F050F940F6B83002F05FFB46E0761C85
:101F000021E043E0F6B200A8305C401CF6B200A924
:101F10007054F6B200A8305C3A2803DBF6B200A891
:101F2000302131540FE0F6B200A8305C401EF6B20A
:101F300000A97054F6B200A8305C302803DAF6B27B
:101F400000A839213154601E0400C0B2002819D104
:101F500004200400FFB2FF43112200A905A804F0E9
:101F600031F900208DF81B00FFB2002F03D0F6B22C
:101F700005A85F2131540121072002F0D0F805A8FF
:101F800002F008F9322002F018FB2DE70BB0BDE893
:101F9000F08F30B585B003F038FD05000C2002F05D
:101FA000DBF8DFF8BC0602F0F5F802F02BFA0028A7
:101FB0002ED002F0BEF90400E4B2012C09D015D3F2
:101FC000032C0FD009D3042C10D1280080B203F0C9
:101FD000FFFC0C2002F0C0F81AE0ADB2242D00DBAB
:101FE0006D1E03E0ADB2C82D00DA6D1CADB22A0043
:101FF000DFF8FC1700A804F0CBF80121062002F05E
:102000008EF800A802F0C6F8322002F0D6FACCE72B
:1020100005B030BDA8020100D00601005C0B010034
:10202000BC0201006C090100E00601002DE9F0414D
:102030009CB004000AA8DFF87018442207F030FCB6
:102040005FF00008002601270C2002F085F800212F
:10205000002002F064F8E4B211200AA900FB041089
:1020600002F098F802F0A1F800A92000C0B203F035
:1020700030FD02F0C7F9002873D002F05AF90500CC
:10208000EDB2012D13D04AD3032D2DD012D3042D40
:1020900045D118F101085FFA88F8B8F1100F05DB97
:1020A00000A92000C0B203F0F2FC5AE037E002F0D1
:1020B00089F856E05FFA88F800A818F80000202890
:1020C00006D15FFA88F800A87A2108F800100AE023
:1020D0005FFA88F800A818F80000401E5FFA88F838
:1020E00000A908F801001AE05FFA88F800A818F8BB
:1020F00000005FFA88F800A9421C08F80120C0B26D
:1021000000280CD05FFA88F800A818F800007B2897
:1021100005DB5FFA88F800A8202108F800107F1E70
:102120003800C0B2002818D10A200700F6B2F643E2
:10213000112200A905A804F045F80121002001F0B2
:10214000EEFFF6B2002E05D05FFA88F805A85F21F1
:1021500008F8001005A802F01DF8322002F02DFA50
:1021600087E71CB0BDE8F08178090100840901000F
:102170009009010080B50020FFF758FF01BD80B530
:102180000120FFF753FF01BD80B50220FFF74EFF8E
:1021900001BD80B50320FFF749FF01BD38B503F04D
:1021A000E9FC0500ADB2002D02D04FF6FF7005002E
:1021B0000C2001F0D1FFDFF8B40701F0EBFF02F0D3
:1021C00021F9002829D002F0B4F80400E4B2012C6F
:1021D00009D010D3032C0AD009D3042C0BD128002A
:1021E000C0B203F0AAFC0C2001F0B6FF15E085F4A4
:1021F0007F4595F0FF050121062001F090FFADB26B
:10220000002D03D060A001F0C5FF02E05FA001F047
:10221000C1FF0A2002F0D1F9D1E731BD9C090100CC
:10222000F006010030B585B003F0DDFC05000C20A0
:1022300001F092FFDFF8F80701F0ACFF02F0E2F8DE
:10224000002859D002F075F80400E4B2012C09D03E
:102250003BD3032C21D009D3042C36D1280080B2E3
:1022600003F0A4FC0C2001F077FF45E0ADB2B5F51A
:10227000FA6F11DDDFF8BC070068B0F5FA5F01D92D
:102280006D1E09E0DFF8AC07006841F28931884231
:1022900001D30A3D00E0643D1CE0ADB244F2506061
:1022A000854211DADFF88C070068B0F5FA5F01D9D2
:1022B0006D1C09E0DFF87C07006841F28931884233
:1022C00001D30A3500E0643504E0DFF8680743F61F
:1022D00098210160ADB22A00DFF85C1700A803F076
:1022E00057FF0121032001F01AFF00A801F052FF5F
:1022F000322002F062F9A1E705B030BD30B585B0FB
:1023000003F0A4FC05000C2001F026FFDFF82C07E9
:1023100001F040FF02F076F800282ED002F009F814
:102320000400E4B2012C09D015D3032C0FD009D33B
:10233000042C10D1280080B203F0B5FC0C2001F071
:102340000BFF1AE0ADB23D2D00DB6D1E03E0ADB218
:10235000C82D00DA6D1CADB22A00DFF8941400A875
:1023600003F016FF0121062001F0D9FE00A801F0BC
:1023700011FF322002F021F9CCE705B030BD00009A
:10238000D00201000007010053494D004E414F00AB
:1023900010070100A8090100B4090100200701008D
:1023A00030070100C0090100E4020100CC0901006E
:1023B000640B01006C0B0100F802010038B5002528
:1023C00000F050F9002841D02800C0B200F03FF8DA
:1023D00001F0AFFF0400E4B2012C18D032D3032C7B
:1023E00025D015D3042C2DD1EDB2DFF8540D50F8C3
:1023F000250000280AD0EDB2DFF8440D50F8250082
:1024000080472800C0B200F022F81BE01EE01DE06B
:10241000EDB2002D03D0EDB228006D1E02E00425C0
:102420002800C0B22800C0B200F011F80AE0EDB2F6
:10243000681C052190FBF1F201FB12052800C0B2D7
:1024400000F005F8322002F0B8F8C1E731BD10B550
:1024500004000021002001F062FEDFF8200C01F0F2
:1024600099FE0121002001F05AFEE4B2DFF8D40CFD
:1024700050F8240001F08EFE10BD10B5DFF8C80C36
:1024800000F038F80400200003F01FFA10BD00002F
:102490004007010010B5DFF8B40C00F02BF8040081
:1024A000200002F022FE10BD10B5DFF8A40C00F0F1
:1024B00021F80400200002F062FE10BD10B5DFF824
:1024C000940C00F017F80400200002F0A2FE10BDEA
:1024D000740B01007C0B0100486B0010DC0801004C
:1024E0002C0B0100340B0100A0860100B09EAEFF52
:1024F000D80901002DE9F04186B0040000A8DFF8FA
:10250000581C2CC92CC00C390C38002601275FF050
:1025100000080C2001F020FE0021002001F0FFFD4A
:10252000200001F037FE01F004FF0500EDB2012D9F
:1025300067D068D3032D03D018D3042D2CD062E0CC
:10254000F6B200A8305C392805DB3020F6B200A9CD
:102550007054C0B209E0F6B200A8305CF6B200A92F
:10256000715C491CF6B200AAB1544CE0F6B200A866
:10257000305C312805DA3920F6B200A97054C0B2B7
:1025800009E0F6B200A8305CF6B200A9715C491E01
:10259000F6B200AAB15436E0F6B2072E2FDB9DF852
:1025A0000010DFF8B82B9DF80130DFF8B4CB0CFB3E
:1025B00003F302FB01319DF80220DFF8A83B03FB87
:1025C00002119DF8032042F2107303FB02119DF8E3
:1025D00004204FF47A7303FB02119DF80520642355
:1025E00003FB02119DF806200A2303FB02119DF84C
:1025F00007205118DFF89C2C5118080027E0761CA2
:1026000001E0002023E07F1E3800C0B200281AD16C
:102610000A200700092200A903A803F0D3FD5FFAEE
:1026200088F87FEA08085FFA88F8B8F1000F03D04D
:10263000F6B203A85F2131540121042001F06FFD9F
:1026400003A801F0A7FD322001F0B7FF6BE706B049
:10265000BDE8F081840B0100240B0100000901009A
:102660000C0301002DE9F0478AB000260027012461
:102670005FF00008DFF8200C006803F0BFFD03F0F6
:10268000CDFD42F2107190FBF1F201FB120A0C2019
:1026900001F062FD1FFA8AFA5246DFF8001C00A81A
:1026A00003F076FD00A801F075FD0121002001F086
:1026B00036FDDFF8EC0B01F06DFDDFF8E81B00A83C
:1026C00003F066FD01F09EFE002800F08D8001F011
:1026D00030FE0500EDB2012D40D062D3032D3FD076
:1026E0004FD3042D5DD1F6B2052E35DB9DF80000E9
:1026F000DFF8701A9DF8012042F210735A4301FB73
:1027000000209DF802104FF47A7202FB01009DF840
:102710000310642202FB01009DF804100A2202FB50
:1027200001009DF805100818DFF8A81C0918890396
:10273000890B880B804608008004800C40F6BC3270
:10274000504081461FFA89F91FFA8AFAD14501D112
:10275000FF204AE0002048E0761C22E0002044E010
:10276000F6B200A8305C401CF6B200A97054F6B274
:1027700000A8305C3A2803DBF6B200A830213154BF
:102780000FE0F6B200A8305C401EF6B200A970540B
:10279000F6B200A8305C302803DAF6B200A839217E
:1027A0003154601E0400C0B2002819D10420040076
:1027B000FFB2FF43112200A905A803F003FD00208A
:1027C0008DF81B00FFB2002F03D0F6B205A85F21E1
:1027D00031540121072001F0A2FC05A801F0DAFC28
:1027E000322001F0EAFE6DE700200AB0BDE8F08774
:1027F000140B010030B585B003F08AF805002A00FB
:10280000DFF8D41B00A803F0C3FC0C2001F0A4FCEB
:10281000DFF8780C01F0BEFC0121002001F07FFC04
:1028200000A801F0B7FC01F0EDFD00280DD001F08B
:1028300080FD0400E4B22000012801D0042800D16A
:1028400003E0642001F0B9FEEDE705B030BD30B51E
:1028500085B002F023FC05002A00DFF87C1B00A8ED
:1028600003F096FC0C2001F077FCDFF8200C01F05F
:1028700091FC0121002001F052FC00A801F08AFC2B
:1028800001F0C0FD00280DD001F053FD0400E4B2BA
:102890002000012801D0042800D103E0642001F0C9
:1028A0008CFEEDE705B030BD4CF4000038B50025D6
:1028B0002800C0B200F043F801F0A4FD00283DD08C
:1028C00001F037FD0400E4B2012C18D032D3032C00
:1028D00025D015D3042C2DD1EDB2DFF8D80C50F84B
:1028E000250000280AD0EDB2DFF8C80C50F825000A
:1028F00080472800C0B200F022F81BE01EE01DE077
:10290000EDB2002D03D0EDB228006D1E02E00625C9
:102910002800C0B22800C0B200F011F80AE0EDB201
:10292000681C072190FBF1F201FB12052800C0B2E0
:1029300000F005F8322001F040FEBDE731BD10B5D2
:1029400004000021002001F0EAFBDFF8440B01F055
:1029500021FC0121002001F0E2FBE4B2DFF8940C3D
:1029600050F8240001F016FC10BD00002003010007
:1029700070B590B00A250021002001F0D0FBDFF8EF
:10298000140B01F007FC0121002001F0C8FBDFF867
:10299000080B01F0FFFB00A805F015FD0600F6B2DC
:1029A000002E04D12800451EC0B20028F3D1F6B293
:1029B000002E14D10021002001F0B1FBDFF8DC0A69
:1029C00001F0E8FB0121002001F0A9FBDFF8D00AAB
:1029D00001F0E0FB40F6B83001F0EFFD25E00C20FF
:1029E00001F0BAFB0021002001F099FBDFF8C40CD4
:1029F00001F0D0FB0121002001F091FB00208DF8B7
:102A0000100000A801F0C6FB01F0FCFC00280CD06F
:102A100001F08FFC0400E4B22000401E032800D81F
:102A200003E0322001F0C9FDEEE710B070BD0000F8
:102A300068010100746B0010B80801003403010044
:102A40002DE9F04395B05FF00A09002600275FF0FA
:102A500001080021002001F062FBDFF8380A01F0D4
:102A600099FB0121002001F05AFBDFF82C0A01F04C
:102A700091FB00A805F0A7FC0500EDB2002D05D1E3
:102A80004846B0F10109C0B20028F2D1EDB2002DE4
:102A900014D10021002001F042FBDFF8000A01F010
:102AA00079FB0121002001F03AFBDFF8F40901F085
:102AB00071FB40F6B83001F080FDACE00C2001F075
:102AC0004BFB0021002001F02AFBDFF8E80B01F0AE
:102AD00061FB0121002001F022FB00208DF8100095
:102AE00000A801F057FB0020C0B2302806DAC0B2BF
:102AF00000A9411800220A74401CF5E701F082FC8D
:102B0000002800F0888001F014FC0400E4B2012CDD
:102B100017D05CD3032C15D037D3042C57D1F6B281
:102B200000A8305C002803D1F6B200A8202131545F
:102B3000761CF6B2102E03DB00A800F06FF86AE0F6
:102B400045E068E0F6B200A8305C7F2803DBF6B20F
:102B500000A87E213154F6B200A8305C202803DAA8
:102B6000F6B200A820213154F6B200A8305C401C17
:102B7000F6B200A97054F6B200A8305C7F2803DBDF
:102B8000F6B200A82021315421E0F6B200A8305C52
:102B90007F2803DBF6B200A87E213154F6B200A8EC
:102BA000305C202803DAF6B200A820213154F6B2B6
:102BB00000A8305C401EF6B200A97054F6B200A81E
:102BC000305C202803DAF6B200A87E213154B8F137
:102BD00001084046C0B2002819D105208046FFB246
:102BE000FF43102200A910A803F0ECFA00208DF892
:102BF0005000FFB2002F03D0F6B210A85F2131546D
:102C00000121002001F08BFA10A801F0C3FA322054
:102C100001F0D3FC72E715B0BDE8F08370B5040095
:102C20000A260021002001F07AFADFF84C0B01F0AF
:102C3000B1FA0121002001F072FADFF85C0801F01E
:102C4000A9FA200000F024F8200005F00CFC050093
:102C5000EDB2002D04D13000461EC0B20028F3D1E1
:102C6000EDB2002D13D10021002001F058FADFF859
:102C7000880B01F08FFA0121002001F050FADFF8F3
:102C8000840C01F087FA40F6B83001F096FC70BD74
:102C900010F1100211000A78212A02DB0A787F2A3B
:102CA00003DB00220A70491EF5E7704770B592B049
:102CB00000A8442106F020FE05250021002001F097
:102CC0002EFADFF8740B01F065FA0121002001F003
:102CD00026FADFF8680B01F05DFA01F093FB00289B
:102CE00042D001F026FB0400E4B22000401E02287E
:102CF00035D9C01E34D10021002001F010FADFF8D0
:102D0000C40B01F047FA0121002001F008FADFF8B6
:102D1000880701F03FFA00A805F0A5FB0600F6B20F
:102D2000002E04D12800451EC0B20028F3D1F6B20F
:102D3000002E13D10021002001F0F1F9DFF8B80ACC
:102D400001F028FA0121002001F0E9F9DFF8B40BC5
:102D500001F020FA40F6B83001F02FFC04E003E067
:102D6000322001F02AFCB8E712B070BD70B590B007
:102D70000A250021002001F0D2F9DFF88C0B01F0C8
:102D800009FA0121002001F0CAF9DFF80C0701F06F
:102D900001FA00A805F0B8FB0600F6B2002E04D137
:102DA0002800451EC0B20028F3D1F6B2002E14D17F
:102DB0000021002001F0B3F9DFF8E00601F0EAF9A4
:102DC0000121002001F0ABF9DFF8D40601F0E2F9AF
:102DD00040F6B83001F0F1FB25E00C2001F0BCF921
:102DE0000021002001F09BF9DFF8780C01F0D2F906
:102DF0000121002001F093F900208DF8100000A8B7
:102E000001F0C8F901F0FEFA00280CD001F091FAA7
:102E10000400E4B22000401E032800D803E0322062
:102E200001F0CBFBEEE710B070BD00002DE9F043E0
:102E300095B05FF00A09002600275FF00108002125
:102E4000002001F06CF9DFF8540B01F0A3F9012127
:102E5000002001F064F9DFF8400601F09BF900A8BA
:102E600005F052FB0500EDB2002D05D14846B0F14A
:102E70000109C0B20028F2D1EDB2002D14D1002119
:102E8000002001F04CF9DFF8140601F083F901216C
:102E9000002001F044F9DFF8080601F07BF940F664
:102EA000B83001F08AFBACE00C2001F055F90021AC
:102EB000002001F034F9DFF8AC0B01F06BF90121CF
:102EC000002001F02CF900208DF8100000A801F07E
:102ED00061F90020C0B2302806DAC0B200A941185A
:102EE00000220A74401CF5E701F08CFA002800F07B
:102EF000888001F01EFA0400E4B2012C17D05CD3E4
:102F0000032C15D037D3042C57D1F6B200A8305C6F
:102F1000002803D1F6B200A820213154761CF6B265
:102F2000102E03DB00A800F06FF86AE045E068E0CF
:102F3000F6B200A8305C7F2803DBF6B200A87E2141
:102F40003154F6B200A8305C202803DAF6B200A8AB
:102F500020213154F6B200A8305C401CF6B200A922
:102F60007054F6B200A8305C7F2803DBF6B200A8EC
:102F70002021315421E0F6B200A8305C7F2803DB29
:102F8000F6B200A87E213154F6B200A8305C2028A9
:102F900003DAF6B200A820213154F6B200A8305C62
:102FA000401EF6B200A97054F6B200A8305C20288A
:102FB00003DAF6B200A87E213154B8F10108404688
:102FC000C0B2002819D105208046FFB2FF4310226D
:102FD00000A910A803F0F6F800208DF85000FFB209
:102FE000002F03D0F6B210A85F2131540121002038
:102FF00001F095F810A801F0CDF8322001F0DDFACB
:1030000072E715B0BDE8F08370B504000A26002110
:10301000002001F084F8DFF8600701F0BBF801211F
:10302000002001F07CF8DFF8700401F0B3F8200014
:10303000FFF72EFE200005F0B7FA0500EDB2002DD7
:1030400004D13000461EC0B20028F3D1EDB2002DED
:1030500013D10021002001F062F8DFF89C0701F095
:1030600099F80121002001F05AF8DFF8980801F0E2
:1030700091F840F6B83001F0A0FA70BD48030100A5
:1030800070B592B000A8442106F036FC0525002159
:10309000002001F044F8DFF8A00701F07BF80121DF
:1030A000002001F03CF8DFF8940701F073F801F01C
:1030B000A9F9002842D001F03CF90400E4B2200054
:1030C000401E022835D9C01E34D10021002001F055
:1030D00026F8DFF8B00B01F05DF80121002001F0C7
:1030E0001EF8DFF8B40301F055F800A805F05CFA0B
:1030F0000600F6B2002E04D12800451EC0B20028FA
:10310000F3D1F6B2002E13D10021002001F007F810
:10311000DFF8E40601F03EF80121002000F0FFFF97
:10312000DFF8E00701F036F840F6B83001F045FA74
:1031300004E003E0322001F040FAB8E712B070BDBD
:10314000B4050100640400105C0301007003010079
:103150008403010098030100E409010080969800AF
:1031600040420F00A086010070B59AB000A8DFF8B9
:10317000941B682206F094FB02F00DFE0500002669
:103180000C2000F0E9FFDFF8000C01F003F801214A
:10319000002000F0C4FFEDB2F6B2B54201D101202B
:1031A00000E000201121F6B2222200AB02FB063221
:1031B00001FB002000F0EEFF01F024F9002867D0A9
:1031C00001F0B7F80400E4B2012C23D05CD3032C47
:1031D00021D03DD3042C57D1F6B2022E58D0350061
:1031E0002800C0B202F0BCFD0121002000F097FFD2
:1031F000EDB2F6B2B54201D1012000E0002011216C
:10320000F6B2222200AB02FB063201FB002000F0E6
:10321000C1FF39E03CE0F6B2701C032190FBF1F2F3
:1032200001FB12060121002000F079FFEDB2F6B299
:10323000B54201D1012000E000201121F6B2222286
:1032400000AB02FB063201FB002000F0A3FF1BE0F5
:10325000F6B2002E01D0761E01E002200600012108
:10326000002000F05CFFEDB2F6B2B54201D10120C2
:1032700000E000201121F6B2222200AB02FB063250
:1032800001FB002000F086FF322001F096F993E761
:103290001AB070BDB0FA35E0486B0010DC080100D0
:1032A0002C0B0100340B010070B59AB000A8DFF8B8
:1032B000DC1A682206F0F4FA02F0A4FD05000026EC
:1032C0000C2000F049FFDFF8F00B00F063FF012154
:1032D000002000F024FFEDB2F6B2B54201D101208A
:1032E00000E000201121F6B2222200AB02FB0632E0
:1032F00001FB002000F04EFF01F084F8002867D0A9
:1033000001F017F80400E4B2012C23D05CD3032CA5
:1033100021D03DD3042C57D1F6B2022E58D035001F
:103320002800C0B202F053FD0121002000F0F7FE9A
:10333000EDB2F6B2B54201D1012000E0002011212A
:10334000F6B2222200AB02FB063201FB002000F0A5
:1033500021FF39E03CE0F6B2701C032190FBF1F252
:1033600001FB12060121002000F0D9FEEDB2F6B2F9
:10337000B54201D1012000E000201121F6B2222245
:1033800000AB02FB063201FB002000F003FF1BE054
:10339000F6B2002E01D0761E01E0022006000121C7
:1033A000002000F0BCFEEDB2F6B2B54201D1012022
:1033B00000E000201121F6B2222200AB02FB06320F
:1033C00001FB002000F0E6FE322001F0F6F893E762
:1033D0001AB070BDB09EAEFF8C0B010070B5A2B0EC
:1033E00000A8DFF8D81A882206F05AFA002602F060
:1033F00075FD05000C2000F0AFFEDFF8C40A00F0F8
:10340000C9FE00F0FFFF00283DD000F092FF04004D
:10341000E4B2012C0ED01DD3032C0CD013D3042CFA
:1034200018D1F6B2032E2ED035002800C0B202F01B
:1034300071FD0FE027E0F6B2701C042190FBF1F65D
:1034400006FB110606E0F6B2002E01D0761E01E062
:10345000032006000121002000F061FEEDB2F6B26B
:10346000B54201D1012000E000201121F6B2222254
:1034700000AB02FB063201FB002000F08BFE322085
:1034800001F09BF8BDE722B070BD0000CC01010047
:10349000AC030100C0030100D4030100E8030100F4
:1034A000FC03010080B506F02BFA01BD80B506F0E3
:1034B00079FB01BD2DE9F0418CB002F046FD05001D
:1034C00002A8DFF8001A142206F0EAF9002707A87C
:1034D000DFF8F419102206F0E3F900A8DFF8EC1980
:1034E0000CC90CC0083908385FF000080C2000F047
:1034F00033FEDFF8DC0900F04DFE00F083FF00280A
:1035000055D000F016FF0400E4B2012C0FD026D3F2
:10351000032C10D016D3042C21D15FFA88F818F1AF
:103520000100042190FBF1F808FB110817E02800C6
:1035300002F032FD3BE05FFA88F800A830F918008D
:1035400045190CE05FFA88F800A830F918008542A8
:1035500005D35FFA88F800A830F918002D1A5FFA31
:1035600088F807A850F828302A00DFF8681902A860
:1035700002F00EFE02A803F0E1FD0600F6B2FFB273
:10358000BE4207D00121002000F0C9FDDFF8480944
:1035900000F000FE37000121F6B2D6F11000401015
:1035A000C0B200F0BCFD02A800F0F4FDA5E70CB02D
:1035B000BDE8F08180F7000010B504000021002074
:1035C00000F0ADFDDFF8140900F0E4FD0121012059
:1035D00000F0A5FDE4B2DFF8080950F8240000F07F
:1035E000D9FD0121002000F09AFD7E2000F0B4FDFD
:1035F00010BD00000004001038B500250C2000F0BC
:10360000ABFD2800C0B2FFF7D7FF00F0FBFE00289B
:1036100032D000F08EFE0400E4B2012C14D023D38B
:10362000032C12D019D3042C1ED1EDB2DFF8B4084C
:1036300050F82500002806D0EDB2DFF8A80850F8B1
:103640002500804710E017E016E0EDB2681C0A2163
:1036500090FBF1F201FB120506E0EDB2002D01D066
:103660006D1E01E0092005002800C0B2FFF7A4FF8D
:10367000322000F0A2FFC8E731BD10B504000021E0
:10368000002000F04CFDDFF8600800F083FD012110
:10369000012000F044FDE4B2DFF8500850F82400A7
:1036A00000F078FD0121002000F039FD7E2000F0BF
:1036B00053FD10BD940B010038B500250C2000F01F
:1036C0004BFD2800C0B2FFF7D8FF00F09BFE00289A
:1036D00032D000F02EFE0400E4B2012C14D023D32B
:1036E000032C12D019D3042C1ED1EDB2DFF8000840
:1036F00050F82500002806D0EDB2DFF8F40750F8A6
:103700002500804710E017E016E0EDB2681C0621A6
:1037100090FBF1F201FB120506E0EDB2002D01D0A5
:103720006D1E01E0052005002800C0B2FFF7A5FFCF
:10373000322000F042FFC8E731BD10B5040000217F
:10374000002000F0ECFCDFF8AC0700F023FD0121C5
:10375000012000F0E4FCE4B2DFF89C0750F82400FC
:1037600000F018FD0121002000F0D9FC7E2000F0BF
:10377000F3FC10BD000000001004010038B5002566
:103780002800C0B2FFF7D9FF00F03CFE002832D07D
:1037900000F0CFFD0400E4B2012C14D023D3032C9D
:1037A00012D019D3042C1ED1EDB2DFF8500750F817
:1037B0002500002806D0EDB2DFF8400750F82500BC
:1037C000804710E017E016E0EDB2681C042190FB82
:1037D000F1F505FB110506E0EDB2002D01D06D1EDF
:1037E00001E0032005002800C0B2FFF7A6FF322049
:1037F00000F0E3FEC8E731BD2404010010B5040069
:103800000021002000F08BFCDFF8F40600F0C2FC81
:103810000121012000F083FCE4B2DFF8E80650F853
:10382000240000F0B7FC0121002000F078FC7E208D
:1038300000F092FC10BD00004C0401006004010087
:1038400038B500250C2000F087FC2800C0B2FFF737
:10385000D5FF00F0D7FD002832D000F06AFD04004B
:10386000E4B2012C14D023D3032C12D019D3042C8E
:103870001ED1EDB2DFF8900650F82500002806D0E2
:10388000EDB2DFF8840650F82500804710E017E01D
:1038900016E0EDB2681C042190FBF1F505FB110563
:1038A00006E0EDB2002D01D06D1E01E00320050001
:1038B0002800C0B2FFF7A2FF322000F07EFEC8E76A
:1038C00031BD00007404010010B504000021002087
:1038D00000F025FCDFF8280600F05CFC0121012047
:1038E00000F01DFCE4B2DFF8240650F8240000F0DC
:1038F00051FC0121002000F012FC7E2000F02CFC85
:1039000010BD0000380401008804010038B500250E
:1039100041F6FB10FCF713FF002803D10C2000F048
:103920001BFC3AE02800C0B2FFF7CEFF00F06AFDB2
:10393000002832D000F0FDFC0400E4B2012C14D0C9
:1039400023D3032C12D019D3042C1ED1EDB2DFF8EF
:10395000C00550F82500002806D0EDB2DFF8B0050C
:1039600050F82500804710E017E016E0EDB2681C23
:103970000B2190FBF1F201FB120506E0EDB2002DE8
:1039800001D06D1E01E00A2005002800C0B2FFF73B
:103990009BFF322000F011FEC8E731BD9C040100FE
:1039A00030B587B001F091FD050000A8DFF864157F
:1039B0000CC90CC0083908380C2000F0CDFBDFF82A
:1039C000580500F0E7FB00F0B4FC0400E4B2012C61
:1039D00016D02FD3032C20D026D3042C2AD106F0C6
:1039E00082FA0A2000F0E9FD280080B201F095FD7E
:1039F0000A2000F0E2FD0021012006F041FA19E062
:103A000006F071FA0A2000F0D8FD280080B201F01B
:103A100084FD0C2000F0A0FB22E0ADB2642D00DAA2
:103A20006D1C06F060FA05E0ADB2022D00DB6D1EE4
:103A300006F059FA06F0B7FA002801D0009B00E022
:103A4000019BADB22A00DFF8D41402A802F0A0FB5B
:103A50000121002000F063FB02A800F09BFBB2E70D
:103A600007B030BD240B010030B587B001F05CFE1B
:103A7000050000A8DFF8A8140CC90CC008390838E4
:103A80000C2000F069FBDFF89C0400F083FB00F0E1
:103A900050FC0400E4B2012C16D02CD3032C1DD012
:103AA00023D3042C27D106F01EFA012000F085FD57
:103AB000280080B201F060FE012000F07EFD0021B0
:103AC000002006F0DDF916E006F00DFA280080B2BD
:103AD00001F052FE0C2000F03FFB22E0ADB2642D5D
:103AE00000DA6D1C06F0FFF905E0ADB2022D00DB37
:103AF0006D1E06F0F8F906F056FA002801D0009B7A
:103B000000E0019BADB22A00DFF8101402A802F019
:103B10003FFB0121002000F002FB02A800F03AFB6D
:103B2000B5E707B030BD30B58BB0042001F06BF9BC
:103B300005000C2000F010FBDFF8EC0300F02AFB7E
:103B400000F0F7FB0400E4B2012C1DD02AD3032CB3
:103B500023D024D3042C25D1290089B2042001F0DC
:103B600004F90121002000F0DAFADFF8C00300F0C8
:103B700011FB280002F0A1FF0121002000F0CFFA84
:103B8000D54800F007FB0DE0290089B2042001F0C0
:103B9000ECF80C2000F0E0FA35E06D1C02E0062D98
:103BA00000D36D1E6420B5FBF0F00A21B0FBF1F2EA
:103BB00001FB120030308DF800000A20B5FBF0F058
:103BC0000A21B0FBF1F201FB120030308DF8010048
:103BD0002C208DF802000A20B5FBF0F100FB1150FB
:103BE00030308DF8030000208DF8040000AAD04981
:103BF00005A802F0CDFA0121002000F090FA05A8F6
:103C000000F0C8FA9CE70BB030BD70B586B002F08A
:103C1000E6F9050002F02DFA06000C2000F09CFAEF
:103C200000F0F0FB00282AD000F083FB0400E4B28F
:103C3000012C06D007D3032C04D004D3042C02D1CA
:103C400001E01CE0FFE72A00BA4900A802F0A0FA50
:103C50000021002000F063FA00A800F09BFA320077
:103C6000B54900A802F094FA0121002000F057FAAB
:103C700000A800F08FFA322000F09FFCD0E706B0D9
:103C800070BD0000B004010038B500250C2000F024
:103C900063FA0021002000F042FAA84800F07AFA06
:103CA00000F0B0FB00282CD000F043FB0400E4B28D
:103CB000012C08D00DD3032C06D008D3042C08D136
:103CC00095F0FF0505E01CE00020050001E0FF2065
:103CD0000500322000F071FC2800C0B204F082F927
:103CE0000121002000F01BFAEDB2002D03D1944811
:103CF00000F050FA02E0934800F04CFA03F020FF85
:103D0000CEE731BDE8F2000080B502F019FA80B2CA
:103D1000FCF715FD002836D08B4800F039F8ADF8D7
:103D200000008A4800F034F8ADF80200BDF8000049
:103D3000BDF80210884215D1BDF8000002F0E3F989
:103D40000C2000F009FA824800F024FA012100203A
:103D500000F0E5F97F4800F01DFA40F6B83000F0B9
:103D60002CFC10E00C2000F0F7F97B4800F012FA70
:103D70000121002000F0D3F9784800F00BFA40F65A
:103D8000B83000F01AFC01BDC404010050F300007B
:103D90002DE9F04385B00400002600A870490CC945
:103DA0000CC0083908385FF000085FF001090C20EA
:103DB00000F0D2F9200000F0EDF900F023FB00281C
:103DC00075D000F0B6FA0500EDB2012D23D046D330
:103DD000032D23D033D3042D41D1761CF6B2042E0B
:103DE00018DB9DF800004FF47A719DF801206423E0
:103DF0005A4301FB00209DF802100A2202FB010039
:103E00009DF80310081800F53C50B030070038004A
:103E100080B24EE023E04FF6FF704AE0F6B200A811
:103E2000305C401CF6B200A97054F6B200A8305CB9
:103E30003A2803DBF6B200A8302131540FE0F6B285
:103E400000A8305C401EF6B200A97054F6B200A87B
:103E5000305C302803DAF6B200A839213154B9F1C8
:103E600001094846C0B200281DD1042081465FFAEE
:103E700088F87FEA0808042200A902A802F0A2F943
:103E800000208DF80C005FFA88F8B8F1000F03D01D
:103E9000F6B202A85F2131540121062000F03FF95B
:103EA00002A800F077F9322000F087FB85E74FF693
:103EB000FF7005B0BDE8F083D804010060F2000097
:103EC00050070100EC04010060070100AC0B010089
:103ED00000050100B40B010014050100700701008A
:103EE0003003001060F600002805010034040010C3
:103EF0000CF800003C05010078040010C007010028
:103F00005005010088040010D0070100D8020010FD
:103F100084F50000CC0B010064050100800701005E
:103F2000D40B0100780501008C050100A0050100FB
:103F3000F009010090070100A0070100E402010060
:103F4000FC090100080A0100140A0100200A01000E
:103F5000B0070100DC0B0100E40B01002C0A01009A
:103F6000EC0B010070B504000D009D48006850F096
:103F700080009B4908609A48006850F040009849CA
:103F800008609748006850F0200095490860944800
:103F9000006850F01000924908609148006850F4A1
:103FA00000708F4908608E48006850F400708C499A
:103FB00008608B48006850F48070894908604FF4AD
:103FC000FA7000F0FAFA00200600F6B2032E07DAC3
:103FD000032000F030F8642000F0EFFA761CF4E7DC
:103FE000022000F028F8142000F0E7FA54F0200135
:103FF000C9B2002000F074F8142000F0DEFA55F089
:104000000801C9B2002000F06BF8142000F0D5FAC6
:1040100055F00800734908701021002000F060F886
:104020000A2000F0CAFA0621002000F059F80A2000
:1040300000F0C3FA70BD6C49096851F480716A4A96
:10404000116000BF00BF00BF00BF00BF00BFC107BD
:1040500006D56549096851F08001634A116005E0A1
:104060006249096851F08001604A1160810706D5F4
:104070005D49096851F040015B4A116005E05B4908
:10408000096851F04001594A1160410706D5564967
:10409000096851F02001544A116005E0534909684C
:1040A00051F02001514A1160010706D54E490968B7
:1040B00051F010014C4A116005E04C49096851F07B
:1040C00010014A4A116000BF00BF00BF00BF00BF1F
:1040D00000BF4649096851F48071444A1160704735
:1040E00038B504000D00E4B2002C06D03E4800684C
:1040F00050F400703C49086005E03C48006850F40A
:1041000000703A490860EDB22809FFF794FF2800D3
:10411000C0B2FFF790FF022000F04FFA31BD38B572
:1041200004000D00E4B2102C09DAEDB2002D06D126
:10413000B4F18001C9B20020FFF7D2FF08E0EDB270
:10414000012D05D1B4F14001C9B20020FFF7C8FF2D
:10415000042000F032FA31BD10B50400E4B22000B2
:104160000A280CD00C2802D00D2808D00CE0012120
:104170000020FFF7B5FF0C2000F01FFA09E0022134
:104180000120FFF7ADFF04E02100C9B20120FFF7D5
:10419000A7FF10BD10B504002078002804D02078B7
:1041A000FFF7DAFF641CF7E710BD80B50D48007813
:1041B00050F002000B4908700A4801780020FFF710
:1041C0008FFF01BD80B50748007810F0FD0005495C
:1041D0000870044801780020FFF782FF01BD00004D
:1041E00000C00920F46B001018C009201CC0092071
:1041F0009B480068002804D099480068401E9849F0
:10420000086098480088002804D096480088401E1E
:104210009449088094480088002805D09248008876
:10422000401E9149088083E0904800789049002220
:1042300042548E4800788E49405C8E490968C1F32B
:10424000002111F0010191F00101C9B20843874931
:104250000978874A885487480068400501D50020BE
:1042600000E0022081490978814A895C08437F493E
:1042700009787F4A88547F480068800501D500206E
:1042800000E0042079490978794A895C0843774934
:104290000978774A885477480068400401D500209F
:1042A00000E0082071490978714A895C08436F4928
:1042B00009786F4A88546F480068800001D5002053
:1042C00000E0102069490978694A895C0843674918
:1042D0000978674A885467480068002801D540205B
:1042E00000E0002061490978614A895C08435F4920
:1042F00009785F4A88545F480068400001D5202053
:1043000000E0002059490978594A895C0843574917
:104310000978574A885455480078401C082190FB7A
:10432000F1F202FB1102514802704F480621018050
:10433000704710B4002001000020C0B2082809DA3C
:10434000C0B24B4A825C12F00902092A00D1491C12
:10435000401CF2E7C9B2052901DB082050E000202B
:10436000C0B2052848DA002211000022D2B2082A81
:1043700009DAD2B23E4BD35C01248440234200D000
:10438000491C521CF2E7C9B2052933DB354A1288B1
:10439000002A1BD1384A1278002A0DD0364A002351
:1043A0001370304A4FF4FA6313802D4A4EF660239F
:1043B0001360401CC0B223E02A4A32231380284AEB
:1043C0004EF660231360401CC0B219E02A4A1278EE
:1043D000002A0DD0284A00231370224A4FF4FA63B2
:1043E00013801F4A4EF660231360401CC0B207E0E2
:1043F000002005E0401CB3E71F48012202700020A6
:1044000010BC704716480068704700200021C9B2F0
:10441000082907DAC9B2164A8A5C520600D5401C40
:10442000491CF4E7C0B2052801DB012000E00020B0
:10443000C0B2704700200021C9B2082907DAC9B20A
:104440000B4A8A5C920600D5401C491CF4E7C0B2B6
:10445000052801DB012000E00020C0B27047000009
:10446000706B0010F0040010F2040010F26B0010EA
:104470000C6B001034C00920F36B00102DE9FB4FCA
:1044800082B014000E9D0F9E109FDDF8448039000D
:10449000200080B200F052FB8246BAF1000F75D0C6
:1044A000A4B2DAF8300010EB8400001F83465FEA04
:1044B000DB0B5FEACB0BA4B2009443462A000399BE
:1044C000504600F0C6FA049A0299584605F09EFD3F
:1044D000CAF80000002E01D0C6F800A005F0BEFD0D
:1044E000DFF820070068401CDFF818170860DFF8C5
:1044F0006007006800280BD1DFF85407C0F800A05F
:10450000DFF800070068012811D100F0C3FA0EE0BF
:10451000DFF840070068002809D1DFF83407006899
:10452000C06A854203D3DFF82807C0F800A0DFF88F
:1045300028070068DAF82C10884204D2DAF82C0038
:10454000DFF814170860DFF814070068401CDFF874
:104550000C170860DFF808070068DAF82C108842AA
:1045600004D2DAF82C00DFF8F81608601AF104011A
:10457000DAF82C001422DFF8EC3602FB003005F0EC
:10458000F5FD0120814605F072FD02E05FF0FF308D
:104590008146B9F1010F0CD1DFF8B8060068002898
:1045A00007D0DFF8AC060068C06AA84201D205F067
:1045B00050FD484605B0BDE8F08F70B504000026F8
:1045C000002C2BD000F050F8DFF8A406006820186B
:1045D0000500DFF87C060068001D05F0F4FDDFF83B
:1045E000700600684560DFF888060068854209D2D9
:1045F000DFF85C060068011DDFF87806006805F04A
:10460000C4FD08E0DFF848060068011DDFF8680611
:10461000006805F0BAFD00F02FF80600002E01D169
:1046200005F017FD70BD1FB500200390002002901B
:10463000002001900020009000235022DFF848164F
:104640000FF20540FFF71AFF0400012C0BD105F013
:10465000EBFDDFF8000601210160DFF81406002100
:10466000016005F0E0FC1FBDDFF818060068401C83
:10467000DFF810160860704770B5002505F0EEFCF5
:10468000DFF800060068401EDFF8F8150860DFF864
:10469000F405006800285BD1DFF868050068002891
:1046A00056D00026DFF8D8050068002804D0DFF8CF
:1046B000D005C068C46800E00024002C23D014F1A9
:1046C000180005F080FD201D05F07DFDDFF8900548
:1046D0000068E16A884203D2E06ADFF88415086066
:1046E000211DE06A1422DFF87C3502FB003005F062
:1046F0003DFDE06ADFF858150968C96A8842D1D3E0
:1047000001200600CEE7DFF884050068002810D0FD
:10471000DFF878050068002809D000F01DF8DFF800
:104720006C050068401EDFF864150860F0E70120A2
:104730000600012E04D0DFF858050068012807D1D3
:1047400001200500DFF848050021016005F081FC2B
:1047500005F08DFC280070BD10B5DFF82805006855
:10476000002852D1DFF808050068401CDFF800156A
:104770000860DFF8FC040068002813D1DFF8F814A3
:1047800009680800DFF8F014DFF8E82412680A600E
:10479000DFF8E0140860DFF8FC140968491CDFF852
:1047A000F4241160DFF8D00400680068002805D008
:1047B000DFF8C4040068C068C46800E00024002C6E
:1047C0002AD0DFF8AC0400686168884224D3201D39
:1047D00005F0F9FCA06A002803D014F1180005F0D8
:1047E000F2FCDFF87C040068E16A884203D2E06AE8
:1047F000DFF86C140860211DE06A1422DFF86434CD
:1048000002FB003005F0B2FCCCE7DFF88004006862
:10481000401CDFF87814086010BD80B5DFF8640430
:104820000068002804D0DFF868040121016054E02A
:10483000DFF81C040068006BDFF8141409680968CD
:10484000884209D3DFF80804006810F13401DFF86A
:104850000004006805F008FE1422DFF83C14DFF8BD
:10486000F0030068006B05F001FE002809D0DFF8B6
:10487000E003006810F13401DFF8D403006805F0AC
:10488000F3FDDFF8DC0300681421DFF8D82301FB17
:1048900000200068002807D1DFF8C4030068401E2C
:1048A000DFF8BC130860ECE7DFF8B41309681422E2
:1048B000DFF8B03302FB013108004168496841600C
:1048C000416810F10802914202D141684968416093
:1048D0004068C068DFF87813086001BD70B5040057
:1048E0000D00DFF86C03006810F11801200005F0DE
:1048F0004CFCDFF85C030068001D05F064FC15F15A
:10490000010F08D1DFF848030068011DDFF86C03D0
:1049100005F02CFC20E0DFF858030068281806009A
:10492000DFF82C0300684660DFF844030068864225
:1049300009D2DFF81C030068011DDFF838030068A6
:1049400005F023FC08E0DFF808030068011DDFF82C
:104950002803006805F019FC70BD70B504002068DC
:10496000002802D0E068C66800E0002616F11800B2
:1049700005F029FCDFF80C030068002813D1301D76
:1049800005F021FCB6480068F16A884202D2F06A5C
:10499000B3490860311DF06A1422B24B02FB0030AB
:1049A00005F0E4FB04E016F11801B54805F0DEFB64
:1049B000F06AA7490968C96A884202D30120050044
:1049C00001E000200500280070BDB24909680160BF
:1049D000A74909684160704770B504000D0005F0F3
:1049E0003DFB286810F1010F02D10020060022E0F3
:1049F000A84800682168884207D09D48006861681F
:104A0000884202D30120060015E0994800686168D9
:104A1000401A296888420CD2286895490968401ACA
:104A20006168081828602000FFF7CFFF002006000B
:104A300001E00120060005F01AFB300070BD94482B
:104A4000012101607047000010B5040000F045F836
:104A5000FCE7F8B504000D0016001F000C22290029
:104A600014F1340005F034FD002084F83F00052ED9
:104A700001D304200600E662A664201D05F073FB46
:104A800014F1180005F06FFB2461D6F10500A06158
:104A90006462F1BD10B500200400052C07D214207B
:104AA000704900FB041005F04FFB641CF5E77B48E0
:104AB00005F04AFB7A4805F047FB714805F044FBD6
:104AC000694805F041FB6D4805F03EFB6A487349B3
:104AD000016068487249016010BD38B563480068DC
:104AE00000282AD0FFF7C0FD5F480068002801D1E8
:104AF000012400E00024E4B2FFF7BEFD002C1CD12D
:104B000005F0ACFA58480068002803D05648C06841
:104B1000C56800E00025281D05F055FB39480068F0
:104B2000401E3849086051480068401E4F490860DF
:104B300005F09DFA280000F024F831BD70B504009E
:104B40000D004C2005F0FAFC0600002E17D0002DB9
:104B500004D1A4B2A00005F0F1FC00E0280030630D
:104B6000306B002805D1300005F010FD0020060054
:104B700005E0A4B2A200A521306B05F00DFD3000C8
:104B800070BD10B50400206B05F000FD200005F09D
:104B9000FDFC10BD2E4909680800704738B50400B7
:104BA0002500E86A2A490968C96A884229D2284842
:104BB0000068C06AD0F10500A8616869E96A14223A
:104BC000284B02FB0131884217D1281D05F0FBFA62
:104BD0001F480068C06AE86221480068E96A8842A4
:104BE00002D2E86A1E490860291DE86A14221D4B9A
:104BF00002FB003005F0BAFA03E015480068C06A0D
:104C0000E86231BD906B001038B504002500002C1F
:104C10001CD0E86AA96C884218D0281D05F0D3FA88
:104C2000A86CE862E86AD0F10500A8610C48006849
:104C3000E96A884202D2E86A09490860291DE86ADF
:104C40001422084B02FB003005F090FA31BD000041
:104C5000806B0010A06B0010986B0010B46B0010FC
:104C60009C6B001000690010DC6A00108C6B001057
:104C7000946B0010886B0010846B0010F06A0010B9
:104C8000C86A0010A46B00100C0C0100A86B001087
:104C9000AC6B0010B06B00102C060100A06A001075
:104CA000B46A0010F0B583B004000D001600280CA3
:104CB0008DF80000280A8DF8010028008DF8020008
:104CC000300C8DF80300300A8DF8040030008DF8A8
:104CD00005000622002100A805F075FC0700BFB200
:104CE000380A8DF8060038008DF80700082200A960
:104CF000E4B2844850F8240005F0B0FEF7BD7CB55E
:104D000004000D001600082200A9E4B27D4850F806
:104D1000240005F0BFFE0622002100A805F053FC88
:104D200001009DF806009DF8072052EA002292B289
:104D300089B28A4217D19DF800009DF801301B020C
:104D400053EA00409DF80230184328609DF80300A4
:104D50009DF804301B0253EA00409DF805301843CB
:104D60003060FF2000E0002076BD70B582B0040006
:104D70000E00B6B2300A8DF8000030008DF8010048
:104D80000222002100A805F01EFC0500ADB2280A91
:104D90008DF8020028008DF80300E4B2002C08D042
:104DA000022C14D00CD3042C1FD017D3052C23D0E5
:104DB00028E0042200A94FF4885005F04FFE21E0BE
:104DC000042200A941F2041005F048FE1AE0042272
:104DD00000A941F2081005F041FE13E0042200A9E9
:104DE00041F20C1005F03AFE0CE0042200A941F259
:104DF000101005F033FE05E0042200A941F2141062
:104E000005F02CFE73BD2DE9F04182B00400E4B240
:104E1000002C08D0022C1CD010D3042C33D025D366
:104E2000052C3BD045E0042200A94FF4885005F042
:104E300031FE1E200600B42007003AE0042200A93B
:104E400041F2041005F026FE3C200600C8200700B1
:104E50002FE0042200A941F2081005F01BFE4FF4D8
:104E6000FA60060044F25060070022E0042200A924
:104E700041F20C1005F00EFE4FF4FA60060044F209
:104E80005060070015E0042200A941F2101005F05F
:104E900001FE01200600C82007000AE0042200A944
:104EA00041F2141005F0F6FD012006004FF47A706F
:104EB00007000222002100A805F085FB80461FFAAA
:104EC00088F89DF802009DF8031051EA0020804503
:104ED00013D19DF800009DF8011051EA0020050053
:104EE000ADB2B6B2B54200D23500BFB2ADB2AF423C
:104EF00000D23D00280080B201E0300080B2BDE861
:104F0000F6810000F00701002DE9F04782B00600AD
:104F10000F00904699460A9C0B9DF6B2002E01D0D8
:104F2000012000E000208DF80000FFB2002F01D02A
:104F3000022000E000209DF8001008438DF80000DA
:104F40005FFA88F8B8F1000F01D0042000E00020DB
:104F50009DF8001008438DF800005FFA89F9B9F157
:104F6000000F01D0082000E000209DF80010084349
:104F70008DF80000E4B2002C01D0102000E00020E9
:104F80009DF8001008438DF80000EDB2002D01D00F
:104F9000202000E000209DF8001008438DF800005C
:104FA0000122002100A805F00EFB82461FFA8AFAB2
:104FB0005FEA1A208DF8010050468DF802000322A6
:104FC00000A941F2281005F049FDBDE8F3872DE95D
:104FD000F84304000D0016001F00DDF82080DDF806
:104FE0002490032200A941F2281005F053FD01226C
:104FF000002100A805F0E7FA80B29DF80110B0EB9F
:10500000012F01D1012100E00021C9B29DF8022049
:105010001143002932D09DF80010C90701D5FF21A6
:1050200000E0002121709DF80010890701D5FF21C3
:1050300000E0002129709DF80010490701D5FF21EB
:1050400000E0002131709DF80010090701D5FF2113
:1050500000E0002139709DF80010C90601D5FF213C
:1050600000E0002188F800109DF80010890601D5A5
:10507000FF2100E0002189F800100DE0FF212170E0
:10508000FF212970FF213170FF213970FF2188F83D
:105090000010FF2189F80010BDE8F1831CB506223D
:1050A00000A94FF4005005F0F5FC0422002100A8EF
:1050B00005F089FA0400A4B29DF804009DF80510DB
:1050C00051EA002084420ED19DF800009DF80110A5
:1050D000090451EA00609DF8021050EA01209DF891
:1050E0000310084300E0002016BD30B583B0040073
:1050F000200E8DF80000200C8DF80100200A8DF89C
:10510000020020008DF803000422002100A805F011
:105110005AFA0500ADB2280A8DF8040028008DF86F
:105120000500062200A94FF4005005F097FC37BD9A
:105130001CB5062200A94FF4A85005F0ABFC0422D0
:10514000002100A805F03FFA0400A4B29DF8040075
:105150009DF8051051EA002084420ED19DF8000010
:105160009DF80110090451EA00609DF8021050EA10
:1051700001209DF80310084300E0002016BD30B563
:1051800083B00400200E8DF80000200C8DF8010083
:10519000200A8DF8020020008DF80300042200216F
:1051A00000A805F010FA0500ADB2280A8DF8040039
:1051B00028008DF80500062200A94FF4A85005F03C
:1051C0004DFC37BD1CB5062200A941F2505005F038
:1051D00061FC0422002100A805F0F5F90400A4B246
:1051E0009DF804009DF8051051EA002084420ED17C
:1051F0009DF800009DF80110090451EA00609DF837
:10520000021050EA01209DF80310084300E000203E
:1052100016BD30B583B00400200E8DF80000200CC0
:105220008DF80100200A8DF8020020008DF803009F
:105230000422002100A805F0C6F90500ADB2280A35
:105240008DF8040028008DF80500062200A941F21F
:10525000505005F003FC37BD10B582B0042200A900
:1052600041F2705005F016FC0222002100A805F062
:10527000AAF90400A4B29DF802009DF8031051EAB7
:105280000020844207D19DF800009DF8011051EAEA
:10529000002080B200E0002016BD38B50400A4B2A2
:1052A000200A8DF8000020008DF801000222002164
:1052B00000A805F088F90500ADB2280A8DF80200B3
:1052C00028008DF80300042200A941F2705005F077
:1052D000C5FB31BD10B582B0042200A94FF4AC501B
:1052E00005F0D8FB0222002100A805F06CF90400AB
:1052F000A4B29DF802009DF8031051EA00208442F8
:1053000007D19DF800009DF8011051EA002080B2FD
:1053100000E0002016BD38B50400A4B2200A8DF8C4
:10532000000020008DF801000222002100A805F0F5
:105330004AF90500ADB2280A8DF8020028008DF860
:105340000300042200A94FF4AC5005F087FB31BDE7
:1053500038B50400A4B2200A8DF8000020008DF8B2
:1053600001000222002100A805F02DF90500ADB2D0
:10537000280A8DF8020028008DF80300042200A9F5
:1053800041F2905005F06AFB31BD38B50400A4B27B
:10539000200A8DF8000020008DF801000222002173
:1053A00000A805F010F90500ADB2280A8DF802003A
:1053B00028008DF80300042200A941F2955005F061
:1053C0004DFB31BD10B582B0042200A941F29550C9
:1053D00005F060FB0222002100A805F0F4F80400AB
:1053E000A4B29DF802009DF8031051EA0020844207
:1053F00018D19DF800009DF8011051EA002004002A
:10540000A4B2B4F57A6F02DA4FF47A600400A4B261
:1054100044F25160844202DB44F2506004002000F8
:1054200080B201E041F2883016BD38B50400A4B264
:10543000200A8DF8000020008DF8010002220021D2
:1054400000A805F0C0F80500ADB2280A8DF80200EA
:1054500028008DF80300042200A94FF4AD5005F098
:10546000FDFA31BD10B582B0042200A94FF4AD5051
:1054700005F010FB0222002100A805F0A4F80400AA
:10548000A4B29DF802009DF8031051EA0020844266
:1054900018D19DF800009DF8011051EA0020040089
:1054A000A4B2B4F57A6F02DA4FF47A600400A4B2C1
:1054B00044F25160844202DB44F250600400200058
:1054C00080B201E041F2883016BD10B582B00422EE
:1054D00000A941F2A55005F0DDFA0222002100A842
:1054E00005F071F80400A4B29DF802009DF80310C5
:1054F00051EA002084420ED19DF800009DF8011071
:1055000051EA00200400A4B2652C01DB64200400F1
:10551000200080B200E0642016BD38B50400A4B2BB
:10552000200A8DF8000020008DF8010002220021E1
:1055300000A805F048F80500ADB2280A8DF8020071
:1055400028008DF80300042200A941F2A55005F0BF
:1055500085FA31BD10B582B0042200A941F2B050E5
:1055600005F098FA0222002100A805F02CF80400AA
:10557000A4B29DF802009DF8031051EA0020844275
:1055800015D19DF800009DF8011051EA002004009B
:10559000A4B2002C01D101200400A4B2B4F5166F0E
:1055A00002DD4FF416600400200080B200E001200C
:1055B00016BD38B50400A4B2200A8DF80000200002
:1055C0008DF801000222002100A804F0FCFF050074
:1055D000ADB2280A8DF8020028008DF803000422DD
:1055E00000A941F2B05005F039FA31BD10B582B0D2
:1055F000042200A941F2B55005F04CFA0222002124
:1056000000A804F0E0FF0400A4B29DF802009DF899
:10561000031051EA0020844218D19DF800009DF843
:10562000011051EA00200400A4B2B4F57A6F02DA46
:105630004FF47A600400A4B244F62160844202DB95
:1056400044F620600400200080B200E0012016BD76
:1056500038B50400A4B2200A8DF8000020008DF8AF
:1056600001000222002100A804F0ADFF0500ADB248
:10567000280A8DF8020028008DF80300042200A9F2
:1056800041F2B55005F0EAF931BD10B582B00422FF
:1056900000A94FF4AE5005F0FDF90222002100A848
:1056A00004F091FF0400A4B29DF802009DF80310DD
:1056B00051EA0020844218D19DF800009DF80110A5
:1056C00051EA00200400A4B2B4F57A7F02DA4FF464
:1056D0007A700400A4B243F69920844202DB43F6B8
:1056E00098200400200080B200E0012016BD38B5EB
:1056F0000400A4B2200A8DF8000020008DF80100FB
:105700000222002100A804F05EFF0500ADB2280AC5
:105710008DF8020028008DF80300042200A94FF440
:10572000AE5005F09BF931BD10B582B0042200A93E
:1057300041F2C55005F0AEF90222002100A804F0A4
:1057400042FF0400A4B29DF802009DF8031051EA44
:10575000002084420ED19DF800009DF8011051EA0E
:1057600000200400A4B2652C01DB642004002000AA
:1057700080B200E0642016BD38B50400A4B2200A4F
:105780008DF8000020008DF801000222002100A801
:1057900004F019FF0500ADB2280A8DF802002800B8
:1057A0008DF80300042200A941F2C55005F056F916
:1057B00031BD10B582B0042200A941F2D05005F0ED
:1057C00069F90222002100A804F0FDFE0400A4B241
:1057D0009DF802009DF8031051EA002084420ED18A
:1057E0009DF800009DF8011051EA00200400A4B2C9
:1057F000652C01DB64200400200080B200E0012061
:1058000016BD38B50400A4B2200A8DF800002000AF
:105810008DF801000222002100A804F0D4FE05004A
:10582000ADB2280A8DF8020028008DF8030004228A
:1058300000A941F2D05005F011F931BD38B504008E
:10584000A4B2200A8DF8000020008DF80100022289
:10585000002100A804F0B7FE0500ADB2280A8DF8BB
:10586000020028008DF80300042200A941F2D45060
:1058700005F0F4F831BD10B582B0042200A941F260
:10588000D45005F007F90222002100A804F09BFE85
:105890000400A4B29DF802009DF8031051EA002014
:1058A000844210D19DF800009DF8011051EA0020BB
:1058B0000400A4B2B4F5FA7F02DD4FF4FA700400DC
:1058C000200080B200E0012016BD30B583B0040096
:1058D000200E8DF80000200C8DF80100200A8DF8B4
:1058E000020020008DF803000422002100A804F02B
:1058F0006AFE0500ADB2280A8DF8040028008DF874
:105900000500062200A941F2D85005F0A7F837BDDE
:105910001CB5062200A941F2D85005F0BBF80422BC
:10592000002100A804F04FFE0400A4B29DF804007A
:105930009DF8051051EA002084420ED19DF8000028
:105940009DF80110090451EA00609DF8021050EA28
:1059500001209DF80310084300E0002016BD38B573
:105960000400E4B2002C01D0FF2004008DF80040B8
:105970000122002100A804F026FE0500ADB2280A8D
:105980008DF8010028008DF80200032200A94FF4D1
:10599000B05005F063F831BD10B582B0032200A904
:1059A0004FF4B05005F076F80122002100A804F071
:1059B0000AFE0400A4B29DF801009DF8021051EA0D
:1059C0000020844202D19DF8000000E0002016BDB6
:1059D00038B50400A4B2200A8DF8000020008DF82C
:1059E00001000222002100A804F0EDFD0500ADB287
:1059F000280A8DF8020028008DF80300042200A96F
:105A000041F2106005F02AF831BD10B582B00422D1
:105A100000A941F2106005F03DF80222002100A823
:105A200004F0D1FD0400A4B29DF802009DF803101B
:105A300051EA0020844207D19DF800009DF8011032
:105A400051EA002080B200E0412016BD10B582B0BE
:105A5000042200A941F2086005F01CF8022200218E
:105A600000A804F0B0FD0400A4B29DF802009DF867
:105A7000031051EA0020844207D19DF800009DF8F0
:105A8000011051EA002080B200E0052016BD70B57B
:105A900086B004000D001122290000A800F092FB3E
:105AA0001122002100A804F08EFD0600B6B2300AD3
:105AB0008DF8110030008DF81200132200A9E4B215
:105AC000132000FB04F010F5B85004F0C7FF06B037
:105AD00070BD70B596B004000D0005A8DFF8A816DB
:105AE000442203F0DDFE132200A9E4B2132000FBE0
:105AF00004F010F5B85004F0CDFF1122002100A8E9
:105B000004F061FD0600B6B29DF811009DF8121078
:105B100051EA0020864205D1112200A9280000F098
:105B200051FB08E01122E4B2112005A900FB041189
:105B3000280000F047FB16B070BD38B50400E4B291
:105B4000002C01D0FF2004008DF80040012200212C
:105B500000A804F038FD0500ADB2280A8DF8010058
:105B600028008DF80200032200A94FF4C85004F069
:105B700075FF31BD10B582B0032200A94FF4C850A3
:105B800004F088FF0122002100A804F01CFD04009D
:105B9000A4B29DF801009DF8021051EA0020844251
:105BA00002D19DF8000000E0002016BD38B50400C9
:105BB000A4B2200A8DF8000020008DF80100022216
:105BC000002100A804F0FFFC0500ADB2280A8DF802
:105BD000020028008DF80300042200A941F60410F9
:105BE00004F03CFF31BD10B582B0042200A941F69B
:105BF000041004F04FFF0222002100A804F0E3FC8F
:105C00000400A4B29DF802009DF8031051EA0020A0
:105C1000844218D19DF800009DF8011051EA00203F
:105C20000400A4B2B4F57A6F02DA4FF47A6004008B
:105C3000A4B244F25160844202DB44F2506004009A
:105C4000200080B201E041F2707016BD10B582B044
:105C5000042200A941F6081004F01CFF02220021D2
:105C600000A804F0B0FC0400A4B29DF802009DF866
:105C7000031051EA0020844213D19DF800009DF8E2
:105C8000011051EA00200400A4B2322C01DA3220C3
:105C90000400A4B28D2C01DB8C200400200080B213
:105CA00000E0502016BD38B50400A4B2200A8DF8DB
:105CB000000020008DF801000222002100A804F05D
:105CC00082FC0500ADB2280A8DF8020028008DF88C
:105CD0000300042200A941F6081004F0BFFE31BD04
:105CE00038B50400A4B2200A8DF8000020008DF819
:105CF00001000222002100A804F065FC0500ADB2FD
:105D0000280A8DF8020028008DF80300042200A95B
:105D10004FF4F95004F0A2FE31BD10B582B0042258
