:10000000086F0010490D0100E90E0100ED0E01001E
:10001000F10E0100F50E0100F90E0100FA38F9EFBA
:10002000000000000000000000000000C5A3000068
:10003000010F01000000000073A3000009A20000EE
:100040000D0F010073A00000136F0000356E00005B
:100050001D0F01007DA700007B8000000000000054
:1000600073E00000310F0100350F0100390F01006E
:100070003D0F0100410F0100450F0100490F010034
:100080004D0F0100510F0100550F0100636E00007C
:100090005D0F0100A7780000650F0100690F0100E6
:1000A0006D0F0100710F0100750F0100790F010044
:1000B000790F0100810F0100850F0100890F0100F8
:0400C0008D0F01009F
:1003000038B500250C2003F081FF2800C0B200F0B2
:1003100055F804F0D1F800284CD004F064F804003B
:10032000E4B2012C06D03AD3032C16D006D3042C09
:100330001FD034E00C2003F069FF3EE0EDB2002D49
:1003400003D0EDB228006D1E02E008252800C0B2DF
:100350002800C0B200F032F821E0EDB2681C09219B
:1003600090FBF1F201FB12052800C0B200F026F864
:1003700015E0EDB2DFF8B40750F8250000280AD0E8
:10038000EDB2DFF8A80750F8250080472800C0B27A
:1003900000F014F803E00C2003F038FF0DE03220E9
:1003A00004F065F9DFF868080068401CDFF86018A1
:1003B0000860AEE70C2003F029FF31BD10B5040042
:1003C0000021002003F005FFDFF8C00703F03CFF29
:1003D0000121002003F0FDFEE4B2DFF8380850F8F8
:1003E000240003F031FF0121002003F0F2FE7E2003
:1003F00003F00CFF10BD38B500250C2003F006FFFC
:100400002800C0B200F043F804F056F800283DD0B0
:1004100003F0E9FF0400E4B2012C18D032D3032C1E
:1004200025D015D3042C2DD1EDB2DFF8480850F8B3
:10043000250000280AD0EDB2DFF8380850F8250072
:1004400080472800C0B200F022F81BE01EE01DE04B
:10045000EDB2002D03D0EDB228006D1E02E007259D
:100460002800C0B22800C0B200F011F80AE0EDB2D6
:10047000681C082190FBF1F505FB11052800C0B2AE
:1004800000F005F8322004F0F2F8BDE731BD10B5F8
:1004900004000021002003F09CFEDFF8DC0703F0DD
:1004A000D3FE0121002003F094FEE4B2DFF86408DB
:1004B00050F8240003F0C8FE0121002003F089FE5B
:1004C0007E2003F0A3FE10BD30B585B0002004F0FF
:1004D000F4FC05000C2003F099FEDFF8A00703F000
:1004E000B3FE03F0E9FF00282FD003F07CFF0400E7
:1004F000E4B2012C0AD016D3032C10D00AD3042C5A
:1005000011D1290089B2002004F089FC0C2003F0ED
:100510007DFE1AE0ADB21F2D00DB6D1E03E0ADB213
:10052000B42D00DA6D1CADB22A00DFF8741800A8F3
:1005300005F0B6FE0121062003F04BFE00A803F0F3
:1005400083FE322004F093F8CBE705B030BD30B520
:1005500085B0012004F0B1FC05000C2003F056FE2C
:10056000DFF8B40703F070FE03F0A6FF00282FD0D9
:1005700003F039FF0400E4B2012C0AD016D3032C97
:1005800010D00AD3042C11D1290089B2012004F023
:1005900046FC0C2003F03AFE1AE0ADB23D2D00DB24
:1005A0006D1E03E0ADB2C82D00DA6D1CADB22A009D
:1005B000DFF8F81700A805F073FE0121062003F00C
:1005C00008FE00A803F040FE322004F050F8CBE70C
:1005D00005B030BD30B585B0022004F06EFC0500DA
:1005E0000C2003F013FEDFF8BC0703F02DFE03F030
:1005F00063FF00285CD003F0F6FE0400E4B2012C97
:100600000AD03ED3032C23D00AD3042C39D129009D
:1006100089B2022004F003FC0C2003F0F7FD47E050
:10062000ADB2B5F5FA6F12DDDFF87C07006841F274
:100630008931884201D36D1E09E0DFF86C0700683C
:1006400040F6B931884201D30A3D00E0643D1DE027
:10065000ADB244F25060854212DADFF84C07006810
:1006600041F28931884201D36D1C09E0DFF8380777
:10067000006840F6B931884201D30A3500E064359C
:1006800004E0DFF8240741F288310160ADB22A00AE
:10069000DFF8F01700A805F003FE0121032003F0A6
:1006A00098FD00A803F0D0FD322003F0E0FF9EE7A4
:1006B00005B030BD30B585B0052004F0FEFB050067
:1006C0000C2003F0A3FDDFF8C00703F0BDFD03F02D
:1006D000F3FE002834D003F086FE0400E4B2012CBF
:1006E0000AD01BD3032C13D00AD3042C16D1290013
:1006F00089B2052004F093FB0C2003F087FD1FE076
:10070000ADB2652D01DB643D01E00020050005E090
:10071000ADB24FF6E850854200DA6435ADB22A003A
:10072000DFF8441800A805F0BBFD0121032003F009
:1007300050FD00A803F088FD322003F098FFC6E7C3
:1007400005B030BD2DE9F04385B00400002600A8B7
:10075000DFF818180CC90CC0083908385FF0000819
:100760005FF001090C2003F051FDDFF8040803F0ED
:100770006BFD03F0A1FE002800F0908003F033FE33
:100780000500EDB2012D3ED060D3032D3DD04DD3F9
:10079000042D5BD1761CF6B2042E33DB9DF80000ED
:1007A0004FF47A719DF8012064235A4301FB002025
:1007B0009DF802100A2202FB01009DF803100818A0
:1007C00000F53C50B0300700BFB2A4B2A74201D13F
:1007D000FF2064E00C2003F019FDDFF81C0803F093
:1007E00033FD0121002003F0F4FCDFF8100803F0D2
:1007F0002BFD40F6B83003F03AFF0C2003F006FD65
:1008000000204CE022E0002049E0F6B200A8305C75
:10081000401CF6B200A97054F6B200A8305C3A2829
:1008200003DBF6B200A8302131540FE0F6B200A885
:10083000305C401EF6B200A97054F6B200A8305CDD
:10084000302803DAF6B200A839213154B9F1010990
:100850004846C0B200281DD1042081465FFA88F8BE
:100860007FEA0808042200A902A805F033FD002051
:100870008DF80C005FFA88F8B8F1000F03D0F6B2DB
:1008800002A85F2131540121062003F0A2FC02A836
:1008900003F0DAFC322003F0EAFE6AE7002005B03C
:1008A000BDE8F08330B585B000250DF10D00019055
:1008B00003A800900DF10B030DF10A020DF10901DF
:1008C00002A804F0DEFB0C2003F0A0FCDFF85C0AB9
:1008D00003F0BAFCEDB202A8295C2800C0B200F017
:1008E0005AF803F0E9FD002853D003F07CFD040022
:1008F000E4B2012C28D048D3032C26D034D3042CC6
:1009000043D1EDB2062D10D19DF80D0001909DF858
:100910000C0000909DF80B309DF80A209DF80910FE
:100920009DF8080004F04AFB33E0EDB202A8285C11
:10093000C043EDB202A96854EDB202A8295C2800B8
:10094000C0B200F028F820E023E0EDB2681C0721D7
:1009500090FBF1F201FB1205EDB202A8295C280020
:10096000C0B200F018F810E0EDB2002D03D0EDB2E7
:1009700028006D1E02E006252800C0B2EDB202A8D4
:10098000295C2800C0B200F006F8322003F06FFEA8
:10099000A7E705B030BD38B504000D0001210020E7
:1009A00003F017FCE4B2DFF8A40A50F8240003F0C7
:1009B0004BFCE4B2062C09DAEDB2002D06D0012181
:1009C000022003F006FC582003F020FC31BD10B5D6
:1009D00005F013FC80B2FFF7B5FE002833D00C20E1
:1009E00003F014FCDFF8480903F02EFC012100207D
:1009F00003F0EFFBDFF83C0903F026FC03F05CFD9D
:100A0000002820D003F0EFFC0400E4B2200001280D
:100A100018D00428F2D1082005F076FC0C2003F051
:100A2000F5FBDFF82C0A03F00FFC0121002003F096
:100A3000D0FBDFF8780A03F007FC41F2883003F0BE
:100A400016FEDBE7FFE710BD38B5002505F0D5FB46
:100A500080B2FFF777FE00284AD00C2003F0D6FBC7
:100A60002800C0B200F045F803F026FD00283FD072
:100A700003F0B9FC0400E4B2012C17D034D3032CEA
:100A800018D023D3042C2FD1EDB2DFF8E00A50F8B0
:100A9000250000280AD0EDB2DFF8D00A50F8250072
:100AA00080472800C0B200F024F81DE00C2003F0BD
:100AB000ADFB1DE0EDB2681C082190FBF1F505FBD4
:100AC00011052800C0B200F014F80DE0EDB2002DC1
:100AD00003D0EDB228006D1E02E007252800C0B249
:100AE0002800C0B200F005F8642003F0C0FDBBE7A9
:100AF00031BD10B504000021002003F06AFBDFF8CF
:100B0000B00903F0A1FB0121002003F062FBE4B275
:100B1000DFF85C0A50F8240003F096FB0121002066
:100B200003F057FB7E2003F071FB10BD8CF8000032
:100B300030B585B004F056FB05002A00DFF8381AFE
:100B400000A805F0ADFB0C2003F060FBDFF8E80A1D
:100B500003F07AFB0121002003F03BFB00A803F027
:100B600073FB03F0A9FC00280DD003F03CFC04004B
:100B7000E4B22000012801D0042800D103E0642061
:100B800003F075FDEDE705B030BD00000809010078
:100B900010B50C2003F03AFBDFF8E00903F054FB3A
:100BA0000121002003F015FBDFF8D40903F04CFB12
:100BB00003F019FC0400E4B2042C01D105F0F0FBB1
:100BC000E4B2012CF4D105F018FB80B2FFF7BAFDB6
:100BD00000281BD00C2003F019FBDFF8A80903F054
:100BE00033FB0121002003F0F4FADFF8500A03F090
:100BF0002BFB002004F01DFB002004F0C0FE0020B1
:100C000005F071FA41F2883003F031FD10BD0000AB
:100C1000486B00108403001030B585B004F02CFB45
:100C200005002A00DFF8501900A805F039FB0C2058
:100C300003F0ECFADFF8100A03F006FB01210020B4
:100C400003F0C7FA00A803F0FFFA03F035FC002810
:100C50000DD003F0C8FB0400E4B22000012801D04D
:100C6000042800D103E0642003F001FDEDE705B0A6
:100C700030BD0000DCF80000180901005803010035
:100C800030B585B004F042FB05000C2003F0BEFA3D
:100C9000DFF8B80903F0D8FA03F00EFC002836D0CC
:100CA00003F0A1FB0400E4B2012C09D01DD3032CF6
:100CB0000AD010D3042C18D1280080B204F047FBCE
:100CC0000C2003F0A3FA22E00A35ADB2792D01DB46
:100CD0000020050009E0ADB2002D03D00A3D280038
:100CE00080B202E07825280080B2ADB22A00DFF899
:100CF000FC1900A805F0D4FA0121062003F069FAD6
:100D000000A803F0A1FA642003F0B1FCC4E705B029
:100D100030BD0000A80300106C03010038B504F0DA
:100D200033FB0500ADB2002D03D04FF6FF70050078
:100D300001E0002005000C2003F068FADFF8A809A4
:100D400003F082FA03F0B8FB002827D003F04BFB36
:100D50000400E4B2012C09D00ED3032C0AD009D32D
:100D6000042C09D1280080B204F02FFB0C2003F0E2
:100D70004DFA13E0ADB2ED430121062003F029FA4C
:100D8000ADB2002D03D076A003F05EFA02E075A0AC
:100D900003F05AFA642003F06AFCD3E731BD000087
:100DA000CC0D010080030100746B0010D40D010014
:100DB00030B585B004F060FB05000C2003F026FA86
:100DC000DFF8A80903F040FA03F076FB002856D0BC
:100DD00003F009FB0400E4B2012C09D039D3032C41
:100DE00020D009D3042C34D1280080B204F027FB92
:100DF0000C2003F00BFA42E0ADB2B5F5FA6F10DD4E
:100E0000DFF86C090068B0F57A7F01D96D1E08E043
:100E1000DFF85C090068B0F5FA7F01D90A3D00E00F
:100E2000643D1BE0ADB244F25060854210DADFF859
:100E300040090068B0F57A7F01D96D1C08E0DFF841
:100E400030090068B0F5FA7F01D90A3500E0643551
:100E500004E0DFF81C0940F6B8310160ADB22A00A9
:100E6000084900A805F01CFA0121032003F0B1F99C
:100E700000A803F0E9F9322003F0F9FBA4E705B07C
:100E800030BD0000980B01009403010030B585B01F
:100E900004F042FB05000C2003F0B8F9DFF8F80974
:100EA00003F0D2F903F008FB002857D003F09BFAB7
:100EB0000400E4B2012C09D039D3032C20D009D38B
:100EC000042C34D1280080B204F009FB0C2003F07C
:100ED0009DF943E0ADB2B5F5FA6F10DDDFF890088B
:100EE0000068B0F57A7F01D96D1E08E0DFF8800850
:100EF0000068B0F5FA7F01D90A3D00E0643D1BE0CF
:100F0000ADB244F25060854210DADFF86408006840
:100F1000B0F57A7F01D96D1C08E0DFF8540800684D
:100F2000B0F5FA7F01D90A3500E0643504E0DFF856
:100F3000400840F6B8310160ADB22A00DFF8601A0F
:100F400000A805F0ADF90121032003F042F900A843
:100F500003F07AF9322003F08AFBA3E705B030BD35
:100F600053494D004E414F00A40B0100DC0D010020
:100F7000A803010030B585B004F046FB05000C2045
:100F800003F044F9DFF8240A03F05EF903F094FA61
:100F900000282ED003F027FA0400E4B2012C09D077
:100FA00015D3032C0FD009D3042C10D1280080B204
:100FB00004F059FB0C2003F029F91AE0ADB2022D20
:100FC00000DB6D1E03E0ADB2782D00DA6D1CADB212
:100FD0002A00DFF8E01A00A805F062F901210620D6
:100FE00003F0F7F800A803F02FF9322003F03FFBDD
:100FF000CCE705B030BD0000E40D0100B00B0100EE
:1010000030B585B004F04CFB05000C2003F0FEF871
:10101000DFF8A40A03F018F903F04EFA00285AD0BA
:1010200003F0E1F90400E4B2012C09D03CD3032C15
:1010300023D009D3042C37D1280080B204F062FBFE
:101040000C2003F0E3F846E0ADB241F2893085426E
:1010500012DBDFF81C07006841F28931884201D3B6
:101060006D1E09E0DFF80807006841F28931884207
:1010700001D30A3D00E0643D1BE0ADB244F2506094
:10108000854210DADFF8E8060068B0F57A7F01D90A
:101090006D1C08E0DFF8D8060068B0F5FA7F01D9CA
:1010A0000A3500E0643504E0DFF8C40640F6B831E4
:1010B0000160ADB22A00DFF8E81800A805F0F0F8EA
:1010C0000121062003F085F800A803F0BDF83220C6
:1010D00003F0CDFAA0E705B030BD000038B500251B
:1010E0002800C0B200F044F803F0E6F900283DD033
:1010F00003F079F90400E4B2012C18D032D3032CA8
:1011000025D015D3042C2DD1EDB2DFF8DC0A50F830
:10111000250000280AD0EDB2DFF8CC0A50F82500EF
:1011200080472800C0B200F023F81BE01EE01DE05D
:10113000EDB2002D03D0EDB228006D1E02E01225A5
:101140002800C0B22800C0B200F012F80AE0EDB2E8
:10115000681C132190FBF1F201FB12052800C0B2BC
:1011600000F006F8322003F082FABDE731BD00003E
:1011700010B504000021002003F02BF8DFF86C0A02
:1011800003F062F80121002003F023F8E4B2DFF855
:10119000600A50F8240003F057F80121002003F002
:1011A00018F87E2003F032F810BD7FB50C2003F054
:1011B0002DF8DFF8400A03F047F803F014F90400B3
:1011C000E4B2012C19D005F0E5FB05F045FC050063
:1011D000280005F051FC06003200DFF81C1A00A8B8
:1011E00005F05EF80121002002F0F3FF00A803F0F3
:1011F0002BF8642003F03BFADFE77FBD70B586B0C3
:101200000C2003F003F8DFF8F40903F01DF80420C4
:1012100003F053FE050003F0E6F80400E4B2012CED
:1012200046D0E4B2042C1DD10121002002F0D1FFF0
:10123000DFF8CC0903F008F80121002002F0C9FF13
:10124000280005F032FC002804D0DFF8B80902F0CD
:10125000FBFF03E0DFF8B00902F0F6FF40F6B8301C
:1012600003F005FA05F0D8FB0600B6B23200DFF84D
:101270009C1900A805F014F80121012002F0A9FF33
:1012800000A802F0E1FF0121082002F0A2FF05F012
:1012900040FC002804D0DFF8780902F0D5FF03E015
:1012A000DFF8700902F0D0FF642003F0E0F9B2E744
:1012B00006B070BD38B50C2002F0A8FFDFF8580961
:1012C00002F0C2FF03F08FF80400E4B2200001280E
:1012D00014D0042813D10121002002F07AFFDFF896
:1012E0003C0902F0B1FF05F03EFC0121002002F0B4
:1012F00070FFDFF82C0902F0A7FF00E014E005F012
:1013000063FC05000121052002F063FFEDB2002D12
:1013100003D098A002F098FF02E0C6A002F094FF6C
:10132000642003F0A4F9CDE731BD0000BC03010047
:10133000D0030100E40301002DE9F04385B05FF024
:10134000000841F288364FF4E1670C2002F05EFF9E
:10135000DFF8D00802F078FF03F045F80400E4B2AB
:10136000012C17D02ED3032C15D020D3042C29D137
:101370005FFA88F87FEA08085FFA88F8B8F1000F8A
:1013800004D0B6B2300005F0FEFD02E0002005F00A
:10139000FAFD17E057E0DFF8D80340F6B8310160F6
:1013A000B6B243F2C820864200DA64360AE0DFF8BB
:1013B000C00340F6B8310160B6B241F289308642CE
:1013C00000DB643EDFF8A803006800280DD1B6B248
:1013D000BFB2BE4209D05FFA88F8B8F1000F04D05E
:1013E000B6B2300005F0CFFD37005FFA88F8B8F1EB
:1013F000000F02D00FF2482901E00FF24829DFF870
:1014000070030068002802D0B6B2300001E005F099
:10141000F1FD4B460200DFF8A81A00A804F040FFD7
:1014200000A805F09FFE05000121EDB2D5F11000E6
:101430004010C0B202F0CDFE00A802F005FF64200B
:1014400003F015F988E705B0BDE8F083E803001064
:10145000F803010010B586B00C2002F0D7FEDFF8CB
:101460005C0A02F0F1FEFF2005F0E3FD02F0BBFF95
:101470000400E4B2012C03D1002005F0DAFD13E0F2
:1014800005F044FD80B20200DFF8381A00A804F02D
:1014900007FF0121052002F09CFE00A802F0D4FE07
:1014A000642003F0E4F8E1E706B010BD0C0401008D
:1014B0002004010070B50025042003F0FEFC0600A6
:1014C0000C2002F0A3FEDFF8000A02F0BDFE02F0DD
:1014D0008AFF0400E4B2012C32D032D3032C0FD0A7
:1014E0000ED3042C2DD1EDB2ED43EDB2002D03D07F
:1014F000012005F01AFB02E0002005F016FB20E0B9
:101500000121002002F065FEDFF8F40602F09CFEE7
:101510000121002002F05DFEB6B2300005F0C5FAF0
:10152000002804D0DFF8DC0602F08EFE03E0DFF8CE
:10153000D80602F089FE40F6B83003F098F800E0D3
:1015400013E00121002002F044FEEDB2002D04D092
:10155000DFF8780902F078FE03E0DFF8B40A02F061
:1015600073FE642003F083F8B1E770BDFCF800005F
:10157000C80300105B315D00BC0B01004804010092
:101580005C040100C80B010070B586B00025002086
:1015900006F0FCF80C2002F039FEDFF8340902F006
:1015A00053FE02F020FF0400E4B2012C15D017D343
:1015B000032C03D002D3042C03D011E006F03CF935
:1015C0000EE0EDB2ED432800C0B206F018F900229B
:1015D0000021002006F063FC02E006F02DF927E070
:1015E00005F059FF0600300006F014FD02000B0064
:1015F000DFF8201A00A804F053FE0121002002F0B9
:10160000E8FD00A802F020FE0121082002F0E1FD23
:10161000EDB2002D04D0DFF8000A02F015FE03E061
:10162000DFF8A00A02F010FE642003F020F8B8E70B
:1016300006B070BD5B305D0034040100D40B0100C6
:101640004F4E00004F464600700401008404010024
:1016500070B5052501260C2002F0D8FDDFF8680AD8
:1016600002F0F2FD02F0BFFE0400E4B2012C39D01A
:101670006D1E2800C0B2002830D1052005000022D0
:101680000021012006F00BFC00220021022006F0C0
:1016900006FC00220021032006F001FC00220021AC
:1016A000042006F0FCFB00220021052006F0F7FBD9
:1016B00000220021062006F0F2FB01220021072073
:1016C00006F0EDFB012201213000C0B206F0E7FB7D
:1016D000761CF6B2082E01DB01200600642002F021
:1016E000C6FFBFE770BD000098040100E00B0100D9
:1016F00038B504F0B8F80500ADB2002D02D04FF6B1
:10170000FF7005000C2002F081FDDFF81C0B02F0D9
:101710009BFD02F0D1FE002827D002F064FE0400F9
:10172000E4B2012C09D00ED3032C0AD009D3042C27
:1017300009D1280080B204F0BEF80C2002F066FD4A
:1017400013E0ADB2ED430121062002F042FDADB23F
:10175000002D03D093A002F077FD02E092A002F0EA
:1017600073FD642002F083FFD3E731BDAC040100B8
:10177000746B001030B583B000250C2002F046FDDC
:10178000DFF8A80A02F060FD04F0CFF8050002F0CF
:1017900093FE00285BD002F026FE0400E4B2012C88
:1017A00009D00FD3032C07D008D3042C0AD128006A
:1017B00080B204F09DF84AE06D1C03E0ADB2022D4A
:1017C00000DB6D1EADB24FF47A7095FBF0F00A218C
:1017D00090FBF1F201FB120030308DF80000ADB249
:1017E000642095FBF0F00A2190FBF1F201FB12005E
:1017F00030308DF80100ADB20A2095FBF0F00A21DF
:1018000090FBF1F201FB120030308DF802002E2027
:101810008DF80300ADB20A2095FBF0F100FB1150EA
:1018200030308DF8040020208DF8050025208DF83B
:10183000060000208DF807000121062002F0C9FCF7
:1018400000A802F001FD642002F011FF9FE737BD00
:1018500010B50C2002F0DAFCDFF8DC0902F0F4FC31
:1018600002F0C1FD0400E4B2012C14D001210320D8
:1018700002F0AFFC02F038FE002804D0DFF8BC090B
:1018800002F0E2FC03E0DFF8B80902F0DDFC6420BE
:1018900002F0EDFEE4E710BDC004010010B50C201D
:1018A00002F0B4FCDFF89C0902F0CEFC02F09BFDD4
:1018B0000400E4B2012C14D00121032002F089FCC1
:1018C00002F0FDFD002804D0DFF8700902F0BCFC36
:1018D00003E0DFF86C0902F0B7FC642002F0C7FEF9
:1018E000E4E710BD1CB50C2002F090FCDFF85809AD
:1018F00002F0AAFC02F077FD0400E4B2012C1CD037
:101900000121032002F065FC0020019000200090DE
:10191000002300220021012006F01BFC002804D037
:10192000DFF8280902F090FC03E0DFF82C0902F050
:101930008BFC642002F09BFEDCE713BD38B500256C
:101940000C2002F063FCDFF8080902F07DFC02F0D5
:101950004AFD0400E4B22000012804D0042806D186
:1019600095F0FF0503E0002004F0FDFC17E02800DF
:10197000C0B204F0F8FC0121032002F02AFCEDB211
:10198000002D04D0DFF8CC0802F05EFC03E0DFF8A5
:10199000CC0802F059FC642002F069FED7E731BDA3
:1019A000980B010053494D004E414F00D4040100F3
:1019B00030B585B077250C2002F028FCDFF8A008B0
:1019C00002F042FC022003F078FA80B205F0DBFA64
:1019D0006421732005F00BFB02F005FD0400E4B266
:1019E000012C08D01FD3032C0DD013D3042C1AD1F3
:1019F0000020050017E0002005F0C5FA00210020B6
:101A000005F0F5FA54E06D1C6421ADB2280005F034
:101A1000EEFA08E0ADB2002D00D06D1E6421ADB22B
:101A2000280005F0E4FA01210A2002F0D2FB5B2035
:101A30008DF80000ADB24FF47A7095FBF0F00A21FA
:101A400090FBF1F201FB120030308DF80100ADB2D5
:101A5000642095FBF0F00A2190FBF1F201FB1200EB
:101A600030308DF80200ADB20A2095FBF0F00A216B
:101A700090FBF1F201FB120030308DF80300ADB2A3
:101A80000A2095FBF0F100FB115030308DF8040076
:101A90005D208DF8050000208DF8060000A802F0FA
:101AA000D3FB002007F07EF8642002F0E0FD93E70E
:101AB00005B030BDEC0B0100E804010000B583B0B7
:101AC00040F68E40FEF73EFE002803D10C2002F0C7
:101AD0009DFB46E00521052003F0A1F950210020DF
:101AE00003F09DF96421012003F099F941F27C5142
:101AF000022003F094F9502003F084FC28210420F4
:101B000003F08DF942F6E06003F099FC42F6E060E4
:101B100003F0E5FC032003F0A6FD43F2B06003F000
:101B2000F1FD41F27C5003F03CFE0F2003F04FFD2D
:101B3000142003F07BFE0C2002F068FB502003F021
:101B4000A1FF00200190002000900023002201212D
:101B5000012003F033FA0A2003F0F9FB012003F01F
:101B600034FC07BD38B504F048FB80B2FEF7EAFD4F
:101B7000002803D10C2002F049FB34E00C2002F0D5
:101B800045FBDFF8B40702F05FFB03F05FFF0500E1
:101B900002F092FC002826D002F025FC0400E4B2FA
:101BA000012C09D00BD3032C07D006D3042C06D16B
:101BB0002800C0B203F02DFF15E095F0FF050121CC
:101BC000052002F006FBEDB2002D04D0DFF8A807D7
:101BD00002F03AFB03E0DFF8A40702F035FB322005
:101BE00002F045FDD4E731BD98F50000FC0401008A
:101BF0008C02001028090100EC0D010038090100D9
:101C0000480901005809010068090100F40D0100AC
:101C1000FC0D0100040E0100F80B0100040C010092
:101C2000100C0100780901002DE9F04F8BB000265F
:101C3000002701245FF00008DFF84407006807F080
:101C40004DFE07F05BFE42F2107190FBF1F201FBDA
:101C5000120A0C2002F0DAFA1FFA8AFA5246DFF86A
:101C6000241700A804F01CFB00A802F0EDFA0121E3
:101C7000002002F0AEFADFF8100702F0E5FADFF814
:101C80000C1700A804F00CFB02F016FC002800F072
:101C9000D18002F0A8FB0500EDB2012D00F0858097
:101CA000C0F0A580032D00F08180C0F09080042D4D
:101CB00040F09D80F6B2052E75DB9DF80000DFF840
:101CC000D0169DF8012042F210735A4301FB002008
:101CD0009DF802104FF47A7202FB01009DF8031088
:101CE000642202FB01009DF804100A2202FB01009D
:101CF0009DF805100818DFF89C1611EB000B5FEA41
:101D00008B3B5FEA9B3B5FEA9B30804658468004F2
:101D1000800C40F6BC31484081460C2002F076FA37
:101D20001FFA89F91FFA8AFAD1452BD1DFF8680624
:101D300002F08AFA0121002002F04BFADFF8BC071A
:101D400002F082FA002004F028F8002003F027FABD
:101D5000002003F06EFA002003F0B5FA002003F033
:101D60000EFE002004F0C7F8002004F0BCF90020AB
:101D700004F003FA002004F010F841F2883002F079
:101D800076FC0BE0DFF8780702F05EFA0121002014
:101D900002F01FFADFF86C0702F056FA40F6B8308E
:101DA00002F065FC46E0761C21E043E0F6B200A8B4
:101DB000305C401CF6B200A97054F6B200A8305C4A
:101DC0003A2803DBF6B200A8302131540FE0F6B216
:101DD00000A8305C401EF6B200A97054F6B200A80C
:101DE000305C302803DAF6B200A839213154601E85
:101DF0000400C0B2002819D104200400FFB2FF4340
:101E0000112200A905A804F065FA00208DF81B0036
:101E1000FFB2002F03D0F6B205A85F213154012193
:101E2000072002F0D6F905A802F00EFA322002F0DF
:101E30001EFC29E70BB0BDE8F08F30B585B003F08C
:101E40003EFE05000C2002F0E1F9DFF8BC0602F0CE
:101E5000FBF902F031FB00282ED002F0C4FA040096
:101E6000E4B2012C09D015D3032C0FD009D3042CD4
:101E700010D1280080B203F005FE0C2002F0C6F954
:101E80001AE0ADB2242D00DB6D1E03E0ADB2C82D0B
:101E900000DA6D1CADB22A00DFF8FC1700A804F0D0
:101EA000FFF90121062002F094F900A802F0CCF914
:101EB000322002F0DCFBCCE705B030BD100501009C
:101EC000880901000C0E0100240501001C0C010012
:101ED000980901002DE9F0419CB004000AA8DFF840
:101EE0007018442207F08AFD5FF0000800260127E1
:101EF0000C2002F08BF90021002002F06AF9E4B214
:101F000011200AA900FB041002F09EF902F0A7F9C3
:101F100000A92000C0B203F036FE02F0CDFA00287E
:101F200073D002F060FA0500EDB2012D13D04AD350
:101F3000032D2DD012D3042D45D118F101085FFADD
:101F400088F8B8F1100F05DB00A92000C0B203F03B
:101F5000F8FD5AE037E002F08FF956E05FFA88F8B2
:101F600000A818F80000202806D15FFA88F800A819
:101F70007A2108F800100AE05FFA88F800A818F83B
:101F80000000401E5FFA88F800A908F801001AE076
:101F90005FFA88F800A818F800005FFA88F800A92E
:101FA000421C08F80120C0B200280CD05FFA88F863
:101FB00000A818F800007B2805DB5FFA88F800A865
:101FC000202108F800107F1E3800C0B2002818D168
:101FD0000A200700F6B2F643112200A905A804F072
:101FE00079F90121002002F0F4F8F6B2002E05D0B4
:101FF0005FFA88F805A85F2108F8001005A802F02C
:1020000023F9322002F033FB87E71CB0BDE8F081F2
:10201000280C0100340C0100400C010080B50020A8
:10202000FFF758FF01BD80B50120FFF753FF01BD49
:1020300080B50220FFF74EFF01BD80B50320FFF7FA
:1020400049FF01BD38B503F0F2FD0500ADB2002D2A
:1020500002D04FF6FF7005000C2002F0D7F8DFF831
:10206000B40702F0F1F802F027FA002829D002F0B4
:10207000BAF90400E4B2012C09D010D3032C0AD021
:1020800009D3042C0BD12800C0B203F0B3FD0C20FF
:1020900002F0BCF815E085F47F4595F0FF050121BD
:1020A000062002F096F8ADB2002D03D060A002F039
:1020B000CBF802E05FA002F0C7F80A2002F0D7FADE
:1020C000D1E731BD4C0C0100A809010030B585B045
:1020D00003F0E6FD05000C2002F098F8DFF8F807A1
:1020E00002F0B2F802F0E8F9002859D002F07BF9CA
:1020F0000400E4B2012C09D03BD3032C21D009D336
:10210000042C36D1280080B203F0ADFD0C2002F083
:102110007DF845E0ADB2B5F5FA6F11DDDFF8BC072B
:102120000068B0F5FA5F01D96D1E09E0DFF8AC0771
:10213000006841F28931884201D30A3D00E0643DE4
:102140001CE0ADB244F25060854211DADFF88C0732
:102150000068B0F5FA5F01D96D1C09E0DFF87C0773
:10216000006841F28931884201D30A3500E06435C4
:1021700004E0DFF8680743F698210160ADB22A0059
:10218000DFF85C1700A804F08BF80121032002F0AF
:1021900020F800A802F058F8322002F068FAA1E70F
:1021A00005B030BD30B585B003F0ADFD05000C20A5
:1021B00002F02CF8DFF82C0702F046F802F07CF968
:1021C00000282ED002F00FF90400E4B2012C09D04F
:1021D00015D3032C0FD009D3042C10D1280080B2C2
:1021E00003F0BEFD0C2002F011F81AE0ADB23D2D57
:1021F00000DB6D1E03E0ADB2C82D00DA6D1CADB280
:102200002A00DFF8941400A804F04AF801210620FF
:1022100001F0DFFF00A802F017F8322002F027FAE1
:10222000CCE705B030BD000038050100B809010059
:1022300053494D004E414F00C8090100580C0100A0
:10224000640C0100D8090100E8090100700C0100CC
:102250004C050100140E01007C0C01001C0E010055
:102260006005010038B5002500F050F9002841D084
:102270002800C0B200F03FF802F0B5F80400E4B264
:10228000012C18D032D3032C25D015D3042C2DD1FA
:10229000EDB2DFF8540D50F8250000280AD0EDB259
:1022A000DFF8440D50F8250080472800C0B200F048
:1022B00022F81BE01EE01DE0EDB2002D03D0EDB2D0
:1022C00028006D1E02E004252800C0B22800C0B21C
:1022D00000F011F80AE0EDB2681C052190FBF1F264
:1022E00001FB12052800C0B200F005F8322002F010
:1022F000BEF9C1E731BD10B504000021002001F096
:1023000068FFDFF8200C01F09FFF0121002001F0A1
:1023100060FFE4B2DFF8D40C50F8240001F094FF21
:1023200010BD10B5DFF8C80C00F038F8040020002C
:1023300003F025FB10BD0000F809010010B5DFF81F
:10234000B40C00F02BF80400200002F028FF10BDB0
:1023500010B5DFF8A40C00F021F80400200002F012
:1023600068FF10BD10B5DFF8940C00F017F80400FA
:10237000200002F0A8FF10BD240E01002C0E010069
:10238000486B0010880C0100340E01003C0E010067
:10239000A0860100B09EAEFF940C01002DE9F04133
:1023A00086B0040000A8DFF8581C2CC92CC00C39DA
:1023B0000C38002601275FF000080C2001F026FFF2
:1023C0000021002001F005FF200001F03DFF02F098
:1023D0000AF80500EDB2012D67D068D3032D03D0B4
:1023E00018D3042D2CD062E0F6B200A8305C392856
:1023F00005DB3020F6B200A97054C0B209E0F6B295
:1024000000A8305CF6B200A9715C491CF6B200AAC3
:10241000B1544CE0F6B200A8305C312805DA39201E
:10242000F6B200A97054C0B209E0F6B200A8305C60
:10243000F6B200A9715C491EF6B200AAB15436E0AA
:10244000F6B2072E2FDB9DF80010DFF8B82B9DF8B1
:102450000130DFF8B4CB0CFB03F302FB01319DF834
:102460000220DFF8A83B03FB02119DF8032042F293
:10247000107303FB02119DF804204FF47A7303FBE1
:1024800002119DF80520642303FB02119DF806202C
:102490000A2303FB02119DF807205118DFF89C2C3A
:1024A0005118080027E0761C01E0002023E07F1E81
:1024B0003800C0B200281AD10A200700092200A95A
:1024C00003A803F007FF5FFA88F87FEA08085FFABD
:1024D00088F8B8F1000F03D0F6B203A85F21315499
:1024E0000121042001F075FE03A801F0ADFE3220A9
:1024F00002F0BDF86BE706B0BDE8F081440E0100C4
:10250000E40D0100A00C0100740501002DE9F04765
:102510008AB00026002701245FF00008DFF8200CB5
:10252000006807F0DBF907F0E9F942F2107190FB5F
:10253000F1F201FB120A0C2001F068FE1FFA8AFA80
:102540005246DFF8001C00A803F0AAFE00A801F024
:102550007BFE0121002001F03CFEDFF8EC0B01F0D6
:1025600073FEDFF8E81B00A803F09AFE01F0A4FF59
:10257000002800F08D8001F036FF0500EDB2012D3E
:1025800040D062D3032D3FD04FD3042D5DD1F6B29E
:10259000052E35DB9DF80000DFF8701A9DF801204C
:1025A00042F210735A4301FB00209DF802104FF4D1
:1025B0007A7202FB01009DF80310642202FB010005
:1025C0009DF804100A2202FB01009DF8051008186E
:1025D000DFF8A81C09188903890B880B80460800BE
:1025E0008004800C40F6BC32504081461FFA89F9C5
:1025F0001FFA8AFAD14501D1FF204AE0002048E0C5
:10260000761C22E0002044E0F6B200A8305C401CBA
:10261000F6B200A97054F6B200A8305C3A2803DB89
:10262000F6B200A8302131540FE0F6B200A8305CB9
:10263000401EF6B200A97054F6B200A8305C3028F3
:1026400003DAF6B200A839213154601E0400C0B28A
:10265000002819D104200400FFB2FF43112200A971
:1026600005A803F037FE00208DF81B00FFB2002FF5
:1026700003D0F6B205A85F2131540121072001F0F3
:10268000A8FD05A801F0E0FD322001F0F0FF6DE7A4
:1026900000200AB0BDE8F087D40D010030B585B048
:1026A00003F090F905002A00DFF8D41B00A803F01E
:1026B000F7FD0C2001F0AAFDDFF8780C01F0C4FD55
:1026C0000121002001F085FD00A801F0BDFD01F011
:1026D000F3FE00280DD001F086FE0400E4B22000D5
:1026E000012801D0042800D103E0642001F0BFFFDD
:1026F000EDE705B030BD30B585B002F029FD05002D
:102700002A00DFF87C1B00A803F0CAFD0C2001F0B2
:102710007DFDDFF8200C01F097FD0121002001F084
:1027200058FD00A801F090FD01F0C6FE00280DD074
:1027300001F059FE0400E4B22000012801D0042871
:1027400000D103E0642001F092FFEDE705B030BD59
:102750002CF6000038B500252800C0B200F043F880
:1027600001F0AAFE00283DD001F03DFE0400E4B2D5
:10277000012C18D032D3032C25D015D3042C2DD105
:10278000EDB2DFF8D80C50F8250000280AD0EDB2E1
:10279000DFF8C80C50F8250080472800C0B200F0D0
:1027A00022F81BE01EE01DE0EDB2002D03D0EDB2DB
:1027B00028006D1E02E006252800C0B22800C0B225
:1027C00000F011F80AE0EDB2681C072190FBF1F26D
:1027D00001FB12052800C0B200F005F8322001F01C
:1027E00046FFBDE731BD10B504000021002001F017
:1027F000F0FCDFF8440B01F027FD0121002001F07F
:10280000E8FCE4B2DFF8940C50F8240001F01CFD61
:1028100010BD00008805010070B590B00A250021A8
:10282000002001F0D6FCDFF8140B01F00DFD0121B2
:10283000002001F0CEFCDFF8080B01F005FD00A838
:1028400005F04DFD0600F6B2002E04D12800451E0D
:10285000C0B20028F3D1F6B2002E14D1002100201E
:1028600001F0B7FCDFF8DC0A01F0EEFC01210020EA
:1028700001F0AFFCDFF8D00A01F0E6FC40F6B8301A
:1028800001F0F5FE25E00C2001F0C0FC0021002045
:1028900001F09FFCDFF8C40C01F0D6FC0121002000
:1028A00001F097FC00208DF8100000A801F0CCFC8E
:1028B00001F002FE00280CD001F095FD0400E4B206
:1028C0002000401E032800D803E0322001F0CFFE94
:1028D000EEE710B070BD000080030100746B0010C3
:1028E000980B01009C0501002DE9F04395B05FF0C5
:1028F0000A09002600275FF001080021002001F0EE
:1029000068FCDFF8380A01F09FFC0121002001F08B
:1029100060FCDFF82C0A01F097FC00A805F0DFFC52
:102920000500EDB2002D05D14846B0F10109C0B255
:102930000028F2D1EDB2002D14D10021002001F0C9
:1029400048FCDFF8000A01F07FFC0121002001F0C3
:1029500040FCDFF8F40901F077FC40F6B83001F0F4
:1029600086FEACE00C2001F051FC0021002001F0BB
:1029700030FCDFF8E80B01F067FC0121002001F0DA
:1029800028FC00208DF8100000A801F05DFC00205C
:10299000C0B2302806DAC0B200A9411800220A7479
:1029A000401CF5E701F088FD002800F0888001F068
:1029B0001AFD0400E4B2012C17D05CD3032C15D00F
:1029C00037D3042C57D1F6B200A8305C002803D1CD
:1029D000F6B200A820213154761CF6B2102E03DB8B
:1029E00000A800F06FF86AE045E068E0F6B200A8E1
:1029F000305C7F2803DBF6B200A87E213154F6B2AA
:102A000000A8305C202803DAF6B200A82021315457
:102A1000F6B200A8305C401CF6B200A97054F6B2C1
:102A200000A8305C7F2803DBF6B200A820213154D7
:102A300021E0F6B200A8305C7F2803DBF6B200A8E4
:102A40007E213154F6B200A8305C202803DAF6B2B9
:102A500000A820213154F6B200A8305C401EF6B226
:102A600000A97054F6B200A8305C202803DAF6B250
:102A700000A87E213154B8F101084046C0B20028B8
:102A800019D105208046FFB2FF43102200A910A8EB
:102A900003F020FC00208DF85000FFB2002F03D07F
:102AA000F6B210A85F2131540121002001F091FB02
:102AB00010A801F0C9FB322001F0D9FD72E715B072
:102AC000BDE8F08370B504000A260021002001F063
:102AD00080FBDFF84C0B01F0B7FB0121002001F077
:102AE00078FBDFF85C0801F0AFFB200000F024F871
:102AF000200005F044FC0500EDB2002D04D13000AB
:102B0000461EC0B20028F3D1EDB2002D13D1002132
:102B1000002001F05EFBDFF8880B01F095FB01213E
:102B2000002001F056FBDFF8840C01F08DFB40F62D
:102B3000B83001F09CFD70BD10F1100211000A7850
:102B4000212A02DB0A787F2A03DB00220A70491E51
:102B5000F5E7704770B592B000A8442106F07AFFFF
:102B600005250021002001F034FBDFF8740B01F093
:102B70006BFB0121002001F02CFBDFF8680B01F05A
:102B800063FB01F099FC002842D001F02CFC04000A
:102B9000E4B22000401E022835D9C01E34D10021E5
:102BA000002001F016FBDFF8C40B01F04DFB012102
:102BB000002001F00EFBDFF8880701F045FB00A8BC
:102BC00005F0DDFB0600F6B2002E04D12800451EFC
:102BD000C0B20028F3D1F6B2002E13D1002100209C
:102BE00001F0F7FADFF8B80A01F02EFB012100200E
:102BF00001F0EFFADFF8B40B01F026FB40F6B83035
:102C000001F035FD04E003E0322001F030FDB8E7CB
:102C100012B070BD70B590B00A250021002001F0FF
:102C2000D8FADFF88C0B01F00FFB0121002001F036
:102C3000D0FADFF80C0701F007FB00A805F0F0FB65
:102C40000600F6B2002E04D12800451EC0B20028AE
:102C5000F3D1F6B2002E14D10021002001F0B9FA10
:102C6000DFF8E00601F0F0FA0121002001F0B1FAEE
:102C7000DFF8D40601F0E8FA40F6B83001F0F7FCCE
:102C800025E00C2001F0C2FA0021002001F0A1FA99
:102C9000DFF8780C01F0D8FA0121002001F099FA50
:102CA00000208DF8100000A801F0CEFA01F004FC1D
:102CB00000280CD001F097FB0400E4B22000401E75
:102CC000032800D803E0322001F0D1FCEEE710B079
:102CD00070BD00002DE9F04395B05FF00A090026B1
:102CE00000275FF001080021002001F072FADFF8F0
:102CF000540B01F0A9FA0121002001F06AFADFF873
:102D0000400601F0A1FA00A805F08AFB0500EDB22B
:102D1000002D05D14846B0F10109C0B20028F2D11A
:102D2000EDB2002D14D10021002001F052FADFF89D
:102D3000140601F089FA0121002001F04AFADFF8B7
:102D4000080601F081FA40F6B83001F090FCACE0E2
:102D50000C2001F05BFA0021002001F03AFADFF8C4
:102D6000AC0B01F071FA0121002001F032FA0020D1
:102D70008DF8100000A801F067FA0020C0B23028DA
:102D800006DAC0B200A9411800220A74401CF5E717
:102D900001F092FB002800F0888001F024FB040081
:102DA000E4B2012C17D05CD3032C15D037D3042CFC
:102DB00057D1F6B200A8305C002803D1F6B200A8C3
:102DC00020213154761CF6B2102E03DB00A800F04F
:102DD0006FF86AE045E068E0F6B200A8305C7F2852
:102DE00003DBF6B200A87E213154F6B200A8305CB5
:102DF000202803DAF6B200A820213154F6B200A848
:102E0000305C401CF6B200A97054F6B200A8305CE9
:102E10007F2803DBF6B200A82021315421E0F6B26E
:102E200000A8305C7F2803DBF6B200A87E21315475
:102E3000F6B200A8305C202803DAF6B200A8202100
:102E40003154F6B200A8305C401EF6B200A97054AE
:102E5000F6B200A8305C202803DAF6B200A87E2182
:102E60003154B8F101084046C0B2002819D10520FC
:102E70008046FFB2FF43102200A910A803F02AFAEF
:102E800000208DF85000FFB2002F03D0F6B210A83A
:102E90005F2131540121002001F09BF910A801F0BD
:102EA000D3F9322001F0E3FB72E715B0BDE8F083FF
:102EB00070B504000A260021002001F08AF9DFF82D
:102EC000600701F0C1F90121002001F082F9DFF86B
:102ED000700401F0B9F92000FFF72EFE200005F084
:102EE000EFFA0500EDB2002D04D13000461EC0B24D
:102EF0000028F3D1EDB2002D13D10021002001F004
:102F000068F9DFF89C0701F09FF90121002001F02A
:102F100060F9DFF8980801F097F940F6B83001F051
:102F2000A6FB70BDB005010070B592B000A84421A9
:102F300006F090FD05250021002001F04AF9DFF898
:102F4000A00701F081F90121002001F042F9DFF82A
:102F5000940701F079F901F0AFFA002842D001F0AE
:102F600042FA0400E4B22000401E022835D9C01EF7
:102F700034D10021002001F02CF9DFF8B80B01F06A
:102F800063F90121002001F024F9DFF8B40301F016
:102F90005BF900A805F094FA0600F6B2002E04D101
:102FA0002800451EC0B20028F3D1F6B2002E13D17E
:102FB0000021002001F00DF9DFF8E40601F044F9EA
:102FC0000121002001F005F9DFF8E00701F03CF9EC
:102FD00040F6B83001F04BFB04E003E0322001F092
:102FE00046FBB8E712B070BD1C0801006804001071
:102FF000C4050100D8050100EC0501000006010030
:10300000AC0C01008096980040420F00A0860100A1
:1030100070B59AB000A8DFF8A41B682206F0EEFC99
:1030200002F016FF050000260C2001F0EFF8DFF893
:103030001C0C01F009F90121002001F0CAF8EDB2E1
:10304000F6B2B54201D1012000E000201121F6B214
:10305000222200AB02FB063201FB002001F0F4F853
:1030600001F02AFA002867D001F0BDF90400E4B2AB
:10307000012C23D05CD3032C21D03DD3042C57D179
:10308000F6B2022E58D035002800C0B202F0C5FEBC
:103090000121002001F09DF8EDB2F6B2B54201D158
:1030A000012000E000201121F6B2222200AB02FB39
:1030B000063201FB002001F0C7F839E03CE0F6B22F
:1030C000701C032190FBF1F201FB1206012100208C
:1030D00001F07FF8EDB2F6B2B54201D1012000E077
:1030E00000201121F6B2222200AB02FB063201FBC6
:1030F000002001F0A9F81BE0F6B2002E01D0761EE8
:1031000001E0022006000121002001F062F8EDB28A
:10311000F6B2B54201D1012000E000201121F6B243
:10312000222200AB02FB063201FB002001F08CF8EA
:10313000322001F09CFA93E71AB070BDB0FA35E086
:10314000486B0010880C0100340E01003C0E010099
:1031500070B59AB000A8DFF8F81A682206F04EFCA5
:1031600002F0ADFE050000260C2001F04FF8DFF85C
:10317000100C01F069F80121002001F02AF8EDB2ED
:10318000F6B2B54201D1012000E000201121F6B2D3
:10319000222200AB02FB063201FB002001F054F8B2
:1031A00001F08AF9002867D001F01DF90400E4B2AB
:1031B000012C23D05CD3032C21D03DD3042C57D138
:1031C000F6B2022E58D035002800C0B202F05CFEE4
:1031D0000121002000F0FDFFEDB2F6B2B54201D1B1
:1031E000012000E000201121F6B2222200AB02FBF8
:1031F000063201FB002001F027F839E03CE0F6B28E
:10320000701C032190FBF1F201FB1206012100204A
:1032100000F0DFFFEDB2F6B2B54201D1012000E0CF
:1032200000201121F6B2222200AB02FB063201FB84
:10323000002001F009F81BE0F6B2002E01D0761E46
:1032400001E0022006000121002000F0C2FFEDB2E3
:10325000F6B2B54201D1012000E000201121F6B202
:10326000222200AB02FB063201FB002000F0ECFF43
:10327000322001F0FCF993E71AB070BDB09EAEFFAA
:103280004C0E010070B5A2B000A8DFF8F81A882231
:1032900006F0B4FB002602F07EFE05000C2000F0D4
:1032A000B5FFDFF8E40A00F0CFFF01F005F90028D0
:1032B0003DD001F098F80400E4B2012C0ED01DD3EB
:1032C000032C0CD013D3042C18D1F6B2032E2ED01D
:1032D00035002800C0B202F07AFE0FE027E0F6B217
:1032E000701C042190FBF1F606FB110606E0F6B215
:1032F000002E01D0761E01E00320060001210020EF
:1033000000F067FFEDB2F6B2B54201D1012000E056
:1033100000201121F6B2222200AB02FB063201FB93
:10332000002000F091FF322001F0A1F9BDE722B0AA
:1033300070BD0000340401001406010028060100DD
:103340003C060100500601006406010080B506F04D
:1033500085FB01BD80B506F0D3FC01BD2DE9F04130
:103360008CB002F04FFE050002A8DFF8E81B142223
:1033700006F044FB002707A8DFF8DC1B102206F04C
:103380003DFB00A8DFF8D41B0CC90CC00839083875
:103390005FF000080C2000F039FFDFF8C40B00F0EC
:1033A00053FF01F089F8002855D001F01CF8040003
:1033B000E4B2012C0FD026D3032C10D016D3042C4A
:1033C00021D15FFA88F818F10100042190FBF1F88F
:1033D00008FB110817E0280002F03BFE3BE05FFA13
:1033E00088F800A830F9180045190CE05FFA88F851
:1033F00000A830F91800854205D35FFA88F800A8C4
:1034000030F918002D1A5FFA88F807A850F828300C
:103410002A00DFF8501B02A802F042FF02A803F0C6
:10342000A1FE0600F6B2FFB2BE4207D00121002085
:1034300000F0CFFEDFF8300B00F006FF370001216F
:10344000F6B2D6F110004010C0B200F0C2FE02A8E1
:1034500000F0FAFEA5E70CB0BDE8F0815CF90000D1
:1034600010B504000021002000F0B3FEDFF8FC0AD4
:1034700000F0EAFE0121012000F0ABFEE4B2DFF82B
:10348000F00A50F8240000F0DFFE0121002000F0D7
:10349000A0FE7E2000F0BAFE10BD00000404001063
:1034A00038B500250C2000F0B1FE2800C0B2FFF7AF
:1034B000D7FF01F001F8002832D000F094FF04009B
:1034C000E4B2012C14D023D3032C12D019D3042C32
:1034D0001ED1EDB2DFF89C0A50F82500002806D076
:1034E000EDB2DFF8900A50F82500804710E017E0B1
:1034F00016E0EDB2681C0A2190FBF1F201FB120507
:1035000006E0EDB2002D01D06D1E01E0092005009E
:103510002800C0B2FFF7A4FF322001F0A8F8C8E7E6
:1035200031BD10B504000021002000F052FEDFF88C
:10353000480A00F089FE0121012000F04AFEE4B2B1
:10354000DFF8380A50F8240000F07EFE0121002048
:1035500000F03FFE7E2000F059FE10BD540E010029
:1035600038B500250C2000F051FE2800C0B2FFF74E
:10357000D8FF00F0A1FF002832D000F034FF040093
:10358000E4B2012C14D023D3032C12D019D3042C71
:103590001ED1EDB2DFF8E80950F82500002806D06A
:1035A000EDB2DFF8DC0950F82500804710E017E0A5
:1035B00016E0EDB2681C062190FBF1F201FB12054A
:1035C00006E0EDB2002D01D06D1E01E005200500E2
:1035D0002800C0B2FFF7A5FF322001F048F8C8E785
:1035E00031BD10B504000021002000F0F2FDDFF82D
:1035F000940900F029FE0121012000F0EAFDE4B267
:10360000DFF8840950F8240000F01EFE012100209C
:1036100000F0DFFD7E2000F0F9FD10BD000000008D
:103620007806010038B500252800C0B2FFF7D9FFA1
:1036300000F042FF002832D000F0D5FE0400E4B2D2
:10364000012C14D023D3032C12D019D3042C1ED157
:10365000EDB2DFF8380950F82500002806D0EDB2A9
:10366000DFF8280950F82500804710E017E016E041
:10367000EDB2681C042190FBF1F505FB110506E095
:10368000EDB2002D01D06D1E01E0032005002800E1
:10369000C0B2FFF7A6FF322000F0E9FFC8E731BD56
:1036A0008C06010010B504000021002000F091FDFF
:1036B000DFF8DC0800F0C8FD0121012000F089FDE1
:1036C000E4B2DFF8D00850F8240000F0BDFD01217D
:1036D000002000F07EFD7E2000F098FD10BD00006F
:1036E000B4060100C806010038B500250C2000F022
:1036F0008DFD2800C0B2FFF7D5FF00F0DDFE0028E9
:1037000032D000F070FE0400E4B2012C14D023D3B8
:10371000032C12D019D3042C1ED1EDB2DFF8780897
:1037200050F82500002806D0EDB2DFF86C0850F8FC
:103730002500804710E017E016E0EDB2681C042178
:1037400090FBF1F505FB110506E0EDB2002D01D06F
:103750006D1E01E0032005002800C0B2FFF7A2FFA4
:10376000322000F084FFC8E731BD0000DC06010014
:1037700010B504000021002000F02BFDDFF8100838
:1037800000F062FD0121012000F023FDE4B2DFF82A
:103790000C0850F8240000F057FD0121002000F033
:1037A00018FD7E2000F032FD10BD0000A0060100D3
:1037B000F006010038B5002541F6FB10FCF7C2FF0A
:1037C000002803D10C2000F021FD3AE02800C0B20F
:1037D000FFF7CEFF00F070FE002832D000F003FEAD
:1037E0000400E4B2012C14D023D3032C12D019D33B
:1037F000042C1ED1EDB2DFF8A80750F825000028F0
:1038000006D0EDB2DFF8980750F82500804710E0A9
:1038100017E016E0EDB2681C0C2190FBF1F201FB01
:10382000120506E0EDB2002D01D06D1E01E00B2067
:1038300005002800C0B2FFF79BFF322000F017FF01
:10384000C8E731BD0407010030B587B001F097FE2D
:10385000050000A8DFF84C170CC90CC0083908385F
:103860000C2000F0D3FCDFF8400700F0EDFC00F086
:10387000BAFD0400E4B2012C16D02FD3032C20D0C3
:1038800026D3042C2AD106F0DEFB0A2000F0EFFE3E
:10389000280080B201F09BFE0A2000F0E8FE002123
:1038A000012006F09BFB19E006F0CDFB0A2000F09A
:1038B000DEFE280080B201F08AFE0C2000F0A6FC9B
:1038C00022E0ADB21E2D00DA6D1C06F0BCFB05E057
:1038D000ADB2022D00DB6D1E06F0B5FB06F019FC43
:1038E000002801D0009B00E0019BADB22A00DFF868
:1038F000BC1602A802F0D4FC0121002000F069FCF3
:1039000002A800F0A1FCB2E707B030BDE40D010051
:1039100030B587B001F062FF050000A8DFF890160F
:103920000CC90CC0083908380C2000F06FFCDFF817
:10393000840600F089FC00F056FD0400E4B2012C7E
:1039400016D02CD3032C1DD023D3042C27D106F062
:103950007AFB012000F08BFE280080B201F066FFA8
:10396000012000F084FE0021002006F037FB16E065
:1039700006F069FB280080B201F058FF0C2000F02F
:1039800045FC22E0ADB21E2D00DA6D1C06F05BFB9B
:1039900005E0ADB2022D00DB6D1E06F054FB06F013
:1039A000B8FB002801D0009B00E0019BADB22A00CB
:1039B000DFF8F81502A802F073FC0121002000F0E6
:1039C00008FC02A800F040FCB5E707B030BD30B5F8
:1039D0008BB0042001F071FA05000C2000F016FCF9
:1039E000DFF8D40500F030FC00F0FDFC0400E4B288
:1039F000012C1ED02BD3032C24D025D3042C26D16C
:103A0000290089B2042001F00AFA0121002000F007
:103A1000E0FBDFF8A80500F017FC280003F045F8EC
:103A20000121002000F0D5FBDFF83C0500F00CFC84
:103A30000DE0290089B2042001F0F1F90C2000F01A
:103A4000E5FB36E06D1C02E0062D00D36D1E642000
:103A5000B5FBF0F00A21B0FBF1F201FB12003030AF
:103A60008DF800000A20B5FBF0F00A21B0FBF1F25E
:103A700001FB120030308DF801002C208DF802007F
:103A80000A20B5FBF0F100FB115030308DF8030037
:103A900000208DF8040000AADFF8241505A802F024
:103AA000FFFB0121002000F094FB05A800F0CCFBF7
:103AB0009AE70BB030BD70B586B002F0EDFA0500A4
:103AC00002F034FB06000C2000F0A0FB00F0F4FC38
:103AD00000282CD000F087FC0400E4B2012C06D0B2
:103AE00007D3032C04D004D3042C02D101E01EE040
:103AF000FFE72A00DFF8CC1400A802F0D1FB002178
:103B0000002000F066FB00A800F09EFB3200DFF80A
:103B1000B81400A802F0C4FB0121002000F059FBFA
:103B200000A800F091FB322000F0A1FDCEE706B026
:103B300070BD00001807010038B500250C2000F00A
:103B400065FB0021002000F044FBDFF8800400F05A
:103B50007BFB00F0B1FC00282ED000F044FC0400F8
:103B6000E4B2012C08D00DD3032C06D008D3042CCA
:103B700008D195F0FF0505E01EE00020050001E0FA
:103B8000FF200500322000F072FD2800C0B204F0D2
:103B900029FA0121002000F01CFBEDB2002D04D118
:103BA000DFF82C0400F050FB03E0DFF8280400F0FD
:103BB0004BFB03F0C5FFCCE731BD0000C8F40000AB
:103BC00080B502F01AFB80B2FCF7BCFD00283CD0A7
:103BD000DFF8040400F03EF8ADF80000DFF8FC0365
:103BE00000F038F8ADF80200BDF80000BDF8021092
:103BF000884217D1BDF8000002F0E2FA0C2000F074
:103C000005FBDFF8DC0300F01FFB0121002000F0C2
:103C1000E0FADFF8D00300F017FB40F6B83000F010
:103C200026FD12E00C2000F0F1FADFF8BC0300F0F2
:103C30000BFB0121002000F0CCFADFF8B00300F00C
:103C400003FB40F6B83000F012FD01BD2C07010067
:103C500030F500002DE9F04385B00400002600A8EF
:103C6000DFF88C130CC90CC0083908385FF0000865
:103C70005FF001090C2000F0C9FA200000F0E4FA1E
:103C800000F01AFC002875D000F0ADFB0500EDB285
:103C9000012D23D046D3032D23D033D3042D41D17E
:103CA000761CF6B2042E18DB9DF800004FF47A71F2
:103CB0009DF8012064235A4301FB00209DF8021067
:103CC0000A2202FB01009DF80310081800F53C5081
:103CD000B0300700380080B24EE023E04FF6FF70AE
:103CE0004AE0F6B200A8305C401CF6B200A970545D
:103CF000F6B200A8305C3A2803DBF6B200A8302107
:103D000031540FE0F6B200A8305C401EF6B200A9B4
:103D10007054F6B200A8305C302803DAF6B200A87E
:103D200039213154B9F101094846C0B200281DD1EA
:103D3000042081465FFA88F87FEA0808042200A977
:103D400002A802F0C7FA00208DF80C005FFA88F88C
:103D5000B8F1000F03D0F6B202A85F21315401215F
:103D6000062000F036FA02A800F06EFA322000F0C9
:103D70007EFC85E74FF6FF7005B0BDE8F0830000DC
:103D80004007010040F40000080A01002DE9F04F4F
:103D90008BB00026002701245FF0000895480068DA
:103DA00005F09CFD05F0AAFD42F2107190FBF1F2C6
:103DB00001FB120A0C2000F029FA1FFA8AFA524677
:103DC0008D4900A802F06CFA00A800F03DFA01212C
:103DD000002000F0FEF9894800F036FA884900A872
:103DE00002F05EFA00F068FB002800F0B08000F0FE
:103DF000FAFA0500EDB2012D64D0C0F08580032DE4
:103E000061D071D3042D40F07F80F6B2052E57DBD0
:103E10009DF800007B499DF8012042F210735A433F
:103E200001FB00209DF802104FF47A7202FB0100A2
:103E30009DF80310642202FB01009DF804100A2281
:103E400002FB01009DF8051008186F4911EB000BEB
:103E50005FEA8B3B5FEA9B3B5FEA9B3080465846BC
:103E60008004800C40F6BC31484081460C2000F0B4
:103E7000CDF91FFA89F91FFA8AFAD14511D16348A1
:103E800000F0E2F90121002000F0A3F9604800F001
:103E9000DBF9002002F094F941F2883000F0E7FBF2
:103EA00009E05A4800F0D0F90121002000F091F912
:103EB000584800F0C9F940F6B83000F0D8FB46E0A9
:103EC000761C21E043E0F6B200A8305C401CF6B25C
:103ED00000A97054F6B200A8305C3A2803DBF6B2B1
:103EE00000A8302131540FE0F6B200A8305C401E2B
:103EF000F6B200A97054F6B200A8305C302803DA9C
:103F0000F6B200A839213154601E0400C0B2002866
:103F100019D104200400FFB2FF43112200A905A813
:103F200002F0D8F900208DF81B00FFB2002F03D05B
:103F3000F6B205A85F2131540121072000F049F9AC
:103F400005A800F081F9322000F091FB4AE70BB0A0
:103F5000BDE8F08F54070100180A01006C0E010043
:103F600068070100740E01007C070100280A0100A7
:103F7000340300103CF800009007010038040010E2
:103F8000E8F90000A40701007C040010780A010091
:103F9000B80701008C040010880A0100D802001044
:103FA0005CF700008C0E0100CC070100380A01000C
:103FB000940E0100E0070100F40701000808010069
:103FC000B80C0100480A0100580A01004C05010024
:103FD000C40C0100D00C0100DC0C0100E80C010055
:103FE000680A01009C0E0100A40E0100F40C0100FF
:103FF000AC0E0100486B0010880C0100340E01006B
:104000003C0E0100A0860100B09EAEFFE40D010051
:10401000000D0100A00C010070B504000D009D48CA
:10402000006850F080009B4908609A48006850F092
:104030004000984908609748006850F02000954972
:1040400008609448006850F0100092490860914858
:10405000006850F400708F4908608E48006850F482
:1040600000708C4908608B48006850F48070894962
:1040700008604FF4FA7000F0FAFA00200600F6B279
:10408000032E07DA032000F030F8642000F0EFFA86
:10409000761CF4E7022000F028F8142000F0E7FA7C
:1040A00054F02001C9B2002000F074F8142000F090
:1040B000DEFA55F00801C9B2002000F06BF81420B8
:1040C00000F0D5FA55F0080073490870102100205F
:1040D00000F060F80A2000F0CAFA0621002000F083
:1040E00059F80A2000F0C3FA70BD6C49096851F410
:1040F00080716A4A116000BF00BF00BF00BF00BFEF
:1041000000BFC10706D56549096851F08001634ABF
:10411000116005E06249096851F08001604A116050
:10412000810706D55D49096851F040015B4A11607D
:1041300005E05B49096851F04001594A11604107A7
:1041400006D55649096851F02001544A116005E02E
:104150005349096851F02001514A1160010706D501
:104160004E49096851F010014C4A116005E04C4974
:10417000096851F010014A4A116000BF00BF00BF3A
:1041800000BF00BF00BF4649096851F48071444A2E
:104190001160704738B504000D00E4B2002C06D061
:1041A0003E48006850F400703C49086005E03C4817
:1041B000006850F400703A490860EDB22809FFF732
:1041C00094FF2800C0B2FFF790FF022000F04FFAE2
:1041D00031BD38B504000D00E4B2102C09DAEDB29F
:1041E000002D06D1B4F18001C9B20020FFF7D2FF43
:1041F00008E0EDB2012D05D1B4F14001C9B20020B3
:10420000FFF7C8FF042000F032FA31BD10B50400FA
:10421000E4B220000A280CD00C2802D00D2808D0C7
:104220000CE001210020FFF7B5FF0C2000F01FFA81
:1042300009E002210120FFF7ADFF04E02100C9B22F
:104240000120FFF7A7FF10BD10B50400207800285B
:1042500004D02078FFF7DAFF641CF7E710BD80B5C3
:104260000D48007850F002000B4908700A480178A8
:104270000020FFF78FFF01BD80B50748007810F0E0
:10428000FD0005490870044801780020FFF782FF0F
:1042900001BD000000C00920FA6B001018C0092001
:1042A0001CC009209B480068002804D09948006879
:1042B000401E9849086098480088002804D0964815
:1042C0000088401E9449088094480088002805D042
:1042D00092480088401E9149088083E09048007809
:1042E0009049002242548E4800788E49405C8E49A5
:1042F0000968C1F3002111F0010191F00101C9B277
:10430000084387490978874A8854874800684005E8
:1043100001D5002000E0022081490978814A895CAA
:1043200008437F4909787F4A88547F4800688005A0
:1043300001D5002000E0042079490978794A895C98
:10434000084377490978774A8854774800684004D9
:1043500001D5002000E0082071490978714A895C84
:1043600008436F4909786F4A88546F480068800095
:1043700001D5002000E0102069490978694A895C6C
:10438000084367490978674A8854674800680028E5
:1043900001D5402000E0002061490978614A895C2C
:1043A00008435F4909785F4A88545F4800684000C5
:1043B00001D5202000E0002059490978594A895C3C
:1043C000084357490978574A885455480078401C93
:1043D000082190FBF1F202FB1102514802704F4894
:1043E00006210180704710B4002001000020C0B2F7
:1043F000082809DAC0B24B4A825C12F00902092A85
:1044000000D1491C401CF2E7C9B2052901DB082094
:1044100050E00020C0B2052848DA00221100002236
:10442000D2B2082A09DAD2B23E4BD35C01248440CE
:10443000234200D0491C521CF2E7C9B2052933DBE4
:10444000354A1288002A1BD1384A1278002A0DD02A
:10445000364A00231370304A4FF4FA6313802D4A12
:104460004EF660231360401CC0B223E02A4A322378
:104470001380284A4EF660231360401CC0B219E036
:104480002A4A1278002A0DD0284A00231370224AA3
:104490004FF4FA6313801F4A4EF660231360401CEA
:1044A000C0B207E0002005E0401CB3E71F4801222E
:1044B0000270002010BC704716480068704700204A
:1044C0000021C9B2082907DAC9B2164A8A5C520625
:1044D00000D5401C491CF4E7C0B2052801DB0120CF
:1044E00000E00020C0B2704700200021C9B20829B6
:1044F00007DAC9B20B4A8A5C920600D5401C491CF7
:10450000F4E7C0B2052801DB012000E00020C0B2C2
:1045100070470000706B0010F4040010F6040010E7
:10452000F86B00100C6B001034C00920F96B001000
:104530002DE9FB4F82B014000E9D0F9E109FDDF8F9
:1045400044803900200080B200F052FB8246BAF16C
:10455000000F75D0A4B2DAF8300010EB8400001F11
:1045600083465FEADB0B5FEACB0BA4B200944346C1
:104570002A000399504600F0C6FA049A0299584658
:1045800005F004FECAF80000002E01D0C6F800A015
:1045900005F024FEDFF820070068401CDFF818173C
:1045A0000860DFF86007006800280BD1DFF85407C7
:1045B000C0F800A0DFF800070068012811D100F062
:1045C000C3FA0EE0DFF840070068002809D1DFF8E1
:1045D00034070068C06A854203D3DFF82807C0F8B3
:1045E00000A0DFF828070068DAF82C10884204D20F
:1045F000DAF82C00DFF814170860DFF814070068F9
:10460000401CDFF80C170860DFF808070068DAF8CC
:104610002C10884204D2DAF82C00DFF8F816086073
:104620001AF10401DAF82C001422DFF8EC3602FB50
:10463000003005F05BFE0120814605F0D8FD02E068
:104640005FF0FF308146B9F1010F0CD1DFF8B806F9
:104650000068002807D0DFF8AC060068C06AA842EE
:1046600001D205F0B6FD484605B0BDE8F08F70B543
:1046700004000026002C2BD000F050F8DFF8A40630
:10468000006820180500DFF87C060068001D05F0B2
:104690005AFEDFF8700600684560DFF8880600689B
:1046A000854209D2DFF85C060068011DDFF8780654
:1046B000006805F02AFE08E0DFF848060068011DE2
:1046C000DFF86806006805F020FE00F02FF806000D
:1046D000002E01D105F07DFD70BD1FB500200390B7
:1046E0000020029000200190002000900023502222
:1046F000DFF848160FF20540FFF71AFF0400012CFF
:104700000BD105F051FEDFF8000601210160DFF852
:1047100014060021016005F046FD1FBDDFF81806F4
:104720000068401CDFF810160860704770B500255F
:1047300005F054FDDFF800060068401EDFF8F815AC
:104740000860DFF8F405006800285BD1DFF8680531
:104750000068002856D00026DFF8D8050068002839
:1047600004D0DFF8D005C068C46800E00024002C45
:1047700023D014F1180005F0E6FD201D05F0E3FD3F
:10478000DFF890050068E16A884203D2E06ADFF84A
:1047900084150860211DE06A1422DFF87C3502FBD5
:1047A000003005F0A3FDE06ADFF858150968C96A12
:1047B0008842D1D301200600CEE7DFF884050068E7
:1047C000002810D0DFF878050068002809D000F034
:1047D0001DF8DFF86C050068401EDFF864150860FE
:1047E000F0E701200600012E04D0DFF8580500682C
:1047F000012807D101200500DFF8480500210160EC
:1048000005F0E7FC05F0F3FC280070BD10B5DFF8FB
:1048100028050068002852D1DFF808050068401C10
:10482000DFF800150860DFF8FC040068002813D1E9
:10483000DFF8F81409680800DFF8F014DFF8E8245E
:1048400012680A60DFF8E0140860DFF8FC140968F9
:10485000491CDFF8F4241160DFF8D0040068006818
:10486000002805D0DFF8C4040068C068C46800E010
:104870000024002C2AD0DFF8AC040068616888426C
:1048800024D3201D05F05FFDA06A002803D014F199
:10489000180005F058FDDFF87C040068E16A8842E2
:1048A00003D2E06ADFF86C140860211DE06A14226C
:1048B000DFF8643402FB003005F018FDCCE7DFF8C8
:1048C00080040068401CDFF87814086010BD80B5D3
:1048D000DFF864040068002804D0DFF868040121D0
:1048E000016054E0DFF81C040068006BDFF814146A
:1048F00009680968884209D3DFF80804006810F1E4
:104900003401DFF80004006805F06EFE1422DFF8C1
:104910003C14DFF8F0030068006B05F067FE002828
:1049200009D0DFF8E003006810F13401DFF8D403A8
:10493000006805F059FEDFF8DC0300681421DFF899
:10494000D82301FB00200068002807D1DFF8C4034A
:104950000068401EDFF8BC130860ECE7DFF8B41312
:1049600009681422DFF8B03302FB01310800416806
:1049700049684160416810F10802914202D14168E2
:10498000496841604068C068DFF87813086001BD7D
:1049900070B504000D00DFF86C03006810F1180119
:1049A000200005F0B2FCDFF85C030068001D05F094
:1049B000CAFC15F1010F08D1DFF848030068011D9A
:1049C000DFF86C0305F092FC20E0DFF85803006884
:1049D00028180600DFF82C0300684660DFF844035F
:1049E0000068864209D2DFF81C030068011DDFF869
:1049F0003803006805F089FC08E0DFF80803006868
:104A0000011DDFF82803006805F07FFC70BD70B55C
:104A100004002068002802D0E068C66800E0002694
:104A200016F1180005F08FFCDFF80C030068002871
:104A300013D1301D05F087FCB6480068F16A884242
:104A400002D2F06AB3490860311DF06A1422B24BF9
:104A500002FB003005F04AFC04E016F11801B548ED
:104A600005F044FCF06AA7490968C96A884202D384
:104A70000120050001E000200500280070BDB249BA
:104A800009680160A74909684160704770B5040072
:104A90000D0005F0A3FB286810F1010F02D10020E2
:104AA000060022E0A84800682168884207D09D4897
:104AB00000686168884202D30120060015E0994829
:104AC00000686168401A296888420CD228689549B4
:104AD0000968401A6168081828602000FFF7CFFFB6
:104AE0000020060001E00120060005F080FB3000F8
:104AF00070BD9448012101607047000010B50400AA
:104B000000F045F8FCE7F8B504000D0016001F00A2
:104B10000C22290014F1340005F09AFD002084F8DD
:104B20003F00052E01D304200600E662A664201D86
:104B300005F0D9FB14F1180005F0D5FB2461D6F17E
:104B40000500A0616462F1BD10B500200400052CD1
:104B500007D21420704900FB041005F0B5FB641C5B
:104B6000F5E77B4805F0B0FB7A4805F0ADFB7148EE
:104B700005F0AAFB694805F0A7FB6D4805F0A4FB0A
:104B80006A487349016068487249016010BD38B5D0
:104B90006348006800282AD0FFF7C0FD5F4800681E
:104BA000002801D1012400E00024E4B2FFF7BEFD9B
:104BB000002C1CD105F012FB58480068002803D0D7
:104BC0005648C068C56800E00025281D05F0BBFBFD
:104BD00039480068401E3849086051480068401E46
:104BE0004F49086005F003FB280000F024F831BDB0
:104BF00070B504000D004C2005F060FD0600002E8D
:104C000017D0002D04D1A4B2A00005F057FD00E09C
:104C100028003063306B002805D1300005F076FDA8
:104C20000020060005E0A4B2A200A521306B05F02B
:104C300073FD300070BD10B50400206B05F066FDFB
:104C4000200005F063FD10BD2E490968080070477B
:104C500038B504002500E86A2A490968C96A88420B
:104C600029D228480068C06AD0F10500A8616869A7
:104C7000E96A1422284B02FB0131884217D1281D12
:104C800005F061FB1F480068C06AE86221480068BF
:104C9000E96A884202D2E86A1E490860291DE86A6A
:104CA00014221D4B02FB003005F020FB03E01548E9
:104CB0000068C06AE86231BD946B001038B504002A
:104CC0002500002C1CD0E86AA96C884218D0281D49
:104CD00005F039FBA86CE862E86AD0F10500A8612C
:104CE0000C480068E96A884202D2E86A094908600B
:104CF000291DE86A1422084B02FB003005F0F6FA81
:104D000031BD0000846B0010A46B00109C6B001080
:104D1000B86B0010A06B001000690010DC6A001076
:104D2000906B0010986B00108C6B0010886B00105B
:104D3000F06A0010C86A0010A86B0010C40E0100D1
:104D4000AC6B0010B06B0010B46B00109408010045
:104D5000A06A0010B46A0010F0B583B004000D0022
:104D60001600280C8DF80000280A8DF80100280094
:104D70008DF80200300C8DF80300300A8DF8040025
:104D800030008DF805000622002100A805F0DBFCAC
:104D90000700BFB2380A8DF8060038008DF807000A
:104DA000082200A9E4B2844850F8240005F016FF58
:104DB000F7BD7CB504000D001600082200A9E4B27E
:104DC0007D4850F8240005F025FF0622002100A8A8
:104DD00005F0B9FC01009DF806009DF8072052EA95
:104DE000002292B289B28A4217D19DF800009DF844
:104DF00001301B0253EA00409DF80230184328603E
:104E00009DF803009DF804301B0253EA00409DF812
:104E1000053018433060FF2000E0002076BD70B5FB
:104E200082B004000E00B6B2300A8DF800003000E7
:104E30008DF801000222002100A805F084FC050085
:104E4000ADB2280A8DF8020028008DF80300E4B204
:104E5000002C08D0022C14D00CD3042C1FD017D354
:104E6000052C23D028E0042200A94FF4885005F037
:104E7000B5FE21E0042200A941F2041005F0AEFEC7
:104E80001AE0042200A941F2081005F0A7FE13E081
:104E9000042200A941F20C1005F0A0FE0CE004224F
:104EA00000A941F2101005F099FE05E0042200A9C6
:104EB00041F2141005F092FE73BD2DE9F04182B06D
:104EC0000400E4B2002C08D0022C1CD010D3042C17
:104ED00033D025D3052C3BD045E0042200A94FF464
:104EE000885005F097FE1E200600B42007003AE027
:104EF000042200A941F2041005F08CFE3C200600BB
:104F0000C82007002FE0042200A941F2081005F094
:104F100081FE4FF4FA60060044F25060070022E080
:104F2000042200A941F20C1005F074FE4FF4FA605F
:104F3000060044F25060070015E0042200A941F287
:104F4000101005F067FE01200600C82007000AE0E7
:104F5000042200A941F2141005F05CFE01200600B5
:104F60004FF6E85007000222002100A805F0EBFBF5
:104F700080461FFA88F89DF802009DF8031051EA58
:104F80000020804513D19DF800009DF8011051EAE2
:104F900000200500ADB2B6B2B54200D23500BFB2B6
:104FA000ADB2AF4200D23D00280080B201E0300037
:104FB00080B2BDE8F6810000B80A01002DE9F04793
:104FC00082B006000F00904699460A9C0B9DF6B2EF
:104FD000002E01D0012000E000208DF80000FFB27B
:104FE000002F01D0022000E000209DF800100843AF
:104FF0008DF800005FFA88F8B8F1000F01D00420A6
:1050000000E000209DF8001008438DF800005FFAD2
:1050100089F9B9F1000F01D0082000E000209DF8C7
:10502000001008438DF80000E4B2002C01D01020DD
:1050300000E000209DF8001008438DF80000EDB25C
:10504000002D01D0202000E000209DF80010084332
:105050008DF800000122002100A805F074FB8246B3
:105060001FFA8AFA5FEA1A208DF8010050468DF87F
:105070000200032200A941F2281005F0AFFDBDE8AF
:10508000F3872DE9F84304000D0016001F00DDF83A
:105090002080DDF82490032200A941F2281005F0B9
:1050A000B9FD0122002100A805F04DFB80B29DF85A
:1050B0000110B0EB012F01D1012100E00021C9B2A4
:1050C0009DF802201143002932D09DF80010C90735
:1050D00001D5FF2100E0002121709DF80010890713
:1050E00001D5FF2100E0002129709DF8001049073B
:1050F00001D5FF2100E0002131709DF80010090763
:1051000001D5FF2100E0002139709DF80010C9068B
:1051100001D5FF2100E0002188F800109DF8001063
:10512000890601D5FF2100E0002189F800100DE07B
:10513000FF212170FF212970FF213170FF2139707B
:10514000FF2188F80010FF2189F80010BDE8F183E5
:105150001CB5062200A94FF4005005F05BFD0422A7
:10516000002100A805F0EFFA0400A4B29DF80400A5
:105170009DF8051051EA002084420ED19DF80000F0
:105180009DF80110090451EA00609DF8021050EAF0
:1051900001209DF80310084300E0002016BD30B543
:1051A00083B00400200E8DF80000200C8DF8010063
:1051B000200A8DF8020020008DF80300042200214F
:1051C00000A805F0C0FA0500ADB2280A8DF8040069
:1051D00028008DF80500062200A94FF4005005F0C4
:1051E000FDFC37BD1CB5062200A94FF4A85005F000
:1051F00011FD0422002100A805F0A5FA0400A4B2C4
:105200009DF804009DF8051051EA002084420ED15B
:105210009DF800009DF80110090451EA00609DF816
:10522000021050EA01209DF80310084300E000201E
:1052300016BD30B583B00400200E8DF80000200CA0
:105240008DF80100200A8DF8020020008DF803007F
:105250000422002100A805F076FA0500ADB2280A64
:105260008DF8040028008DF80500062200A94FF4EF
:10527000A85005F0B3FC37BD1CB5062200A941F2C9
:10528000505005F0C7FC0422002100A805F05BFA8D
:105290000400A4B29DF804009DF8051051EA002016
:1052A00084420ED19DF800009DF80110090451EAD6
:1052B00000609DF8021050EA01209DF80310084399
:1052C00000E0002016BD30B583B00400200E8DF83C
:1052D0000000200C8DF80100200A8DF8020020004B
:1052E0008DF803000422002100A805F02CFA050027
:1052F000ADB2280A8DF8040028008DF805000622BA
:1053000000A941F2505005F069FC37BD10B582B0DC
:10531000042200A941F2705005F07CFC0222002119
:1053200000A805F010FA0400A4B29DF802009DF850
:10533000031051EA0020844207D19DF800009DF837
:10534000011051EA002080B200E0002016BD38B5FF
:105350000400A4B2200A8DF8000020008DF801009E
:105360000222002100A805F0EEF90500ADB2280ADE
:105370008DF8020028008DF80300042200A941F2F4
:10538000705005F02BFC31BD10B582B0042200A98D
:105390004FF4AC5005F03EFC0222002100A805F0BD
:1053A000D2F90400A4B29DF802009DF8031051EA5E
:1053B0000020844207D19DF800009DF8011051EAB9
:1053C000002080B200E0002016BD38B50400A4B271
:1053D000200A8DF8000020008DF801000222002133
:1053E00000A805F0B0F90500ADB2280A8DF802005A
:1053F00028008DF80300042200A94FF4AC5005F0FA
:10540000EDFB31BD38B50400A4B2200A8DF80000D0
:1054100020008DF801000222002100A805F093F978
:105420000500ADB2280A8DF8020028008DF80300AF
:10543000042200A941F2905005F0D0FB31BD38B5EF
:105440000400A4B2200A8DF8000020008DF80100AD
:105450000222002100A805F076F90500ADB2280A65
:105460008DF8020028008DF80300042200A941F203
:10547000955005F0B3FB31BD10B582B0042200A9F0
:1054800041F2955005F0C6FB0222002100A805F06C
:105490005AF90400A4B29DF802009DF8031051EAE5
:1054A0000020844218D19DF800009DF8011051EAB7
:1054B00000200400A4B2B4F57A6F02DA4FF47A60E7
:1054C0000400A4B244F25160844202DB44F2506012
:1054D0000400200080B201E041F2883016BD38B5EA
:1054E0000400A4B2200A8DF8000020008DF801000D
:1054F0000222002100A805F026F90500ADB2280A15
:105500008DF8020028008DF80300042200A94FF452
:10551000AD5005F063FB31BD10B582B0042200A987
:105520004FF4AD5005F076FB0222002100A805F0F3
:105530000AF90400A4B29DF802009DF8031051EA94
:105540000020844218D19DF800009DF8011051EA16
:1055500000200400A4B2B4F57A6F02DA4FF47A6046
:105560000400A4B244F25160844202DB44F2506071
:105570000400200080B201E041F2883016BD10B571
:1055800082B0042200A941F2A55005F043FB02229B
:10559000002100A805F0D7F80400A4B29DF802008D
:1055A0009DF8031051EA002084420ED19DF80000BE
:1055B0009DF8011051EA00200400A4B2652C01DB23
:1055C00064200400200080B200E0642016BD38B5DD
:1055D0000400A4B2200A8DF8000020008DF801001C
:1055E0000222002100A805F0AEF80500ADB2280A9D
:1055F0008DF8020028008DF80300042200A941F272
:10560000A55005F0EBFA31BD10B582B0042200A917
:1056100041F2B05005F0FEFA0222002100A805F088
:1056200092F80400A4B29DF802009DF8031051EA1C
:105630000020844215D19DF800009DF8011051EA28
:1056400000200400A4B2002C01D101200400A4B267
:10565000B4F5166F02DD4FF416600400200080B22E
:1056600000E0012016BD38B50400A4B2200A8DF870
:10567000000020008DF801000222002100A805F0A2
:1056800062F80500ADB2280A8DF8020028008DF8F6
:105690000300042200A941F2B05005F09FFA31BD89
:1056A00010B582B0042200A941F2B55005F0B2FA5B
:1056B0000222002100A805F046F80400A4B29DF8DB
:1056C00002009DF8031051EA0020844218D19DF891
:1056D00000009DF8011051EA00200400A4B2B4F5C6
:1056E0007A6F02DA4FF47A600400A4B244F62160C3
:1056F000844202DB44F620600400200080B200E017
:10570000012016BD38B50400A4B2200A8DF80000AF
:1057100020008DF801000222002100A805F013F8F6
:105720000500ADB2280A8DF8020028008DF80300AC
:10573000042200A941F2B55005F050FA31BD10B570
:1057400082B0042200A94FF4AE5005F063FA0222A1
:10575000002100A804F0F7FF0400A4B29DF80200A5
:105760009DF8031051EA0020844218D19DF80000F2
:105770009DF8011051EA00200400A4B2B4F57A7F2C
:1057800002DA4FF47A700400A4B243F699208442FE
:1057900002DB43F698200400200080B200E00120E4
:1057A00016BD38B50400A4B2200A8DF80000200010
:1057B0008DF801000222002100A804F0C4FF0500BA
:1057C000ADB2280A8DF8020028008DF803000422EB
:1057D00000A94FF4AE5005F001FA31BD10B582B00A
:1057E000042200A941F2C55005F014FA022200215A
:1057F00000A804F0A8FF0400A4B29DF802009DF8E0
:10580000031051EA002084420ED19DF800009DF85B
:10581000011051EA00200400A4B2652C01DB6420D1
:105820000400200080B200E0642016BD38B50400FA
:10583000A4B2200A8DF8000020008DF80100022299
:10584000002100A804F07FFF0500ADB2280A8DF802
:10585000020028008DF80300042200A941F2C5507F
:1058600005F0BCF931BD10B582B0042200A941F2A7
:10587000D05005F0CFF90222002100A804F063FF08
:105880000400A4B29DF802009DF8031051EA002024
:1058900084420ED19DF800009DF8011051EA0020CD
:1058A0000400A4B2652C01DB64200400200080B257
:1058B00000E0012016BD38B50400A4B2200A8DF81E
:1058C000000020008DF801000222002100A804F051
:1058D0003AFF0500ADB2280A8DF8020028008DF8C5
:1058E0000300042200A941F2D05005F077F931BD40
:1058F00038B50400A4B2200A8DF8000020008DF80D
:1059000001000222002100A804F01DFF0500ADB235
:10591000280A8DF8020028008DF80300042200A94F
:1059200041F2D45005F05AF931BD10B582B00422CD
:1059300000A941F2D45005F06DF90222002100A81F
:1059400004F001FF0400A4B29DF802009DF80310CA
:1059500051EA0020844210D19DF800009DF801100A
:1059600051EA00200400A4B2B4F5FA7F02DD4FF43E
:10597000FA700400200080B200E0012016BD30B5AE
:1059800083B00400200E8DF80000200C8DF801007B
:10599000200A8DF8020020008DF803000422002167
:1059A00000A804F0D0FE0500ADB2280A8DF804006E
:1059B00028008DF80500062200A941F2D85005F014
:1059C0000DF937BD1CB5062200A941F2D85005F0EB
:1059D00021F90422002100A804F0B5FE0400A4B2BD
:1059E0009DF804009DF8051051EA002084420ED174
:1059F0009DF800009DF80110090451EA00609DF82F
:105A0000021050EA01209DF80310084300E0002036
:105A100016BD38B50400E4B2002C01D0FF2004000C
:105A20008DF800400122002100A804F08CFE050042
:105A3000ADB2280A8DF8010028008DF8020003227B
:105A400000A94FF4B05005F0C9F831BD10B582B0CF
:105A5000032200A94FF4B05005F0DCF80122002128
:105A600000A804F070FE0400A4B29DF801009DF8A7
:105A7000021051EA0020844202D19DF8000000E0AB
:105A8000002016BD38B50400A4B2200A8DF800002D
:105A900020008DF801000222002100A804F053FE2E
:105AA0000500ADB2280A8DF8020028008DF8030029
:105AB000042200A941F2106005F090F831BD10B544
:105AC00082B0042200A941F2106005F0A3F802227E
:105AD000002100A804F037FE0400A4B29DF80200E3
:105AE0009DF8031051EA0020844207D19DF8000080
:105AF0009DF8011051EA002080B200E0412016BD5F
:105B000010B582B0042200A941F2086005F082F8C5
:105B10000222002100A804F016FE0400A4B29DF8A1
:105B200002009DF8031051EA0020844207D19DF83D
:105B300000009DF8011051EA002080B200E005202D
:105B400016BD70B586B004000D001122290000A812
:105B500000F0C0FB1122002100A804F0F4FD0600B3
:105B6000B6B2300A8DF8110030008DF81200132201
:105B700000A9E4B2132000FB04F010F5B85005F0C2
:105B80002DF806B070BD70B596B004000D0005A8E4
:105B90001749442203F032FF132200A9E4B2132074
:105BA00000FB04F010F5B85005F034F81122002184
:105BB00000A804F0C8FD0600B6B29DF811009DF8DB
:105BC000121051EA0020864205D1112200A92800B6
:105BD00000F080FB08E01122E4B2112005A900FBCF
:105BE0000411280000F076FB16B070BD0000000024
:105BF00070F6000038B50400E4B2002C01D0FF209C
:105C000004008DF800400122002100A804F09BFD53
:105C10000500ADB2280A8DF8010028008DF80200B9
:105C2000032200A94FF4C85004F0D8FF31BD10B5CD
:105C300082B0032200A94FF4C85004F0EBFF012208
:105C4000002100A804F07FFD0400A4B29DF801002B
:105C50009DF8021051EA0020844202D19DF8000014
:105C600000E0002016BD38B50400A4B2200A8DF86B
:105C7000000020008DF801000222002100A804F09D
:105C800062FD0500ADB2280A8DF8020028008DF8EB
:105C90000300042200A941F6041004F09FFF31BD67
:105CA00010B582B0042200A941F6041004F0B2FF3E
:105CB0000222002100A804F046FD0400A4B29DF8D1
:105CC00002009DF8031051EA0020844218D19DF88B
:105CD00000009DF8011051EA00200400A4B2B4F5C0
:105CE0007A6F02DA4FF47A600400A4B244F2516091
:105CF000844202DB44F250600400200080B201E0E4
:105D000041F2707016BD10B582B0042200A941F6B0
:105D1000081004F07FFF0222002100A804F013FD08
