:10000000106F00108D0E01003D1001004110010025
:1000100045100100491001004D1001000A31F9EFAF
:10002000000000000000000000000000E5A4000047
:10003000551001000000000093A4000029A3000057
:100040006110010093A10000EF6F0000116F00002C
:10005000711001009DA800009781000000000000C1
:1000600093E1000085100100891001008D1001004E
:100070009110010095100100991001009D100100E0
:10008000A1100100A5100100A91001003F6F0000A0
:10009000B110010097790000B9100100BD100100F6
:1000A000C1100100C5100100C9100100CD100100F0
:1000B000CD100100D5100100D9100100DD100100A4
:0400C000E11001004A
:1003000038B500250C2003F0D3FF2800C0B200F060
:1003100055F804F023F900284CD004F0B6F8040096
:10032000E4B2012C06D03AD3032C16D006D3042C09
:100330001FD034E00C2003F0BBFF3EE0EDB2002DF7
:1003400003D0EDB228006D1E02E008252800C0B2DF
:100350002800C0B200F032F821E0EDB2681C09219B
:1003600090FBF1F201FB12052800C0B200F026F864
:1003700015E0EDB2DFF8B40750F8250000280AD0E8
:10038000EDB2DFF8A80750F8250080472800C0B27A
:1003900000F014F803E00C2003F08AFF0DE0322097
:1003A00004F0B7F9DFF868080068401CDFF860184F
:1003B0000860AEE70C2003F07BFF31BD10B50400F0
:1003C0000021002003F057FFDFF8C00703F08EFF85
:1003D0000121002003F04FFFE4B2DFF8380850F8A5
:1003E000240003F083FF0121002003F044FF7E205E
:1003F00003F05EFF10BD38B500250C2003F058FF58
:100400002800C0B200F043F804F0A8F800283DD05E
:1004100004F03BF80400E4B2012C18D032D3032CD2
:1004200025D015D3042C2DD1EDB2DFF8480850F8B3
:10043000250000280AD0EDB2DFF8380850F8250072
:1004400080472800C0B200F022F81BE01EE01DE04B
:10045000EDB2002D03D0EDB228006D1E02E007259D
:100460002800C0B22800C0B200F011F80AE0EDB2D6
:10047000681C082190FBF1F505FB11052800C0B2AE
:1004800000F005F8322004F044F9BDE731BD10B5A5
:1004900004000021002003F0EEFEDFF8DC0703F08B
:1004A00025FF0121002003F0E6FEE4B2DFF8640836
:1004B00050F8240003F01AFF0121002003F0DBFEB6
:1004C0007E2003F0F5FE10BD30B585B0002004F0AD
:1004D00046FD05000C2003F0EBFEDFF8A00703F05B
:1004E00005FF04F03BF800282FD003F0CEFF0400F6
:1004F000E4B2012C0AD016D3032C10D00AD3042C5A
:1005000011D1290089B2002004F0DBFC0C2003F09B
:10051000CFFE1AE0ADB21F2D00DB6D1E03E0ADB2C1
:10052000B42D00DA6D1CADB22A00DFF8741800A8F3
:1005300005F014FF0121062003F09DFE00A803F042
:10054000D5FE322004F0E5F8CBE705B030BD30B57C
:1005500085B0012004F003FD05000C2003F0A8FE87
:10056000DFF8B40703F0C2FE03F0F8FF00282FD035
:1005700003F08BFF0400E4B2012C0AD016D3032C45
:1005800010D00AD3042C11D1290089B2012004F023
:1005900098FC0C2003F08CFE1AE0ADB23D2D00DB80
:1005A0006D1E03E0ADB2C82D00DA6D1CADB22A009D
:1005B000DFF8F81700A805F0D1FE0121062003F0AE
:1005C0005AFE00A803F092FE322004F0A2F8CBE716
:1005D00005B030BD30B585B0022004F0C0FC050088
:1005E0000C2003F065FEDFF8BC0703F07FFE03F08C
:1005F000B5FF00285CD003F048FF0400E4B2012CF2
:100600000AD03ED3032C23D00AD3042C39D129009D
:1006100089B2022004F055FC0C2003F049FE47E0AB
:10062000ADB2B5F5FA6F12DDDFF87C07006841F274
:100630008931884201D36D1E09E0DFF86C0700683C
:1006400040F6B931884201D30A3D00E0643D1DE027
:10065000ADB244F25060854212DADFF84C07006810
:1006600041F28931884201D36D1C09E0DFF8380777
:10067000006840F6B931884201D30A3500E064359C
:1006800004E0DFF8240741F288310160ADB22A00AE
:10069000DFF8F01700A805F061FE0121032003F048
:1006A000EAFD00A803F022FE322004F032F89EE7B3
:1006B00005B030BD30B585B0052004F050FC050014
:1006C0000C2003F0F5FDDFF8C00703F00FFE03F088
:1006D00045FF002834D003F0D8FE0400E4B2012C1A
:1006E0000AD01BD3032C13D00AD3042C16D1290013
:1006F00089B2052004F0E5FB0C2003F0D9FD1FE0D2
:10070000ADB2022D01DB6D1E01E00020050005E009
:10071000ADB240F2E730854200DA6D1CADB22A007E
:10072000DFF8441800A805F019FE0121032003F0AA
:10073000A2FD00A803F0DAFD322003F0EAFFC6E7CD
:1007400005B030BD2DE9F04385B00400002600A8B7
:10075000DFF818180CC90CC0083908385FF0000819
:100760005FF001090C2003F0A3FDDFF8040803F09B
:10077000BDFD03F0F3FE002800F0908003F085FE3D
:100780000500EDB2012D3ED060D3032D3DD04DD3F9
:10079000042D5BD1761CF6B2042E33DB9DF80000ED
:1007A0004FF47A719DF8012064235A4301FB002025
:1007B0009DF802100A2202FB01009DF803100818A0
:1007C00000F53C50B0300700BFB2A4B2A74201D13F
:1007D000FF2064E00C2003F06BFDDFF81C0803F041
:1007E00085FD0121002003F046FDDFF8100803F02D
:1007F0007DFD40F6B83003F08CFF0C2003F058FD6F
:1008000000204CE022E0002049E0F6B200A8305C75
:10081000401CF6B200A97054F6B200A8305C3A2829
:1008200003DBF6B200A8302131540FE0F6B200A885
:10083000305C401EF6B200A97054F6B200A8305CDD
:10084000302803DAF6B200A839213154B9F1010990
:100850004846C0B200281DD1042081465FFA88F8BE
:100860007FEA0808042200A902A805F091FD0020F3
:100870008DF80C005FFA88F8B8F1000F03D0F6B2DB
:1008800002A85F2131540121062003F0F4FC02A8E4
:1008900003F02CFD322003F03CFF6AE7002005B096
:1008A000BDE8F08330B585B000250DF10D00019055
:1008B00003A800900DF10B030DF10A020DF10901DF
:1008C00002A804F030FC0C2003F0F2FCDFF85C0A14
:1008D00003F00CFDEDB202A8295C2800C0B200F0C4
:1008E0005AF803F03BFE002853D003F0CEFD04007D
:1008F000E4B2012C28D048D3032C26D034D3042CC6
:1009000043D1EDB2062D10D19DF80D0001909DF858
:100910000C0000909DF80B309DF80A209DF80910FE
:100920009DF8080004F09CFB33E0EDB202A8285CBF
:10093000C043EDB202A96854EDB202A8295C2800B8
:10094000C0B200F028F820E023E0EDB2681C0721D7
:1009500090FBF1F201FB1205EDB202A8295C280020
:10096000C0B200F018F810E0EDB2002D03D0EDB2E7
:1009700028006D1E02E006252800C0B2EDB202A8D4
:10098000295C2800C0B200F006F8322003F0C1FE56
:10099000A7E705B030BD38B504000D0001210020E7
:1009A00003F069FCE4B2DFF8A40A50F8240003F075
:1009B0009DFCE4B2062C09DAEDB2002D06D001212F
:1009C000022003F058FC582003F072FC31BD10B532
:1009D00005F065FC80B2FFF7B5FE002833D00C208F
:1009E00003F066FCDFF8480903F080FC01210020D9
:1009F00003F041FCDFF83C0903F078FC03F0AEFDA6
:100A0000002820D003F041FD0400E4B220000128BA
:100A100018D00428F2D1082005F0E0FC0C2003F0E7
:100A200047FCDFF82C0A03F061FC0121002003F0F1
:100A300022FCDFF8780A03F059FC41F2883003F019
:100A400068FEDBE7FFE710BD38B5002505F027FCA1
:100A500080B2FFF777FE00284AD00C2003F028FC74
:100A60002800C0B200F045F803F078FD00283FD020
:100A700003F00BFD0400E4B2012C17D034D3032C97
:100A800018D023D3042C2FD1EDB2DFF8E00A50F8B0
:100A9000250000280AD0EDB2DFF8D00A50F8250072
:100AA00080472800C0B200F024F81DE00C2003F0BD
:100AB000FFFB1DE0EDB2681C082190FBF1F505FB82
:100AC00011052800C0B200F014F80DE0EDB2002DC1
:100AD00003D0EDB228006D1E02E007252800C0B249
:100AE0002800C0B200F005F8642003F012FEBBE756
:100AF00031BD10B504000021002003F0BCFBDFF87D
:100B0000B00903F0F3FB0121002003F0B4FBE4B2D1
:100B1000DFF85C0A50F8240003F0E8FB0121002014
:100B200003F0A9FB7E2003F0C3FB10BDACF900006D
:100B300030B585B004F0A8FB05002A00DFF8381AAC
:100B400000A805F00BFC0C2003F0B2FBDFF8E80A6C
:100B500003F0CCFB0121002003F08DFB00A803F083
:100B6000C5FB03F0FBFC00280DD003F08EFC040055
:100B7000E4B22000012801D0042800D103E0642061
:100B800003F0C7FDEDE705B030BD0000400A0100ED
:100B900010B50C2003F08CFBDFF8E00903F0A6FB96
:100BA0000121002003F067FBDFF8D40903F09EFB6E
:100BB00003F06BFC0400E4B2042C01D105F05AFCF4
:100BC000E4B2012CF4D105F06AFB80B2FFF7BAFD64
:100BD00000281BD00C2003F06BFBDFF8A80903F002
:100BE00085FB0121002003F046FBDFF8500A03F0EB
:100BF0007DFB002004F06FFB002004F012FF0020BA
:100C000005F0C3FA41F2883003F083FD10BD000007
:100C1000506B00108403001030B585B004F07EFBEB
:100C200005002A00DFF8501900A805F097FB0C20FA
:100C300003F03EFBDFF8100A03F058FB012100200F
:100C400003F019FB00A803F051FB03F087FC002818
:100C50000DD003F01AFC0400E4B22000012801D0FA
:100C6000042800D103E0642003F053FDEDE705B054
:100C700030BD0000FCF90000500A01008C040100A6
:100C800030B585B004F094FB05000C2003F010FB98
:100C9000DFF8B80903F02AFB03F060FC002836D027
:100CA00003F0F3FB0400E4B2012C09D01DD3032CA4
:100CB0000AD010D3042C18D1280080B204F099FB7C
:100CC0000C2003F0F5FA22E00A35ADB2792D01DBF4
:100CD0000020050009E0ADB2002D03D00A3D280038
:100CE00080B202E07825280080B2ADB22A00DFF899
:100CF000FC1900A805F032FB0121062003F0BBFA25
:100D000000A803F0F3FA642003F003FDC4E705B084
:100D100030BD0000A8030010A004010038B504F0A5
:100D200085FB0500ADB2002D03D04FF6FF70050026
:100D300001E0002005000C2003F0BAFADFF8A80952
:100D400003F0D4FA03F00AFC002827D003F09DFB3F
:100D50000400E4B2012C09D00ED3032C0AD009D32D
:100D6000042C09D1280080B204F081FB0C2003F090
:100D70009FFA13E0ADB2ED430121062003F07BFAA8
:100D8000ADB2002D03D076A003F0B0FA02E075A05A
:100D900003F0ACFA642003F0BCFCD3E731BD0000E3
:100DA000180F0100B4040100806B0010200F010037
:100DB00030B585B004F0B2FB05000C2003F078FAE2
:100DC000DFF8A80903F092FA03F0C8FB002856D018
:100DD00003F05BFB0400E4B2012C09D039D3032CEF
:100DE00020D009D3042C34D1280080B204F079FB40
:100DF0000C2003F05DFA42E0ADB2B5F5FA6F10DDFC
:100E0000DFF86C090068B0F57A7F01D96D1E08E043
:100E1000DFF85C090068B0F5FA7F01D90A3D00E00F
:100E2000643D1BE0ADB244F25060854210DADFF859
:100E300040090068B0F57A7F01D96D1C08E0DFF841
:100E400030090068B0F5FA7F01D90A3500E0643551
:100E500004E0DFF81C0940F6B8310160ADB22A00A9
:100E6000084900A805F07AFA0121032003F003FAEB
:100E700000A803F03BFA322003F04BFCA4E705B0D6
:100E800030BD0000DC0C0100C804010030B585B0A5
:100E900004F094FB05000C2003F00AFADFF8F809CF
:100EA00003F024FA03F05AFB002857D003F0EDFAC0
:100EB0000400E4B2012C09D039D3032C20D009D38B
:100EC000042C34D1280080B204F05BFB0C2003F02A
:100ED000EFF943E0ADB2B5F5FA6F10DDDFF8900839
:100EE0000068B0F57A7F01D96D1E08E0DFF8800850
:100EF0000068B0F5FA7F01D90A3D00E0643D1BE0CF
:100F0000ADB244F25060854210DADFF86408006840
:100F1000B0F57A7F01D96D1C08E0DFF8540800684D
:100F2000B0F5FA7F01D90A3500E0643504E0DFF856
:100F3000400840F6B8310160ADB22A00DFF8601A0F
:100F400000A805F00BFA0121032003F094F900A892
:100F500003F0CCF9322003F0DCFBA3E705B030BD91
:100F600053494D004E414F00E80C0100280F01008D
:100F7000DC04010030B585B004F098FB05000C20BE
:100F800003F096F9DFF8240A03F0B0F903F0E6FA6B
:100F900000282ED003F079FA0400E4B2012C09D025
:100FA00015D3032C0FD009D3042C10D1280080B204
:100FB00004F0ABFB0C2003F07BF91AE0ADB2022D7C
:100FC00000DB6D1E03E0ADB2782D00DA6D1CADB212
:100FD0002A00DFF8E01A00A805F0C0F90121062078
:100FE00003F049F900A803F081F9322003F091FBE6
:100FF000CCE705B030BD0000300F0100F40C01005B
:1010000030B585B004F09EFB05000C2003F050F9CC
:10101000DFF8A40A03F06AF903F0A0FA00285AD016
:1010200003F033FA0400E4B2012C09D03CD3032CC2
:1010300023D009D3042C37D1280080B204F0B4FBAC
:101040000C2003F035F946E0ADB241F2893085421B
:1010500012DBDFF81C07006841F28931884201D3B6
:101060006D1E09E0DFF80807006841F28931884207
:1010700001D30A3D00E0643D1BE0ADB244F2506094
:10108000854210DADFF8E8060068B0F57A7F01D90A
:101090006D1C08E0DFF8D8060068B0F5FA7F01D9CA
:1010A0000A3500E0643504E0DFF8C40640F6B831E4
:1010B0000160ADB22A00DFF8E81800A805F04EF98B
:1010C0000121062003F0D7F800A803F00FF9322021
:1010D00003F01FFBA0E705B030BD000038B50025C8
:1010E0002800C0B200F044F803F038FA00283DD0E0
:1010F00003F0CBF90400E4B2012C18D032D3032C56
:1011000025D015D3042C2DD1EDB2DFF8DC0A50F830
:10111000250000280AD0EDB2DFF8CC0A50F82500EF
:1011200080472800C0B200F023F81BE01EE01DE05D
:10113000EDB2002D03D0EDB228006D1E02E01225A5
:101140002800C0B22800C0B200F012F80AE0EDB2E8
:10115000681C132190FBF1F201FB12052800C0B2BC
:1011600000F006F8322003F0D4FABDE731BD0000EC
:1011700010B504000021002003F07DF8DFF86C0AB0
:1011800003F0B4F80121002003F075F8E4B2DFF8B1
:10119000600A50F8240003F0A9F80121002003F0B0
:1011A0006AF87E2003F084F810BD7FB50C2003F0B0
:1011B0007FF8DFF8400A03F099F803F066F90400BD
:1011C000E4B2012C19D005F04FFC05F0AFFC05008E
:1011D000280005F0BFFC06003200DFF81C1A00A84A
:1011E00005F0BCF80121002003F045F800A803F049
:1011F0007DF8642003F08DFADFE77FBD70B586B01F
:101200000C2003F055F8DFF8F40903F06FF8042020
:1012100003F0A5FE050003F038F90400E4B2012C48
:1012200046D0E4B2042C1DD10121002003F023F8A4
:10123000DFF8CC0903F05AF80121002003F01BF875
:10124000280005F0A0FC002804D0DFF8B80903F05E
:101250004DF803E0DFF8B00903F048F840F6B83085
:1012600003F057FA05F042FC0600B6B23200DFF890
:101270009C1900A805F072F80121012002F0FBFF83
:1012800000A803F033F80121082002F0F4FF05F074
:10129000AEFC002804D0DFF8780903F027F803E05B
:1012A000DFF8700903F022F8642003F032FAB2E7A5
:1012B00006B070BD38B50C2002F0FAFFDFF858090F
:1012C00003F014F803F0E1F80400E4B22000012870
:1012D00014D0042813D10121002002F0CCFFDFF844
:1012E0003C0903F003F805F0ACFC0121002002F0FA
:1012F000C2FFDFF82C0902F0F9FF00E014E005F06E
:10130000D1FC05000121052002F0B5FFEDB2002D52
:1013100003D098A002F0EAFF02E0C6A002F0E6FFC8
:10132000642003F0F6F9CDE731BD0000F0040100C0
:1013300004050100180501002DE9F04385B05FF0B8
:10134000000841F288364FF4E1670C2002F0B0FF4C
:10135000DFF8D00802F0CAFF03F097F80400E4B207
:10136000012C17D02ED3032C15D020D3042C29D137
:101370005FFA88F87FEA08085FFA88F8B8F1000F8A
:1013800004D0B6B2300005F06CFE02E0002005F09B
:1013900068FE17E057E0DFF8D80340F6B831016087
:1013A000B6B243F2C820864200DA64360AE0DFF8BB
:1013B000C00340F6B8310160B6B241F289308642CE
:1013C00000DB643EDFF8A803006800280DD1B6B248
:1013D000BFB2BE4209D05FFA88F8B8F1000F04D05E
:1013E000B6B2300005F03DFE37005FFA88F8B8F17C
:1013F000000F02D00FF2482901E00FF24829DFF870
:1014000070030068002802D0B6B2300001E005F099
:101410005FFE4B460200DFF8A81A00A804F09EFF0A
:1014200000A805F00BFF05000121EDB2D5F1100079
:101430004010C0B202F01FFF00A802F057FF642066
:1014400003F067F988E705B0BDE8F083E803001012
:101450002C05010010B586B00C2002F029FFDFF842
:101460005C0A02F043FFFF2005F051FE03F00DF887
:101470000400E4B2012C03D1002005F048FE13E083
:1014800005F0B2FD80B20200DFF8381A00A804F0BF
:1014900065FF0121052002F0EEFE00A802F026FF04
:1014A000642003F036F9E1E706B010BD4005010005
:1014B0005405010070B50025042003F050FD06001E
:1014C0000C2002F0F5FEDFF8000A02F00FFF02F038
:1014D000DCFF0400E4B2012C32D032D3032C0FD055
:1014E0000ED3042C2DD1EDB2ED43EDB2002D03D07F
:1014F000012005F088FB02E0002005F084FB20E0DD
:101500000121002002F0B7FEDFF8F40602F0EEFE43
:101510000121002002F0AFFEB6B2300005F033FB2F
:10152000002804D0DFF8DC0602F0E0FE03E0DFF87C
:10153000D80602F0DBFE40F6B83003F0EAF800E02F
:1015400013E00121002002F096FEEDB2002D04D040
:10155000DFF8780902F0CAFE03E0DFF8B40A02F00F
:10156000C5FE642003F0D5F8B1E770BD1CFA000099
:10157000C80300105B315D00000D01007C05010017
:10158000900501000C0D010070B586B0002500200B
:1015900006F070F90C2002F08BFEDFF8340902F03F
:1015A000A5FE02F072FF0400E4B2012C15D017D39F
:1015B000032C03D002D3042C03D011E006F0B4F9BD
:1015C0000EE0EDB2ED432800C0B206F08CF9002227
:1015D0000021002006F0F1FC02E006F0A5F927E06A
:1015E00005F0CDFF0600300006F0A2FD02000B0062
:1015F000DFF8201A00A804F0B1FE0121002002F05B
:101600003AFE00A802F072FE0121082002F033FE2B
:10161000EDB2002D04D0DFF8000A02F067FE03E00F
:10162000DFF8A00A02F062FE642003F072F8B8E767
:1016300006B070BD5B305D0068050100180D01004B
:101640004F4E00004F464600A4050100B8050100BA
:1016500070B5052501260C2002F02AFEDFF8680A85
:1016600002F044FE02F011FF0400E4B2012C39D074
:101670006D1E2800C0B2002830D1052005000022D0
:101680000021012006F099FC00220021022006F032
:1016900094FC00220021032006F08FFC0022002190
:1016A000042006F08AFC00220021052006F085FCBB
:1016B00000220021062006F080FC012200210720E4
:1016C00006F07BFC012201213000C0B206F075FC5F
:1016D000761CF6B2082E01DB01200600642003F020
:1016E00018F8BFE770BD0000CC050100240D010013
:1016F00038B504F00AF90500ADB2002D02D04FF65E
:10170000FF7005000C2002F0D3FDDFF81C0B02F087
:10171000EDFD02F023FF002827D002F0B6FE040002
:10172000E4B2012C09D00ED3032C0AD009D3042C27
:1017300009D1280080B204F010F90C2002F0B8FDA5
:1017400013E0ADB2ED430121062002F094FDADB2ED
:10175000002D03D093A002F0C9FD02E092A002F098
:10176000C5FD642002F0D5FFD3E731BDE0050100DF
:10177000806B001030B583B000250C2002F098FD7E
:10178000DFF8A80A02F0B2FD04F021F9050002F02A
:10179000E5FE00285BD002F078FE0400E4B2012CE4
:1017A00009D00FD3032C07D008D3042C0AD128006A
:1017B00080B204F0EFF84AE06D1C03E0ADB2022DF8
:1017C00000DB6D1EADB24FF47A7095FBF0F00A218C
:1017D00090FBF1F201FB120030308DF80000ADB249
:1017E000642095FBF0F00A2190FBF1F201FB12005E
:1017F00030308DF80100ADB20A2095FBF0F00A21DF
:1018000090FBF1F201FB120030308DF802002E2027
:101810008DF80300ADB20A2095FBF0F100FB1150EA
:1018200030308DF8040020208DF8050025208DF83B
:10183000060000208DF807000121062002F01BFDA4
:1018400000A802F053FD642002F063FF9FE737BD5C
:1018500010B50C2002F02CFDDFF8DC0902F046FD8B
:1018600002F013FE0400E4B2012C14D00121032085
:1018700002F001FD02F08AFE002804D0DFF8BC0966
:1018800002F034FD03E0DFF8B80902F02FFD642018
:1018900002F03FFFE4E710BDF405010010B50C2095
:1018A00002F006FDDFF89C0902F020FD02F0EDFDDC
:1018B0000400E4B2012C14D00121032002F0DBFC6F
:1018C00002F04FFE002804D0DFF8700902F00EFD90
:1018D00003E0DFF86C0902F009FD642002F019FF53
:1018E000E4E710BD1CB50C2002F0E2FCDFF858095B
:1018F00002F0FCFC02F0C9FD0400E4B2012C1CD093
:101900000121032002F0B7FC00200190002000908C
:10191000002300220021012006F0A9FC002804D0A9
:10192000DFF8280902F0E2FC03E0DFF82C0902F0FE
:10193000DDFC642002F0EDFEDCE713BD38B50025C8
:101940000C2002F0B5FCDFF8080902F0CFFC02F031
:101950009CFD0400E4B22000012804D0042806D134
:1019600095F0FF0503E0002004F067FD17E0280074
:10197000C0B204F062FD0121032002F07CFCEDB254
:10198000002D04D0DFF8CC0802F0B0FC03E0DFF853
:10199000CC0802F0ABFC642002F0BBFED7E731BDFF
:1019A000DC0C010053494D004E414F000806010078
:1019B00030B585B077250C2002F07AFCDFF8A0085E
:1019C00002F094FC022003F0CAFA80B205F049FB51
:1019D0006421732005F079FB02F057FD0400E4B2A6
:1019E000012C08D01FD3032C0DD013D3042C1AD1F3
:1019F0000020050017E0002005F033FB0021002047
:101A000005F063FB54E06D1C6421ADB2280005F0C5
:101A10005CFB08E0ADB2002D00D06D1E6421ADB2BC
:101A2000280005F052FB01210A2002F024FC5B2073
:101A30008DF80000ADB24FF47A7095FBF0F00A21FA
:101A400090FBF1F201FB120030308DF80100ADB2D5
:101A5000642095FBF0F00A2190FBF1F201FB1200EB
:101A600030308DF80200ADB20A2095FBF0F00A216B
:101A700090FBF1F201FB120030308DF80300ADB2A3
:101A80000A2095FBF0F100FB115030308DF8040076
:101A90005D208DF8050000208DF8060000A802F0FA
:101AA00025FC002007F00CF9642002F032FE93E7D9
:101AB00005B030BD300D01001C06010000B583B03B
:101AC00040F68E40FEF73EFE002803D10C2002F0C7
:101AD000EFFB46E00521052003F0F3F9502100203B
:101AE00003F0EFF96421012003F0EBF941F27C519E
:101AF000022003F0E6F9502003F0D6FC2821042050
:101B000003F0DFF942F6E06003F0EBFC42F6E06040
:101B100003F037FD032003F0F8FD43F2B06003F05B
:101B200043FE41F27C5003F08EFE0F2003F0A1FD36
:101B3000142003F0CDFE0C2002F0BAFB502003F07D
:101B4000F3FF0020019000200090002300220121DB
:101B5000012003F085FA0A2003F04BFC012003F07A
:101B600086FC07BD38B504F09AFB80B2FEF7EAFDAB
:101B7000002803D10C2002F09BFB34E00C2002F083
:101B800097FBDFF8B40702F0B1FB03F0B1FF0500EB
:101B900002F0E4FC002826D002F077FC0400E4B256
:101BA000012C09D00BD3032C07D006D3042C06D16B
:101BB0002800C0B203F07FFF15E095F0FF0501217A
:101BC000052002F058FBEDB2002D04D0DFF8A80785
:101BD00002F08CFB03E0DFF8A40702F087FB322061
:101BE00002F097FDD4E731BDB8F6000030060100E1
:101BF0008C020010600A0100380F0100700A010019
:101C0000800A0100900A0100A00A0100400F0100B3
:101C1000480F0100500F01003C0D0100480D01006C
:101C2000540D0100B00A01002DE9F04F8BB00026E1
:101C3000002701245FF00008DFF84407006807F080
:101C4000DDFE07F0EBFE42F2107190FBF1F201FBBA
:101C5000120A0C2002F02CFB1FFA8AFA5246DFF817
:101C6000241700A804F07AFB00A802F03FFB012132
:101C7000002002F000FBDFF8100702F037FBDFF86E
:101C80000C1700A804F06AFB02F068FC002800F0C2
:101C9000D18002F0FAFB0500EDB2012D00F0858045
:101CA000C0F0A580032D00F08180C0F09080042D4D
:101CB00040F09D80F6B2052E75DB9DF80000DFF840
:101CC000D0169DF8012042F210735A4301FB002008
:101CD0009DF802104FF47A7202FB01009DF8031088
:101CE000642202FB01009DF804100A2202FB01009D
:101CF0009DF805100818DFF89C1611EB000B5FEA41
:101D00008B3B5FEA9B3B5FEA9B30804658468004F2
:101D1000800C40F6BC31484081460C2002F0C8FAE5
:101D20001FFA89F91FFA8AFAD1452BD1DFF8680624
:101D300002F0DCFA0121002002F09DFADFF8BC0776
:101D400002F0D4FA002004F07AF8002003F079FAC7
:101D5000002003F0C0FA002003F007FB002003F08E
:101D600060FE002004F019F9002004F00EFA0020B3
:101D700004F055FA002004F062F841F2883002F0D5
:101D8000C8FC0BE0DFF8780702F0B0FA0121002070
:101D900002F071FADFF86C0702F0A8FA40F6B830EA
:101DA00002F0B7FC46E0761C21E043E0F6B200A862
:101DB000305C401CF6B200A97054F6B200A8305C4A
:101DC0003A2803DBF6B200A8302131540FE0F6B216
:101DD00000A8305C401EF6B200A97054F6B200A80C
:101DE000305C302803DAF6B200A839213154601E85
:101DF0000400C0B2002819D104200400FFB2FF4340
:101E0000112200A905A804F0C3FA00208DF81B00D8
:101E1000FFB2002F03D0F6B205A85F213154012193
:101E2000072002F028FA05A802F060FA322002F03A
:101E300070FC29E70BB0BDE8F08F30B585B003F03A
:101E400090FE05000C2002F033FADFF8BC0602F029
:101E50004DFA02F083FB00282ED002F016FB04009E
:101E6000E4B2012C09D015D3032C0FD009D3042CD4
:101E700010D1280080B203F057FE0C2002F018FAAF
:101E80001AE0ADB2242D00DB6D1E03E0ADB2C82D0B
:101E900000DA6D1CADB22A00DFF8FC1700A804F0D0
:101EA0005DFA0121062002F0E6F900A802F01EFA10
:101EB000322002F02EFCCCE705B030BD4406010014
:101EC000C00A0100580F010058060100600D010012
:101ED000D00A01002DE9F0419CB004000AA8DFF807
:101EE0007018442207F01AFE5FF000080026012750
:101EF0000C2002F0DDF90021002002F0BCF9E4B270
:101F000011200AA900FB041002F0F0F902F0F9F91F
:101F100000A92000C0B203F088FE02F01FFB0028D9
:101F200073D002F0B2FA0500EDB2012D13D04AD3FE
:101F3000032D2DD012D3042D45D118F101085FFADD
:101F400088F8B8F1100F05DB00A92000C0B203F03B
:101F50004AFE5AE037E002F0E1F956E05FFA88F80D
:101F600000A818F80000202806D15FFA88F800A819
:101F70007A2108F800100AE05FFA88F800A818F83B
:101F80000000401E5FFA88F800A908F801001AE076
:101F90005FFA88F800A818F800005FFA88F800A92E
:101FA000421C08F80120C0B200280CD05FFA88F863
:101FB00000A818F800007B2805DB5FFA88F800A865
:101FC000202108F800107F1E3800C0B2002818D168
:101FD0000A200700F6B2F643112200A905A804F072
:101FE000D7F90121002002F046F9F6B2002E05D003
:101FF0005FFA88F805A85F2108F8001005A802F02C
:1020000075F9322002F085FB87E71CB0BDE8F0814E
:102010006C0D0100780D0100840D010080B50020D9
:10202000FFF758FF01BD80B50120FFF753FF01BD49
:1020300080B50220FFF74EFF01BD80B50320FFF7FA
:1020400049FF01BD38B503F044FE0500ADB2002DD7
:1020500002D04FF6FF7005000C2002F029F9DFF8DE
:10206000B40702F043F902F079FA002829D002F00F
:102070000CFA0400E4B2012C09D010D3032C0AD0CE
:1020800009D3042C0BD12800C0B203F005FE0C20AC
:1020900002F00EF915E085F47F4595F0FF0501216A
:1020A000062002F0E8F8ADB2002D03D060A002F0E7
:1020B0001DF902E05FA002F019F90A2002F029FBE5
:1020C000D1E731BD900D0100E00A010030B585B0C7
:1020D00003F038FE05000C2002F0EAF8DFF8F807FC
:1020E00002F004F902F03AFA002859D002F0CDF9D2
:1020F0000400E4B2012C09D03BD3032C21D009D336
:10210000042C36D1280080B203F0FFFD0C2002F031
:10211000CFF845E0ADB2B5F5FA6F11DDDFF8BC07D9
:102120000068B0F5FA5F01D96D1E09E0DFF8AC0771
:10213000006841F28931884201D30A3D00E0643DE4
:102140001CE0ADB244F25060854211DADFF88C0732
:102150000068B0F5FA5F01D96D1C09E0DFF87C0773
:10216000006841F28931884201D30A3500E06435C4
:1021700004E0DFF8680743F698210160ADB22A0059
:10218000DFF85C1700A804F0E9F80121032002F051
:1021900072F800A802F0AAF8322002F0BAFAA1E719
:1021A00005B030BD30B585B003F0FFFD05000C2053
:1021B00002F07EF8DFF82C0702F098F802F0CEF972
:1021C00000282ED002F061F90400E4B2012C09D0FD
:1021D00015D3032C0FD009D3042C10D1280080B2C2
:1021E00003F010FE0C2002F063F81AE0ADB23D2DB2
:1021F00000DB6D1E03E0ADB2C82D00DA6D1CADB280
:102200002A00DFF8941400A804F0A8F801210620A1
:1022100002F031F800A802F069F8322002F079FAF1
:10222000CCE705B030BD00006C060100F00A0100EB
:1022300053494D004E414F00000B01009C0D010021
:10224000A80D0100100B0100200B0100B40D0100CE
:1022500080060100600F0100C00D0100680F010041
:102260009406010038B5002500F050F9002841D04F
:102270002800C0B200F03FF802F007F90400E4B211
:10228000012C18D032D3032C25D015D3042C2DD1FA
:10229000EDB2DFF8540D50F8250000280AD0EDB259
:1022A000DFF8440D50F8250080472800C0B200F048
:1022B00022F81BE01EE01DE0EDB2002D03D0EDB2D0
:1022C00028006D1E02E004252800C0B22800C0B21C
:1022D00000F011F80AE0EDB2681C052190FBF1F264
:1022E00001FB12052800C0B200F005F8322002F010
:1022F00010FAC1E731BD10B504000021002001F043
:10230000BAFFDFF8200C01F0F1FF0121002001F0FD
:10231000B2FFE4B2DFF8D40C50F8240001F0E6FF7D
:1023200010BD10B5DFF8C80C00F038F8040020002C
:1023300003F077FB10BD0000300B010010B5DFF893
:10234000B40C00F02BF80400200002F07AFF10BD5E
:1023500010B5DFF8A40C00F021F80400200002F012
:10236000BAFF10BD10B5DFF8940C00F017F80400A8
:10237000200002F0FAFF10BD700F0100780F01007D
:10238000506B0010CC0D0100800F0100880F010080
:10239000A0860100B09EAEFFD80D01002DE9F041EE
:1023A00086B0040000A8DFF8581C2CC92CC00C39DA
:1023B0000C38002601275FF000080C2001F078FFA0
:1023C0000021002001F057FF200001F08FFF02F0F4
:1023D0005CF80500EDB2012D67D068D3032D03D062
:1023E00018D3042D2CD062E0F6B200A8305C392856
:1023F00005DB3020F6B200A97054C0B209E0F6B295
:1024000000A8305CF6B200A9715C491CF6B200AAC3
:10241000B1544CE0F6B200A8305C312805DA39201E
:10242000F6B200A97054C0B209E0F6B200A8305C60
:10243000F6B200A9715C491EF6B200AAB15436E0AA
:10244000F6B2072E2FDB9DF80010DFF8B82B9DF8B1
:102450000130DFF8B4CB0CFB03F302FB01319DF834
:102460000220DFF8A83B03FB02119DF8032042F293
:10247000107303FB02119DF804204FF47A7303FBE1
:1024800002119DF80520642303FB02119DF806202C
:102490000A2303FB02119DF807205118DFF89C2C3A
:1024A0005118080027E0761C01E0002023E07F1E81
:1024B0003800C0B200281AD10A200700092200A95A
:1024C00003A803F065FF5FFA88F87FEA08085FFA5F
:1024D00088F8B8F1000F03D0F6B203A85F21315499
:1024E0000121042001F0C7FE03A801F0FFFE322005
:1024F00002F00FF96BE706B0BDE8F081900F010024
:10250000300F0100E40D0100A80601002DE9F0479D
:102510008AB00026002701245FF00008DFF8200CB5
:10252000006807F06BFA07F079FA42F2107190FB3D
:10253000F1F201FB120A0C2001F0BAFE1FFA8AFA2E
:102540005246DFF8001C00A803F008FF00A801F0C5
:10255000CDFE0121002001F08EFEDFF8EC0B01F032
:10256000C5FEDFF8E81B00A803F0F8FE01F0F6FF57
:10257000002800F08D8001F088FF0500EDB2012DEC
:1025800040D062D3032D3FD04FD3042D5DD1F6B29E
:10259000052E35DB9DF80000DFF8701A9DF801204C
:1025A00042F210735A4301FB00209DF802104FF4D1
:1025B0007A7202FB01009DF80310642202FB010005
:1025C0009DF804100A2202FB01009DF8051008186E
:1025D000DFF8A81C09188903890B880B80460800BE
:1025E0008004800C40F6BC32504081461FFA89F9C5
:1025F0001FFA8AFAD14501D1FF204AE0002048E0C5
:10260000761C22E0002044E0F6B200A8305C401CBA
:10261000F6B200A97054F6B200A8305C3A2803DB89
:10262000F6B200A8302131540FE0F6B200A8305CB9
:10263000401EF6B200A97054F6B200A8305C3028F3
:1026400003DAF6B200A839213154601E0400C0B28A
:10265000002819D104200400FFB2FF43112200A971
:1026600005A803F095FE00208DF81B00FFB2002F97
:1026700003D0F6B205A85F2131540121072001F0F3
:10268000FAFD05A801F032FE322002F042F86DE7B3
:1026900000200AB0BDE8F087200F010030B585B0FA
:1026A00003F0E2F905002A00DFF8D41B00A803F0CC
:1026B00055FE0C2001F0FCFDDFF8780C01F016FE51
:1026C0000121002001F0D7FD00A801F00FFE01F06C
:1026D00045FF00280DD001F0D8FE0400E4B2200030
:1026E000012801D0042800D103E0642002F011F891
:1026F000EDE705B030BD30B585B002F07BFD0500DB
:102700002A00DFF87C1B00A803F028FE0C2001F053
:10271000CFFDDFF8200C01F0E9FD0121002001F0E0
:10272000AAFD00A801F0E2FD01F018FF00280DD07D
:1027300001F0ABFE0400E4B22000012801D004281F
:1027400000D103E0642001F0E4FFEDE705B030BD07
:102750004CF7000038B500252800C0B200F043F85F
:1027600001F0FCFE00283DD001F08FFE0400E4B231
:10277000012C18D032D3032C25D015D3042C2DD105
:10278000EDB2DFF8D80C50F8250000280AD0EDB2E1
:10279000DFF8C80C50F8250080472800C0B200F0D0
:1027A00022F81BE01EE01DE0EDB2002D03D0EDB2DB
:1027B00028006D1E02E006252800C0B22800C0B225
:1027C00000F011F80AE0EDB2681C072190FBF1F26D
:1027D00001FB12052800C0B200F005F8322001F01C
:1027E00098FFBDE731BD10B504000021002001F0C5
:1027F00042FDDFF8440B01F079FD0121002001F0DA
:102800003AFDE4B2DFF8940C50F8240001F06EFDBC
:1028100010BD0000BC06010070B590B00A25002173
:10282000002001F028FDDFF8140B01F05FFD01210D
:10283000002001F020FDDFF8080B01F057FD00A893
:1028400005F0DBFD0600F6B2002E04D12800451E7F
:10285000C0B20028F3D1F6B2002E14D1002100201E
:1028600001F009FDDFF8DC0A01F040FD0121002044
:1028700001F001FDDFF8D00A01F038FD40F6B83074
:1028800001F047FF25E00C2001F012FD002100209F
:1028900001F0F1FCDFF8C40C01F028FD012100205B
:1028A00001F0E9FC00208DF8100000A801F01EFDE9
:1028B00001F054FE00280CD001F0E7FD0400E4B262
:1028C0002000401E032800D803E0322001F021FF41
:1028D000EEE710B070BD0000B4040100806B001082
:1028E000DC0C0100D00601002DE9F04395B05FF04B
:1028F0000A09002600275FF001080021002001F0EE
:10290000BAFCDFF8380A01F0F1FC0121002001F0E7
:10291000B2FCDFF82C0A01F0E9FC00A805F06DFD1F
:102920000500EDB2002D05D14846B0F10109C0B255
:102930000028F2D1EDB2002D14D10021002001F0C9
:102940009AFCDFF8000A01F0D1FC0121002001F01F
:1029500092FCDFF8F40901F0C9FC40F6B83001F050
:10296000D8FEACE00C2001F0A3FC0021002001F017
:1029700082FCDFF8E80B01F0B9FC0121002001F036
:102980007AFC00208DF8100000A801F0AFFC0020B8
:10299000C0B2302806DAC0B200A9411800220A7479
:1029A000401CF5E701F0DAFD002800F0888001F016
:1029B0006CFD0400E4B2012C17D05CD3032C15D0BD
:1029C00037D3042C57D1F6B200A8305C002803D1CD
:1029D000F6B200A820213154761CF6B2102E03DB8B
:1029E00000A800F06FF86AE045E068E0F6B200A8E1
:1029F000305C7F2803DBF6B200A87E213154F6B2AA
:102A000000A8305C202803DAF6B200A82021315457
:102A1000F6B200A8305C401CF6B200A97054F6B2C1
:102A200000A8305C7F2803DBF6B200A820213154D7
:102A300021E0F6B200A8305C7F2803DBF6B200A8E4
:102A40007E213154F6B200A8305C202803DAF6B2B9
:102A500000A820213154F6B200A8305C401EF6B226
:102A600000A97054F6B200A8305C202803DAF6B250
:102A700000A87E213154B8F101084046C0B20028B8
:102A800019D105208046FFB2FF43102200A910A8EB
:102A900003F07EFC00208DF85000FFB2002F03D021
:102AA000F6B210A85F2131540121002001F0E3FBB0
:102AB00010A801F01BFC322001F02BFE72E715B0CC
:102AC000BDE8F08370B504000A260021002001F063
:102AD000D2FBDFF84C0B01F009FC0121002001F0D2
:102AE000CAFBDFF85C0801F001FC200000F024F8CC
:102AF000200005F0D2FC0500EDB2002D04D130001D
:102B0000461EC0B20028F3D1EDB2002D13D1002132
:102B1000002001F0B0FBDFF8880B01F0E7FB01219A
:102B2000002001F0A8FBDFF8840C01F0DFFB40F689
:102B3000B83001F0EEFD70BD10F1100211000A78FE
:102B4000212A02DB0A787F2A03DB00220A70491E51
:102B5000F5E7704770B592B000A8442107F00AF875
:102B600005250021002001F086FBDFF8740B01F041
:102B7000BDFB0121002001F07EFBDFF8680B01F0B6
:102B8000B5FB01F0EBFC002842D001F07EFC040014
:102B9000E4B22000401E022835D9C01E34D10021E5
:102BA000002001F068FBDFF8C40B01F09FFB01215E
:102BB000002001F060FBDFF8880701F097FB00A818
:102BC00005F06BFC0600F6B2002E04D12800451E6D
:102BD000C0B20028F3D1F6B2002E13D1002100209C
:102BE00001F049FBDFF8B80A01F080FB0121002069
:102BF00001F041FBDFF8B40B01F078FB40F6B83090
:102C000001F087FD04E003E0322001F082FDB8E727
:102C100012B070BD70B590B00A250021002001F0FF
:102C20002AFBDFF88C0B01F061FB0121002001F091
:102C300022FBDFF80C0701F059FB00A805F07EFC31
:102C40000600F6B2002E04D12800451EC0B20028AE
:102C5000F3D1F6B2002E14D10021002001F00BFBBD
:102C6000DFF8E00601F042FB0121002001F003FB48
:102C7000DFF8D40601F03AFB40F6B83001F049FD28
:102C800025E00C2001F014FB0021002001F0F3FAF4
:102C9000DFF8780C01F02AFB0121002001F0EBFAAB
:102CA00000208DF8100000A801F020FB01F056FC78
:102CB00000280CD001F0E9FB0400E4B22000401E23
:102CC000032800D803E0322001F023FDEEE710B026
:102CD00070BD00002DE9F04395B05FF00A090026B1
:102CE00000275FF001080021002001F0C4FADFF89E
:102CF000540B01F0FBFA0121002001F0BCFADFF8CF
:102D0000400601F0F3FA00A805F018FC0500EDB24A
:102D1000002D05D14846B0F10109C0B20028F2D11A
:102D2000EDB2002D14D10021002001F0A4FADFF84B
:102D3000140601F0DBFA0121002001F09CFADFF813
:102D4000080601F0D3FA40F6B83001F0E2FCACE03E
:102D50000C2001F0ADFA0021002001F08CFADFF820
:102D6000AC0B01F0C3FA0121002001F084FA00202D
:102D70008DF8100000A801F0B9FA0020C0B2302888
:102D800006DAC0B200A9411800220A74401CF5E717
:102D900001F0E4FB002800F0888001F076FB0400DD
:102DA000E4B2012C17D05CD3032C15D037D3042CFC
:102DB00057D1F6B200A8305C002803D1F6B200A8C3
:102DC00020213154761CF6B2102E03DB00A800F04F
:102DD0006FF86AE045E068E0F6B200A8305C7F2852
:102DE00003DBF6B200A87E213154F6B200A8305CB5
:102DF000202803DAF6B200A820213154F6B200A848
:102E0000305C401CF6B200A97054F6B200A8305CE9
:102E10007F2803DBF6B200A82021315421E0F6B26E
:102E200000A8305C7F2803DBF6B200A87E21315475
:102E3000F6B200A8305C202803DAF6B200A8202100
:102E40003154F6B200A8305C401EF6B200A97054AE
:102E5000F6B200A8305C202803DAF6B200A87E2182
:102E60003154B8F101084046C0B2002819D10520FC
:102E70008046FFB2FF43102200A910A803F088FA91
:102E800000208DF85000FFB2002F03D0F6B210A83A
:102E90005F2131540121002001F0EDF910A801F06B
:102EA00025FA322001F035FC72E715B0BDE8F08359
:102EB00070B504000A260021002001F0DCF9DFF8DB
:102EC000600701F013FA0121002001F0D4F9DFF8C6
:102ED000700401F00BFA2000FFF72EFE200005F031
:102EE0007DFB0500EDB2002D04D13000461EC0B2BE
:102EF0000028F3D1EDB2002D13D10021002001F004
:102F0000BAF9DFF89C0701F0F1F90121002001F086
:102F1000B2F9DFF8980801F0E9F940F6B83001F0AD
:102F2000F8FB70BDE406010070B592B000A8442122
:102F300006F020FE05250021002001F09CF9DFF8B5
:102F4000A00701F0D3F90121002001F094F9DFF886
:102F5000940701F0CBF901F001FB002842D001F009
:102F600094FA0400E4B22000401E022835D9C01EA5
:102F700034D10021002001F07EF9DFF8B80B01F018
:102F8000B5F90121002001F076F9DFF8B40301F072
:102F9000ADF900A805F022FB0600F6B2002E04D120
:102FA0002800451EC0B20028F3D1F6B2002E13D17E
:102FB0000021002001F05FF9DFF8E40601F096F946
:102FC0000121002001F057F9DFF8E00701F08EF948
:102FD00040F6B83001F09DFB04E003E0322001F040
:102FE00098FBB8E712B070BD640901007C040010C2
:102FF000F80601000C07010020070100340701005A
:10300000F00D01008096980040420F00A08601005C
:1030100070B59AB000A8DFF8A41B682206F07EFD08
:1030200002F068FF050000260C2001F041F9DFF8EE
:103030001C0C01F05BF90121002001F01CF9EDB23C
:10304000F6B2B54201D1012000E000201121F6B214
:10305000222200AB02FB063201FB002001F046F900
:1030600001F07CFA002867D001F00FFA0400E4B206
:10307000012C23D05CD3032C21D03DD3042C57D179
:10308000F6B2022E58D035002800C0B202F017FF69
:103090000121002001F0EFF8EDB2F6B2B54201D106
:1030A000012000E000201121F6B2222200AB02FB39
:1030B000063201FB002001F019F939E03CE0F6B2DC
:1030C000701C032190FBF1F201FB1206012100208C
:1030D00001F0D1F8EDB2F6B2B54201D1012000E025
:1030E00000201121F6B2222200AB02FB063201FBC6
:1030F000002001F0FBF81BE0F6B2002E01D0761E96
:1031000001E0022006000121002001F0B4F8EDB238
:10311000F6B2B54201D1012000E000201121F6B243
:10312000222200AB02FB063201FB002001F0DEF898
:10313000322001F0EEFA93E71AB070BDB0FA35E034
:10314000506B0010CC0D0100800F0100880F0100B2
:1031500070B59AB000A8DFF8F81A682206F0DEFC15
:1031600002F0FFFE050000260C2001F0A1F8DFF8B8
:10317000100C01F0BBF80121002001F07CF8EDB249
:10318000F6B2B54201D1012000E000201121F6B2D3
:10319000222200AB02FB063201FB002001F0A6F860
:1031A00001F0DCF9002867D001F06FF90400E4B207
:1031B000012C23D05CD3032C21D03DD3042C57D138
:1031C000F6B2022E58D035002800C0B202F0AEFE92
:1031D0000121002001F04FF8EDB2F6B2B54201D165
:1031E000012000E000201121F6B2222200AB02FBF8
:1031F000063201FB002001F079F839E03CE0F6B23C
:10320000701C032190FBF1F201FB1206012100204A
:1032100001F031F8EDB2F6B2B54201D1012000E083
:1032200000201121F6B2222200AB02FB063201FB84
:10323000002001F05BF81BE0F6B2002E01D0761EF4
:1032400001E0022006000121002001F014F8EDB297
:10325000F6B2B54201D1012000E000201121F6B202
:10326000222200AB02FB063201FB002001F03EF8F7
:10327000322001F04EFA93E71AB070BDB09EAEFF57
:10328000980F010070B5A2B000A8DFF8F81A8822E4
:1032900006F044FC002602F0D0FE05000C2001F0F0
:1032A00007F8DFF8E40A01F021F801F057F90028E7
:1032B0003DD001F0EAF80400E4B2012C0ED01DD399
:1032C000032C0CD013D3042C18D1F6B2032E2ED01D
:1032D00035002800C0B202F0CCFE0FE027E0F6B2C5
:1032E000701C042190FBF1F606FB110606E0F6B215
:1032F000002E01D0761E01E00320060001210020EF
:1033000000F0B9FFEDB2F6B2B54201D1012000E004
:1033100000201121F6B2222200AB02FB063201FB93
:10332000002000F0E3FF322001F0F3F9BDE722B006
:1033300070BD000068050100480701005C0701003E
:1033400070070100840701009807010080B506F0AE
:1033500015FC01BD80B506F063FD01BD2DE9F0410E
:103360008CB002F0A1FE050002A8DFF8E81B1422D1
:1033700006F0D4FB002707A8DFF8DC1B102206F0BC
:10338000CDFB00A8DFF8D41B0CC90CC008390838E5
:103390005FF000080C2000F08BFFDFF8C40B00F09A
:1033A000A5FF01F0DBF8002855D001F06EF804000D
:1033B000E4B2012C0FD026D3032C10D016D3042C4A
:1033C00021D15FFA88F818F10100042190FBF1F88F
:1033D00008FB110817E0280002F08DFE3BE05FFAC1
:1033E00088F800A830F9180045190CE05FFA88F851
:1033F00000A830F91800854205D35FFA88F800A8C4
:1034000030F918002D1A5FFA88F807A850F828300C
:103410002A00DFF8EC1B02A802F0A0FF02A803F0CC
:103420000DFF0600F6B2FFB2BE4207D00121002018
:1034300000F021FFDFF8CC0B00F058FF370001212E
:10344000F6B2D6F110004010C0B200F014FF02A88E
:1034500000F04CFFA5E70CB0BDE8F0817CFA00005D
:1034600010B504000021002000F005FFDFF8980BE4
:1034700000F03CFF0121012000F0FDFEE4B2DFF886
:103480008C0B50F8240000F031FF0121002000F0E7
:10349000F2FE7E2000F00CFF10BD000004040010BE
:1034A00038B500250C2000F003FF2800C0B2FFF75C
:1034B000D7FF01F053F8002832D000F0E6FF0400F7
:1034C000E4B2012C14D023D3032C12D019D3042C32
:1034D0001ED1EDB2DFF8380B50F82500002806D0D9
:1034E000EDB2DFF82C0B50F82500804710E017E014
:1034F00016E0EDB2681C0A2190FBF1F201FB120507
:1035000006E0EDB2002D01D06D1E01E0092005009E
:103510002800C0B2FFF7A4FF322001F0FAF8C8E794
:1035200031BD10B504000021002000F0A4FEDFF83A
:10353000E40A00F0DBFE0121012000F09CFEE4B271
:10354000DFF8D40A50F8240000F0D0FE012100205A
:1035500000F091FE7E2000F0ABFE10BDA00F010038
:1035600038B500250C2000F0A3FE2800C0B2FFF7FC
:10357000D8FF00F0F3FF002832D000F086FF0400EF
:10358000E4B2012C14D023D3032C12D019D3042C71
:103590001ED1EDB2DFF8840A50F82500002806D0CD
:1035A000EDB2DFF8780A50F82500804710E017E008
:1035B00016E0EDB2681C062190FBF1F201FB12054A
:1035C00006E0EDB2002D01D06D1E01E005200500E2
:1035D0002800C0B2FFF7A5FF322001F09AF8C8E733
:1035E00031BD10B504000021002000F044FEDFF8DA
:1035F000300A00F07BFE0121012000F03CFEE4B225
:10360000DFF8200A50F8240000F070FE01210020AD
:1036100000F031FE7E2000F04BFE10BD00000000E7
:10362000AC07010038B500252800C0B2FFF7D9FF6C
:1036300000F094FF002832D000F027FF0400E4B22D
:10364000012C14D023D3032C12D019D3042C1ED157
:10365000EDB2DFF8D40950F82500002806D0EDB20D
:10366000DFF8C40950F82500804710E017E016E0A5
:10367000EDB2681C042190FBF1F505FB110506E095
:10368000EDB2002D01D06D1E01E0032005002800E1
:10369000C0B2FFF7A6FF322001F03BF8C8E731BD0A
:1036A000C007010010B504000021002000F0E3FD78
:1036B000DFF8780900F01AFE0121012000F0DBFD9F
:1036C000E4B2DFF86C0950F8240000F00FFE01218D
:1036D000002000F0D0FD7E2000F0EAFD10BD0000CB
:1036E000E8070100FC07010038B500250C2000F0B8
:1036F000DFFD2800C0B2FFF7D5FF00F02FFF002844
:1037000032D000F0C2FE0400E4B2012C14D023D366
:10371000032C12D019D3042C1ED1EDB2DFF81409FA
:1037200050F82500002806D0EDB2DFF8080950F85F
:103730002500804710E017E016E0EDB2681C052177
:1037400090FBF1F201FB120506E0EDB2002D01D075
:103750006D1E01E0042005002800C0B2FFF7A2FFA3
:10376000322000F0D6FFC8E731BD0000100801008C
:1037700010B504000021002000F07DFDDFF8AC084A
:1037800000F0B4FD0121012000F075FDE4B2DFF886
:10379000A80850F8240000F0A9FD0121002000F045
:1037A0006AFD7E2000F084FD10BD0000D4070100FA
:1037B0002408010038B5002541F6FB10FCF7C2FFD4
:1037C000002803D10C2000F073FD3AE02800C0B2BD
:1037D000FFF7CEFF00F0C2FE002832D000F055FE09
:1037E0000400E4B2012C14D023D3032C12D019D33B
:1037F000042C1ED1EDB2DFF8440850F82500002853
:1038000006D0EDB2DFF8340850F82500804710E00C
:1038100017E016E0EDB2681C0C2190FBF1F201FB01
:10382000120506E0EDB2002D01D06D1E01E00B2067
:1038300005002800C0B2FFF79BFF322000F069FFAF
:10384000C8E731BD3808010030B587B001F0E9FEA6
:10385000050000A8DFF8E8170CC90CC008390838C3
:103860000C2000F025FDDFF8DC0700F03FFD00F044
:103870000CFE0400E4B2012C16D02FD3032C20D070
:1038800026D3042C2AD106F06EFC0A2000F041FF5A
:10389000280080B201F0EDFE0A2000F03AFF00217E
:1038A000012006F02BFC19E006F05DFC0A2000F078
:1038B00030FF280080B201F0DCFE0C2000F0F8FCA4
:1038C00022E0ADB21E2D00DA6D1C06F04CFC05E0C6
:1038D000ADB2022D00DB6D1E06F045FC06F0A9FC22
:1038E000002801D0009B00E0019BADB22A00DFF868
:1038F000581702A802F032FD0121002000F0BBFCA5
:1039000002A800F0F3FCB2E707B030BD300F0100B1
:1039100030B587B001F0B4FF050000A8DFF82C1720
:103920000CC90CC0083908380C2000F0C1FCDFF8C5
:10393000200700F0DBFC00F0A8FD0400E4B2012C3D
:1039400016D02CD3032C1DD023D3042C27D106F062
:103950000AFC012000F0DDFE280080B201F0B8FF73
:10396000012000F0D6FE0021002006F0C7FB16E083
:1039700006F0F9FB280080B201F0AAFF0C2000F04D
:1039800097FC22E0ADB21E2D00DA6D1C06F0EBFBB9
:1039900005E0ADB2022D00DB6D1E06F0E4FB06F083
:1039A00048FC002801D0009B00E0019BADB22A003A
:1039B000DFF8941602A802F0D1FC0121002000F0EB
:1039C0005AFC02A800F092FCB5E707B030BD30B554
:1039D0008BB0042001F0C3FA05000C2000F068FC55
:1039E000DFF8700600F082FC00F04FFD0400E4B246
:1039F000012C1ED02BD3032C24D025D3042C26D16C
:103A0000290089B2042001F05CFA0121002000F0B5
:103A100032FCDFF8440600F069FC280003F0B3F83C
:103A20000121002000F027FCDFF8D80500F05EFC43
:103A30000DE0290089B2042001F043FA0C2000F0C7
:103A400037FC36E06D1C02E0062D00D36D1E6420AD
:103A5000B5FBF0F00A21B0FBF1F201FB12003030AF
:103A60008DF800000A20B5FBF0F00A21B0FBF1F25E
:103A700001FB120030308DF801002C208DF802007F
:103A80000A20B5FBF0F100FB115030308DF8030037
:103A900000208DF8040000AADFF8C01505A802F088
:103AA0005DFC0121002000F0E6FB05A800F01EFCF3
:103AB0009AE70BB030BD70B586B002F03FFB050051
:103AC00002F086FB06000C2000F0F2FB00F046FD41
:103AD00000282CD000F0D9FC0400E4B2012C06D060
:103AE00007D3032C04D004D3042C02D101E01EE040
:103AF000FFE72A00DFF8681500A802F02FFC00217C
:103B0000002000F0B8FB00A800F0F0FB3200DFF866
:103B1000541500A802F022FC0121002000F0ABFBAC
:103B200000A800F0E3FB322000F0F3FDCEE706B082
:103B300070BD00004C08010038B500250C2000F0D5
:103B4000B7FB0021002000F096FBDFF81C0500F019
:103B5000CDFB00F003FD00282ED000F096FC040001
:103B6000E4B2012C08D00DD3032C06D008D3042CCA
:103B700008D195F0FF0505E01EE00020050001E0FA
:103B8000FF200500322000F0C4FD2800C0B204F080
:103B9000B7FA0121002000F06EFBEDB2002D04D138
:103BA000DFF8C80400F0A2FB03E0DFF8C40400F073
:103BB0009DFB04F053F8CCE731BD0000E8F50000B0
:103BC00080B502F06CFB80B2FCF7BCFD00283CD055
:103BD000DFF8A00400F03EF8ADF80000DFF898042C
:103BE00000F038F8ADF80200BDF80000BDF8021092
:103BF000884217D1BDF8000002F034FB0C2000F021
:103C000057FBDFF8780400F071FB0121002000F081
:103C100032FBDFF86C0400F069FB40F6B83000F0CE
:103C200078FD12E00C2000F043FBDFF8580400F0B0
:103C30005DFB0121002000F01EFBDFF84C0400F0CA
:103C400055FB40F6B83000F064FD01BD600801008E
:103C500050F600002DE9F04385B00400002600A8CE
:103C6000DFF828140CC90CC0083908385FF00008C8
:103C70005FF001090C2000F01BFB200000F036FB78
:103C800000F06CFC002875D000F0FFFB0500EDB2E1
:103C9000012D23D046D3032D23D033D3042D41D17E
:103CA000761CF6B2042E18DB9DF800004FF47A71F2
:103CB0009DF8012064235A4301FB00209DF8021067
:103CC0000A2202FB01009DF80310081800F53C5081
:103CD000B0300700380080B24EE023E04FF6FF70AE
:103CE0004AE0F6B200A8305C401CF6B200A970545D
:103CF000F6B200A8305C3A2803DBF6B200A8302107
:103D000031540FE0F6B200A8305C401EF6B200A9B4
:103D10007054F6B200A8305C302803DAF6B200A87E
:103D200039213154B9F101094846C0B200281DD1EA
:103D3000042081465FFA88F87FEA0808042200A977
:103D400002A802F025FB00208DF80C005FFA88F82D
:103D5000B8F1000F03D0F6B202A85F21315401215F
:103D6000062000F088FA02A800F0C0FA322000F025
:103D7000D0FC85E74FF6FF7005B0BDE8F08300008A
:103D80007408010060F50000400B01002DE9F04FC0
:103D90008BB00026002701245FF00008BC480068B3
:103DA00005F02CFE05F03AFE42F2107190FBF1F2A4
:103DB00001FB120A0C2000F07BFA1FFA8AFA524625
:103DC000B44900A802F0CAFA00A800F08FFA012155
:103DD000002000F050FAB04800F088FAAF4900A87F
:103DE00002F0BCFA00F0BAFB002800F0B08000F04E
:103DF0004CFB0500EDB2012D64D0C0F08580032D91
:103E000061D071D3042D40F07F80F6B2052E57DBD0
:103E10009DF80000A2499DF8012042F210735A4318
:103E200001FB00209DF802104FF47A7202FB0100A2
:103E30009DF80310642202FB01009DF804100A2281
:103E400002FB01009DF805100818964911EB000BC4
:103E50005FEA8B3B5FEA9B3B5FEA9B3080465846BC
:103E60008004800C40F6BC31484081460C2000F0B4
:103E70001FFA1FFA89F91FFA8AFAD14511D18A4827
:103E800000F034FA0121002000F0F5F9874800F035
:103E90002DFA002002F0E6F941F2883000F039FCFA
:103EA00009E0814800F022FA0121002000F0E3F946
:103EB0007F4800F01BFA40F6B83000F02AFC46E0DC
:103EC000761C21E043E0F6B200A8305C401CF6B25C
:103ED00000A97054F6B200A8305C3A2803DBF6B2B1
:103EE00000A8302131540FE0F6B200A8305C401E2B
:103EF000F6B200A97054F6B200A8305C302803DA9C
:103F0000F6B200A839213154601E0400C0B2002866
:103F100019D104200400FFB2FF43112200A905A813
:103F200002F036FA00208DF81B00FFB2002F03D0FC
:103F3000F6B205A85F2131540121072000F09BF95A
:103F400005A800F0D3F9322000F0E3FB4AE70BB0FC
:103F5000BDE8F08F88080100500B0100B80F010088
:103F60009C08010070B586B00C2000F0A1F9514802
:103F700000F0BCF902F0D1F9040000F0EFFA0028DB
:103F80003CD000F082FA0500EDB2012D09D014D327
:103F9000032D07D00DD3042D0FD1200080B202F0E5
:103FA0009FF92BE0A4B242F21070844200DA193477
:103FB00003E0A4B2002C00D0193CA4B2642094FB0E
:103FC000F0F100FB1143A4B2642094FBF0F23A49F3
:103FD00000A802F0C3F900A803F030F9060001219F
:103FE000F6B2D6F110004010C0B200F044F900A8BB
:103FF00000F07CF9322000F08CFBBEE706B070BD0B
:10400000C00F0100B0080100600B01003403001074
:104010005CF90000C40801003804001008FB00002F
:10402000D808010090040010D00B0100EC0801003A
:104030006804001050090100D80200107CF800004C
:10404000D80F010000090100700B0100E00F010012
:1040500014090100280901003C090100FC0D0100C0
:10406000800B0100900B010080060100080E01008A
:10407000140E0100200E01002C0E0100A00B010007
:10408000E80F0100F00F0100380E0100F80F0100E9
:10409000506B0010CC0D0100800F0100880F010053
:1040A000A0860100B09EAEFF300F0100440E01005B
:1040B000E40D0100B00B0100C00B010070B504005D
:1040C0000D009D48006850F080009B4908609A48A8
:1040D000006850F04000984908609748006850F028
:1040E0002000954908609448006850F010009249FB
:1040F00008609148006850F400708F4908608E484D
:10410000006850F400708C4908608B48006850F4D7
:104110008070894908604FF4FA7000F0FAFA0020C4
:104120000600F6B2032E07DA032000F030F8642010
:1041300000F0EFFA761CF4E7022000F028F81420D3
:1041400000F0E7FA54F02001C9B2002000F074F842
:10415000142000F0DEFA55F00801C9B2002000F08A
:104160006BF8142000F0D5FA55F008007349087078
:104170001021002000F060F80A2000F0CAFA0621A1
:10418000002000F059F80A2000F0C3FA70BD6C4915
:10419000096851F480716A4A116000BF00BF00BF16
:1041A00000BF00BF00BFC10706D56549096851F0CF
:1041B0008001634A116005E06249096851F080019D
:1041C000604A1160810706D55D49096851F04001D8
:1041D0005B4A116005E05B49096851F04001594AAA
:1041E0001160410706D55649096851F02001544A2B
:1041F000116005E05349096851F02001514A1160EE
:10420000010706D54E49096851F010014C4A11606A
:1042100005E04C49096851F010014A4A116000BF9D
:1042200000BF00BF00BF00BF00BF4649096851F48E
:104230008071444A1160704738B504000D00E4B243
:10424000002C06D03E48006850F400703C490860DD
:1042500005E03C48006850F400703A490860EDB24F
:104260002809FFF794FF2800C0B2FFF790FF022053
:1042700000F04FFA31BD38B504000D00E4B2102C47
:1042800009DAEDB2002D06D1B4F18001C9B20020E7
:10429000FFF7D2FF08E0EDB2012D05D1B4F14001E6
:1042A000C9B20020FFF7C8FF042000F032FA31BD88
:1042B00010B50400E4B220000A280CD00C2802D06B
:1042C0000D2808D00CE001210020FFF7B5FF0C20DD
:1042D00000F01FFA09E002210120FFF7ADFF04E022
:1042E0002100C9B20120FFF7A7FF10BD10B50400DF
:1042F0002078002804D02078FFF7DAFF641CF7E765
:1043000010BD80B50D48007850F002000B490870D0
:104310000A4801780020FFF78FFF01BD80B50748EC
:10432000007810F0FD00054908700448017800206D
:10433000FFF782FF01BD000000C00920046C0010DF
:1043400018C009201CC009209B480068002804D020
:1043500099480068401E98490860984800880028DD
:1043600004D096480088401E9449088094480088EC
:10437000002805D092480088401E9149088083E0BB
:10438000904800789049002242548E4800788E4927
:10439000405C8E490968C1F3002111F0010191F0E0
:1043A0000101C9B2084387490978874A8854874878
:1043B0000068400501D5002000E00220814909780D
:1043C000814A895C08437F4909787F4A88547F483D
:1043D0000068800501D5002000E0042079490978B3
:1043E000794A895C084377490978774A885477483D
:1043F0000068400401D5002000E0082071490978D8
:10440000714A895C08436F4909786F4A88546F483C
:104410000068800001D5002000E01020694909787B
:10442000694A895C084367490978674A885467483C
:104430000068002801D5402000E00020614909788B
:10444000614A895C08435F4909785F4A88545F483C
:104450000068400001D5202000E00020594909787B
:10446000594A895C084357490978574A885455483E
:104470000078401C082190FBF1F202FB1102514828
:1044800002704F4806210180704710B400200100DF
:104490000020C0B2082809DAC0B24B4A825C12F090
:1044A0000902092A00D1491C401CF2E7C9B20529BA
:1044B00001DB082050E00020C0B2052848DA0022C5
:1044C00011000022D2B2082A09DAD2B23E4BD35CE4
:1044D00001248440234200D0491C521CF2E7C9B297
:1044E000052933DB354A1288002A1BD1384A127855
:1044F000002A0DD0364A00231370304A4FF4FA6375
:1045000013802D4A4EF660231360401CC0B223E096
:104510002A4A32231380284A4EF660231360401C37
:10452000C0B219E02A4A1278002A0DD0284A002386
:104530001370224A4FF4FA6313801F4A4EF6602329
:104540001360401CC0B207E0002005E0401CB3E748
:104550001F4801220270002010BC704716480068F6
:10456000704700200021C9B2082907DAC9B2164AEB
:104570008A5C520600D5401C491CF4E7C0B20528ED
:1045800001DB012000E00020C0B2704700200021C4
:10459000C9B2082907DAC9B20B4A8A5C920600D56B
:1045A000401C491CF4E7C0B2052801DB012000E0F3
:1045B0000020C0B2704700007C6B0010F8040010AF
:1045C000FA040010026C0010146B001034C00920B3
:1045D000036C00102DE9FB4F82B014000E9D0F9E5E
:1045E000109FDDF844803900200080B200F052FBBB
:1045F0008246BAF1000F75D0A4B2DAF8300010EBA1
:104600008400001F83465FEADB0B5FEACB0BA4B29A
:10461000009443462A000399504600F0C6FA049AD3
:104620000299584605F042FECAF80000002E01D05B
:10463000C6F800A005F062FEDFF820070068401C05
:10464000DFF818170860DFF86007006800280BD152
:10465000DFF85407C0F800A0DFF800070068012861
:1046600011D100F0C3FA0EE0DFF84007006800281F
:1046700009D1DFF834070068C06A854203D3DFF848
:104680002807C0F800A0DFF828070068DAF82C1027
:10469000884204D2DAF82C00DFF814170860DFF83B
:1046A00014070068401CDFF80C170860DFF80807E3
:1046B0000068DAF82C10884204D2DAF82C00DFF80F
:1046C000F81608601AF10401DAF82C001422DFF859
:1046D000EC3602FB003005F099FE0120814605F022
:1046E00016FE02E05FF0FF308146B9F1010F0CD1F8
:1046F000DFF8B8060068002807D0DFF8AC060068CD
:10470000C06AA84201D205F0F4FD484605B0BDE8F4
:10471000F08F70B504000026002C2BD000F050F86C
:10472000DFF8A406006820180500DFF87C060068A2
:10473000001D05F098FEDFF8700600684560DFF8A0
:1047400088060068854209D2DFF85C060068011D12
:10475000DFF87806006805F068FE08E0DFF8480634
:104760000068011DDFF86806006805F05EFE00F0D5
:104770002FF80600002E01D105F0BBFD70BD1FB55E
:104780000020039000200290002001900020009063
:1047900000235022DFF848160FF20540FFF71AFFFA
:1047A0000400012C0BD105F08FFEDFF8000601217B
:1047B0000160DFF814060021016005F084FD1FBDD3
:1047C000DFF818060068401CDFF810160860704714
:1047D00070B5002505F092FDDFF800060068401E68
:1047E000DFF8F8150860DFF8F405006800285BD1F1
:1047F000DFF868050068002856D00026DFF8D805E5
:104800000068002804D0DFF8D005C068C46800E064
:104810000024002C23D014F1180005F024FE201DE4
:1048200005F021FEDFF890050068E16A884203D2B6
:10483000E06ADFF884150860211DE06A1422DFF8C1
:104840007C3502FB003005F0E1FDE06ADFF8581529
:104850000968C96A8842D1D301200600CEE7DFF893
:1048600084050068002810D0DFF87805006800286B
:1048700009D000F01DF8DFF86C050068401EDFF875
:1048800064150860F0E701200600012E04D0DFF86F
:1048900058050068012807D101200500DFF8480508
:1048A0000021016005F025FD05F031FD280070BDF7
:1048B00010B5DFF828050068002852D1DFF8080598
:1048C0000068401CDFF800150860DFF8FC04006891
:1048D000002813D1DFF8F81409680800DFF8F01495
:1048E000DFF8E82412680A60DFF8E0140860DFF8F7
:1048F000FC140968491CDFF8F4241160DFF8D004C7
:1049000000680068002805D0DFF8C4040068C068AB
:10491000C46800E00024002C2AD0DFF8AC04006852
:104920006168884224D3201D05F09DFDA06A0028FF
:1049300003D014F1180005F096FDDFF87C04006840
:10494000E16A884203D2E06ADFF86C140860211D36
:10495000E06A1422DFF8643402FB003005F056FDF3
:10496000CCE7DFF880040068401CDFF878140860AA
:1049700010BD80B5DFF864040068002804D0DFF8BB
:1049800068040121016054E0DFF81C040068006B3A
:10499000DFF8141409680968884209D3DFF80804AD
:1049A000006810F13401DFF80004006805F0ACFE87
:1049B0001422DFF83C14DFF8F0030068006B05F008
:1049C000A5FE002809D0DFF8E003006810F13401EB
:1049D000DFF8D403006805F097FEDFF8DC03006819
:1049E0001421DFF8D82301FB00200068002807D13C
:1049F000DFF8C4030068401EDFF8BC130860ECE772
:104A0000DFF8B41309681422DFF8B03302FB013178
:104A10000800416849684160416810F1080291420C
:104A200002D14168496841604068C068DFF8781386
:104A3000086001BD70B504000D00DFF86C0300686C
:104A400010F11801200005F0F0FCDFF85C030068AD
:104A5000001D05F008FD15F1010F08D1DFF848032E
:104A60000068011DDFF86C0305F0D0FC20E0DFF8E2
:104A70005803006828180600DFF82C030068466019
:104A8000DFF844030068864209D2DFF81C0300689F
:104A9000011DDFF83803006805F0C7FC08E0DFF807
:104AA00008030068011DDFF82803006805F0BDFC5D
:104AB00070BD70B504002068002802D0E068C668A8
:104AC00000E0002616F1180005F0CDFCDFF80C031D
:104AD0000068002813D1301D05F0C5FCB6480068F9
:104AE000F16A884202D2F06AB3490860311DF06A67
:104AF0001422B24B02FB003005F088FC04E016F1F2
:104B00001801B54805F082FCF06AA7490968C96A2E
:104B1000884202D30120050001E0002005002800A2
:104B200070BDB24909680160A749096841607047D2
:104B300070B504000D0005F0E1FB286810F1010FCD
:104B400002D10020060022E0A848006821688842BF
:104B500007D09D4800686168884202D301200600A2
:104B600015E0994800686168401A296888420CD2AB
:104B7000286895490968401A61680818286020006B
:104B8000FFF7CFFF0020060001E00120060005F03E
:104B9000BEFB300070BD94480121016070470000E9
:104BA00010B5040000F045F8FCE7F8B504000D006E
:104BB00016001F000C22290014F1340005F0D8FD66
:104BC000002084F83F00052E01D304200600E66291
:104BD000A664201D05F017FC14F1180005F013FC65
:104BE0002461D6F10500A0616462F1BD10B500201A
:104BF0000400052C07D21420704900FB041005F0B6
:104C0000F3FB641CF5E77B4805F0EEFB7A4805F002
:104C1000EBFB714805F0E8FB694805F0E5FB6D48E2
:104C200005F0E2FB6A487349016068487249016017
:104C300010BD38B56348006800282AD0FFF7C0FDD2
:104C40005F480068002801D1012400E00024E4B29C
:104C5000FFF7BEFD002C1CD105F050FB5848006842
:104C6000002803D05648C068C56800E00025281D0C
:104C700005F0F9FB39480068401E38490860514882
:104C80000068401E4F49086005F041FB280000F015
:104C900024F831BD70B504000D004C2005F09EFDD8
:104CA0000600002E17D0002D04D1A4B2A00005F0FC
:104CB00095FD00E028003063306B002805D13000FE
:104CC00005F0B4FD0020060005E0A4B2A200A52175
:104CD000306B05F0B1FD300070BD10B50400206BE5
:104CE00005F0A4FD200005F0A1FD10BD2E490968C6
:104CF0000800704738B504002500E86A2A490968A9
:104D0000C96A884229D228480068C06AD0F10500E3
:104D1000A8616869E96A1422284B02FB01318842C4
:104D200017D1281D05F09FFB1F480068C06AE86284
:104D300021480068E96A884202D2E86A1E49086090
:104D4000291DE86A14221D4B02FB003005F05EFBB2
:104D500003E015480068C06AE86231BDA06B00102E
:104D600038B504002500002C1CD0E86AA96C8842E4
:104D700018D0281D05F077FBA86CE862E86AD0F12E
:104D80000500A8610C480068E96A884202D2E86A16
:104D900009490860291DE86A1422084B02FB00300B
:104DA00005F034FB31BD0000906B0010B06B0010BB
:104DB000A86B0010C46B0010AC6B001008690010E9
:104DC000E46A00109C6B0010A46B0010986B00103C
:104DD000946B0010F86A0010D06A0010B46B0010D9
:104DE00018100100B86B0010BC6B0010C06B0010F5
:104DF000DC090100A86A0010BC6A0010F0B583B09D
:104E000004000D001600280C8DF80000280A8DF80B
:104E1000010028008DF80200300C8DF80300300AE4
:104E20008DF8040030008DF805000622002100A84E
:104E300005F019FD0700BFB2380A8DF806003800EA
:104E40008DF80700082200A9E4B2844850F8240035
:104E500005F054FFF7BD7CB504000D0016000822D4
:104E600000A9E4B27D4850F8240005F063FF062253
:104E7000002100A805F0F7FC01009DF806009DF850
:104E8000072052EA002292B289B28A4217D19DF8D5
:104E900000009DF801301B0253EA00409DF80230EB
:104EA000184328609DF803009DF804301B0253EA64
:104EB00000409DF8053018433060FF2000E00020DE
:104EC00076BD70B582B004000E00B6B2300A8DF81F
:104ED000000030008DF801000222002100A805F03A
:104EE000C2FC0500ADB2280A8DF8020028008DF83A
:104EF0000300E4B2002C08D0022C14D00CD3042CF4
:104F00001FD017D3052C23D028E0042200A94FF48A
:104F1000885005F0F3FE21E0042200A941F20410BC
:104F200005F0ECFE1AE0042200A941F2081005F099
:104F3000E5FE13E0042200A941F20C1005F0DEFEAC
:104F40000CE0042200A941F2101005F0D7FE05E0A4
:104F5000042200A941F2141005F0D0FE73BD2DE922
:104F6000F04182B00400E4B2002C08D0022C1CD026
:104F700010D3042C33D025D3052C3BD045E004229C
:104F800000A94FF4885005F0D5FE1E200600B4207D
:104F900007003AE0042200A941F2041005F0CAFE1D
:104FA0003C200600C82007002FE0042200A941F29F
:104FB000081005F0BFFE4FF4FA60060044F250609E
:104FC000070022E0042200A941F20C1005F0B2FE15
:104FD0004FF4FA60060044F25060070015E0042226
:104FE00000A941F2101005F0A5FE01200600C8201E
:104FF00007000AE0042200A941F2141005F09AFE0D
:10500000012006004FF6E85007000222002100A808
:1050100005F029FC80461FFA88F89DF802009DF8EB
:10502000031051EA0020804513D19DF800009DF83F
:10503000011051EA00200500ADB2B6B2B54200D26F
:105040003500BFB2ADB2AF4200D23D00280080B201
:1050500001E0300080B2BDE8F6810000F00B0100F5
:105060002DE9F04782B006000F00904699460A9C51
:105070000B9DF6B2002E01D0012000E000208DF83B
:105080000000FFB2002F01D0022000E000209DF8B8
:10509000001008438DF800005FFA88F8B8F1000F9F
:1050A00001D0042000E000209DF8001008438DF896
:1050B00000005FFA89F9B9F1000F01D0082000E083
:1050C00000209DF8001008438DF80000E4B2002C89
:1050D00001D0102000E000209DF8001008438DF85A
:1050E0000000EDB2002D01D0202000E000209DF84E
:1050F000001008438DF800000122002100A805F0EF
:10510000B2FB82461FFA8AFA5FEA1A208DF8010084
:1051100050468DF80200032200A941F2281005F044
:10512000EDFDBDE8F3872DE9F84304000D001600FE
:105130001F00DDF82080DDF82490032200A941F251
:10514000281005F0F7FD0122002100A805F08BFBD7
:1051500080B29DF80110B0EB012F01D1012100E0D8
:105160000021C9B29DF802201143002932D09DF8D8
:105170000010C90701D5FF2100E0002121709DF832
:105180000010890701D5FF2100E0002129709DF85A
:105190000010490701D5FF2100E0002131709DF882
:1051A0000010090701D5FF2100E0002139709DF8AA
:1051B0000010C90601D5FF2100E0002188F8001089
:1051C0009DF80010890601D5FF2100E0002189F833
:1051D00000100DE0FF212170FF212970FF213170A7
:1051E000FF213970FF2188F80010FF2189F8001095
:1051F000BDE8F1831CB5062200A94FF4005005F06C
:1052000099FD0422002100A805F02DFB0400A4B2A2
:105210009DF804009DF8051051EA002084420ED14B
:105220009DF800009DF80110090451EA00609DF806
:10523000021050EA01209DF80310084300E000200E
:1052400016BD30B583B00400200E8DF80000200C90
:105250008DF80100200A8DF8020020008DF803006F
:105260000422002100A805F0FEFA0500ADB2280ACC
:105270008DF8040028008DF80500062200A94FF4DF
:10528000005005F03BFD37BD1CB5062200A94FF4C8
:10529000A85005F04FFD0422002100A805F0E3FA14
:1052A0000400A4B29DF804009DF8051051EA002006
:1052B00084420ED19DF800009DF80110090451EAC6
:1052C00000609DF8021050EA01209DF80310084389
:1052D00000E0002016BD30B583B00400200E8DF82C
:1052E0000000200C8DF80100200A8DF8020020003B
:1052F0008DF803000422002100A805F0B4FA05008F
:10530000ADB2280A8DF8040028008DF805000622A9
:1053100000A94FF4A85005F0F1FC37BD1CB50622DA
:1053200000A941F2505005F005FD0422002100A81B
:1053300005F099FA0400A4B29DF804009DF8051048
:1053400051EA002084420ED19DF800009DF8011022
:10535000090451EA00609DF8021050EA01209DF80E
:105360000310084300E0002016BD30B583B00400F0
:10537000200E8DF80000200C8DF80100200A8DF819
:10538000020020008DF803000422002100A805F08F
:105390006AFA0500ADB2280A8DF8040028008DF8DD
:1053A0000500062200A941F2505005F0A7FC37BDC8
:1053B00010B582B0042200A941F2705005F0BAFC89
:1053C0000222002100A805F04EFA0400A4B29DF8C4
:1053D00002009DF8031051EA0020844207D19DF895
:1053E00000009DF8011051EA002080B200E000208A
:1053F00016BD38B50400A4B2200A8DF800002000C4
:105400008DF801000222002100A805F02CFA050009
:10541000ADB2280A8DF8020028008DF8030004229E
:1054200000A941F2705005F069FC31BD10B582B0A1
:10543000042200A94FF4AC5005F07CFC02220021AC
:1054400000A805F010FA0400A4B29DF802009DF82F
:10545000031051EA0020844207D19DF800009DF816
:10546000011051EA002080B200E0002016BD38B5DE
:105470000400A4B2200A8DF8000020008DF801007D
:105480000222002100A805F0EEF90500ADB2280ABD
:105490008DF8020028008DF80300042200A94FF4C3
:1054A000AC5005F02BFC31BD38B50400A4B2200A85
:1054B0008DF8000020008DF801000222002100A8D4
:1054C00005F0D1F90500ADB2280A8DF802002800D8
:1054D0008DF80300042200A941F2905005F00EFC63
:1054E00031BD38B50400A4B2200A8DF800002000B8
:1054F0008DF801000222002100A805F0B4F9050092
:10550000ADB2280A8DF8020028008DF803000422AD
:1055100000A941F2955005F0F1FB31BD10B582B004
:10552000042200A941F2955005F004FC022200215A
:1055300000A805F098F90400A4B29DF802009DF8B7
:10554000031051EA0020844218D19DF800009DF814
:10555000011051EA00200400A4B2B4F57A6F02DA17
:105560004FF47A600400A4B244F25160844202DB3A
:1055700044F250600400200080B201E041F2883023
:1055800016BD38B50400A4B2200A8DF80000200032
:105590008DF801000222002100A805F064F9050041
:1055A000ADB2280A8DF8020028008DF8030004220D
:1055B00000A94FF4AD5005F0A1FB31BD10B582B08C
:1055C000042200A94FF4AD5005F0B4FB02220021E3
:1055D00000A805F048F90400A4B29DF802009DF867
:1055E000031051EA0020844218D19DF800009DF874
:1055F000011051EA00200400A4B2B4F57A6F02DA77
:105600004FF47A600400A4B244F25160844202DB99
:1056100044F250600400200080B201E041F2883082
:1056200016BD10B582B0042200A941F2A55005F0C4
:1056300081FB0222002100A805F015F90400A4B2A4
:105640009DF802009DF8031051EA002084420ED11B
:105650009DF800009DF8011051EA00200400A4B25A
:10566000652C01DB64200400200080B200E064208F
:1056700016BD38B50400A4B2200A8DF80000200041
:105680008DF801000222002100A805F0ECF80500C9
:10569000ADB2280A8DF8020028008DF8030004221C
:1056A00000A941F2A55005F029FB31BD10B582B02B
:1056B000042200A941F2B05005F03CFB0222002177
:1056C00000A805F0D0F80400A4B29DF802009DF8EF
:1056D000031051EA0020844215D19DF800009DF886
:1056E000011051EA00200400A4B2002C01D10120D5
:1056F0000400A4B2B4F5166F02DD4FF41660040086
:10570000200080B200E0012016BD38B50400A4B22C
:10571000200A8DF8000020008DF8010002220021EF
:1057200000A805F0A0F80500ADB2280A8DF8020027
:1057300028008DF80300042200A941F2B05005F0C2
:10574000DDFA31BD10B582B0042200A941F2B55096
:1057500005F0F0FA0222002100A805F084F8040008
:10576000A4B29DF802009DF8031051EA0020844283
:1057700018D19DF800009DF8011051EA00200400A6
:10578000A4B2B4F57A6F02DA4FF47A600400A4B2DE
:1057900044F62160844202DB44F6206004002000CD
:1057A00080B200E0012016BD38B50400A4B2200A82
:1057B0008DF8000020008DF801000222002100A8D1
:1057C00005F051F80500ADB2280A8DF80200280056
:1057D0008DF80300042200A941F2B55005F08EFABD
:1057E00031BD10B582B0042200A94FF4AE5005F0CF
:1057F000A1FA0222002100A805F035F80400A4B2A5
:105800009DF802009DF8031051EA0020844218D14F
:105810009DF800009DF8011051EA00200400A4B298
:10582000B4F57A7F02DA4FF47A700400A4B243F63A
:105830009920844202DB43F698200400200080B2C5
:1058400000E0012016BD38B50400A4B2200A8DF88E
:10585000000020008DF801000222002100A805F0C0
:1058600002F80500ADB2280A8DF8020028008DF874
:105870000300042200A94FF4AE5005F03FFA31BDF9
:1058800010B582B0042200A941F2C55005F052FAC9
:105890000222002100A804F0E6FF0400A4B29DF853
:1058A00002009DF8031051EA002084420ED19DF8B9
:1058B00000009DF8011051EA00200400A4B2652CFC
:1058C00001DB64200400200080B200E0642016BDEB
:1058D00038B50400A4B2200A8DF8000020008DF82D
:1058E00001000222002100A804F0BDFF0500ADB2B6
:1058F000280A8DF8020028008DF80300042200A970
:1059000041F2C55005F0FAF931BD10B582B004225C
:1059100000A941F2D05005F00DFA0222002100A8A2
:1059200004F0A1FF0400A4B29DF802009DF803104A
:1059300051EA002084420ED19DF800009DF801102C
:1059400051EA00200400A4B2652C01DB64200400AD
:10595000200080B200E0012016BD38B50400A4B2DA
:10596000200A8DF8000020008DF80100022200219D
:1059700000A804F078FF0500ADB2280A8DF80200F7
:1059800028008DF80300042200A941F2D05005F050
:10599000B5F931BD38B50400A4B2200A8DF8000075
:1059A00020008DF801000222002100A804F05BFF16
:1059B0000500ADB2280A8DF8020028008DF803001A
:1059C000042200A941F2D45005F098F931BD10B578
:1059D00082B0042200A941F2D45005F0ABF90222B2
:1059E000002100A804F03FFF0400A4B29DF80200CB
:1059F0009DF8031051EA0020844210D19DF8000068
:105A00009DF8011051EA00200400A4B2B4F5FA7F19
:105A100002DD4FF4FA700400200080B200E00120A3
:105A200016BD30B583B00400200E8DF80000200CA8
:105A30008DF80100200A8DF8020020008DF8030087
:105A40000422002100A804F00EFF0500ADB2280AD0
:105A50008DF8040028008DF80500062200A941F207
:105A6000D85005F04BF937BD1CB5062200A941F20C
:105A7000D85005F05FF90422002100A804F0F3FEDD
:105A80000400A4B29DF804009DF8051051EA00201E
:105A900084420ED19DF800009DF80110090451EADE
:105AA00000609DF8021050EA01209DF803100843A1
:105AB00000E0002016BD38B50400E4B2002C01D08F
:105AC000FF2004008DF800400122002100A804F00E
:105AD000CAFE0500ADB2280A8DF8010028008DF835
:105AE0000200032200A94FF4B05005F007F931BDC0
:105AF00010B582B0032200A94FF4B05005F01AF996
:105B00000122002100A804F0AEFE0400A4B29DF81A
:105B100001009DF8021051EA0020844202D19DF854
:105B2000000000E0002016BD38B50400A4B2200A31
:105B30008DF8000020008DF801000222002100A84D
:105B400004F091FE0500ADB2280A8DF8020028008D
:105B50008DF80300042200A941F2106005F0CEF890
:105B600031BD10B582B0042200A941F2106005F0E9
:105B7000E1F80222002100A804F075FE0400A4B29E
:105B80009DF802009DF8031051EA0020844207D1DD
:105B90009DF800009DF8011051EA002080B200E05D
:105BA000412016BD10B582B0042200A941F2086060
:105BB00005F0C0F80222002100A804F054FE040001
:105BC000A4B29DF802009DF8031051EA002084421F
:105BD00007D19DF800009DF8011051EA002080B225
:105BE00000E0052016BD70B586B004000D0011223E
:105BF000290000A800F0CCFB1122002100A804F02D
:105C000032FE0600B6B2300A8DF8110030008DF871
:105C10001200132200A9E4B2132000FB04F010F5D7
:105C2000B85005F06BF806B070BD70B596B00400C2
:105C30000D0005A81749442203F070FF132200A9A4
:105C4000E4B2132000FB04F010F5B85005F072F830
:105C50001122002100A804F006FE0600B6B29DF84D
:105C600011009DF8121051EA0020864205D1112240
:105C700000A9280000F08CFB08E01122E4B21120FA
:105C800005A900FB0411280000F082FB16B070BDCE
:105C90000000000090F7000038B50400E4B2002CCA
:105CA00001D0FF2004008DF800400122002100A84F
:105CB00004F0D9FD0500ADB2280A8DF801002800D6
:105CC0008DF80200032200A94FF4C85005F016F821
:105CD00031BD10B582B0032200A94FF4C85005F0C1
:105CE00029F80122002100A804F0BDFD0400A4B29F
:105CF0009DF801009DF8021051EA0020844202D173
:105D00009DF8000000E0002016BD38B50400A4B2E4
:105D1000200A8DF8000020008DF8010002220021E9
