:10000000206F0010C10F0100711101007511010076
:10001000791101007D11010081110100C229F9EF60
:10002000000000000000000000000000A9A5000082
:10003000891101000000000057A50000EDA3000099
:100040009511010057A20000B3700000D56F0000A9
:10005000A511010061A900005B8200000000000002
:1000600057E20000B9110100BD110100C1110100EA
:10007000C5110100C9110100CD110100D11101000C
:10008000D5110100D9110100DD110100037000003C
:10009000E51101005B7A0000ED110100F111010092
:1000A000F5110100F9110100FD110100011201001B
:1000B00001120100091201000D12010011120100CC
:0400C0001512010014
:1003000038B500250C2004F035F82800C0B200F004
:1003100055F804F085F900284CD004F018F90400D1
:10032000E4B2012C06D03AD3032C16D006D3042C09
:100330001FD034E00C2004F01DF83EE0EDB2002D9B
:1003400003D0EDB228006D1E02E008252800C0B2DF
:100350002800C0B200F032F821E0EDB2681C09219B
:1003600090FBF1F201FB12052800C0B200F026F864
:1003700015E0EDB2DFF8B40750F8250000280AD0E8
:10038000EDB2DFF8A80750F8250080472800C0B27A
:1003900000F014F803E00C2003F0ECFF0DE0322035
:1003A00004F019FADFF868080068401CDFF86018EC
:1003B0000860AEE70C2003F0DDFF31BD10B504008E
:1003C0000021002003F0B9FFDFF8C00703F0F0FFC1
:1003D0000121002003F0B1FFE4B2DFF8380850F843
:1003E000240003F0E5FF0121002003F0A6FF7E209A
:1003F00003F0C0FF10BD38B500250C2003F0BAFF94
:100400002800C0B200F043F804F00AF900283DD0FB
:1004100004F09DF80400E4B2012C18D032D3032C70
:1004200025D015D3042C2DD1EDB2DFF8480850F8B3
:10043000250000280AD0EDB2DFF8380850F8250072
:1004400080472800C0B200F022F81BE01EE01DE04B
:10045000EDB2002D03D0EDB228006D1E02E007259D
:100460002800C0B22800C0B200F011F80AE0EDB2D6
:10047000681C082190FBF1F505FB11052800C0B2AE
:1004800000F005F8322004F0A6F9BDE731BD10B543
:1004900004000021002003F050FFDFF8DC0703F028
:1004A00087FF0121002003F048FFE4B2DFF8640871
:1004B00050F8240003F07CFF0121002003F03DFFF1
:1004C0007E2003F057FF10BD30B585B0002004F04A
:1004D000A8FD05000C2003F04DFFDFF8A00703F096
:1004E00067FF04F09DF800282FD004F030F80400D6
:1004F000E4B2012C0AD016D3032C10D00AD3042C5A
:1005000011D1290089B2002004F03DFD0C2003F038
:1005100031FF1AE0ADB21F2D00DB6D1E03E0ADB25E
:10052000B42D00DA6D1CADB22A00DFF8741800A8F3
:1005300005F076FF0121062003F0FFFE00A803F07E
:1005400037FF322004F047F9CBE705B030BD30B5B6
:1005500085B0012004F065FD05000C2003F00AFFC2
:10056000DFF8B40703F024FF04F05AF800282FD076
:1005700003F0EDFF0400E4B2012C0AD016D3032CE3
:1005800010D00AD3042C11D1290089B2012004F023
:10059000FAFC0C2003F0EEFE1AE0ADB23D2D00DBBC
:1005A0006D1E03E0ADB2C82D00DA6D1CADB22A009D
:1005B000DFF8F81700A805F033FF0121062003F04B
:1005C000BCFE00A803F0F4FE322004F004F9CBE7EF
:1005D00005B030BD30B585B0022004F022FD050025
:1005E0000C2003F0C7FEDFF8BC0703F0E1FE04F0C7
:1005F00017F800285CD003F0AAFF0400E4B2012C35
:100600000AD03ED3032C23D00AD3042C39D129009D
:1006100089B2022004F0B7FC0C2003F0ABFE47E0E7
:10062000ADB2B5F5FA6F12DDDFF87C07006841F274
:100630008931884201D36D1E09E0DFF86C0700683C
:1006400040F6B931884201D30A3D00E0643D1DE027
:10065000ADB244F25060854212DADFF84C07006810
:1006600041F28931884201D36D1C09E0DFF8380777
:10067000006840F6B931884201D30A3500E064359C
:1006800004E0DFF8240741F288310160ADB22A00AE
:10069000DFF8F01700A805F0C3FE0121032003F0E6
:1006A0004CFE00A803F084FE322004F094F89EE78C
:1006B00005B030BD30B585B0052004F0B2FC0500B2
:1006C0000C2003F057FEDFF8C00703F071FE03F0C3
:1006D000A7FF002834D003F03AFF0400E4B2012C55
:1006E0000AD01BD3032C13D00AD3042C16D1290013
:1006F00089B2052004F047FC0C2003F03BFE1FE00C
:10070000ADB2022D01DB6D1E01E00020050005E009
:10071000ADB240F2E730854200DA6D1CADB22A007E
:10072000DFF8441800A805F07BFE0121032003F048
:1007300004FE00A803F03CFE322004F04CF8C6E7AB
:1007400005B030BD2DE9F04385B00400002600A8B7
:10075000DFF818180CC90CC0083908385FF0000819
:100760005FF001090C2003F005FEDFF8040803F038
:100770001FFE03F055FF002800F0908003F0E7FE15
:100780000500EDB2012D3ED060D3032D3DD04DD3F9
:10079000042D5BD1761CF6B2042E33DB9DF80000ED
:1007A0004FF47A719DF8012064235A4301FB002025
:1007B0009DF802100A2202FB01009DF803100818A0
:1007C00000F53C50B0300700BFB2A4B2A74201D13F
:1007D000FF2064E00C2003F0CDFDDFF81C0803F0DF
:1007E000E7FD0121002003F0A8FDDFF8100803F069
:1007F000DFFD40F6B83003F0EEFF0C2003F0BAFD49
:1008000000204CE022E0002049E0F6B200A8305C75
:10081000401CF6B200A97054F6B200A8305C3A2829
:1008200003DBF6B200A8302131540FE0F6B200A885
:10083000305C401EF6B200A97054F6B200A8305CDD
:10084000302803DAF6B200A839213154B9F1010990
:100850004846C0B200281DD1042081465FFA88F8BE
:100860007FEA0808042200A902A805F0F3FD002091
:100870008DF80C005FFA88F8B8F1000F03D0F6B2DB
:1008800002A85F2131540121062003F056FD02A881
:1008900003F08EFD322003F09EFF6AE7002005B0D2
:1008A000BDE8F08330B585B000250DF10D00019055
:1008B00003A800900DF10B030DF10A020DF10901DF
:1008C00002A804F092FC0C2003F054FDDFF85C0A4F
:1008D00003F06EFDEDB202A8295C2800C0B200F062
:1008E0005AF803F09DFE002853D003F030FE0400B8
:1008F000E4B2012C28D048D3032C26D034D3042CC6
:1009000043D1EDB2062D10D19DF80D0001909DF858
:100910000C0000909DF80B309DF80A209DF80910FE
:100920009DF8080004F0FEFB33E0EDB202A8285C5D
:10093000C043EDB202A96854EDB202A8295C2800B8
:10094000C0B200F028F820E023E0EDB2681C0721D7
:1009500090FBF1F201FB1205EDB202A8295C280020
:10096000C0B200F018F810E0EDB2002D03D0EDB2E7
:1009700028006D1E02E006252800C0B2EDB202A8D4
:10098000295C2800C0B200F006F8322003F023FFF3
:10099000A7E705B030BD38B504000D0001210020E7
:1009A00003F0CBFCE4B2DFF8A40A50F8240003F013
:1009B000FFFCE4B2062C09DAEDB2002D06D00121CD
:1009C000022003F0BAFC582003F0D4FC31BD10B56E
:1009D00005F0C7FC80B2FFF7B5FE002833D00C202D
:1009E00003F0C8FCDFF8480903F0E2FC0121002015
:1009F00003F0A3FCDFF83C0903F0DAFC03F010FE7F
:100A0000002820D003F0A3FD0400E4B22000012858
:100A100018D00428F2D1082005F042FD0C2003F084
:100A2000A9FCDFF82C0A03F0C3FC0121002003F02D
:100A300084FCDFF8780A03F0BBFC41F2883003F055
:100A4000CAFEDBE7FFE710BD38B5002505F089FCDD
:100A500080B2FFF777FE00284AD00C2003F08AFC12
:100A60002800C0B200F045F803F0DAFD00283FD0BE
:100A700003F06DFD0400E4B2012C17D034D3032C35
:100A800018D023D3042C2FD1EDB2DFF8E00A50F8B0
:100A9000250000280AD0EDB2DFF8D00A50F8250072
:100AA00080472800C0B200F024F81DE00C2003F0BD
:100AB00061FC1DE0EDB2681C082190FBF1F505FB1F
:100AC00011052800C0B200F014F80DE0EDB2002DC1
:100AD00003D0EDB228006D1E02E007252800C0B249
:100AE0002800C0B200F005F8642003F074FEBBE7F4
:100AF00031BD10B504000021002003F01EFCDFF81A
:100B0000B00903F055FC0121002003F016FCE4B20B
:100B1000DFF85C0A50F8240003F04AFC01210020B1
:100B200003F00BFC7E2003F025FC10BD74FA0000DE
:100B300030B585B004F00AFC05002A00DFF8381A49
:100B400000A805F06DFC0C2003F014FCDFF8E80AA7
:100B500003F02EFC0121002003F0EFFB00A803F0BE
:100B600027FC03F05DFD00280DD003F0F0FC04002D
:100B7000E4B22000012801D0042800D103E0642061
:100B800003F029FEEDE705B030BD0000580B010071
:100B900010B50C2003F0EEFBDFF8E00903F008FCD1
:100BA0000121002003F0C9FBDFF8D40903F000FCA9
:100BB00003F0CDFC0400E4B2042C01D105F0BCFC30
:100BC000E4B2012CF4D105F0CCFB80B2FFF7BAFD02
:100BD00000281BD00C2003F0CDFBDFF8A80903F0A0
:100BE000E7FB0121002003F0A8FBDFF8500A03F027
:100BF000DFFB002004F0D1FB002004F074FF002094
:100C000005F025FB41F2883003F0E5FD10BD000042
:100C1000606B00108803001030B585B004F0E0FB75
:100C200005002A00DFF8501900A805F0F9FB0C2098
:100C300003F0A0FBDFF8100A03F0BAFB012100204B
:100C400003F07BFB00A803F0B3FB03F0E9FC0028F2
:100C50000DD003F07CFC0400E4B22000012801D098
:100C6000042800D103E0642003F0B5FDEDE705B0F2
:100C700030BD0000C4FA0000680B0100A4050100AB
:100C800030B585B004F0F6FB05000C2003F072FBD4
:100C9000DFF8B80903F08CFB03F0C2FC002836D063
:100CA00003F055FC0400E4B2012C09D01DD3032C41
:100CB0000AD010D3042C18D1280080B204F0FBFB1A
:100CC0000C2003F057FB22E00A35ADB2792D01DB91
:100CD0000020050009E0ADB2002D03D00A3D280038
:100CE00080B202E07825280080B2ADB22A00DFF899
:100CF000FC1900A805F094FB0121062003F01DFB60
:100D000000A803F055FB642003F065FDC4E705B0BF
:100D100030BD0000AC030010B805010038B504F088
:100D2000E7FB0500ADB2002D03D04FF6FF700500C4
:100D300001E0002005000C2003F01CFBDFF8A809EF
:100D400003F036FB03F06CFC002827D003F0FFFB18
:100D50000400E4B2012C09D00ED3032C0AD009D32D
:100D6000042C09D1280080B204F0E3FB0C2003F02E
:100D700001FB13E0ADB2ED430121062003F0DDFAE3
:100D8000ADB2002D03D076A003F012FB02E075A0F7
:100D900003F00EFB642003F01EFDD3E731BD00001D
:100DA0004C100100CC050100906B001054100100A4
:100DB00030B585B004F014FC05000C2003F0DAFA1D
:100DC000DFF8A80903F0F4FA03F02AFC002856D053
:100DD00003F0BDFB0400E4B2012C09D039D3032C8D
:100DE00020D009D3042C34D1280080B204F0DBFBDE
:100DF0000C2003F0BFFA42E0ADB2B5F5FA6F10DD9A
:100E0000DFF86C090068B0F57A7F01D96D1E08E043
:100E1000DFF85C090068B0F5FA7F01D90A3D00E00F
:100E2000643D1BE0ADB244F25060854210DADFF859
:100E300040090068B0F57A7F01D96D1C08E0DFF841
:100E400030090068B0F5FA7F01D90A3500E0643551
:100E500004E0DFF81C0940F6B8310160ADB22A00A9
:100E6000084900A805F0DCFA0121032003F065FA27
:100E700000A803F09DFA322003F0ADFCA4E705B012
:100E800030BD0000040E0100E005010030B585B062
:100E900004F0F6FB05000C2003F06CFADFF8F8090B
:100EA00003F086FA03F0BCFB002857D003F04FFB99
:100EB0000400E4B2012C09D039D3032C20D009D38B
:100EC000042C34D1280080B204F0BDFB0C2003F0C8
:100ED00051FA43E0ADB2B5F5FA6F10DDDFF89008D6
:100EE0000068B0F57A7F01D96D1E08E0DFF8800850
:100EF0000068B0F5FA7F01D90A3D00E0643D1BE0CF
:100F0000ADB244F25060854210DADFF86408006840
:100F1000B0F57A7F01D96D1C08E0DFF8540800684D
:100F2000B0F5FA7F01D90A3500E0643504E0DFF856
:100F3000400840F6B8310160ADB22A00DFF8601A0F
:100F400000A805F06DFA0121032003F0F6F900A8CE
:100F500003F02EFA322003F03EFCA3E705B030BDCB
:100F600053494D004E414F00100E01005C1001002E
:100F7000F405010030B585B004F0FAFB05000C2043
:100F800003F0F8F9DFF8240A03F012FA03F048FB43
:100F900000282ED003F0DBFA0400E4B2012C09D0C3
:100FA00015D3032C0FD009D3042C10D1280080B204
:100FB00004F00DFC0C2003F0DDF91AE0ADB2022DB7
:100FC00000DB6D1E03E0ADB2782D00DA6D1CADB212
:100FD0002A00DFF8E01A00A805F022FA0121062015
:100FE00003F0ABF900A803F0E3F9322003F0F3FBC0
:100FF000CCE705B030BD0000641001001C0E0100FC
:1010000030B585B004F000FC05000C2003F0B2F907
:10101000DFF8A40A03F0CCF903F002FB00285AD051
:1010200003F095FA0400E4B2012C09D03CD3032C60
:1010300023D009D3042C37D1280080B204F016FC49
:101040000C2003F097F946E0ADB241F289308542B9
:1010500012DBDFF81C07006841F28931884201D3B6
:101060006D1E09E0DFF80807006841F28931884207
:1010700001D30A3D00E0643D1BE0ADB244F2506094
:10108000854210DADFF8E8060068B0F57A7F01D90A
:101090006D1C08E0DFF8D8060068B0F5FA7F01D9CA
:1010A0000A3500E0643504E0DFF8C40640F6B831E4
:1010B0000160ADB22A00DFF8E81800A805F0B0F929
:1010C0000121062003F039F900A803F071F932205C
:1010D00003F081FBA0E705B030BD000038B5002566
:1010E0002800C0B200F044F803F09AFA00283DD07E
:1010F00003F02DFA0400E4B2012C18D032D3032CF3
:1011000025D015D3042C2DD1EDB2DFF8DC0A50F830
:10111000250000280AD0EDB2DFF8CC0A50F82500EF
:1011200080472800C0B200F023F81BE01EE01DE05D
:10113000EDB2002D03D0EDB228006D1E02E01225A5
:101140002800C0B22800C0B200F012F80AE0EDB2E8
:10115000681C132190FBF1F201FB12052800C0B2BC
:1011600000F006F8322003F036FBBDE731BD000089
:1011700010B504000021002003F0DFF8DFF86C0A4E
:1011800003F016F90121002003F0D7F8E4B2DFF8EC
:10119000600A50F8240003F00BF90121002003F04D
:1011A000CCF87E2003F0E6F810BD7FB50C2003F0EC
:1011B000E1F8DFF8400A03F0FBF803F0C8F9040097
:1011C000E4B2012C19D005F0B1FC05F011FD0500C9
:1011D000280005F021FD06003200DFF81C1A00A8E7
:1011E00005F01EF90121002003F0A7F800A803F084
:1011F000DFF8642003F0EFFADFE77FBD70B586B05B
:101200000C2003F0B7F8DFF8F40903F0D1F804205C
:1012100003F007FF050003F09AF90400E4B2012C83
:1012200046D0E4B2042C1DD10121002003F085F842
:10123000DFF8CC0903F0BCF80121002003F07DF8B1
:10124000280005F002FD002804D0DFF8B80903F0FB
:10125000AFF803E0DFF8B00903F0AAF840F6B830C1
:1012600003F0B9FA05F0A4FC0600B6B23200DFF8CC
:101270009C1900A805F0D4F80121012003F05DF8C5
:1012800000A803F095F80121082003F056F805F0B6
:1012900010FD002804D0DFF8780903F089F803E096
:1012A000DFF8700903F084F8642003F094FAB2E7E1
:1012B00006B070BD38B50C2003F05CF8DFF85809B3
:1012C00003F076F803F043F90400E4B220000128AB
:1012D00014D0042813D10121002003F02EF8DFF8E8
:1012E0003C0903F065F805F00EFD0121002003F034
:1012F00024F8DFF82C0903F05BF800E014E005F0B7
:1013000033FD05000121052003F017F8EDB2002D93
:1013100003D098A003F04CF802E0C6A003F048F810
:10132000642003F058FACDE731BD00000806010043
:101330001C060100300601002DE9F04385B05FF086
:10134000000841F288364FF4E1670C2003F012F8F0
:10135000DFF8D00803F02CF803F0F9F80400E4B249
:10136000012C17D02ED3032C15D020D3042C29D137
:101370005FFA88F87FEA08085FFA88F8B8F1000F8A
:1013800004D0B6B2300005F0CEFE02E0002005F039
:10139000CAFE17E057E0DFF8D80340F6B831016025
:1013A000B6B243F2C820864200DA64360AE0DFF8BB
:1013B000C00340F6B8310160B6B241F289308642CE
:1013C00000DB643EDFF8A803006800280DD1B6B248
:1013D000BFB2BE4209D05FFA88F8B8F1000F04D05E
:1013E000B6B2300005F09FFE37005FFA88F8B8F11A
:1013F000000F02D00FF2482901E00FF24829DFF870
:1014000070030068002802D0B6B2300001E005F099
:10141000C1FE4B460200DFF8A81A00A805F000F84C
:1014200000A805F06DFF05000121EDB2D5F1100017
:101430004010C0B202F081FF00A802F0B9FF6420A2
:1014400003F0C9F988E705B0BDE8F083EC030010AC
:101450004406010010B586B00C2002F08BFFDFF8C7
:101460005C0A02F0A5FFFF2005F0B3FE03F06FF861
:101470000400E4B2012C03D1002005F0AAFE13E021
:1014800005F014FE80B20200DFF8381A00A804F05C
:10149000C7FF0121052002F050FF00A802F088FFDD
:1014A000642003F098F9E1E706B010BD580601008A
:1014B0006C06010070B50025042003F0B2FD0600A3
:1014C0000C2002F057FFDFF8000A02F071FF03F072
:1014D0003EF80400E4B2012C32D032D3032C0FD0FA
:1014E0000ED3042C2DD1EDB2ED43EDB2002D03D07F
:1014F000012005F0EAFB02E0002005F0E6FB20E019
:101500000121002002F019FFDFF8F40602F050FF7D
:101510000121002002F011FFB6B2300005F095FB6A
:10152000002804D0DFF8DC0602F042FF03E0DFF819
:10153000D80602F03DFF40F6B83003F04CF900E069
:1015400013E00121002002F0F8FEEDB2002D04D0DE
:10155000DFF8780902F02CFF03E0DFF8B40A02F0AC
:1015600027FF642003F037F9B1E770BDE4FA00000B
:10157000CC0300105B315D00280E010094060100D1
:10158000A8060100340E010070B586B000250020C9
:1015900006F0D2F90C2002F0EDFEDFF8340902F07B
:1015A00007FF02F0D4FF0400E4B2012C15D017D3DA
:1015B000032C03D002D3042C03D011E006F016FA5A
:1015C0000EE0EDB2ED432800C0B206F0EEF90022C5
:1015D0000021002006F053FD02E006F007FA27E0A4
:1015E00006F02FF80600300006F004FE02000B00A3
:1015F000DFF8201A00A804F013FF0121002002F0F8
:101600009CFE00A802F0D4FE0121082002F095FE05
:10161000EDB2002D04D0DFF8000A02F0C9FE03E0AD
:10162000DFF8A00A02F0C4FE642003F0D4F8B8E7A3
:1016300006B070BD5B305D0080060100400E010009
:101640004F4E00004F464600BC060100D006010088
:1016500070B5052501260C2002F08CFEDFF8680A23
:1016600002F0A6FE02F073FF0400E4B2012C39D0B0
:101670006D1E2800C0B2002830D1052005000022D0
:101680000021012006F0FBFC00220021022006F0D0
:10169000F6FC00220021032006F0F1FC00220021CC
:1016A000042006F0ECFC00220021052006F0E7FCF7
:1016B00000220021062006F0E2FC01220021072082
:1016C00006F0DDFC012201213000C0B206F0D7FC9B
:1016D000761CF6B2082E01DB01200600642003F020
:1016E0007AF8BFE770BD0000E40601004C0E01006F
:1016F00038B504F06CF90500ADB2002D02D04FF6FC
:10170000FF7005000C2002F035FEDFF81C0B02F024
:101710004FFE02F085FF002827D002F018FF0400DA
:10172000E4B2012C09D00ED3032C0AD009D3042C27
:1017300009D1280080B204F072F90C2002F01AFEE0
:1017400013E0ADB2ED430121062002F0F6FDADB28B
:10175000002D03D093A002F02BFE02E092A002F035
:1017600027FE642003F037F8D3E731BDF806010007
:10177000906B001030B583B000250C2002F0FAFD0C
:10178000DFF8A80A02F014FE04F083F9050002F065
:1017900047FF00285BD002F0DAFE0400E4B2012C1F
:1017A00009D00FD3032C07D008D3042C0AD128006A
:1017B00080B204F051F94AE06D1C03E0ADB2022D95
:1017C00000DB6D1EADB24FF47A7095FBF0F00A218C
:1017D00090FBF1F201FB120030308DF80000ADB249
:1017E000642095FBF0F00A2190FBF1F201FB12005E
:1017F00030308DF80100ADB20A2095FBF0F00A21DF
:1018000090FBF1F201FB120030308DF802002E2027
:101810008DF80300ADB20A2095FBF0F100FB1150EA
:1018200030308DF8040020208DF8050025208DF83B
:10183000060000208DF807000121062002F07DFD42
:1018400000A802F0B5FD642002F0C5FF9FE737BD98
:1018500010B50C2002F08EFDDFF8DC0902F0A8FDC7
:1018600002F075FE0400E4B2012C14D00121032023
:1018700002F063FD02F0ECFE002804D0DFF8BC09A2
:1018800002F096FD03E0DFF8B80902F091FD642054
:1018900002F0A1FFE4E710BD0C07010010B50C2019
:1018A00002F068FDDFF89C0902F082FD02F04FFEB5
:1018B0000400E4B2012C14D00121032002F03DFD0C
:1018C00002F0B1FE002804D0DFF8700902F070FDCC
:1018D00003E0DFF86C0902F06BFD642002F07BFF8F
:1018E000E4E710BD1CB50C2002F044FDDFF85809F8
:1018F00002F05EFD02F02BFE0400E4B2012C1CD0CD
:101900000121032002F019FD002001900020009029
:10191000002300220021012006F00BFD002804D046
:10192000DFF8280902F044FD03E0DFF82C0902F09B
:101930003FFD642002F04FFFDCE713BD38B5002502
:101940000C2002F017FDDFF8080902F031FD02F06B
:10195000FEFD0400E4B22000012804D0042806D1D2
:1019600095F0FF0503E0002004F0C9FD17E0280012
:10197000C0B204F0C4FD0121032002F0DEFCEDB290
:10198000002D04D0DFF8CC0802F012FD03E0DFF8F0
:10199000CC0802F00DFD642002F01DFFD7E731BD39
:1019A000040E010053494D004E414F002007010035
:1019B00030B585B077250C2002F0DCFCDFF8A008FC
:1019C00002F0F6FC022003F02CFB80B205F0ABFB2A
:1019D0006421732005F0DBFB02F0B9FD0400E4B2E2
:1019E000012C08D01FD3032C0DD013D3042C1AD1F3
:1019F0000020050017E0002005F095FB00210020E5
:101A000005F0C5FB54E06D1C6421ADB2280005F063
:101A1000BEFB08E0ADB2002D00D06D1E6421ADB25A
:101A2000280005F0B4FB01210A2002F086FC5B20AF
:101A30008DF80000ADB24FF47A7095FBF0F00A21FA
:101A400090FBF1F201FB120030308DF80100ADB2D5
:101A5000642095FBF0F00A2190FBF1F201FB1200EB
:101A600030308DF80200ADB20A2095FBF0F00A216B
:101A700090FBF1F201FB120030308DF80300ADB2A3
:101A80000A2095FBF0F100FB115030308DF8040076
:101A90005D208DF8050000208DF8060000A802F0FA
:101AA00087FC002007F06EF9642002F094FE93E7B3
:101AB00005B030BD580E01003407010000B583B0F9
:101AC00040F68E40FEF73EFE002803D10C2002F0C7
:101AD00051FC46E00521052003F055FA5021002075
:101AE00003F051FA6421012003F04DFA41F27C51D8
:101AF000022003F048FA502003F038FD282104208A
:101B000003F041FA42F6E06003F04DFD42F6E0607A
:101B100003F099FD032003F05AFE43F2B06003F096
:101B2000A5FE41F27C5003F0F0FE0F2003F003FE0F
:101B3000142003F02FFF0C2002F01CFC502004F0B6
:101B400055F8002001900020009000230022012180
:101B5000012003F0E7FA0A2003F0ADFC012003F0B6
:101B6000E8FC07BD38B504F0FCFB80B2FEF7EAFDE7
:101B7000002803D10C2002F0FDFB34E00C2002F021
:101B8000F9FBDFF8B40702F013FC04F013F80500CA
:101B900002F046FD002826D002F0D9FC0400E4B291
:101BA000012C09D00BD3032C07D006D3042C06D16B
:101BB0002800C0B203F0E1FF15E095F0FF05012118
:101BC000052002F0BAFBEDB2002D04D0DFF8A80723
:101BD00002F0EEFB03E0DFF8A40702F0E9FB32209D
:101BE00002F0F9FDD4E731BD7CF7000048070100A1
:101BF0008C020010780B01006C100100880B0100B2
:101C0000980B0100A80B0100B80B01007410010033
:101C10007C10010084100100640E0100700E0100B0
:101C20007C0E0100C80B01002DE9F04F8BB000269F
:101C3000002701245FF00008DFF84407006807F080
:101C40003FFF07F04DFF42F2107190FBF1F201FBF4
:101C5000120A0C2002F08EFB1FFA8AFA5246DFF8B5
:101C6000241700A804F0DCFB00A802F0A1FB01216E
:101C7000002002F062FBDFF8100702F099FBDFF8AA
:101C80000C1700A804F0CCFB02F0CAFC002800F0FE
:101C9000D18002F05CFC0500EDB2012D00F08580E2
:101CA000C0F0A580032D00F08180C0F09080042D4D
:101CB00040F09D80F6B2052E75DB9DF80000DFF840
:101CC000D0169DF8012042F210735A4301FB002008
:101CD0009DF802104FF47A7202FB01009DF8031088
:101CE000642202FB01009DF804100A2202FB01009D
:101CF0009DF805100818DFF89C1611EB000B5FEA41
:101D00008B3B5FEA9B3B5FEA9B30804658468004F2
:101D1000800C40F6BC31484081460C2002F02AFB82
:101D20001FFA89F91FFA8AFAD1452BD1DFF8680624
:101D300002F03EFB0121002002F0FFFADFF8BC07B1
:101D400002F036FB002004F0DCF8002003F0DBFAA0
:101D5000002003F022FB002003F069FB002003F0C9
:101D6000C2FE002004F07BF9002004F070FA00208D
:101D700004F0B7FA002004F0C4F841F2883002F011
:101D80002AFD0BE0DFF8780702F012FB01210020AA
:101D900002F0D3FADFF86C0702F00AFB40F6B83025
:101DA00002F019FD46E0761C21E043E0F6B200A8FF
:101DB000305C401CF6B200A97054F6B200A8305C4A
:101DC0003A2803DBF6B200A8302131540FE0F6B216
:101DD00000A8305C401EF6B200A97054F6B200A80C
:101DE000305C302803DAF6B200A839213154601E85
:101DF0000400C0B2002819D104200400FFB2FF4340
:101E0000112200A905A804F025FB00208DF81B0075
:101E1000FFB2002F03D0F6B205A85F213154012193
:101E2000072002F08AFA05A802F0C2FA322002F076
:101E3000D2FC29E70BB0BDE8F08F30B585B003F0D8
:101E4000F2FE05000C2002F095FADFF8BC0602F065
:101E5000AFFA02F0E5FB00282ED002F078FB040078
:101E6000E4B2012C09D015D3032C0FD009D3042CD4
:101E700010D1280080B203F0B9FE0C2002F07AFAEB
:101E80001AE0ADB2242D00DB6D1E03E0ADB2C82D0B
:101E900000DA6D1CADB22A00DFF8FC1700A804F0D0
:101EA000BFFA0121062002F048FA00A802F080FAE9
:101EB000322002F090FCCCE705B030BD5C07010099
:101EC000D80B01008C10010070070100880E010082
:101ED000E80B01002DE9F0419CB004000AA8DFF8EE
:101EE0007018442207F07CFE5FF0000800260127EE
:101EF0000C2002F03FFA0021002002F01EFAE4B2AA
:101F000011200AA900FB041002F052FA02F05BFA59
:101F100000A92000C0B203F0EAFE02F081FB002815
:101F200073D002F014FB0500EDB2012D13D04AD39B
:101F3000032D2DD012D3042D45D118F101085FFADD
:101F400088F8B8F1100F05DB00A92000C0B203F03B
:101F5000ACFE5AE037E002F043FA56E05FFA88F848
:101F600000A818F80000202806D15FFA88F800A819
:101F70007A2108F800100AE05FFA88F800A818F83B
:101F80000000401E5FFA88F800A908F801001AE076
:101F90005FFA88F800A818F800005FFA88F800A92E
:101FA000421C08F80120C0B200280CD05FFA88F863
:101FB00000A818F800007B2805DB5FFA88F800A865
:101FC000202108F800107F1E3800C0B2002818D168
:101FD0000A200700F6B2F643112200A905A804F072
:101FE00039FA0121002002F0A8F9F6B2002E05D03E
:101FF0005FFA88F805A85F2108F8001005A802F02C
:10200000D7F9322002F0E7FB87E71CB0BDE8F0818A
:10201000940E0100A00E0100AC0E010080B500205E
:10202000FFF758FF01BD80B50120FFF753FF01BD49
:1020300080B50220FFF74EFF01BD80B50320FFF7FA
:1020400049FF01BD38B503F0A6FE0500ADB2002D75
:1020500002D04FF6FF7005000C2002F08BF9DFF87C
:10206000B40702F0A5F902F0DBFA002829D002F04B
:102070006EFA0400E4B2012C09D010D3032C0AD06C
:1020800009D3042C0BD12800C0B203F067FE0C204A
:1020900002F070F915E085F47F4595F0FF05012108
:1020A000062002F04AF9ADB2002D03D060A002F084
:1020B0007FF902E05FA002F07BF90A2002F08BFBBF
:1020C000D1E731BDB80E0100F80B010030B585B085
:1020D00003F09AFE05000C2002F04CF9DFF8F80737
:1020E00002F066F902F09CFA002859D002F02FFAAB
:1020F0000400E4B2012C09D03BD3032C21D009D336
:10210000042C36D1280080B203F061FE0C2002F0CE
:1021100031F945E0ADB2B5F5FA6F11DDDFF8BC0776
:102120000068B0F5FA5F01D96D1E09E0DFF8AC0771
:10213000006841F28931884201D30A3D00E0643DE4
:102140001CE0ADB244F25060854211DADFF88C0732
:102150000068B0F5FA5F01D96D1C09E0DFF87C0773
:10216000006841F28931884201D30A3500E06435C4
:1021700004E0DFF8680743F698210160ADB22A0059
:10218000DFF85C1700A804F04BF90121032002F0EE
:10219000D4F800A802F00CF9322002F01CFBA1E7F1
:1021A00005B030BD30B585B003F061FE05000C20F0
:1021B00002F0E0F8DFF82C0702F0FAF802F030FA4B
:1021C00000282ED002F0C3F90400E4B2012C09D09B
:1021D00015D3032C0FD009D3042C10D1280080B2C2
:1021E00003F072FE0C2002F0C5F81AE0ADB23D2DEE
:1021F00000DB6D1E03E0ADB2C82D00DA6D1CADB280
:102200002A00DFF8941400A804F00AF9012106203E
:1022100002F093F800A802F0CBF8322002F0DBFACB
:10222000CCE705B030BD000084070100080C0100B8
:1022300053494D004E414F00180C0100C40E0100DF
:10224000D00E0100280C0100380C0100DC0E01004A
:102250009807010094100100E80E01009C10010095
:10226000AC07010038B5002500F050F9002841D036
:102270002800C0B200F03FF802F069F90400E4B2AF
:10228000012C18D032D3032C25D015D3042C2DD1FA
:10229000EDB2DFF8540D50F8250000280AD0EDB259
:1022A000DFF8440D50F8250080472800C0B200F048
:1022B00022F81BE01EE01DE0EDB2002D03D0EDB2D0
:1022C00028006D1E02E004252800C0B22800C0B21C
:1022D00000F011F80AE0EDB2681C052190FBF1F264
:1022E00001FB12052800C0B200F005F8322002F010
:1022F00072FAC1E731BD10B504000021002002F0E0
:102300001CF8DFF8200C02F053F80121002002F045
:1023100014F8E4B2DFF8D40C50F8240002F048F8C6
:1023200010BD10B5DFF8C80C00F038F8040020002C
:1023300003F0D9FB10BD0000480C010010B5DFF818
:10234000B40C00F02BF80400200002F0DCFF10BDFC
:1023500010B5DFF8A40C00F021F80400200003F011
:102360001CF810BD10B5DFF8940C00F017F804004D
:10237000200003F05CF810BDA4100100AC100100B7
:10238000606B0010F40E0100B4100100BC100100DD
:10239000A0860100B09EAEFF000F01002DE9F041C4
:1023A00086B0040000A8DFF8581C2CC92CC00C39DA
:1023B0000C38002601275FF000080C2001F0DAFF3E
:1023C0000021002001F0B9FF200001F0F1FF02F030
:1023D000BEF80500EDB2012D67D068D3032D03D000
:1023E00018D3042D2CD062E0F6B200A8305C392856
:1023F00005DB3020F6B200A97054C0B209E0F6B295
:1024000000A8305CF6B200A9715C491CF6B200AAC3
:10241000B1544CE0F6B200A8305C312805DA39201E
:10242000F6B200A97054C0B209E0F6B200A8305C60
:10243000F6B200A9715C491EF6B200AAB15436E0AA
:10244000F6B2072E2FDB9DF80010DFF8B82B9DF8B1
:102450000130DFF8B4CB0CFB03F302FB01319DF834
:102460000220DFF8A83B03FB02119DF8032042F293
:10247000107303FB02119DF804204FF47A7303FBE1
:1024800002119DF80520642303FB02119DF806202C
:102490000A2303FB02119DF807205118DFF89C2C3A
:1024A0005118080027E0761C01E0002023E07F1E81
:1024B0003800C0B200281AD10A200700092200A95A
:1024C00003A803F0C7FF5FFA88F87FEA08085FFAFD
:1024D00088F8B8F1000F03D0F6B203A85F21315499
:1024E0000121042001F029FF03A801F061FF32203F
:1024F00002F071F96BE706B0BDE8F081C41001008D
:10250000641001000C0F0100C00701002DE9F04725
:102510008AB00026002701245FF00008DFF8200CB5
:10252000006807F0CDFA07F0DBFA42F2107190FB79
:10253000F1F201FB120A0C2001F01CFF1FFA8AFACB
:102540005246DFF8001C00A803F06AFF00A801F063
:102550002FFF0121002001F0F0FEDFF8EC0B01F06D
:1025600027FFDFF8E81B00A803F05AFF02F058F835
:10257000002800F08D8001F0EAFF0500EDB2012D8A
:1025800040D062D3032D3FD04FD3042D5DD1F6B29E
:10259000052E35DB9DF80000DFF8701A9DF801204C
:1025A00042F210735A4301FB00209DF802104FF4D1
:1025B0007A7202FB01009DF80310642202FB010005
:1025C0009DF804100A2202FB01009DF8051008186E
:1025D000DFF8A81C09188903890B880B80460800BE
:1025E0008004800C40F6BC32504081461FFA89F9C5
:1025F0001FFA8AFAD14501D1FF204AE0002048E0C5
:10260000761C22E0002044E0F6B200A8305C401CBA
:10261000F6B200A97054F6B200A8305C3A2803DB89
:10262000F6B200A8302131540FE0F6B200A8305CB9
:10263000401EF6B200A97054F6B200A8305C3028F3
:1026400003DAF6B200A839213154601E0400C0B28A
:10265000002819D104200400FFB2FF43112200A971
:1026600005A803F0F7FE00208DF81B00FFB2002F35
:1026700003D0F6B205A85F2131540121072001F0F3
:102680005CFE05A801F094FE322002F0A4F86DE78C
:1026900000200AB0BDE8F0875410010030B585B0C5
:1026A00003F044FA05002A00DFF8D41B00A803F069
:1026B000B7FE0C2001F05EFEDFF8780C01F078FE2A
:1026C0000121002001F039FE00A801F071FE01F0A7
:1026D000A7FF00280DD001F03AFF0400E4B220006B
:1026E000012801D0042800D103E0642002F073F82F
:1026F000EDE705B030BD30B585B002F0DDFD050079
:102700002A00DFF87C1B00A803F08AFE0C2001F0F1
:1027100031FEDFF8200C01F04BFE0121002001F01A
:102720000CFE00A801F044FE01F07AFF00280DD055
:1027300001F00DFF0400E4B22000012801D00428BC
:1027400000D103E0642002F046F8EDE705B030BDAB
:1027500010F8000038B500252800C0B200F043F89A
:1027600001F05EFF00283DD001F0F1FE0400E4B26C
:10277000012C18D032D3032C25D015D3042C2DD105
:10278000EDB2DFF8D80C50F8250000280AD0EDB2E1
:10279000DFF8C80C50F8250080472800C0B200F0D0
:1027A00022F81BE01EE01DE0EDB2002D03D0EDB2DB
:1027B00028006D1E02E006252800C0B22800C0B225
:1027C00000F011F80AE0EDB2681C072190FBF1F26D
:1027D00001FB12052800C0B200F005F8322001F01C
:1027E000FAFFBDE731BD10B504000021002001F063
:1027F000A4FDDFF8440B01F0DBFD0121002001F016
:102800009CFDE4B2DFF8940C50F8240001F0D0FDF8
:1028100010BD0000D407010070B590B00A2500215A
:10282000002001F08AFDDFF8140B01F0C1FD012149
:10283000002001F082FDDFF8080B01F0B9FD00A8CF
:1028400005F03DFE0600F6B2002E04D12800451E1C
:10285000C0B20028F3D1F6B2002E14D1002100201E
:1028600001F06BFDDFF8DC0A01F0A2FD0121002080
:1028700001F063FDDFF8D00A01F09AFD40F6B830B0
:1028800001F0A9FF25E00C2001F074FD00210020DB
:1028900001F053FDDFF8C40C01F08AFD0121002096
:1028A00001F04BFD00208DF8100000A801F080FD24
:1028B00001F0B6FE00280CD001F049FE0400E4B29D
:1028C0002000401E032800D803E0322001F083FFDF
:1028D000EEE710B070BD0000CC050100906B001059
:1028E000040E0100E80701002DE9F04395B05FF008
:1028F0000A09002600275FF001080021002001F0EE
:102900001CFDDFF8380A01F053FD0121002001F021
:1029100014FDDFF82C0A01F04BFD00A805F0CFFDF7
:102920000500EDB2002D05D14846B0F10109C0B255
:102930000028F2D1EDB2002D14D10021002001F0C9
:10294000FCFCDFF8000A01F033FD0121002001F05A
:10295000F4FCDFF8F40901F02BFD40F6B83001F08B
:102960003AFFACE00C2001F005FD0021002001F051
:10297000E4FCDFF8E80B01F01BFD0121002001F071
:10298000DCFC00208DF8100000A801F011FD0020F3
:10299000C0B2302806DAC0B200A9411800220A7479
:1029A000401CF5E701F03CFE002800F0888001F0B3
:1029B000CEFD0400E4B2012C17D05CD3032C15D05B
:1029C00037D3042C57D1F6B200A8305C002803D1CD
:1029D000F6B200A820213154761CF6B2102E03DB8B
:1029E00000A800F06FF86AE045E068E0F6B200A8E1
:1029F000305C7F2803DBF6B200A87E213154F6B2AA
:102A000000A8305C202803DAF6B200A82021315457
:102A1000F6B200A8305C401CF6B200A97054F6B2C1
:102A200000A8305C7F2803DBF6B200A820213154D7
:102A300021E0F6B200A8305C7F2803DBF6B200A8E4
:102A40007E213154F6B200A8305C202803DAF6B2B9
:102A500000A820213154F6B200A8305C401EF6B226
:102A600000A97054F6B200A8305C202803DAF6B250
:102A700000A87E213154B8F101084046C0B20028B8
:102A800019D105208046FFB2FF43102200A910A8EB
:102A900003F0E0FC00208DF85000FFB2002F03D0BF
:102AA000F6B210A85F2131540121002001F045FC4D
:102AB00010A801F07DFC322001F08DFE72E715B008
:102AC000BDE8F08370B504000A260021002001F063
:102AD00034FCDFF84C0B01F06BFC0121002001F00D
:102AE0002CFCDFF85C0801F063FC200000F024F807
:102AF000200005F034FD0500EDB2002D04D13000BA
:102B0000461EC0B20028F3D1EDB2002D13D1002132
:102B1000002001F012FCDFF8880B01F049FC0121D4
:102B2000002001F00AFCDFF8840C01F041FC40F6C3
:102B3000B83001F050FE70BD10F1100211000A789B
:102B4000212A02DB0A787F2A03DB00220A70491E51
:102B5000F5E7704770B592B000A8442107F06CF813
:102B600005250021002001F0E8FBDFF8740B01F0DF
:102B70001FFC0121002001F0E0FBDFF8680B01F0F1
:102B800017FC01F04DFD002842D001F0E0FC0400EC
:102B9000E4B22000401E022835D9C01E34D10021E5
:102BA000002001F0CAFBDFF8C40B01F001FC012199
:102BB000002001F0C2FBDFF8880701F0F9FB00A854
:102BC00005F0CDFC0600F6B2002E04D12800451E0B
:102BD000C0B20028F3D1F6B2002E13D1002100209C
:102BE00001F0ABFBDFF8B80A01F0E2FB01210020A5
:102BF00001F0A3FBDFF8B40B01F0DAFB40F6B830CC
:102C000001F0E9FD04E003E0322001F0E4FDB8E763
:102C100012B070BD70B590B00A250021002001F0FF
:102C20008CFBDFF88C0B01F0C3FB0121002001F0CD
:102C300084FBDFF80C0701F0BBFB00A805F0E0FC0B
:102C40000600F6B2002E04D12800451EC0B20028AE
:102C5000F3D1F6B2002E14D10021002001F06DFB5B
:102C6000DFF8E00601F0A4FB0121002001F065FB84
:102C7000DFF8D40601F09CFB40F6B83001F0ABFD64
:102C800025E00C2001F076FB0021002001F055FB2F
:102C9000DFF8780C01F08CFB0121002001F04DFBE6
:102CA00000208DF8100000A801F082FB01F0B8FCB4
:102CB00000280CD001F04BFC0400E4B22000401EC0
:102CC000032800D803E0322001F085FDEEE710B0C4
:102CD00070BD00002DE9F04395B05FF00A090026B1
:102CE00000275FF001080021002001F026FBDFF83B
:102CF000540B01F05DFB0121002001F01EFBDFF809
:102D0000400601F055FB00A805F07AFC0500EDB285
:102D1000002D05D14846B0F10109C0B20028F2D11A
:102D2000EDB2002D14D10021002001F006FBDFF8E8
:102D3000140601F03DFB0121002001F0FEFADFF84E
:102D4000080601F035FB40F6B83001F044FDACE078
:102D50000C2001F00FFB0021002001F0EEFADFF85B
:102D6000AC0B01F025FB0121002001F0E6FA002068
:102D70008DF8100000A801F01BFB0020C0B2302825
:102D800006DAC0B200A9411800220A74401CF5E717
:102D900001F046FC002800F0888001F0D8FB040018
:102DA000E4B2012C17D05CD3032C15D037D3042CFC
:102DB00057D1F6B200A8305C002803D1F6B200A8C3
:102DC00020213154761CF6B2102E03DB00A800F04F
:102DD0006FF86AE045E068E0F6B200A8305C7F2852
:102DE00003DBF6B200A87E213154F6B200A8305CB5
:102DF000202803DAF6B200A820213154F6B200A848
:102E0000305C401CF6B200A97054F6B200A8305CE9
:102E10007F2803DBF6B200A82021315421E0F6B26E
:102E200000A8305C7F2803DBF6B200A87E21315475
:102E3000F6B200A8305C202803DAF6B200A8202100
:102E40003154F6B200A8305C401EF6B200A97054AE
:102E5000F6B200A8305C202803DAF6B200A87E2182
:102E60003154B8F101084046C0B2002819D10520FC
:102E70008046FFB2FF43102200A910A803F0EAFA2F
:102E800000208DF85000FFB2002F03D0F6B210A83A
:102E90005F2131540121002001F04FFA10A801F008
:102EA00087FA322001F097FC72E715B0BDE8F08395
:102EB00070B504000A260021002001F03EFADFF878
:102EC000600701F075FA0121002001F036FADFF801
:102ED000700401F06DFA2000FFF72EFE200005F0CF
:102EE000DFFB0500EDB2002D04D13000461EC0B25C
:102EF0000028F3D1EDB2002D13D10021002001F004
:102F00001CFADFF89C0701F053FA0121002001F0C0
:102F100014FADFF8980801F04BFA40F6B83001F0E7
:102F20005AFC70BDFC07010070B592B000A84421A6
:102F300006F082FE05250021002001F0FEF9DFF8F1
:102F4000A00701F035FA0121002001F0F6F9DFF8C1
:102F5000940701F02DFA01F063FB002842D001F044
:102F6000F6FA0400E4B22000401E022835D9C01E43
:102F700034D10021002001F0E0F9DFF8B80B01F0B6
:102F800017FA0121002001F0D8F9DFF8B40301F0AD
:102F90000FFA00A805F084FB0600F6B2002E04D15B
:102FA0002800451EC0B20028F3D1F6B2002E13D17E
:102FB0000021002001F0C1F9DFF8E40601F0F8F982
:102FC0000121002001F0B9F9DFF8E00701F0F0F984
:102FD00040F6B83001F0FFFB04E003E0322001F0DE
:102FE000FAFBB8E712B070BD7C0A01008004001043
:102FF0001008010024080100380801004C080100F5
:10300000180F01008096980040420F00A086010032
:1030100070B59AB000A8DFF8A41B682206F0E0FDA6
:1030200002F0CAFF050000260C2001F0A3F9DFF82A
:103030001C0C01F0BDF90121002001F07EF9EDB278
:10304000F6B2B54201D1012000E000201121F6B214
:10305000222200AB02FB063201FB002001F0A8F99E
:1030600001F0DEFA002867D001F071FA0400E4B242
:10307000012C23D05CD3032C21D03DD3042C57D179
:10308000F6B2022E58D035002800C0B202F079FF07
:103090000121002001F051F9EDB2F6B2B54201D1A3
:1030A000012000E000201121F6B2222200AB02FB39
:1030B000063201FB002001F07BF939E03CE0F6B27A
:1030C000701C032190FBF1F201FB1206012100208C
:1030D00001F033F9EDB2F6B2B54201D1012000E0C2
:1030E00000201121F6B2222200AB02FB063201FBC6
:1030F000002001F05DF91BE0F6B2002E01D0761E33
:1031000001E0022006000121002001F016F9EDB2D5
:10311000F6B2B54201D1012000E000201121F6B243
:10312000222200AB02FB063201FB002001F040F935
:10313000322001F050FB93E71AB070BDB0FA35E0D1
:10314000606B0010F40E0100B4100100BC1001000F
:1031500070B59AB000A8DFF8F81A682206F040FDB2
:1031600002F061FF050000260C2001F003F9DFF8F2
:10317000100C01F01DF90121002001F0DEF8EDB284
:10318000F6B2B54201D1012000E000201121F6B2D3
:10319000222200AB02FB063201FB002001F008F9FD
:1031A00001F03EFA002867D001F0D1F90400E4B242
:1031B000012C23D05CD3032C21D03DD3042C57D138
:1031C000F6B2022E58D035002800C0B202F010FF2F
:1031D0000121002001F0B1F8EDB2F6B2B54201D103
:1031E000012000E000201121F6B2222200AB02FBF8
:1031F000063201FB002001F0DBF839E03CE0F6B2DA
:10320000701C032190FBF1F201FB1206012100204A
:1032100001F093F8EDB2F6B2B54201D1012000E021
:1032200000201121F6B2222200AB02FB063201FB84
:10323000002001F0BDF81BE0F6B2002E01D0761E92
:1032400001E0022006000121002001F076F8EDB235
:10325000F6B2B54201D1012000E000201121F6B202
:10326000222200AB02FB063201FB002001F0A0F895
:10327000322001F0B0FA93E71AB070BDB09EAEFFF5
:10328000CC10010070B5A2B000A8DFF8F81A8822AF
:1032900006F0A6FC002602F032FF05000C2001F02B
:1032A00069F8DFF8E40A01F083F801F0B9F90028C1
:1032B0003DD001F04CF90400E4B2012C0ED01DD336
:1032C000032C0CD013D3042C18D1F6B2032E2ED01D
:1032D00035002800C0B202F02EFF0FE027E0F6B262
:1032E000701C042190FBF1F606FB110606E0F6B215
:1032F000002E01D0761E01E00320060001210020EF
:1033000001F01BF8EDB2F6B2B54201D1012000E0A8
:1033100000201121F6B2222200AB02FB063201FB93
:10332000002001F045F8322001F055FABDE722B047
:1033300070BD0000800601006008010074080100F3
:10334000880801009C080100B008010080B506F063
:1033500077FC01BD80B506F0C5FD01BD2DE9F0414A
:103360008CB002F003FF050002A8DFF8FC1B14225A
:1033700006F036FC002707A8DFF8F01B102206F045
:103380002FFC00A8DFF8E81B0CC90CC0083908386E
:103390005FF000080C2000F0EDFFDFF8D80B01F023
:1033A00007F801F03DF9002855D001F0D0F80400ED
:1033B000E4B2012C0FD026D3032C10D016D3042C4A
:1033C00021D15FFA88F818F10100042190FBF1F88F
:1033D00008FB110817E0280002F0EFFE3BE05FFA5F
:1033E00088F800A830F9180045190CE05FFA88F851
:1033F00000A830F91800854205D35FFA88F800A8C4
:1034000030F918002D1A5FFA88F807A850F828300C
:103410002A00DFF8001C02A803F002F802A803F05B
:103420006FFF0600F6B2FFB2BE4207D001210020B6
:1034300000F083FFDFF80C0C00F0BAFF3700012129
:10344000F6B2D6F110004010C0B200F076FF02A82C
:1034500000F0AEFFA5E70CB0BDE8F08144FB000032
:1034600010B504000021002000F067FFDFF8A80B72
:1034700000F09EFF0121012000F05FFFE4B2DFF8C1
:10348000C80B50F8240000F093FF0121002000F049
:1034900054FF7E2000F06EFF10BD000008040010F5
:1034A00038B500250C2000F065FF2800C0B2FFF7FA
:1034B000D7FF01F0B5F8002832D001F048F8040039
:1034C000E4B2012C14D023D3032C12D019D3042C32
:1034D0001ED1EDB2DFF8740B50F82500002806D09D
:1034E000EDB2DFF8680B50F82500804710E017E0D8
:1034F00016E0EDB2681C0A2190FBF1F201FB120507
:1035000006E0EDB2002D01D06D1E01E0092005009E
:103510002800C0B2FFF7A4FF322001F05CF9C8E731
:1035200031BD10B504000021002000F006FFDFF8D7
:10353000200B00F03DFF0121012000F0FEFEE4B26F
:10354000DFF88C0B50F8240000F032FF012100203E
:1035500000F0F3FE7E2000F00DFF10BDD41001003E
:1035600038B500250C2000F005FF2800C0B2FFF799
:10357000D8FF01F055F8002832D000F0E8FF040031
:10358000E4B2012C14D023D3032C12D019D3042C71
:103590001ED1EDB2DFF83C0B50F82500002806D014
:1035A000EDB2DFF8300B50F82500804710E017E04F
:1035B00016E0EDB2681C062190FBF1F201FB12054A
:1035C00006E0EDB2002D01D06D1E01E005200500E2
:1035D0002800C0B2FFF7A5FF322001F0FCF8C8E7D1
:1035E00031BD10B504000021002000F0A6FEDFF878
:1035F000E80A00F0DDFE0121012000F09EFEE4B2A9
:10360000DFF8D80A50F8240000F0D2FE0121002093
:1036100000F093FE7E2000F0ADFE10BD0000000023
:10362000C408010038B500252800C0B2FFF7D9FF53
:1036300000F0F6FF002832D000F089FF0400E4B269
:10364000012C14D023D3032C12D019D3042C1ED157
:10365000EDB2DFF88C0A50F82500002806D0EDB254
:10366000DFF87C0A50F82500804710E017E016E0EC
:10367000EDB2681C042190FBF1F505FB110506E095
:10368000EDB2002D01D06D1E01E0032005002800E1
:10369000C0B2FFF7A6FF322001F09DF8C8E731BDA8
:1036A000D808010010B504000021002000F045FEFC
:1036B000DFF8300A00F07CFE0121012000F03DFE21
:1036C000E4B2DFF8240A50F8240000F071FE012172
:1036D000002000F032FE7E2000F04CFE10BD000005
:1036E000000901001409010038B500250C2000F084
:1036F00041FE2800C0B2FFF7D5FF00F091FF00287F
:1037000032D000F024FF0400E4B2012C14D023D303
:10371000032C12D019D3042C1ED1EDB2DFF8CC0942
:1037200050F82500002806D0EDB2DFF8C00950F8A7
:103730002500804710E017E016E0EDB2681C052177
:1037400090FBF1F201FB120506E0EDB2002D01D075
:103750006D1E01E0042005002800C0B2FFF7A2FFA3
:10376000322001F038F8C8E731BD00002809010017
:1037700010B504000021002000F0DFFDDFF864092F
:1037800000F016FE0121012000F0D7FDE4B2DFF8C1
:10379000600950F8240000F00BFE0121002000F029
:1037A000CCFD7E2000F0E6FD10BD0000EC0801001D
:1037B0003C09010038B5002541F6FB10FCF7C2FFBB
:1037C000002803D10C2000F0D5FD3AE02800C0B25B
:1037D000FFF7CEFF00F024FF002832D000F0B7FE44
:1037E0000400E4B2012C14D023D3032C12D019D33B
:1037F000042C1ED1EDB2DFF8FC0850F8250000289B
:1038000006D0EDB2DFF8EC0850F82500804710E054
:1038100017E016E0EDB2681C0D2190FBF1F201FB00
:10382000120506E0EDB2002D01D06D1E01E00C2066
:1038300005002800C0B2FFF79BFF322000F0CBFF4D
:10384000C8E731BD5009010030B587B001F04BFF2A
:10385000050000A8DFF8A0180CC90CC0083908380A
:103860000C2000F087FDDFF8940800F0A1FD00F0C7
:103870006EFE0400E4B2012C16D02FD3032C20D00E
:1038800026D3042C2AD106F0D0FC0A2000F0A3FF96
:10389000280080B201F04FFF0A2000F09CFF0021B9
:1038A000012006F08DFC19E006F0BFFC0A2000F0B4
:1038B00092FF280080B201F03EFF0C2000F05AFD7C
:1038C00022E0ADB21E2D00DA6D1C06F0AEFC05E064
:1038D000ADB2022D00DB6D1E06F0A7FC06F00BFD5D
:1038E000002801D0009B00E0019BADB22A00DFF868
:1038F000101802A802F094FD0121002000F01DFD27
:1039000002A800F055FDB2E707B030BD6410010019
:1039100030B587B002F016F8050000A8DFF8E4170C
:103920000CC90CC0083908380C2000F023FDDFF862
:10393000D80700F03DFD00F00AFE0400E4B2012CBF
:1039400016D02CD3032C1DD023D3042C27D106F062
:103950006CFC012000F03FFF280080B202F01AF852
:10396000012000F038FF0021002006F029FC16E0BD
:1039700006F05BFC280080B202F00CF80C2000F08E
:10398000F9FC22E0ADB21E2D00DA6D1C06F04DFCF4
:1039900005E0ADB2022D00DB6D1E06F046FC06F020
:1039A000AAFC002801D0009B00E0019BADB22A00D8
:1039B000DFF84C1702A802F033FD0121002000F0CF
:1039C000BCFC02A800F0F4FCB5E707B030BD30B590
:1039D0008BB0042001F025FB05000C2000F0CAFC90
:1039E000DFF8280700F0E4FC00F0B1FD0400E4B2C9
:1039F000012C1ED02BD3032C24D025D3042C26D16C
:103A0000290089B2042001F0BEFA0121002000F053
:103A100094FCDFF8FC0600F0CBFC280003F015F95D
:103A20000121002000F089FCDFF8180600F0C0FC3E
:103A30000DE0290089B2042001F0A5FA0C2000F065
:103A400099FC36E06D1C02E0062D00D36D1E64204B
:103A5000B5FBF0F00A21B0FBF1F201FB12003030AF
:103A60008DF800000A20B5FBF0F00A21B0FBF1F25E
:103A700001FB120030308DF801002C208DF802007F
:103A80000A20B5FBF0F100FB115030308DF8030037
:103A900000208DF8040000AADFF8781605A802F0CF
:103AA000BFFC0121002000F048FC05A800F080FCCC
:103AB0009AE70BB030BD70B586B002F0A1FB0500EF
:103AC00002F0E8FB06000C2000F054FC00F0A8FD1A
:103AD00000282CD000F03BFD0400E4B2012C06D0FD
:103AE00007D3032C04D004D3042C02D101E01EE040
:103AF000FFE72A00DFF8201600A802F091FC002161
:103B0000002000F01AFC00A800F052FC3200DFF8A0
:103B10000C1600A802F084FC0121002000F00DFC2E
:103B200000A800F045FC322000F055FECEE706B0BC
:103B300070BD00006409010038B500250C2000F0BC
:103B400019FC0021002000F0F8FBDFF8D40500F09C
:103B50002FFC00F065FD00282ED000F0F8FC0400DA
:103B6000E4B2012C08D00DD3032C06D008D3042CCA
:103B700008D195F0FF0505E01EE00020050001E0FA
:103B8000FF200500322000F026FE2800C0B204F01D
:103B900019FB0121002000F0D0FBEDB2002D04D173
:103BA000DFF8800500F004FC03E0DFF87C0500F09E
:103BB000FFFB04F0B5F8CCE731BD0000ACF6000027
:103BC00080B502F0CEFB80B2FCF7BCFD00283CD0F3
:103BD000DFF8580500F03EF8ADF80000DFF85005BA
:103BE00000F038F8ADF80200BDF80000BDF8021092
:103BF000884217D1BDF8000002F096FB0C2000F0BF
:103C0000B9FBDFF8300500F0D3FB0121002000F004
:103C100094FBDFF8240500F0CBFB40F6B83000F051
:103C2000DAFD12E00C2000F0A5FBDFF8100500F033
:103C3000BFFB0121002000F080FBDFF8040500F04D
:103C4000B7FB40F6B83000F0C6FD01BD78090100B1
:103C500014F700002DE9F04385B00400002600A809
:103C6000DFF8E0140CC90CC0083908385FF0000810
:103C70005FF001090C2000F07DFB200000F098FBB4
:103C800000F0CEFC002875D000F061FC0500EDB21C
:103C9000012D23D046D3032D23D033D3042D41D17E
:103CA000761CF6B2042E18DB9DF800004FF47A71F2
:103CB0009DF8012064235A4301FB00209DF8021067
:103CC0000A2202FB01009DF80310081800F53C5081
:103CD000B0300700380080B24EE023E04FF6FF70AE
:103CE0004AE0F6B200A8305C401CF6B200A970545D
:103CF000F6B200A8305C3A2803DBF6B200A8302107
:103D000031540FE0F6B200A8305C401EF6B200A9B4
:103D10007054F6B200A8305C302803DAF6B200A87E
:103D200039213154B9F101094846C0B200281DD1EA
:103D3000042081465FFA88F87FEA0808042200A977
:103D400002A802F087FB00208DF80C005FFA88F8CB
:103D5000B8F1000F03D0F6B202A85F21315401215F
:103D6000062000F0EAFA02A800F022FB322000F060
:103D700032FD85E74FF6FF7005B0BDE8F083000027
:103D80008C09010024F60000580C01002DE9F04FC9
:103D90008BB00026002701245FF00008DFF8A8039D
:103DA000006805F08DFE05F09BFE42F2107190FB5D
:103DB000F1F201FB120A0C2000F0DCFA1FFA8AFA79
:103DC0005246DFF8881300A802F02AFB00A800F092
:103DD000EFFA0121002000F0B0FADFF8740300F0E0
:103DE000E7FADFF8701300A802F01AFB00F018FCE5
:103DF000002800F0B68000F0AAFB0500EDB2012D0E
:103E00006AD0C0F08B80032D67D077D3042D40F0AB
:103E10008580F6B2052E5DDB9DF80000DFF83813D3
:103E20009DF8012042F210735A4301FB00209DF8D7
:103E300002104FF47A7202FB01009DF80310642215
:103E400002FB01009DF804100A2202FB01009DF80C
:103E500005100818DFF8041311EB000B5FEA8B3B29
:103E60005FEA9B3B5FEA9B30804658468004800CAB
:103E700040F6BC31484081460C2000F07BFA1FFA26
:103E800089F91FFA8AFAD14513D1DFF8D40200F07C
:103E90008FFA0121002000F050FADFF8C80200F08C
:103EA00087FA002002F040FA41F2883000F093FCDB
:103EB0000BE0DFF8AC0200F07BFA0121002000F0FB
:103EC0003CFADFF8A40200F073FA40F6B83000F0D4
:103ED00082FC46E0761C21E043E0F6B200A8305CAC
:103EE000401CF6B200A97054F6B200A8305C3A2823
:103EF00003DBF6B200A8302131540FE0F6B200A87F
:103F0000305C401EF6B200A97054F6B200A8305CD6
:103F1000302803DAF6B200A839213154601E0400BB
:103F2000C0B2002819D104200400FFB2FF431122BF
:103F300000A905A802F08EFA00208DF81B00FFB240
:103F4000002F03D0F6B205A85F21315401210720CC
:103F500000F0F3F905A800F02BFA322000F03BFC4A
:103F600044E70BB0BDE8F08FA0090100680C010028
:103F7000EC100100B409010070B586B00C2000F00F
:103F8000F9F97A4800F014FA02F029FA040000F076
:103F900047FB00283CD000F0DAFA0500EDB2012D15
:103FA00009D014D3032D07D00DD3042D0FD1200039
:103FB00080B202F0F7F92BE0A4B242F21070844212
:103FC00000DA193403E0A4B2002C00D0193CA4B2EA
:103FD000642094FBF0F100FB1143A4B2642094FB35
:103FE000F0F2634900A802F01BFA00A803F088F978
:103FF00006000121F6B2D6F110004010C0B200F068
:104000009CF900A800F0D4F9322000F0E4FBBEE7F0
:1040100006B070BDF4100100780C010010B504006A
:104020000021002000F089F9524800F0C1F9012177
:10403000002000F082F9E4B24F4850F8240000F06C
:10404000B7F910BDC80901003803001024FA0000B8
:10405000DC09010038B500250C2000F08BF92800A0
:10406000C0B2FFF7DBFF00F0DBFA00282FD000F032
:104070006EFA0400E4B2012C15D0F4D3032C13D053
:104080001AD3042CEFD1EDB23C4850F8250000289B
:1040900004D0EDB2394850F8250080472800C0B25E
:1040A000FFF7BCFFDFE712E0EDB2681C042190FBD4
:1040B000F1F505FB1105D6E7EDB2002D03D0EDB209
:1040C00028006D1E02E003252800C0B2CBE731BDF9
:1040D0003C040010D0FB0000F00901009404001023
:1040E000E80C0100040A01006C040010680A0100D9
:1040F000D802001010F900000C110100180A01008C
:10410000880C0100141101002C0A0100400A010072
:10411000540A0100240F0100980C0100A80C0100B2
:1041200098070100300F01003C0F0100480F01000B
:10413000540F0100B80C01001C11010024110100F2
:10414000600F01002C110100606B0010F40E0100E3
:10415000B4100100BC100100A0860100B09EAEFFAB
:10416000641001006C0F01000C0F0100C80C01006D
:10417000D80C0100780F0100A4040010F80C010015
:1041800070B504000D009D48006850F080009B4908
:1041900008609A48006850F04000984908609748C5
:1041A000006850F02000954908609448006850F07D
:1041B0001000924908609148006850F400708F49DF
:1041C00008608E48006850F400708C4908608B4885
:1041D000006850F48070894908604FF4FA7000F06C
:1041E000FAFA00200600F6B2032E07DA032000F0E8
:1041F00030F8642000F0EFFA761CF4E7022000F0BB
:1042000028F8142000F0E7FA54F02001C9B2002089
:1042100000F074F8142000F0DEFA55F00801C9B27D
:10422000002000F06BF8142000F0D5FA55F00800DB
:10423000734908701021002000F060F80A2000F097
:10424000CAFA0621002000F059F80A2000F0C3FA4B
:1042500070BD6C49096851F480716A4A116000BFF1
:1042600000BF00BF00BF00BF00BFC10706D5654942
:10427000096851F08001634A116005E062490968EC
:1042800051F08001604A1160810706D55D490968D7
:1042900051F040015B4A116005E05B49096851F04B
:1042A0004001594A1160410706D55649096851F045
:1042B0002001544A116005E05349096851F020017A
:1042C000514A1160010706D54E49096851F01001A5
:1042D0004C4A116005E04C49096851F010014A4A06
:1042E000116000BF00BF00BF00BF00BF00BF464954
:1042F000096851F48071444A1160704738B5040070
:104300000D00E4B2002C06D03E48006850F4007066
:104310003C49086005E03C48006850F400703A49A8
:104320000860EDB22809FFF794FF2800C0B2FFF73C
:1043300090FF022000F04FFA31BD38B504000D00A7
:10434000E4B2102C09DAEDB2002D06D1B4F18001EF
:10435000C9B20020FFF7D2FF08E0EDB2012D05D170
:10436000B4F14001C9B20020FFF7C8FF042000F0FB
:1043700032FA31BD10B50400E4B220000A280CD096
:104380000C2802D00D2808D00CE001210020FFF7F6
:10439000B5FF0C2000F01FFA09E002210120FFF711
:1043A000ADFF04E02100C9B20120FFF7A7FF10BD57
:1043B00010B504002078002804D02078FFF7DAFF39
:1043C000641CF7E710BD80B50D48007850F002007E
:1043D0000B4908700A4801780020FFF78FFF01BDE4
:1043E00080B50748007810F0FD00054908700448C2
:1043F00001780020FFF782FF01BD000000C0092006
:10440000146C001018C009201CC009209B480068CB
:10441000002804D099480068401E984908609848D0
:104420000088002804D096480088401E94490880DF
:1044300094480088002805D092480088401E914981
:10444000088083E0904800789049002242548E48CA
:1044500000788E49405C8E490968C1F3002111F053
:10446000010191F00101C9B2084387490978874ADF
:10447000885487480068400501D5002000E00220EC
:1044800081490978814A895C08437F4909787F4AD4
:1044900088547F480068800501D5002000E0042092
:1044A00079490978794A895C084377490978774AD4
:1044B000885477480068400401D5002000E00820B7
:1044C00071490978714A895C08436F4909786F4AD4
:1044D00088546F480068800001D5002000E010205B
:1044E00069490978694A895C084367490978674AD4
:1044F000885467480068002801D5402000E000206B
:1045000061490978614A895C08435F4909785F4AD3
:1045100088545F480068400001D5202000E000205A
:1045200059490978594A895C084357490978574AD3
:10453000885455480078401C082190FBF1F202FB9A
:104540001102514802704F4806210180704710B493
:10455000002001000020C0B2082809DAC0B24B4A8E
:10456000825C12F00902092A00D1491C401CF2E7C2
:10457000C9B2052901DB082050E00020C0B205289F
:1045800048DA002211000022D2B2082A09DAD2B297
:104590003E4BD35C01248440234200D0491C521C72
:1045A000F2E7C9B2052933DB354A1288002A1BD14C
:1045B000384A1278002A0DD0364A00231370304A48
:1045C0004FF4FA6313802D4A4EF660231360401CAB
:1045D000C0B223E02A4A32231380284A4EF66023D1
:1045E0001360401CC0B219E02A4A1278002A0DD08C
:1045F000284A00231370224A4FF4FA6313801F4A9B
:104600004EF660231360401CC0B207E0002005E0B6
:10461000401CB3E71F4801220270002010BC704705
:1046200016480068704700200021C9B2082907DA3F
:10463000C9B2164A8A5C520600D5401C491CF4E7F0
:10464000C0B2052801DB012000E00020C0B27047A5
:1046500000200021C9B2082907DAC9B20B4A8A5CD6
:10466000920600D5401C491CF4E7C0B2052801DBC6
:10467000012000E00020C0B2704700008C6B0010E9
:104680000C0500100E050010126C0010246B0010B9
:1046900034C00920136C00102DE9FB4F82B01400C8
:1046A0000E9D0F9E109FDDF844803900200080B2DF
:1046B00000F052FB8246BAF1000F75D0A4B2DAF8CE
:1046C000300010EB8400001F83465FEADB0B5FEADB
:1046D000CB0BA4B2009443462A000399504600F045
:1046E000C6FA049A0299584605F042FECAF800003C
:1046F000002E01D0C6F800A005F062FEDFF820070A
:104700000068401CDFF818170860DFF860070068D1
:1047100000280BD1DFF85407C0F800A0DFF800072D
:104720000068012811D100F0C3FA0EE0DFF840075D
:104730000068002809D1DFF834070068C06A8542A4
:1047400003D3DFF82807C0F800A0DFF828070068C7
:10475000DAF82C10884204D2DAF82C00DFF81417AB
:104760000860DFF814070068401CDFF80C170860C9
:10477000DFF808070068DAF82C10884204D2DAF86B
:104780002C00DFF8F81608601AF10401DAF82C00A2
:104790001422DFF8EC3602FB003005F099FE012010
:1047A000814605F016FE02E05FF0FF308146B9F168
:1047B000010F0CD1DFF8B8060068002807D0DFF839
:1047C000AC060068C06AA84201D205F0F4FD484674
:1047D00005B0BDE8F08F70B504000026002C2BD08A
:1047E00000F050F8DFF8A406006820180500DFF894
:1047F0007C060068001D05F098FEDFF87006006872
:104800004560DFF888060068854209D2DFF85C065B
:104810000068011DDFF87806006805F068FE08E012
:10482000DFF848060068011DDFF86806006805F03B
:104830005EFE00F02FF80600002E01D105F0BBFD52
:1048400070BD1FB500200390002002900020019051
:104850000020009000235022DFF848160FF2054098
:10486000FFF71AFF0400012C0BD105F08FFEDFF8D3
:10487000000601210160DFF814060021016005F047
:1048800084FD1FBDDFF818060068401CDFF8101615
:104890000860704770B5002505F092FDDFF800064E
:1048A0000068401EDFF8F8150860DFF8F4050068BE
:1048B00000285BD1DFF868050068002856D0002684
:1048C000DFF8D8050068002804D0DFF8D005C068FC
:1048D000C46800E00024002C23D014F1180005F077
:1048E00024FE201D05F021FEDFF890050068E16A36
:1048F000884203D2E06ADFF884150860211DE06A6F
:104900001422DFF87C3502FB003005F0E1FDE06A9F
:10491000DFF858150968C96A8842D1D3012006001A
:10492000CEE7DFF884050068002810D0DFF87805AE
:104930000068002809D000F01DF8DFF86C05006859
:10494000401EDFF864150860F0E701200600012E24
:1049500004D0DFF858050068012807D101200500C0
:10496000DFF848050021016005F025FD05F031FD67
:10497000280070BD10B5DFF828050068002852D166
:10498000DFF808050068401CDFF800150860DFF854
:10499000FC040068002813D1DFF8F8140968080047
:1049A000DFF8F014DFF8E82412680A60DFF8E0149A
:1049B0000860DFF8FC140968491CDFF8F424116072
:1049C000DFF8D00400680068002805D0DFF8C404D0
:1049D0000068C068C46800E00024002C2AD0DFF81A
:1049E000AC0400686168884224D3201D05F09DFD59
:1049F000A06A002803D014F1180005F096FDDFF836
:104A00007C040068E16A884203D2E06ADFF86C1433
:104A10000860211DE06A1422DFF8643402FB0030D4
:104A200005F056FDCCE7DFF880040068401CDFF895
:104A30007814086010BD80B5DFF8640400680028B1
:104A400004D0DFF868040121016054E0DFF81C04A1
:104A50000068006BDFF8141409680968884209D3FC
:104A6000DFF80804006810F13401DFF80004006882
:104A700005F0ACFE1422DFF83C14DFF8F003006808
:104A8000006B05F0A5FE002809D0DFF8E003006800
:104A900010F13401DFF8D403006805F097FEDFF869
:104AA000DC0300681421DFF8D82301FB0020006834
:104AB000002807D1DFF8C4030068401EDFF8BC13EC
:104AC0000860ECE7DFF8B41309681422DFF8B033AC
:104AD00002FB01310800416849684160416810F1FA
:104AE0000802914202D14168496841604068C0684B
:104AF000DFF87813086001BD70B504000D00DFF821
:104B00006C03006810F11801200005F0F0FCDFF8DC
:104B10005C030068001D05F008FD15F1010F08D1C8
:104B2000DFF848030068011DDFF86C0305F0D0FCD6
:104B300020E0DFF85803006828180600DFF82C038F
:104B400000684660DFF844030068864209D2DFF857
:104B50001C030068011DDFF83803006805F0C7FC7E
:104B600008E0DFF808030068011DDFF8280300688B
:104B700005F0BDFC70BD70B504002068002802D0AF
:104B8000E068C66800E0002616F1180005F0CDFCCC
:104B9000DFF80C030068002813D1301D05F0C5FCB8
:104BA000B6480068F16A884202D2F06AB3490860E8
:104BB000311DF06A1422B24B02FB003005F088FC74
:104BC00004E016F11801B54805F082FCF06AA74927
:104BD0000968C96A884202D30120050001E000206B
:104BE0000500280070BDB24909680160A74909683D
:104BF0004160704770B504000D0005F0E1FB2868C6
:104C000010F1010F02D10020060022E0A848006840
:104C10002168884207D09D4800686168884202D3B5
:104C20000120060015E0994800686168401A29686B
:104C300088420CD2286895490968401A61680818AA
:104C400028602000FFF7CFFF0020060001E00120D0
:104C5000060005F0BEFB300070BD944801210160E4
:104C60007047000010B5040000F045F8FCE7F8B507
:104C700004000D0016001F000C22290014F134005E
:104C800005F0D8FD002084F83F00052E01D3042054
:104C90000600E662A664201D05F017FC14F118005A
:104CA00005F013FC2461D6F10500A0616462F1BD3A
:104CB00010B500200400052C07D21420704900FB19
:104CC000041005F0F3FB641CF5E77B4805F0EEFBF0
:104CD0007A4805F0EBFB714805F0E8FB694805F000
:104CE000E5FB6D4805F0E2FB6A48734901606848DE
:104CF0007249016010BD38B56348006800282AD0A9
:104D0000FFF7C0FD5F480068002801D1012400E0E2
:104D10000024E4B2FFF7BEFD002C1CD105F050FBCF
:104D200058480068002803D05648C068C56800E0AD
:104D30000025281D05F0F9FB39480068401E384958
:104D4000086051480068401E4F49086005F041FB6B
:104D5000280000F024F831BD70B504000D004C208F
:104D600005F09EFD0600002E17D0002D04D1A4B240
:104D7000A00005F095FD00E028003063306B0028AE
:104D800005D1300005F0B4FD0020060005E0A4B216
:104D9000A200A521306B05F0B1FD300070BD10B54B
:104DA0000400206B05F0A4FD200005F0A1FD10BD5E
:104DB0002E4909680800704738B504002500E86AE4
:104DC0002A490968C96A884229D228480068C06A05
:104DD000D0F10500A8616869E96A1422284B02FB3A
:104DE0000131884217D1281D05F09FFB1F4800683C
:104DF000C06AE86221480068E96A884202D2E86A2B
:104E00001E490860291DE86A14221D4B02FB003070
:104E100005F05EFB03E015480068C06AE86231BD3A
:104E2000B06B001038B504002500002C1CD0E86AD7
:104E3000A96C884218D0281D05F077FBA86CE862A1
:104E4000E86AD0F10500A8610C480068E96A884268
:104E500002D2E86A09490860291DE86A1422084B51
:104E600002FB003005F034FB31BD0000A06B0010E8
:104E7000C06B0010B86B0010D46B0010BC6B00103E
:104E800018690010F46A0010AC6B0010B46B0010CD
:104E9000A86B0010A46B0010086B0010E06A0010F3
:104EA000C46B00104C110100C86B0010CC6B0010DB
:104EB000D06B0010F40A0100B86A0010CC6A001030
:104EC000F0B583B004000D001600280C8DF800002A
:104ED000280A8DF8010028008DF80200300C8DF8AA
:104EE0000300300A8DF8040030008DF8050006221A
:104EF000002100A805F019FD0700BFB2380A8DF89F
:104F0000060038008DF80700082200A9E4B28448A2
:104F100050F8240005F054FFF7BD7CB504000D00E7
:104F20001600082200A9E4B27D4850F8240005F0DC
:104F300063FF0622002100A805F0F7FC01009DF8A0
:104F400006009DF8072052EA002292B289B28A42F6
:104F500017D19DF800009DF801301B0253EA004074
:104F60009DF80230184328609DF803009DF8043036
:104F70001B0253EA00409DF8053018433060FF20C3
:104F800000E0002076BD70B582B004000E00B6B21D
:104F9000300A8DF8000030008DF801000222002157
:104FA00000A805F0C2FC0500ADB2280A8DF8020089
:104FB00028008DF80300E4B2002C08D0022C14D095
:104FC0000CD3042C1FD017D3052C23D028E00422A7
:104FD00000A94FF4885005F0F3FE21E0042200A957
:104FE00041F2041005F0ECFE1AE0042200A941F29F
:104FF000081005F0E5FE13E0042200A941F20C10B0
:1050000005F0DEFE0CE0042200A941F2101005F0CC
:10501000D7FE05E0042200A941F2141005F0D0FEED
:1050200073BD2DE9F04182B00400E4B2002C08D039
:10503000022C1CD010D3042C33D025D3052C3BD00C
:1050400045E0042200A94FF4885005F0D5FE1E204B
:105050000600B42007003AE0042200A941F204103F
:1050600005F0CAFE3C200600C82007002FE00422FD
:1050700000A941F2081005F0BFFE4FF4FA600600E7
:1050800044F25060070022E0042200A941F20C1013
:1050900005F0B2FE4FF4FA60060044F250600700DB
:1050A00015E0042200A941F2101005F0A5FE012030
:1050B0000600C82007000AE0042200A941F21410EB
:1050C00005F09AFE012006004FF6E8500700022284
:1050D000002100A805F029FC80461FFA88F89DF8F9
:1050E00002009DF8031051EA0020804513D19DF87D
:1050F00000009DF8011051EA00200500ADB2B6B2E3
:10510000B54200D23500BFB2ADB2AF4200D23D00D1
:10511000280080B201E0300080B2BDE8F6810000D6
:10512000180D01002DE9F04782B006000F009046EF
:1051300099460A9C0B9DF6B2002E01D0012000E09A
:1051400000208DF80000FFB2002F01D0022000E007
:1051500000209DF8001008438DF800005FFA88F8E1
:10516000B8F1000F01D0042000E000209DF80010ED
:1051700008438DF800005FFA89F9B9F1000F01D0FA
:10518000082000E000209DF8001008438DF8000082
:10519000E4B2002C01D0102000E000209DF80010A7
:1051A00008438DF80000EDB2002D01D0202000E072
:1051B00000209DF8001008438DF800000122002116
:1051C00000A805F0B2FB82461FFA8AFA5FEA1A20AD
:1051D0008DF8010050468DF80200032200A941F22B
:1051E000281005F0EDFDBDE8F3872DE9F843040034
:1051F0000D0016001F00DDF82080DDF8249003224A
:1052000000A941F2281005F0F7FD0122002100A8B5
:1052100005F08BFB80B29DF80110B0EB012F01D19E
:10522000012100E00021C9B29DF8022011430029AC
:1052300032D09DF80010C90701D5FF2100E0002100
:1052400021709DF80010890701D5FF2100E00021A1
:1052500029709DF80010490701D5FF2100E00021C9
:1052600031709DF80010090701D5FF2100E00021F1
:1052700039709DF80010C90601D5FF2100E000211A
:1052800088F800109DF80010890601D5FF2100E084
:10529000002189F800100DE0FF212170FF21297005
:1052A000FF213170FF213970FF2188F80010FF21A4
:1052B00089F80010BDE8F1831CB5062200A94FF45F
:1052C000005005F099FD0422002100A805F02DFBF7
:1052D0000400A4B29DF804009DF8051051EA0020D6
:1052E00084420ED19DF800009DF80110090451EA96
:1052F00000609DF8021050EA01209DF80310084359
:1053000000E0002016BD30B583B00400200E8DF8FB
:105310000000200C8DF80100200A8DF8020020000A
:105320008DF803000422002100A805F0FEFA050014
:10533000ADB2280A8DF8040028008DF80500062279
:1053400000A94FF4005005F03BFD37BD1CB5062207
:1053500000A94FF4A85005F04FFD0422002100A839
:1053600005F0E3FA0400A4B29DF804009DF80510CE
:1053700051EA002084420ED19DF800009DF80110F2
:10538000090451EA00609DF8021050EA01209DF8DE
:105390000310084300E0002016BD30B583B00400C0
:1053A000200E8DF80000200C8DF80100200A8DF8E9
:1053B000020020008DF803000422002100A805F05F
:1053C000B4FA0500ADB2280A8DF8040028008DF863
:1053D0000500062200A94FF4A85005F0F1FC37BDE6
:1053E0001CB5062200A941F2505005F005FD04222B
:1053F000002100A805F099FA0400A4B29DF8040069
:105400009DF8051051EA002084420ED19DF800005D
:105410009DF80110090451EA00609DF8021050EA5D
:1054200001209DF80310084300E0002016BD30B5B0
:1054300083B00400200E8DF80000200C8DF80100D0
:10544000200A8DF8020020008DF8030004220021BC
:1054500000A805F06AFA0500ADB2280A8DF804002C
:1054600028008DF80500062200A941F2505005F0F1
:10547000A7FC37BD10B582B0042200A941F27050DC
:1054800005F0BAFC0222002100A805F04EFA040043
:10549000A4B29DF802009DF8031051EA0020844256
:1054A00007D19DF800009DF8011051EA002080B25C
:1054B00000E0002016BD38B50400A4B2200A8DF823
:1054C000000020008DF801000222002100A805F054
:1054D0002CFA0500ADB2280A8DF8020028008DF8DC
:1054E0000300042200A941F2705005F069FC31BDAF
:1054F00010B582B0042200A94FF4AC5005F07CFC3A
:105500000222002100A805F010FA0400A4B29DF8C0
:1055100002009DF8031051EA0020844207D19DF853
:1055200000009DF8011051EA002080B200E0002048
:1055300016BD38B50400A4B2200A8DF80000200082
:105540008DF801000222002100A805F0EEF9050007
:10555000ADB2280A8DF8020028008DF8030004225D
:1055600000A94FF4AC5005F02BFC31BD38B5040058
:10557000A4B2200A8DF8000020008DF8010002225C
:10558000002100A805F0D1F90500ADB2280A8DF878
:10559000020028008DF80300042200A941F2905077
:1055A00005F00EFC31BD38B50400A4B2200A8DF818
:1055B000000020008DF801000222002100A805F063
:1055C000B4F90500ADB2280A8DF8020028008DF864
:1055D0000300042200A941F2955005F0F1FB31BD12
:1055E00010B582B0042200A941F2955005F004FCE8
:1055F0000222002100A805F098F90400A4B29DF849
:1056000002009DF8031051EA0020844218D19DF851
:1056100000009DF8011051EA00200400A4B2B4F586
:105620007A6F02DA4FF47A600400A4B244F2516057
:10563000844202DB44F250600400200080B201E0AA
:1056400041F2883016BD38B50400A4B2200A8DF8A6
:10565000000020008DF801000222002100A805F0C2
:1056600064F90500ADB2280A8DF8020028008DF813
:105670000300042200A94FF4AD5005F0A1FB31BD99
:1056800010B582B0042200A94FF4AD5005F0B4FB70
:105690000222002100A805F048F90400A4B29DF8F8
:1056A00002009DF8031051EA0020844218D19DF8B1
:1056B00000009DF8011051EA00200400A4B2B4F5E6
:1056C0007A6F02DA4FF47A600400A4B244F25160B7
:1056D000844202DB44F250600400200080B201E00A
:1056E00041F2883016BD10B582B0042200A941F203
:1056F000A55005F081FB0222002100A805F015F954
:105700000400A4B29DF802009DF8031051EA0020A5
:1057100084420ED19DF800009DF8011051EA00204E
:105720000400A4B2652C01DB64200400200080B2D8
:1057300000E0642016BD38B50400A4B2200A8DF83C
:10574000000020008DF801000222002100A805F0D1
:10575000ECF80500ADB2280A8DF8020028008DF89B
:105760000300042200A941F2A55005F029FB31BD38
:1057700010B582B0042200A941F2B05005F03CFB04
:105780000222002100A805F0D0F80400A4B29DF880
:1057900002009DF8031051EA0020844215D19DF8C3
:1057A00000009DF8011051EA00200400A4B2002C72
:1057B00001D101200400A4B2B4F5166F02DD4FF44C
:1057C00016600400200080B200E0012016BD38B54C
:1057D0000400A4B2200A8DF8000020008DF801001A
:1057E0000222002100A805F0A0F80500ADB2280AA9
:1057F0008DF8020028008DF80300042200A941F270
:10580000B05005F0DDFA31BD10B582B0042200A918
:1058100041F2B55005F0F0FA0222002100A805F08F
:1058200084F80400A4B29DF802009DF8031051EA28
:105830000020844218D19DF800009DF8011051EA23
:1058400000200400A4B2B4F57A6F02DA4FF47A6053
:105850000400A4B244F62160844202DB44F62060D6
:105860000400200080B200E0012016BD38B504001D
:10587000A4B2200A8DF8000020008DF80100022259
:10588000002100A805F051F80500ADB2280A8DF8F6
:10589000020028008DF80300042200A941F2B5504F
:1058A00005F08EFA31BD10B582B0042200A94FF484
:1058B000AE5005F0A1FA0222002100A805F035F84B
:1058C0000400A4B29DF802009DF8031051EA0020E4
:1058D000844218D19DF800009DF8011051EA002083
:1058E0000400A4B2B4F57A7F02DA4FF47A700400AF
:1058F000A4B243F69920844202DB43F698200400C8
:10590000200080B200E0012016BD38B50400A4B22A
:10591000200A8DF8000020008DF8010002220021ED
:1059200000A805F002F80500ADB2280A8DF80200C3
:1059300028008DF80300042200A94FF4AE5005F0B2
:105940003FFA31BD10B582B0042200A941F2C55022
:1059500005F052FA0222002100A804F0E6FF04003C
:10596000A4B29DF802009DF8031051EA0020844281
:105970000ED19DF800009DF8011051EA00200400AE
:10598000A4B2652C01DB64200400200080B200E09A
:10599000642016BD38B50400A4B2200A8DF80000BA
:1059A00020008DF801000222002100A804F0BDFFB4
:1059B0000500ADB2280A8DF8020028008DF803001A
:1059C000042200A941F2C55005F0FAF931BD10B525
:1059D00082B0042200A941F2D05005F00DFA022253
:1059E000002100A804F0A1FF0400A4B29DF8020069
:1059F0009DF8031051EA002084420ED19DF800006A
:105A00009DF8011051EA00200400A4B2652C01DBCE
:105A100064200400200080B200E0012016BD38B5EB
:105A20000400A4B2200A8DF8000020008DF80100C7
:105A30000222002100A804F078FF0500ADB2280A78
:105A40008DF8020028008DF80300042200A941F21D
:105A5000D05005F0B5F931BD38B50400A4B2200A24
:105A60008DF8000020008DF801000222002100A81E
:105A700004F05BFF0500ADB2280A8DF80200280093
:105A80008DF80300042200A941F2D45005F098F9E2
:105A900031BD10B582B0042200A941F2D45005F006
:105AA000ABF90222002100A804F03FFF0400A4B2D9
:105AB0009DF802009DF8031051EA0020844210D1A5
:105AC0009DF800009DF8011051EA00200400A4B2E6
:105AD000B4F5FA7F02DD4FF4FA700400200080B2C2
:105AE00000E0012016BD30B583B00400200E8DF813
:105AF0000000200C8DF80100200A8DF80200200023
:105B00008DF803000422002100A804F00EFF050018
:105B1000ADB2280A8DF8040028008DF80500062291
:105B200000A941F2D85005F04BF937BD1CB506224B
:105B300000A941F2D85005F05FF90422002100A825
:105B400004F0F3FE0400A4B29DF804009DF80510D3
:105B500051EA002084420ED19DF800009DF801100A
:105B6000090451EA00609DF8021050EA01209DF8F6
:105B70000310084300E0002016BD38B50400E4B26D
:105B8000002C01D0FF2004008DF8004001220021EC
:105B900000A804F0CAFE0500ADB2280A8DF8010085
:105BA00028008DF80200032200A94FF4B05005F040
:105BB00007F931BD10B582B0032200A94FF4B050EF
:105BC00005F01AF90122002100A804F0AEFE04003D
:105BD000A4B29DF801009DF8021051EA0020844211
:105BE00002D19DF8000000E0002016BD38B5040089
:105BF000A4B2200A8DF8000020008DF801000222D6
:105C0000002100A804F091FE0500ADB2280A8DF82D
:105C1000020028008DF80300042200A941F2106060
:105C200005F0CEF831BD10B582B0042200A941F2D2
:105C3000106005F0E1F80222002100A804F075FED2
:105C40000400A4B29DF802009DF8031051EA002060
:105C5000844207D19DF800009DF8011051EA002010
:105C600080B200E0412016BD10B582B0042200A928
:105C700041F2086005F0C0F80222002100A804F0FB
:105C800054FE0400A4B29DF802009DF8031051EAEE
:105C90000020844207D19DF800009DF8011051EAD0
:105CA000002080B200E0052016BD70B586B004006B
:105CB0000D001122290000A800F0CCFB11220021C8
:105CC00000A804F032FE0600B6B2300A8DF81100CA
:105CD00030008DF81200132200A9E4B2132000FB5B
:105CE00004F010F5B85005F06BF806B070BD70B553
:105CF00096B004000D0005A81749442203F070FF78
:105D0000132200A9E4B2132000FB04F010F5B850F0
:105D100005F072F81122002100A804F006FE06002A
