:10000000006F0010510B0100010D0100050D0100F2
:10001000090D01000D0D0100110D01008244F9EFE1
:10002000000000000000000000000000E9A2000045
:10003000190D01000000000097A200002DA1000092
:10004000250D0100AB9F00001F6F0000216E000016
:10005000350D0100A1A60000738000000000000023
:1000600003DF0000490D01004D0D0100510D01009D
:10007000550D0100590D01005D0D0100610D0100DC
:10008000650D0100690D01006D0D0100936E00000A
:10009000750D0100737800007D0D0100810D0100D8
:1000A000850D0100890D01008D0D0100910D0100EC
:1000B000910D0100990D01009D0D0100A10D0100A0
:0400C000A50D010089
:1003000038B500250C2003F023FF2800C0B200F010
:1003100055F804F073F800284CD004F006F80400F7
:10032000E4B2012C06D03AD3032C16D006D3042C09
:100330001FD034E00C2003F00BFF3EE0EDB2002DA7
:1003400003D0EDB228006D1E02E008252800C0B2DF
:100350002800C0B200F032F821E0EDB2681C09219B
:1003600090FBF1F201FB12052800C0B200F026F864
:1003700015E0EDB2DFF8500650F8250000280AD04D
:10038000EDB2DFF8440650F8250080472800C0B2DF
:1003900000F014F803E00C2003F0DAFE0DE0322048
:1003A00004F007F9DFF8A8080068401CDFF8A0187F
:1003B0000860AEE70C2003F0CBFE31BD10B50400A1
:1003C0000021002003F0A7FEDFF8D40703F0DEFED3
:1003D0000121002003F09FFEE4B2DFF8780850F816
:1003E000240003F0D3FE0121002003F094FE7E20C0
:1003F00003F0AEFE10BD38B500250C2003F0A8FEBA
:100400002800C0B200F043F803F0F8FF00283DD008
:1004100003F08BFF0400E4B2012C18D032D3032C7C
:1004200025D015D3042C2DD1EDB2DFF8680850F893
:10043000250000280AD0EDB2DFF8580850F8250052
:1004400080472800C0B200F022F81BE01EE01DE04B
:10045000EDB2002D03D0EDB228006D1E02E007259D
:100460002800C0B22800C0B200F011F80AE0EDB2D6
:10047000681C082190FBF1F505FB11052800C0B2AE
:1004800000F005F8322004F094F8BDE731BD10B556
:1004900004000021002003F03EFEDFF8FC0703F01B
:1004A00075FE0121002003F036FEE4B2DFF84C08AF
:1004B00050F8240003F06AFE0121002003F02BFE17
:1004C0007E2003F045FE10BD30B585B0002004F05D
:1004D00096FC05000C2003F03BFEDFF8C00703F09C
:1004E00055FE03F08BFF00282FD003F01EFF040001
:1004F000E4B2012C0AD016D3032C10D00AD3042C5A
:1005000011D1290089B2002004F02BFC0C2003F04B
:100510001FFE1AE0ADB21F2D00DB6D1E03E0ADB271
:10052000B42D00DA6D1CADB22A00DFF8B01800A8B7
:1005300005F02AFE0121062003F0EDFD00A803F0DE
:1005400025FE322004F035F8CBE705B030BD30B5DC
:1005500085B0012004F053FC05000C2003F0F8FDE9
:10056000DFF89C0703F012FE03F048FF00282FD0AD
:1005700003F0DBFE0400E4B2012C0AD016D3032CF6
:1005800010D00AD3042C11D1290089B2012004F023
:10059000E8FB0C2003F0DCFD1AE0ADB23D2D00DBE2
:1005A0006D1E03E0ADB2C82D00DA6D1CADB22A009D
:1005B000DFF82C1800A805F0E7FD0121062003F064
:1005C000AAFD00A803F0E2FD322003F0F2FFCBE722
:1005D00005B030BD30B585B0022004F010FC050038
:1005E0000C2003F0B5FDDFF8FC0703F0CFFD03F0AE
:1005F00005FF00285CD003F098FE0400E4B2012C53
:100600000AD03ED3032C23D00AD3042C39D129009D
:1006100089B2022004F0A5FB0C2003F099FD47E00D
:10062000ADB2B5F5FA6F12DDDFF8BC07006841F234
:100630008931884201D36D1E09E0DFF8AC070068FC
:1006400040F6B931884201D30A3D00E0643D1DE027
:10065000ADB244F25060854212DADFF88C070068D0
:1006600041F28931884201D36D1C09E0DFF8780737
:10067000006840F6B931884201D30A3500E064359C
:1006800004E0DFF8640741F288310160ADB22A006E
:10069000DFF85C1800A805F077FD0121032003F0C6
:1006A0003AFD00A803F072FD322003F082FF9EE7BE
:1006B00005B030BD30B585B0052004F0A0FB0500C5
:1006C0000C2003F045FDDFF82C0803F05FFD03F07C
:1006D00095FE002831D003F028FE0400E4B2012C7E
:1006E0000AD018D3032C10D00AD3042C13D129001C
:1006F00089B2052004F035FB0C2003F029FD1CE035
:10070000ADB2022D00DB6D1E05E0ADB240F2E73068
:10071000854200DA6D1CADB22A00DFF8B01800A8DF
:1007200005F032FD0121032003F0F5FC00A803F0E1
:100730002DFD322003F03DFFC9E705B030BD2DE9A6
:10074000F04385B00400002600A8DFF884180CC927
:100750000CC0083908385FF000085FF001090C2070
:1007600003F0F6FCDFF86C0803F010FD03F046FE22
:10077000002800F0908003F0D8FD0500EDB2012DB7
:100780003ED060D3032D3DD04DD3042D5BD1761CDC
:10079000F6B2042E33DB9DF800004FF47A719DF819
:1007A000012064235A4301FB00209DF802100A2215
:1007B00002FB01009DF80310081800F53C50B03012
:1007C0000700BFB2A4B2A74201D1FF2064E00C2011
:1007D00003F0BEFCDFF8000803F0D8FC0121002084
:1007E00003F099FCDFF8C80803F0D0FC40F6B830FD
:1007F00003F0DFFE0C2003F0ABFC00204CE022E015
:10080000002049E0F6B200A8305C401CF6B200A916
:100810007054F6B200A8305C3A2803DBF6B200A8A8
:10082000302131540FE0F6B200A8305C401EF6B221
:1008300000A97054F6B200A8305C302803DAF6B292
:1008400000A839213154B9F101094846C0B2002845
:100850001DD1042081465FFA88F87FEA0808042247
:1008600000A902A805F0AAFC00208DF80C005FFA90
:1008700088F8B8F1000F03D0F6B202A85F21315416
:100880000121062003F047FC02A803F07FFC322080
:1008900003F08FFE6AE7002005B0BDE8F08330B5B5
:1008A00085B000250DF10D00019003A800900DF119
:1008B0000B030DF10A020DF1090102A804F083FBFC
:1008C0000C2003F045FCDFF8780A03F05FFCEDB282
:1008D00002A8295C2800C0B200F05AF803F08EFD8F
:1008E000002853D003F021FD0400E4B2012C28D0ED
:1008F00048D3032C26D034D3042C43D1EDB2062D9B
:1009000010D19DF80D0001909DF80C0000909DF80D
:100910000B309DF80A209DF809109DF8080004F09E
:10092000EFFA33E0EDB202A8285CC043EDB202A9B1
:100930006854EDB202A8295C2800C0B200F028F883
:1009400020E023E0EDB2681C072190FBF1F201FBEF
:100950001205EDB202A8295C2800C0B200F018F818
:1009600010E0EDB2002D03D0EDB228006D1E02E0C4
:1009700006252800C0B2EDB202A8295C2800C0B24A
:1009800000F006F8322003F014FEA7E705B030BDF2
:1009900038B504000D000121002003F0BCFBE4B2D7
:1009A000DFF8DC0A50F8240003F0F0FBE4B2062C78
:1009B00009DAEDB2002D06D00121022003F0ABFBD5
:1009C000582003F0C5FB31BD54F700002DE9F04F6E
:1009D0008BB00026002701249D48006805F00AFC22
:1009E00005F018FC42F2107190FBF1F201FB120AC3
:1009F0000C2003F0ADFB1FFA8AFA5246DFF8FC190F
:100A000000A805F0C1FB00A803F0C0FB01210020F5
:100A100003F081FBDFF8E80903F0B8FBDFF8E41925
:100A200000A805F0B1FB03F0E9FC002800F0B48059
:100A300003F07BFC0500EDB2012D68D0C0F0898089
:100A4000032D65D075D3042D40F08380F6B2052EBA
:100A50005BDB9DF80000DFF864169DF8012042F290
:100A600010735A4301FB00209DF802104FF47A7274
:100A700002FB01009DF80310642202FB01009DF8B7
:100A800004100A2202FB01009DF805100818DFF887
:100A90008C1711EB000B5FEA8B3B5FEA9B3B5FEA35
:100AA0009B30804658468004800C40F6BC3148405C
:100AB00081460C2003F04CFB1FFA89F91FFA8AFAD1
:100AC000D14511D15FFA88F8404605F01DFCDFF8EA
:100AD000B40903F05BFB0121002003F01CFBDFF8ED
:100AE000A80903F053FB0BE0DFF8EC0403F04EFB26
:100AF0000121002003F00FFBDFF8FC0A03F046FBA6
:100B000040F6B83003F055FD46E0761C21E043E0A6
:100B1000F6B200A8305C401CF6B200A97054F6B2E0
:100B200000A8305C3A2803DBF6B200A8302131542B
:100B30000FE0F6B200A8305C401EF6B200A9705477
:100B4000F6B200A8305C302803DAF6B200A83921EA
:100B50003154601E0400C0B2002819D104200400E2
:100B6000FFB2FF43112200A905A805F027FB0020D2
:100B70008DF81B00FFB2002F03D0F6B205A85F214D
:100B800031540121072003F0C6FA05A803F0FEFA4C
:100B9000322003F00EFD46E70BB0BDE8F08F0000F9
:100BA0000807010038B5002505F0C6FA80B2FFF746
:100BB000C6FD00284AD00C2003F0CAFA2800C0B2B3
:100BC00000F04AF803F01AFC00283FD003F0ADFB18
:100BD0000400E4B2012C17D034D3032C18D023D353
:100BE000042C2FD1EDB2DFF8D00A50F825000028F0
:100BF0000AD0EDB2DFF8C00A50F82500804728007F
:100C0000C0B200F029F81DE00C2003F0A1FA1DE0AD
:100C1000EDB2681C082190FBF1F505FB11052800D9
:100C2000C0B200F019F80DE0EDB2002D03D0EDB226
:100C300028006D1E02E007252800C0B22800C0B2BF
:100C400000F00AF8642003F0B4FCBBE731BD0000FB
:100C5000486B00108003001010B504000021002034
:100C600003F059FADFF8940903F090FA012100200B
:100C700003F051FAE4B2DFF8480A50F8240003F018
:100C800085FA0121002003F046FA7E2003F060FA85
:100C900010BD0000A4F7000018070100F8010100D2
:100CA00030B585B004F040FA05002A00DFF8141AC8
:100CB00000A805F069FA0C2003F04AFADFF8C00A30
:100CC00003F064FA0121002003F025FA00A803F0E4
:100CD0005DFA03F093FB00280DD003F026FB04001F
:100CE000E4B22000012801D0042800D103E06420F0
:100CF00003F05FFCEDE705B030BD0000A403001079
:100D00000C02010010B50C2003F022FADFF8B8093C
:100D100003F03CFA0121002003F0FDF9DFF8AC09F3
:100D200003F034FA03F001FB0400E4B2042C01D117
:100D300005F036FBE4B2012CF4D105F0FDF980B2E8
:100D4000FFF7FDFC00281BD00C2003F001FADFF8B0
:100D5000340A03F01BFA0121002003F0DCF9DFF86C
:100D6000280A03F013FA002004F005FA002004F02A
:100D7000A8FD002005F056F941F2883003F019FC77
:100D800010BD30B585B004F019FA05002A00DFF86F
:100D9000341900A805F0F8F90C2003F0D9F9DFF8B0
:100DA000900A03F0F3F90121002003F0B4F900A840
:100DB00003F0ECF903F022FB00280DD003F0B5FAA4
:100DC0000400E4B22000012801D0042800D103E08F
:100DD000642003F0EEFBEDE705B030BDDC0B010055
:100DE000E40B010020020100746B001030B585B0E7
:100DF00004F02EFA05000C2003F0AAF9DFF894099C
:100E000003F0C4F903F0FAFA002836D003F08DFAA3
:100E10000400E4B2012C09D01DD3032C0AD010D356
:100E2000042C18D1280080B204F033FA0C2003F00F
:100E30008FF922E00A35ADB2792D01DB00200500E3
:100E400009E0ADB2002D03D00A3D280080B202E0D7
:100E50007825280080B2ADB22A00DFF8DC1900A89E
:100E600005F092F90121062003F055F900A803F0DE
:100E70008DF9642003F09DFBC4E705B030BD000090
:100E800038B504F023FA05000C2003F061F9DFF80F
:100E9000A40903F07BF903F0B1FA002827D003F08E
:100EA00044FA0400E4B2012C09D00ED3032C0AD07A
:100EB00009D3042C09D1280080B204F028FA0C20B0
:100EC00003F046F913E0ADB2ED430121062003F033
:100ED00022F9ADB2002D03D076A003F057F902E05D
:100EE00075A003F053F9642003F063FBD3E731BD31
:100EF000880901003402010030B585B004F05EFAC3
:100F000005000C2003F024F9DFF8AC0903F03EF9EA
:100F100003F074FA002857D003F007FA0400E4B293
:100F2000012C09D039D3032C20D009D3042C34D17F
:100F3000280080B204F025FA0C2003F009F943E000
:100F4000ADB2B5F5FA6F10DDDFF870090068B0F5E5
:100F50007A7F01D96D1E08E0DFF860090068B0F5FE
:100F6000FA7F01D90A3D00E0643D1BE0ADB244F2D6
:100F70005060854210DADFF844090068B0F57A7FE6
:100F800001D96D1C08E0DFF834090068B0F5FA7F7C
:100F900001D90A3500E0643504E0DFF8200940F6A5
:100FA000B8310160ADB22A00DFF8841A00A805F05C
:100FB000EBF80121032003F0AEF800A803F0E6F8F7
:100FC000322003F0F6FAA3E705B030BD9409010022
:100FD000EC0B010048020100F40B010030B585B0B4
:100FE00004F03CFA05000C2003F0B2F8DFF8F40935
:100FF00003F0CCF803F002FA002857D003F095F97B
:101000000400E4B2012C09D039D3032C20D009D339
:10101000042C34D1280080B204F003FA0C2003F031
:1010200097F843E0ADB2B5F5FA6F10DDDFF88C0844
:101030000068B0F57A7F01D96D1E08E0DFF87C0802
:101040000068B0F5FA7F01D90A3D00E0643D1BE07D
:10105000ADB244F25060854210DADFF860080068F3
:10106000B0F57A7F01D96D1C08E0DFF85008006800
:10107000B0F5FA7F01D90A3500E0643504E0DFF805
:101080003C0840F6B8310160ADB22A00DFF8A01983
:1010900000A805F079F80121032003F03CF800A82E
:1010A00003F074F8322003F084FAA3E705B030BDF2
:1010B000A009010053494D004E414F00A086010098
:1010C00030B585B004F042FA05000C2003F040F87A
:1010D000DFF8380A03F05AF803F090F900282ED010
:1010E00003F023F90400E4B2012C09D015D3032C3A
:1010F0000FD009D3042C10D1280080B204F055FA87
:101100000C2003F025F81AE0ADB2022D00DB6D1EB5
:1011100003E0ADB2782D00DA6D1CADB22A00DFF825
:10112000F81A00A805F030F80121062002F0F3FFBC
:1011300000A803F02BF8322003F03BFACCE705B00F
:1011400030BD30B585B004F04DFA05000C2002F03A
:10115000FFFFDFF8BC0903F019F803F04FF900288E
:101160005AD003F0E2F80400E4B2012C09D03CD3D9
:10117000032C23D009D3042C37D1280080B204F0EB
:1011800063FA0C2002F0E4FF46E0ADB241F2893090
:10119000854212DBDFF82407006841F2893188427A
:1011A00001D36D1E09E0DFF81407006841F28931B0
:1011B000884201D30A3D00E0643D1BE0ADB244F239
:1011C0005060854210DADFF8F4060068B0F57A7FE7
:1011D00001D96D1C08E0DFF8E4060068B0F5FA7F7D
:1011E00001D90A3500E0643504E0DFF8D00640F6A6
:1011F000B8310160ADB22A00DFF8341800A804F05D
:10120000C3FF0121062002F086FF00A802F0BEFF06
:10121000322003F0CEF9A0E705B030BDB09EAEFF9E
:1012200038B500252800C0B200F043F803F0E6F816
:1012300000283DD003F079F80400E4B2012C18D066
:1012400032D3032C25D015D3042C2DD1EDB2DFF8E9
:10125000F00A50F8250000280AD0EDB2DFF8E00AC5
:1012600050F8250080472800C0B200F022F81BE0AB
:101270001EE01DE0EDB2002D03D0EDB228006D1E82
:1012800002E012252800C0B22800C0B200F011F818
:101290000AE0EDB2681C132190FBF1F201FB12058C
:1012A0002800C0B200F005F8322003F082F9BDE753
:1012B00031BD10B504000021002002F02CFFDFF842
:1012C000840A02F063FF0121002002F024FFE4B24F
:1012D000DFF8740A50F8240002F058FF01210020C2
:1012E00002F019FF7E2002F033FF10BD7FB50C2005
:1012F00002F02EFFDFF8540A02F048FF03F015F861
:101300000400E4B2012C19D005F044FB05F0A4FB65
:101310000500280005F0B4FB06003200DFF8301AA3
:1013200000A804F031FF0121002002F0F4FE00A823
:1013300002F02CFF642003F03CF9DFE77FBD0000E2
:101340005C02010070B586B00C2002F001FFDFF8EE
:10135000040A02F01BFF042003F051FD050002F017
:10136000E4FF0400E4B2012C46D0E4B2042C1DD109
:101370000121002002F0CFFEDFF8DC0902F006FFB9
:101380000121002002F0C7FE280005F092FB002892
:1013900004D0DFF8C80902F0F9FE03E0DFF8C00965
:1013A00002F0F4FE40F6B83003F003F905F034FB28
:1013B0000600B6B23200DFF8AC1900A804F0E4FE73
:1013C0000121012002F0A7FE00A802F0DFFE0121AA
:1013D000082002F0A0FE05F0A0FB002804D0DFF8F2
:1013E000880902F0D3FE03E0DFF8800902F0CEFEA8
:1013F000642003F0DEF8B2E706B070BDAC0901006E
:10140000FC0B0100040C010038B50C2002F0A0FE1A
:10141000DFF85C0902F0BAFE02F087FF0400E4B2D4
:101420002000012814D0042813D10121002002F04B
:1014300072FEDFF8400902F0A9FE05F098FB0121D9
:10144000002002F068FEDFF8300902F09FFE00E0A5
:1014500014E005F0BDFB05000121052002F05BFE54
:10146000EDB2002D03D095A002F090FE02E0C3A0E3
:1014700002F08CFE642003F09CF8CDE731BD000043
:10148000E4030010B8090100C40901002DE9F0438C
:1014900085B05FF000084FF47A664FF4E1670C20E6
:1014A00002F056FEDFF8D40802F070FE02F03DFFB5
:1014B0000400E4B2012C17D02DD3032C15D020D377
:1014C000042C28D15FFA88F87FEA08085FFA88F8C8
:1014D000B8F1000F04D0B6B2300005F05AFD02E0BA
:1014E000002005F056FD16E056E0DFF8D00340F688
:1014F000B8310160B6B242F6E060864200DA643686
:1015000009E0DFF8B80340F6B8310160B6B2B6F5CD
:10151000167F00DD643EDFF8A403006800280DD1CB
:10152000B6B2BFB2BE4209D05FFA88F8B8F1000F78
:1015300004D0B6B2300005F02CFD37005FFA88F811
:10154000B8F1000F02D00FF2442901E00FF2402958
:10155000DFF868030068002802D0B6B2300001E06E
:1015600005F03AFD4B460200DFF8A41A00A804F08B
:101570000BFE00A805F0DEFD05000121EDB2D5F15E
:1015800010004010C0B202F0C6FD00A802F0FEFD3F
:10159000642003F00EF889E705B0BDE8F08310B5CC
:1015A00086B00C2002F0D4FDDFF8600A02F0EEFDF8
:1015B000FF2005F029FD02F0B8FE0400E4B2012C82
:1015C00003D1002005F020FD13E005F0A5FC80B25A
:1015D0000200DFF8401A00A804F0D6FD0121052022
:1015E00002F099FD00A802F0D1FD642002F0E1FFB5
:1015F000E1E706B010BD0000D00901007002010053
:1016000070B50025042003F0FAFB06000C2002F060
:101610009FFDDFF8040A02F0B9FD02F086FE040027
:10162000E4B2012C32D032D3032C0FD00ED3042CD1
:101630002DD1EDB2ED43EDB2002D03D0012005F028
:1016400078FA02E0002005F074FA20E00121002081
:1016500002F061FDDFF8000702F098FD0121002093
:1016600002F059FDB6B2300005F023FA002804D08C
:10167000DFF8E80602F08AFD03E0DFF8E40602F096
:1016800085FD40F6B83002F094FF00E013E0012140
:10169000002002F040FDEDB2002D04D0DFF87C09FF
:1016A00002F074FD03E0DFF8B80A02F06FFD642079
:1016B00002F07FFFB1E770BDC4F700005B315D0051
:1016C000C4030010DC09010098020100AC02010013
:1016D00070B586B00025002006F03AF80C2002F024
:1016E00037FDDFF83C0902F051FD02F01EFE040058
:1016F000E4B2012C15D017D3032C03D002D3042C51
:1017000003D011E006F07EF80EE0EDB2ED432800C4
:10171000C0B206F056F800220021002006F0BBFB04
:1017200002E006F06FF827E005F097FE06003000B3
:1017300006F06CFC02000B00DFF8281A00A804F089
:1017400023FD0121002002F0E6FC00A802F01EFDAE
:101750000121082002F0DFFCEDB2002D04D0DFF8FB
:10176000080A02F013FD03E0DFF8A80A02F00EFDFC
:10177000642002F01EFFB8E706B070BD5B305D006C
:1017800084020100E8090100F40901004F4E000045
:101790004F464600D402010070B5052501260C20F5
:1017A00002F0D6FCDFF8700A02F0F0FC02F0BDFD9A
:1017B0000400E4B2012C39D06D1E2800C0B200280C
:1017C00030D10520050000220021012006F063FB36
:1017D00000220021022006F05EFB002200210320EF
:1017E00006F059FB00220021042006F054FB0022E1
:1017F0000021052006F04FFB00220021062006F004
:101800004AFB01220021072006F045FB01220121AD
:101810003000C0B206F03FFB761CF6B2082E01DBAA
:1018200001200600642002F0C4FEBFE770BD000086
:10183000C0020100E8020100000A010038B503F00F
:10184000B4FF0500ADB2002D02D04FF6FF700500C9
:101850000C2002F07DFCDFF8200B02F097FC02F078
:10186000CDFD002827D002F060FD0400E4B2012C79
:1018700009D00ED3032C0AD009D3042C09D1280097
:1018800080B203F0BAFF0C2002F062FC13E0ADB2AC
:10189000ED430121062002F03EFCADB2002D03D045
:1018A00098A002F073FC02E097A002F06FFC6420A5
:1018B00002F07FFED3E731BDFC020100746B001023
:1018C00030B583B000250C2002F042FCDFF8AC0AF2
:1018D00002F05CFC03F0CBFF050002F08FFD002856
:1018E0005BD002F022FD0400E4B2012C09D00FD33A
:1018F000032C07D008D3042C0AD1280080B203F0AF
:1019000099FF4AE06D1C03E0ADB2022D00DB6D1EB5
:10191000ADB24FF47A7095FBF0F00A2190FBF1F232
:1019200001FB120030308DF80000ADB2642095FB51
:10193000F0F00A2190FBF1F201FB120030308DF83B
:101940000100ADB20A2095FBF0F00A2190FBF1F204
:1019500001FB120030308DF802002E208DF80300BC
:10196000ADB20A2095FBF0F100FB115030308DF83C
:10197000040020208DF8050025208DF806000020A9
:101980008DF807000121062002F0C5FB00A802F037
:10199000FDFB642002F00DFE9FE737BD10B50C2063
:1019A00002F0D6FBDFF8E00902F0F0FB02F0BDFC2C
:1019B0000400E4B2012C14D00121032002F0ABFB9F
:1019C00002F034FD002804D0DFF8C00902F0DEFB8D
:1019D00003E0DFF8BC0902F0D9FB642002F0E9FD66
:1019E000E4E710BD1003010010B50C2002F0B0FBBD
:1019F000DFF8A00902F0CAFB02F097FC0400E4B291
:101A0000012C14D00121032002F085FB02F0F9FC27
:101A1000002804D0DFF8740902F0B8FB03E0DFF817
:101A2000700902F0B3FB642002F0C3FDE4E710BDCF
:101A30008809010010B586B00C2002F089FBDFF8A0
:101A4000580902F0A3FB02F070FC0400E4B2012C80
:101A500024D00121032002F05EFB0020059000202D
:101A600004900020039000200290002001900020AC
:101A70000090002300220021012006F066FB0028D0
:101A800004D0DFF8180902F081FB03E0DFF8140945
:101A900002F07CFB642002F08CFDD4E706B010BDA0
:101AA00038B500250C2002F053FBDFF8F40802F0F3
:101AB0006DFB02F03AFC0400E4B22000012804D0DF
:101AC000042806D195F0FF0503E0002004F04BFC4C
:101AD00017E02800C0B204F046FC0121032002F008
:101AE0001AFBEDB2002D04D0DFF8BC0802F04EFB6B
:101AF00003E0DFF8B80802F049FB642002F059FD6A
:101B0000D7E731BD53494D004E414F00240301003A
:101B10003803010030B585B077250C2002F018FBA2
:101B2000DFF88C0802F032FB022003F068F980B283
:101B300005F02FFA6421732005F04BFA02F0F5FB53
:101B40000400E4B2012C08D01FD3032C0DD013D312
:101B5000042C1AD10020050017E0002005F019FA26
:101B60000021002005F035FA54E06D1C6421ADB26F
:101B7000280005F02EFA08E0ADB2002D00D06D1E51
:101B80006421ADB2280005F024FA01210A2002F0F8
:101B9000C2FA5B208DF80000ADB24FF47A7095FB6D
:101BA000F0F00A2190FBF1F201FB120030308DF8C9
:101BB0000100ADB2642095FBF0F00A2190FBF1F238
:101BC00001FB120030308DF80200ADB20A2095FB07
:101BD000F0F00A2190FBF1F201FB120030308DF899
:101BE0000300ADB20A2095FBF0F100FB115030303C
:101BF0008DF804005D208DF8050000208DF80600AA
:101C000000A802F0C3FA002007F012F8642002F0E6
:101C1000D0FC93E705B030BD0C0A010000B583B0DD
:101C200040F68E40FEF78BFD002803D10C2002F019
:101C30008FFA42E05021002003F093F86421012044
:101C400003F08FF841F2EC31022003F08AF84120D2
:101C500003F07AFB2821042003F083F843F2D40038
:101C600003F08FFB43F2C82003F0DBFB032003F0FB
:101C70009CFC43F6982003F0E7FC41F24A5003F045
:101C800032FD052003F045FC142003F071FD0C200B
:101C900002F05EFA412003F097FE00200190002040
:101CA0000090002300220121012003F029F90A20DD
:101CB00003F0EFFA012003F02AFB07BD38B504F06A
:101CC0003BFA80B2FEF73BFD002803D10C2002F066
:101CD0003FFA34E00C2002F03BFADFF8AC0702F0E8
:101CE00055FA03F055FE050002F088FB002826D0C7
:101CF00002F01BFB0400E4B2012C09D00BD3032C2F
:101D000007D006D3042C06D12800C0B203F023FE6E
:101D100015E095F0FF050121052002F0FCF9EDB278
:101D2000002D04D0DFF8A00702F030FA03E0DFF85E
:101D30009C0702F02BFA322002F03BFCD4E731BDC5
:101D40005CF400004C0301008C0200102807010025
:101D50000C0C01003807010048070100580701007A
:101D600068070100140C01001C0C0100240C010088
:101D7000180A0100240A0100300A01007807010056
:101D80002DE9F04F8BB00026002701245FF00008FA
:101D9000DFF83C07006804F02DFA04F03BFA42F249
:101DA000107190FBF1F201FB120A0C2002F0D0F945
:101DB0001FFA8AFA5246DFF81C1700A804F0E4F96B
:101DC00000A802F0E3F90121002002F0A4F9DFF8F5
:101DD000080702F0DBF9DFF8041700A804F0D4F9D3
:101DE00002F00CFB002800F0CD8002F09EFA050006
:101DF000EDB2012D00F08180C0F0A180032D7DD0D7
:101E0000C0F08D80042D40F09A80F6B2052E72DB72
:101E10009DF80000DFF8C8169DF8012042F210730B
:101E20005A4301FB00209DF802104FF47A7202FB26
:101E300001009DF80310642202FB01009DF80410CC
:101E40000A2202FB01009DF805100818DFF894161D
:101E500011EB000B5FEA8B3B5FEA9B3B5FEA9B3039
:101E6000804658468004800C40F6BC31484081468C
:101E70000C2002F06DF91FFA89F91FFA8AFAD14590
:101E800028D1DFF8640602F081F90121002002F078
:101E900042F9DFF8B80702F079F9002003F021F9E0
:101EA000002003F068F9002003F0AFF9002003F0F0
:101EB00008FD002003F0BEFF002004F0B3F800206E
:101EC00004F0FAF8002003F007FF41F2883002F036
:101ED00070FB0BE0DFF8780702F058F901210020D1
:101EE00002F019F9DFF86C0702F050F940F6B8304B
:101EF00002F05FFB46E0761C21E043E0F6B200A86A
:101F0000305C401CF6B200A97054F6B200A8305CF8
:101F10003A2803DBF6B200A8302131540FE0F6B2C4
:101F200000A8305C401EF6B200A97054F6B200A8BA
:101F3000305C302803DAF6B200A839213154601E33
:101F40000400C0B2002819D104200400FFB2FF43EE
:101F5000112200A905A804F031F900208DF81B001A
:101F6000FFB2002F03D0F6B205A85F213154012142
:101F7000072002F0D0F805A802F008F9322002F09C
:101F800018FB2DE70BB0BDE8F08F30B585B003F03E
:101F900038FD05000C2002F0DBF8DFF8BC0602F08B
:101FA000F5F802F02BFA00282ED002F0BEF904005A
:101FB000E4B2012C09D015D3032C0FD009D3042C83
:101FC00010D1280080B203F0FFFC0C2002F0C0F812
:101FD0001AE0ADB2242D00DB6D1E03E0ADB2C82DBA
:101FE00000DA6D1CADB22A00DFF8FC1700A804F07F
:101FF000CBF80121062002F08EF800A802F0C6F806
:10200000322002F0D6FACCE705B030BD6003010003
:10201000880701002C0C0100740301003C0A010038
:10202000980701002DE9F0419CB004000AA8DFF8F0
:102030007018442207F086FC5FF000080026012794
:102040000C2002F085F80021002002F064F8E4B2D0
:1020500011200AA900FB041002F098F802F0A1F880
:1020600000A92000C0B203F030FD02F0C7F900283B
:1020700073D002F05AF90500EDB2012D13D04AD306
:10208000032D2DD012D3042D45D118F101085FFA8C
:1020900088F8B8F1100F05DB00A92000C0B203F0EA
:1020A000F2FC5AE037E002F089F856E05FFA88F86F
:1020B00000A818F80000202806D15FFA88F800A8C8
:1020C0007A2108F800100AE05FFA88F800A818F8EA
:1020D0000000401E5FFA88F800A908F801001AE025
:1020E0005FFA88F800A818F800005FFA88F800A9DD
:1020F000421C08F80120C0B200280CD05FFA88F812
:1021000000A818F800007B2805DB5FFA88F800A813
:10211000202108F800107F1E3800C0B2002818D116
:102120000A200700F6B2F643112200A905A804F020
:1021300045F80121002001F0EEFFF6B2002E05D097
:102140005FFA88F805A85F2108F8001005A802F0DA
:102150001DF8322002F02DFA87E71CB0BDE8F081AF
:10216000480A0100540A0100600A010080B50020FD
:10217000FFF758FF01BD80B50120FFF753FF01BDF8
:1021800080B50220FFF74EFF01BD80B50320FFF7A9
:1021900049FF01BD38B503F0E9FC0500ADB2002DE3
:1021A00002D04FF6FF7005000C2001F0D1FFDFF8E0
:1021B000B40701F0EBFF02F021F9002829D002F06A
:1021C000B4F80400E4B2012C09D010D3032C0AD0D7
:1021D00009D3042C0BD12800C0B203F0AAFC0C20B8
:1021E00001F0B6FF15E085F47F4595F0FF0501216C
:1021F000062001F090FFADB2002D03D060A001F0E9
:10220000C5FF02E05FA001F0C1FF0A2002F0D1F992
:10221000D1E731BD6C0A0100A807010030B585B0D7
:1022200003F0DDFC05000C2001F092FFDFF8F80759
:1022300001F0ACFF02F0E2F8002859D002F075F886
:102240000400E4B2012C09D03BD3032C21D009D3E4
:10225000042C36D1280080B203F0A4FC0C2001F03D
:1022600077FF45E0ADB2B5F5FA6F11DDDFF8BC07D9
:102270000068B0F5FA5F01D96D1E09E0DFF8AC0720
:10228000006841F28931884201D30A3D00E0643D93
:102290001CE0ADB244F25060854211DADFF88C07E1
:1022A0000068B0F5FA5F01D96D1C09E0DFF87C0722
:1022B000006841F28931884201D30A3500E0643573
:1022C00004E0DFF8680743F698210160ADB22A0008
:1022D000DFF85C1700A803F057FF0121032001F08D
:1022E0001AFF00A801F052FF322002F062F9A1E7C4
:1022F00005B030BD30B585B003F0A4FC05000C205E
:1023000001F026FFDFF82C0701F040FF02F076F81D
:1023100000282ED002F009F80400E4B2012C09D004
:1023200015D3032C0FD009D3042C10D1280080B270
:1023300003F0B5FC0C2001F00BFF1AE0ADB23D2D0F
:1023400000DB6D1E03E0ADB2C82D00DA6D1CADB22E
:102350002A00DFF8941400A803F016FF01210620DC
:1023600001F0D9FE00A801F011FF322002F021F99E
:10237000CCE705B030BD000088030100B8070100BC
:1023800053494D004E414F00C8070100780A010033
:10239000840A0100D8070100E8070100900A010043
:1023A0009C0301009C0A0100340C01003C0C01005C
:1023B000B003010038B5002500F050F9002841D0E5
:1023C0002800C0B200F03FF801F0AFFF0400E4B213
:1023D000012C18D032D3032C25D015D3042C2DD1A9
:1023E000EDB2DFF8540D50F8250000280AD0EDB208
:1023F000DFF8440D50F8250080472800C0B200F0F7
:1024000022F81BE01EE01DE0EDB2002D03D0EDB27E
:1024100028006D1E02E004252800C0B22800C0B2CA
:1024200000F011F80AE0EDB2681C052190FBF1F212
:1024300001FB12052800C0B200F005F8322002F0BE
:10244000B8F8C1E731BD10B504000021002001F04B
:1024500062FEDFF8200C01F099FE0121002001F05E
:102460005AFEE4B2DFF8D40C50F8240001F08EFEDE
:1024700010BD10B5DFF8C80C00F038F804002000DB
:1024800003F01FFA10BD0000F807010010B5DFF8D7
:10249000B40C00F02BF80400200002F022FE10BD66
:1024A00010B5DFF8A40C00F021F80400200002F0C1
:1024B00062FE10BD10B5DFF8940C00F017F80400B0
:1024C000200002F0A2FE10BD440C01004C0C0100E3
:1024D000486B0010AC090100FC0B0100040C01006A
:1024E000A0860100B09EAEFFA80A01002DE9F041D0
:1024F00086B0040000A8DFF8581C2CC92CC00C3989
:102500000C38002601275FF000080C2001F020FEA7
:102510000021002001F0FFFD200001F037FE01F056
:1025200004FF0500EDB2012D67D068D3032D03D061
:1025300018D3042D2CD062E0F6B200A8305C392804
:1025400005DB3020F6B200A97054C0B209E0F6B243
:1025500000A8305CF6B200A9715C491CF6B200AA72
:10256000B1544CE0F6B200A8305C312805DA3920CD
:10257000F6B200A97054C0B209E0F6B200A8305C0F
:10258000F6B200A9715C491EF6B200AAB15436E059
:10259000F6B2072E2FDB9DF80010DFF8B82B9DF860
:1025A0000130DFF8B4CB0CFB03F302FB01319DF8E3
:1025B0000220DFF8A83B03FB02119DF8032042F242
:1025C000107303FB02119DF804204FF47A7303FB90
:1025D00002119DF80520642303FB02119DF80620DB
:1025E0000A2303FB02119DF807205118DFF89C2CE9
:1025F0005118080027E0761C01E0002023E07F1E30
:102600003800C0B200281AD10A200700092200A908
:1026100003A803F0D3FD5FFA88F87FEA08085FFAA1
:1026200088F8B8F1000F03D0F6B203A85F21315447
:102630000121042001F06FFD03A801F0A7FD322065
:1026400001F0B7FF6BE706B0BDE8F081540C010064
:10265000F40B0100D0090100C40301002DE9F0478B
:102660008AB00026002701245FF00008DFF8200C64
:10267000006803F0BFFD03F0CDFD42F2107190FB46
:10268000F1F201FB120A0C2001F062FD1FFA8AFA36
:102690005246DFF8001C00A803F076FD00A801F008
:1026A00075FD0121002001F036FDDFF8EC0B01F093
:1026B0006DFDDFF8E81B00A803F066FD01F09EFE4B
:1026C000002800F08D8001F030FE0500EDB2012DF4
:1026D00040D062D3032D3FD04FD3042D5DD1F6B24D
:1026E000052E35DB9DF80000DFF8701A9DF80120FB
:1026F00042F210735A4301FB00209DF802104FF480
:102700007A7202FB01009DF80310642202FB0100B3
:102710009DF804100A2202FB01009DF8051008181C
:10272000DFF8A81C09188903890B880B804608006C
:102730008004800C40F6BC32504081461FFA89F973
:102740001FFA8AFAD14501D1FF204AE0002048E073
:10275000761C22E0002044E0F6B200A8305C401C69
:10276000F6B200A97054F6B200A8305C3A2803DB38
:10277000F6B200A8302131540FE0F6B200A8305C68
:10278000401EF6B200A97054F6B200A8305C3028A2
:1027900003DAF6B200A839213154601E0400C0B239
:1027A000002819D104200400FFB2FF43112200A920
:1027B00005A803F003FD00208DF81B00FFB2002FD9
:1027C00003D0F6B205A85F2131540121072001F0A2
:1027D000A2FC05A801F0DAFC322001F0EAFE6DE768
:1027E00000200AB0BDE8F087E40B010030B585B0E9
:1027F00003F08AF805002A00DFF8D41B00A803F0D4
:10280000C3FC0C2001F0A4FCDFF8780C01F0BEFC46
:102810000121002001F07FFC00A801F0B7FC01F0CD
:10282000EDFD00280DD001F080FD0400E4B2200091
:10283000012801D0042800D103E0642001F0B9FE92
:10284000EDE705B030BD30B585B002F023FC0500E2
:102850002A00DFF87C1B00A803F096FC0C2001F096
:1028600077FCDFF8200C01F091FC0121002001F041
:1028700052FC00A801F08AFC01F0C0FD00280DD038
:1028800001F053FD0400E4B22000012801D0042827
:1028900000D103E0642001F08CFEEDE705B030BD0F
:1028A000F0F4000038B500252800C0B200F043F86D
:1028B00001F0A4FD00283DD001F037FD0400E4B292
:1028C000012C18D032D3032C25D015D3042C2DD1B4
:1028D000EDB2DFF8D80C50F8250000280AD0EDB290
:1028E000DFF8C80C50F8250080472800C0B200F07F
:1028F00022F81BE01EE01DE0EDB2002D03D0EDB28A
:1029000028006D1E02E006252800C0B22800C0B2D3
:1029100000F011F80AE0EDB2681C072190FBF1F21B
:1029200001FB12052800C0B200F005F8322001F0CA
:1029300040FEBDE731BD10B504000021002001F0CC
:10294000EAFBDFF8440B01F021FC0121002001F03B
:10295000E2FBE4B2DFF8940C50F8240001F016FC1E
:1029600010BD0000D803010070B590B00A25002109
:10297000002001F0D0FBDFF8140B01F007FC01216F
:10298000002001F0C8FBDFF8080B01F0FFFB00A8F6
:1029900005F001FD0600F6B2002E04D12800451E08
:1029A000C0B20028F3D1F6B2002E14D100210020CD
:1029B00001F0B1FBDFF8DC0A01F0E8FB01210020A7
:1029C00001F0A9FBDFF8D00A01F0E0FB40F6B830D7
:1029D00001F0EFFD25E00C2001F0BAFB0021002002
:1029E00001F099FBDFF8C40C01F0D0FB01210020BD
:1029F00001F091FB00208DF8100000A801F0C6FB4B
:102A000001F0FCFC00280CD001F08FFC0400E4B2C3
:102A10002000401E032800D803E0322001F0C9FD49
:102A2000EEE710B070BD000020020100746B0010D2
:102A300088090100EC0301002DE9F04395B05FF037
:102A40000A09002600275FF001080021002001F09C
:102A500062FBDFF8380A01F099FB0121002001F048
:102A60005AFBDFF82C0A01F091FB00A805F093FC5B
:102A70000500EDB2002D05D14846B0F10109C0B204
:102A80000028F2D1EDB2002D14D10021002001F078
:102A900042FBDFF8000A01F079FB0121002001F080
:102AA0003AFBDFF8F40901F071FB40F6B83001F0B1
:102AB00080FDACE00C2001F04BFB0021002001F078
:102AC0002AFBDFF8E80B01F061FB0121002001F097
:102AD00022FB00208DF8100000A801F057FB002019
:102AE000C0B2302806DAC0B200A9411800220A7428
:102AF000401CF5E701F082FC002800F0888001F01E
:102B000014FC0400E4B2012C17D05CD3032C15D0C4
:102B100037D3042C57D1F6B200A8305C002803D17B
:102B2000F6B200A820213154761CF6B2102E03DB39
:102B300000A800F06FF86AE045E068E0F6B200A88F
:102B4000305C7F2803DBF6B200A87E213154F6B258
:102B500000A8305C202803DAF6B200A82021315406
:102B6000F6B200A8305C401CF6B200A97054F6B270
:102B700000A8305C7F2803DBF6B200A82021315486
:102B800021E0F6B200A8305C7F2803DBF6B200A893
:102B90007E213154F6B200A8305C202803DAF6B268
:102BA00000A820213154F6B200A8305C401EF6B2D5
:102BB00000A97054F6B200A8305C202803DAF6B2FF
:102BC00000A87E213154B8F101084046C0B2002867
:102BD00019D105208046FFB2FF43102200A910A89A
:102BE00003F0ECFA00208DF85000FFB2002F03D064
:102BF000F6B210A85F2131540121002001F08BFAB8
:102C000010A801F0C3FA322001F0D3FC72E715B02E
:102C1000BDE8F08370B504000A260021002001F011
:102C20007AFADFF84C0B01F0B1FA0121002001F033
:102C300072FADFF85C0801F0A9FA200000F024F82D
:102C4000200005F0F8FB0500EDB2002D04D13000A6
:102C5000461EC0B20028F3D1EDB2002D13D10021E1
:102C6000002001F058FADFF8880B01F08FFA0121FB
:102C7000002001F050FADFF8840C01F087FA40F6EA
:102C8000B83001F096FC70BD10F1100211000A7806
:102C9000212A02DB0A787F2A03DB00220A70491E00
:102CA000F5E7704770B592B000A8442106F076FEB3
:102CB00005250021002001F02EFADFF8740B01F049
:102CC00065FA0121002001F026FADFF8680B01F017
:102CD0005DFA01F093FB002842D001F026FB0400CE
:102CE000E4B22000401E022835D9C01E34D1002194
:102CF000002001F010FADFF8C40B01F047FA0121BF
:102D0000002001F008FADFF8880701F03FFA00A878
:102D100005F091FB0600F6B2002E04D12800451EF6
:102D2000C0B20028F3D1F6B2002E13D1002100204A
:102D300001F0F1F9DFF8B80A01F028FA01210020CA
:102D400001F0E9F9DFF8B40B01F020FA40F6B830F1
:102D500001F02FFC04E003E0322001F02AFCB8E788
:102D600012B070BD70B590B00A250021002001F0AE
:102D7000D2F9DFF88C0B01F009FA0121002001F0F3
:102D8000CAF9DFF80C0701F001FA00A805F0A4FB6E
:102D90000600F6B2002E04D12800451EC0B200285D
:102DA000F3D1F6B2002E14D10021002001F0B3F9C6
:102DB000DFF8E00601F0EAF90121002001F0ABF9AB
:102DC000DFF8D40601F0E2F940F6B83001F0F1FB8B
:102DD00025E00C2001F0BCF90021002001F09BF956
:102DE000DFF8780C01F0D2F90121002001F093F90D
:102DF00000208DF8100000A801F0C8F901F0FEFADB
:102E000000280CD001F091FA0400E4B22000401E2A
:102E1000032800D803E0322001F0CBFBEEE710B02E
:102E200070BD00002DE9F04395B05FF00A0900265F
:102E300000275FF001080021002001F06CF9DFF8A5
:102E4000540B01F0A3F90121002001F064F9DFF82F
:102E5000400601F09BF900A805F03EFB0500EDB22D
:102E6000002D05D14846B0F10109C0B20028F2D1C9
:102E7000EDB2002D14D10021002001F04CF9DFF853
:102E8000140601F083F90121002001F044F9DFF874
:102E9000080601F07BF940F6B83001F08AFBACE09F
:102EA0000C2001F055F90021002001F034F9DFF881
:102EB000AC0B01F06BF90121002001F02CF900208E
:102EC0008DF8100000A801F061F90020C0B2302890
:102ED00006DAC0B200A9411800220A74401CF5E7C6
:102EE00001F08CFA002800F0888001F01EFA04003E
:102EF000E4B2012C17D05CD3032C15D037D3042CAB
:102F000057D1F6B200A8305C002803D1F6B200A871
:102F100020213154761CF6B2102E03DB00A800F0FD
:102F20006FF86AE045E068E0F6B200A8305C7F2800
:102F300003DBF6B200A87E213154F6B200A8305C63
:102F4000202803DAF6B200A820213154F6B200A8F6
:102F5000305C401CF6B200A97054F6B200A8305C98
:102F60007F2803DBF6B200A82021315421E0F6B21D
:102F700000A8305C7F2803DBF6B200A87E21315424
:102F8000F6B200A8305C202803DAF6B200A82021AF
:102F90003154F6B200A8305C401EF6B200A970545D
:102FA000F6B200A8305C202803DAF6B200A87E2131
:102FB0003154B8F101084046C0B2002819D10520AB
:102FC0008046FFB2FF43102200A910A803F0F6F8D4
:102FD00000208DF85000FFB2002F03D0F6B210A8E9
:102FE0005F2131540121002001F095F810A801F073
:102FF000CDF8322001F0DDFA72E715B0BDE8F083BC
:1030000070B504000A260021002001F084F8DFF8E2
:10301000600701F0BBF80121002001F07CF8DFF827
:10302000700401F0B3F82000FFF72EFE200005F039
:10303000A3FA0500EDB2002D04D13000461EC0B247
:103040000028F3D1EDB2002D13D10021002001F0B2
:1030500062F8DFF89C0701F099F80121002001F0E7
:103060005AF8DFF8980801F091F840F6B83001F00E
:10307000A0FA70BD0004010070B592B000A8442110
:1030800006F08CFC05250021002001F044F8DFF853
:10309000A00701F07BF80121002001F03CF8DFF8E7
:1030A000940701F073F801F0A9F9002842D001F06B
:1030B0003CF90400E4B22000401E022835D9C01EAD
:1030C00034D10021002001F026F8DFF8B00B01F028
:1030D0005DF80121002001F01EF8DFF8B40301F0D3
:1030E00055F800A805F048FA0600F6B2002E04D103
:1030F0002800451EC0B20028F3D1F6B2002E13D12D
:103100000021002001F007F8DFF8E40601F03EF8A6
:103110000121002000F0FFFFDFF8E00701F036F8A2
:1031200040F6B83001F045FA04E003E0322001F047
:1031300040FAB8E712B070BD6C06010064040010DC
:1031400014040100280401003C04010050040100A3
:10315000B40A01008096980040420F00A08601004A
:1031600070B59AB000A8DFF8941B682206F0EAFB5D
:1031700002F00DFE050000260C2000F0E9FFDFF84C
:10318000000C01F003F80121002000F0C4FFEDB2B3
:10319000F6B2B54201D1012000E000201121F6B2C3
:1031A000222200AB02FB063201FB002000F0EEFF02
:1031B00001F024F9002867D001F0B7F80400E4B268
:1031C000012C23D05CD3032C21D03DD3042C57D128
:1031D000F6B2022E58D035002800C0B202F0BCFD75
:1031E0000121002000F097FFEDB2F6B2B54201D107
:1031F000012000E000201121F6B2222200AB02FBE8
:10320000063201FB002000F0C1FF39E03CE0F6B2DD
:10321000701C032190FBF1F201FB1206012100203A
:1032200000F079FFEDB2F6B2B54201D1012000E025
:1032300000201121F6B2222200AB02FB063201FB74
:10324000002000F0A3FF1BE0F6B2002E01D0761E96
:1032500001E0022006000121002000F05CFFEDB239
:10326000F6B2B54201D1012000E000201121F6B2F2
:10327000222200AB02FB063201FB002000F086FF99
:10328000322001F096F993E71AB070BDB0FA35E03C
:10329000486B0010AC090100FC0B0100040C01009C
:1032A00070B59AB000A8DFF8DC1A682206F04AFB75
:1032B00002F0A4FD050000260C2000F049FFDFF815
:1032C000F00B00F063FF0121002000F024FFEDB2BD
:1032D000F6B2B54201D1012000E000201121F6B282
:1032E000222200AB02FB063201FB002000F04EFF61
:1032F00001F084F8002867D001F017F80400E4B268
:10330000012C23D05CD3032C21D03DD3042C57D1E6
:10331000F6B2022E58D035002800C0B202F053FD9C
:103320000121002000F0F7FEEDB2F6B2B54201D166
:10333000012000E000201121F6B2222200AB02FBA6
:10334000063201FB002000F021FF39E03CE0F6B23C
:10335000701C032190FBF1F201FB120601210020F9
:1033600000F0D9FEEDB2F6B2B54201D1012000E085
:1033700000201121F6B2222200AB02FB063201FB33
:10338000002000F003FF1BE0F6B2002E01D0761EF5
:1033900001E0022006000121002000F0BCFEEDB299
:1033A000F6B2B54201D1012000E000201121F6B2B1
:1033B000222200AB02FB063201FB002000F0E6FEF9
:1033C000322001F0F6F893E71AB070BDB09EAEFF60
:1033D0005C0C010070B5A2B000A8DFF8D81A8822F2
:1033E00006F0B0FA002602F075FD05000C2000F092
:1033F000AFFEDFF8C40A00F0C9FE00F0FFFF0028AE
:103400003DD000F092FF0400E4B2012C0ED01DD399
:10341000032C0CD013D3042C18D1F6B2032E2ED0CB
:1034200035002800C0B202F071FD0FE027E0F6B2CF
:10343000701C042190FBF1F606FB110606E0F6B2C3
:10344000002E01D0761E01E003200600012100209D
:1034500000F061FEEDB2F6B2B54201D1012000E00C
:1034600000201121F6B2222200AB02FB063201FB42
:10347000002000F08BFE322001F09BF8BDE722B067
:1034800070BD0000840201006404010078040100A2
:103490008C040100A0040100B404010080B506F012
:1034A00081FA01BD80B506F0CFFB01BD2DE9F041E9
:1034B0008CB002F046FD050002A8DFF8001A1422C5
:1034C00006F040FA002707A8DFF8F419102206F0EA
:1034D00039FA00A8DFF8EC190CC90CC00839083813
:1034E0005FF000080C2000F033FEDFF8DC0900F08C
:1034F0004DFE00F083FF002855D000F016FF0400B9
:10350000E4B2012C0FD026D3032C10D016D3042CF8
:1035100021D15FFA88F818F10100042190FBF1F83D
:1035200008FB110817E0280002F032FD3BE05FFACB
:1035300088F800A830F9180045190CE05FFA88F8FF
:1035400000A830F91800854205D35FFA88F800A872
:1035500030F918002D1A5FFA88F807A850F82830BB
:103560002A00DFF8681902A802F00EFE02A803F094
:10357000E1FD0600F6B2FFB2BE4207D001210020F5
:1035800000F0C9FDDFF8480900F000FE3700012116
:10359000F6B2D6F110004010C0B200F0BCFD02A897
:1035A00000F0F4FDA5E70CB0BDE8F08124F80000C0
:1035B00010B504000021002000F0ADFDDFF8140973
:1035C00000F0E4FD0121012000F0A5FDE4B2DFF8E8
:1035D000080950F8240000F0D9FD0121002000F076
:1035E0009AFD7E2000F0B4FD10BD00000004001024
:1035F00038B500250C2000F0ABFD2800C0B2FFF765
:10360000D7FF00F0FBFE002832D000F08EFE040051
:10361000E4B2012C14D023D3032C12D019D3042CE0
:103620001ED1EDB2DFF8B40850F82500002806D00E
:10363000EDB2DFF8A80850F82500804710E017E049
:1036400016E0EDB2681C0A2190FBF1F201FB1205B5
:1036500006E0EDB2002D01D06D1E01E0092005004D
:103660002800C0B2FFF7A4FF322000F0A2FFC8E795
:1036700031BD10B504000021002000F04CFDDFF842
:10368000600800F083FD0121012000F044FDE4B258
:10369000DFF8500850F8240000F078FD01210020E8
:1036A00000F039FD7E2000F053FD10BD640C0100D8
:1036B00038B500250C2000F04BFD2800C0B2FFF704
:1036C000D8FF00F09BFE002832D000F02EFE040050
:1036D000E4B2012C14D023D3032C12D019D3042C20
:1036E0001ED1EDB2DFF8000850F82500002806D002
:1036F000EDB2DFF8F40750F82500804710E017E03E
:1037000016E0EDB2681C062190FBF1F201FB1205F8
:1037100006E0EDB2002D01D06D1E01E00520050090
:103720002800C0B2FFF7A5FF322000F042FFC8E733
:1037300031BD10B504000021002000F0ECFCDFF8E2
:10374000AC0700F023FD0121012000F0E4FCE4B20D
:10375000DFF89C0750F8240000F018FD012100203C
:1037600000F0D9FC7E2000F0F3FC10BD000000004A
:10377000C804010038B500252800C0B2FFF7D9FF02
:1037800000F03CFE002832D000F0CFFD0400E4B28F
:10379000012C14D023D3032C12D019D3042C1ED106
:1037A000EDB2DFF8500750F82500002806D0EDB242
:1037B000DFF8400750F82500804710E017E016E0DA
:1037C000EDB2681C042190FBF1F505FB110506E044
:1037D000EDB2002D01D06D1E01E003200500280090
:1037E000C0B2FFF7A6FF322000F0E3FEC8E731BD0C
:1037F000DC04010010B504000021002000F08BFC67
:10380000DFF8F40600F0C2FC0121012000F083FC87
:10381000E4B2DFF8E80650F8240000F0B7FC01211C
:10382000002000F078FC7E2000F092FC10BD00002B
:10383000040501001805010038B500250C2000F032
:1038400087FC2800C0B2FFF7D5FF00F0D7FD0028A5
:1038500032D000F06AFD0400E4B2012C14D023D36E
:10386000032C12D019D3042C1ED1EDB2DFF8900630
:1038700050F82500002806D0EDB2DFF8840650F895
:103880002500804710E017E016E0EDB2681C042127
:1038900090FBF1F505FB110506E0EDB2002D01D01E
:1038A0006D1E01E0032005002800C0B2FFF7A2FF53
:1038B000322000F07EFEC8E731BD00002C0501007B
:1038C00010B504000021002000F025FCDFF82806D8
:1038D00000F05CFC0121012000F01DFCE4B2DFF8E7
:1038E000240650F8240000F051FC0121002000F0D3
:1038F00012FC7E2000F02CFC10BD0000F004010042
:103900004005010038B5002541F6FB10FCF717FF14
:10391000002803D10C2000F01BFC3AE02800C0B2C4
:10392000FFF7CEFF00F06AFD002832D000F0FDFC6A
:103930000400E4B2012C14D023D3032C12D019D3E9
:10394000042C1ED1EDB2DFF8C00550F82500002888
:1039500006D0EDB2DFF8B00550F82500804710E042
:1039600017E016E0EDB2681C0B2190FBF1F201FBB1
:10397000120506E0EDB2002D01D06D1E01E00A2017
:1039800005002800C0B2FFF79BFF322000F011FEB7
:10399000C8E731BD5405010030B587B001F091FD95
:1039A000050000A8DFF864150CC90CC008390838F8
:1039B0000C2000F0CDFBDFF8580500F0E7FB00F02D
:1039C000B4FC0400E4B2012C16D02FD3032C20D079
:1039D00026D3042C2AD106F0D8FA0A2000F0E9FDFB
:1039E000280080B201F095FD0A2000F0E2FD0021E0
:1039F000012006F097FA19E006F0C7FA0A2000F055
:103A0000D8FD280080B201F084FD0C2000F0A0FB5E
:103A100022E0ADB2642D00DA6D1C06F0B6FA05E0C6
:103A2000ADB2022D00DB6D1E06F0AFFA06F00DFB05
:103A3000002801D0009B00E0019BADB22A00DFF816
:103A4000D41402A802F0A0FB0121002000F063FBC7
:103A500002A800F09BFBB2E707B030BDF40B0100F9
:103A600030B587B001F05CFE050000A8DFF8A814AF
:103A70000CC90CC0083908380C2000F069FBDFF8CD
:103A80009C0400F083FB00F050FC0400E4B2012C25
:103A900016D02CD3032C1DD023D3042C27D106F011
:103AA00074FA012000F085FD280080B201F060FE6C
:103AB000012000F07EFD0021002006F033FA16E020
:103AC00006F063FA280080B201F052FE0C2000F0EC
:103AD0003FFB22E0ADB2642D00DA6D1C06F055FA12
:103AE00005E0ADB2022D00DB6D1E06F04EFA06F0C9
:103AF000ACFA002801D0009B00E0019BADB22A0087
:103B0000DFF8101402A802F03FFB0121002000F0B2
:103B100002FB02A800F03AFBB5E707B030BD30B5B4
:103B20008BB0042001F06BF905000C2000F010FBB5
:103B3000DFF8EC0300F02AFB00F0F7FB0400E4B22E
:103B4000012C1DD02AD3032C23D024D3042C25D11F
:103B5000290089B2042001F004F90121002000F0BD
:103B6000DAFADFF8C00300F011FB280002F0A1FF31
:103B70000121002000F0CFFAD54800F007FB0DE04E
:103B8000290089B2042001F0ECF80C2000F0E0FAE2
:103B900035E06D1C02E0062D00D36D1E6420B5FBE0
:103BA000F0F00A21B0FBF1F201FB120030308DF889
:103BB00000000A20B5FBF0F00A21B0FBF1F201FB96
:103BC000120030308DF801002C208DF802000A2000
:103BD000B5FBF0F100FB115030308DF803000020F0
:103BE0008DF8040000AAD04905A802F0CDFA012101
:103BF000002000F090FA05A800F0C8FA9CE70BB08E
:103C000030BD70B586B002F0E6F9050002F02DFA7D
:103C100006000C2000F09CFA00F0F0FB00282AD0EF
:103C200000F083FB0400E4B2012C06D007D3032C80
:103C300004D004D3042C02D101E01CE0FFE72A00E9
:103C4000BA4900A802F0A0FA0021002000F063FAAF
:103C500000A800F09BFA3200B54900A802F094FADF
:103C60000121002000F057FA00A800F08FFA32205E
:103C700000F09FFCD0E706B070BD000068050100B1
:103C800038B500250C2000F063FA0021002000F078
:103C900042FAA84800F07AFA00F0B0FB00282CD0D5
:103CA00000F043FB0400E4B2012C08D00DD3032C38
:103CB00006D008D3042C08D195F0FF0505E01CE0E0
:103CC0000020050001E0FF200500322000F071FC1B
:103CD0002800C0B204F082F90121002000F01BFA94
:103CE000EDB2002D03D1944800F050FA02E0934861
:103CF00000F04CFA03F020FFCEE731BD8CF300005A
:103D000080B502F019FA80B2FCF719FD002836D010
:103D10008B4800F039F8ADF800008A4800F034F81C
:103D2000ADF80200BDF80000BDF80210884215D1C0
:103D3000BDF8000002F0E3F90C2000F009FA824817
:103D400000F024FA0121002000F0E5F97F4800F09E
:103D50001DFA40F6B83000F02CFC10E00C2000F00A
:103D6000F7F97B4800F012FA0121002000F0D3F9A6
:103D7000784800F00BFA40F6B83000F01AFC01BDAC
:103D80007C050100F4F300002DE9F04385B0040048
:103D9000002600A870490CC90CC0083908385FF02B
:103DA00000085FF001090C2000F0D2F9200000F0BB
:103DB000EDF900F023FB002875D000F0B6FA0500FD
:103DC000EDB2012D23D046D3032D23D033D3042DC0
:103DD00041D1761CF6B2042E18DB9DF800004FF49A
:103DE0007A719DF8012064235A4301FB00209DF85D
:103DF00002100A2202FB01009DF80310081800F5CA
:103E00003C50B0300700380080B24EE023E04FF65F
:103E1000FF704AE0F6B200A8305C401CF6B200A980
:103E20007054F6B200A8305C3A2803DBF6B200A862
:103E3000302131540FE0F6B200A8305C401EF6B2DB
:103E400000A97054F6B200A8305C302803DAF6B24C
:103E500000A839213154B9F101094846C0B20028FF
:103E60001DD1042081465FFA88F87FEA0808042201
:103E700000A902A802F0A2F900208DF80C005FFA58
:103E800088F8B8F1000F03D0F6B202A85F213154D0
:103E90000121062000F03FF902A800F077F9322056
:103EA00000F087FB85E74FF6FF7005B0BDE8F083B3
:103EB0009005010004F3000008080100A4050100BA
:103EC000180801007C0C0100B8050100840C0100F9
:103ED000CC050100280801003003001004F70000A1
:103EE000E005010034040010B0F80000F405010002
:103EF000780400107808010008060100880400100A
:103F000088080100D802001028F600009C0C01006F
:103F10001C06010038080100A40C01003006010055
:103F20004406010058060100C00A010048080100CB
:103F3000580801009C030100CC0A0100D80A0100C6
:103F4000E40A0100F00A010068080100AC0C01005D
:103F5000B40C0100FC0A0100BC0C010070B50400A7
:103F60000D009D48006850F080009B4908609A4809
:103F7000006850F04000984908609748006850F089
:103F80002000954908609448006850F0100092495C
:103F900008609148006850F400708F4908608E48AE
:103FA000006850F400708C4908608B48006850F439
:103FB0008070894908604FF4FA7000F0FAFA002026
:103FC0000600F6B2032E07DA032000F030F8642072
:103FD00000F0EFFA761CF4E7022000F028F8142035
:103FE00000F0E7FA54F02001C9B2002000F074F8A4
:103FF000142000F0DEFA55F00801C9B2002000F0EC
:104000006BF8142000F0D5FA55F0080073490870D9
:104010001021002000F060F80A2000F0CAFA062102
:10402000002000F059F80A2000F0C3FA70BD6C4976
:10403000096851F480716A4A116000BF00BF00BF77
:1040400000BF00BF00BFC10706D56549096851F030
:104050008001634A116005E06249096851F08001FE
:10406000604A1160810706D55D49096851F0400139
:104070005B4A116005E05B49096851F04001594A0B
:104080001160410706D55649096851F02001544A8C
:10409000116005E05349096851F02001514A11604F
:1040A000010706D54E49096851F010014C4A1160CC
:1040B00005E04C49096851F010014A4A116000BFFF
:1040C00000BF00BF00BF00BF00BF4649096851F4F0
:1040D0008071444A1160704738B504000D00E4B2A5
:1040E000002C06D03E48006850F400703C4908603F
:1040F00005E03C48006850F400703A490860EDB2B1
:104100002809FFF794FF2800C0B2FFF790FF0220B4
:1041100000F04FFA31BD38B504000D00E4B2102CA8
:1041200009DAEDB2002D06D1B4F18001C9B2002048
:10413000FFF7D2FF08E0EDB2012D05D1B4F1400147
:10414000C9B20020FFF7C8FF042000F032FA31BDE9
:1041500010B50400E4B220000A280CD00C2802D0CC
:104160000D2808D00CE001210020FFF7B5FF0C203E
:1041700000F01FFA09E002210120FFF7ADFF04E083
:104180002100C9B20120FFF7A7FF10BD10B5040040
:104190002078002804D02078FFF7DAFF641CF7E7C6
:1041A00010BD80B50D48007850F002000B49087032
:1041B0000A4801780020FFF78FFF01BD80B507484E
:1041C000007810F0FD0005490870044801780020CF
:1041D000FFF782FF01BD000000C00920F46B001052
:1041E00018C009201CC009209B480068002804D082
:1041F00099480068401E984908609848008800283F
:1042000004D096480088401E94490880944800884D
:10421000002805D092480088401E9149088083E01C
:10422000904800789049002242548E4800788E4988
:10423000405C8E490968C1F3002111F0010191F041
:104240000101C9B2084387490978874A88548748D9
:104250000068400501D5002000E00220814909786E
:10426000814A895C08437F4909787F4A88547F489E
:104270000068800501D5002000E004207949097814
:10428000794A895C084377490978774A885477489E
:104290000068400401D5002000E008207149097839
:1042A000714A895C08436F4909786F4A88546F489E
:1042B0000068800001D5002000E0102069490978DD
:1042C000694A895C084367490978674A885467489E
:1042D0000068002801D5402000E0002061490978ED
:1042E000614A895C08435F4909785F4A88545F489E
:1042F0000068400001D5202000E0002059490978DD
:10430000594A895C084357490978574A885455489F
:104310000078401C082190FBF1F202FB1102514889
:1043200002704F4806210180704710B40020010040
:104330000020C0B2082809DAC0B24B4A825C12F0F1
:104340000902092A00D1491C401CF2E7C9B205291B
:1043500001DB082050E00020C0B2052848DA002226
:1043600011000022D2B2082A09DAD2B23E4BD35C45
:1043700001248440234200D0491C521CF2E7C9B2F8
:10438000052933DB354A1288002A1BD1384A1278B6
:10439000002A0DD0364A00231370304A4FF4FA63D6
:1043A00013802D4A4EF660231360401CC0B223E0F8
:1043B0002A4A32231380284A4EF660231360401C99
:1043C000C0B219E02A4A1278002A0DD0284A0023E8
:1043D0001370224A4FF4FA6313801F4A4EF660238B
:1043E0001360401CC0B207E0002005E0401CB3E7AA
:1043F0001F4801220270002010BC70471648006858
:10440000704700200021C9B2082907DAC9B2164A4C
:104410008A5C520600D5401C491CF4E7C0B205284E
:1044200001DB012000E00020C0B270470020002125
:10443000C9B2082907DAC9B20B4A8A5C920600D5CC
:10444000401C491CF4E7C0B2052801DB012000E054
:104450000020C0B270470000706B0010F004001024
:10446000F2040010F26B00100C6B001034C0092035
:10447000F36B00102DE9FB4F82B014000E9D0F9ED0
:10448000109FDDF844803900200080B200F052FB1C
:104490008246BAF1000F75D0A4B2DAF8300010EB02
:1044A0008400001F83465FEADB0B5FEACB0BA4B2FC
:1044B000009443462A000399504600F0C6FA049A35
:1044C0000299584605F0F4FDCAF80000002E01D00C
:1044D000C6F800A005F014FEDFF820070068401CB5
:1044E000DFF818170860DFF86007006800280BD1B4
:1044F000DFF85407C0F800A0DFF8000700680128C3
:1045000011D100F0C3FA0EE0DFF840070068002880
:1045100009D1DFF834070068C06A854203D3DFF8A9
:104520002807C0F800A0DFF828070068DAF82C1088
:10453000884204D2DAF82C00DFF814170860DFF89C
:1045400014070068401CDFF80C170860DFF8080744
:104550000068DAF82C10884204D2DAF82C00DFF870
:10456000F81608601AF10401DAF82C001422DFF8BA
:10457000EC3602FB003005F04BFE0120814605F0D1
:10458000C8FD02E05FF0FF308146B9F1010F0CD1A8
:10459000DFF8B8060068002807D0DFF8AC0600682E
:1045A000C06AA84201D205F0A6FD484605B0BDE8A4
:1045B000F08F70B504000026002C2BD000F050F8CE
:1045C000DFF8A406006820180500DFF87C06006804
:1045D000001D05F04AFEDFF8700600684560DFF850
:1045E00088060068854209D2DFF85C060068011D74
:1045F000DFF87806006805F01AFE08E0DFF84806E4
:104600000068011DDFF86806006805F010FE00F084
:104610002FF80600002E01D105F06DFD70BD1FB50D
:1046200000200390002002900020019000200090C4
:1046300000235022DFF848160FF20540FFF71AFF5B
:104640000400012C0BD105F041FEDFF8000601212A
:104650000160DFF814060021016005F036FD1FBD82
:10466000DFF818060068401CDFF810160860704775
:1046700070B5002505F044FDDFF800060068401E17
:10468000DFF8F8150860DFF8F405006800285BD152
:10469000DFF868050068002856D00026DFF8D80546
:1046A0000068002804D0DFF8D005C068C46800E0C6
:1046B0000024002C23D014F1180005F0D6FD201D95
:1046C00005F0D3FDDFF890050068E16A884203D267
:1046D000E06ADFF884150860211DE06A1422DFF823
:1046E0007C3502FB003005F093FDE06ADFF85815D9
:1046F0000968C96A8842D1D301200600CEE7DFF8F5
:1047000084050068002810D0DFF8780500680028CC
:1047100009D000F01DF8DFF86C050068401EDFF8D6
:1047200064150860F0E701200600012E04D0DFF8D0
:1047300058050068012807D101200500DFF8480569
:104740000021016005F0D7FC05F0E3FC280070BDF6
:1047500010B5DFF828050068002852D1DFF80805F9
:104760000068401CDFF800150860DFF8FC040068F2
:10477000002813D1DFF8F81409680800DFF8F014F6
:10478000DFF8E82412680A60DFF8E0140860DFF858
:10479000FC140968491CDFF8F4241160DFF8D00428
:1047A00000680068002805D0DFF8C4040068C0680D
:1047B000C46800E00024002C2AD0DFF8AC040068B4
:1047C0006168884224D3201D05F04FFDA06A0028AF
:1047D00003D014F1180005F048FDDFF87C040068F0
:1047E000E16A884203D2E06ADFF86C140860211D98
:1047F000E06A1422DFF8643402FB003005F008FDA3
:10480000CCE7DFF880040068401CDFF8781408600B
:1048100010BD80B5DFF864040068002804D0DFF81C
:1048200068040121016054E0DFF81C040068006B9B
:10483000DFF8141409680968884209D3DFF808040E
:10484000006810F13401DFF80004006805F05EFE36
:104850001422DFF83C14DFF8F0030068006B05F069
:1048600057FE002809D0DFF8E003006810F134019A
:10487000DFF8D403006805F049FEDFF8DC030068C8
:104880001421DFF8D82301FB00200068002807D19D
:10489000DFF8C4030068401EDFF8BC130860ECE7D3
:1048A000DFF8B41309681422DFF8B03302FB0131DA
:1048B0000800416849684160416810F1080291426E
:1048C00002D14168496841604068C068DFF87813E8
:1048D000086001BD70B504000D00DFF86C030068CE
:1048E00010F11801200005F0A2FCDFF85C0300685D
:1048F000001D05F0BAFC15F1010F08D1DFF84803DF
:104900000068011DDFF86C0305F082FC20E0DFF891
:104910005803006828180600DFF82C03006846607A
:10492000DFF844030068864209D2DFF81C03006800
:10493000011DDFF83803006805F079FC08E0DFF8B6
:1049400008030068011DDFF82803006805F06FFC0C
:1049500070BD70B504002068002802D0E068C66809
:1049600000E0002616F1180005F07FFCDFF80C03CC
:104970000068002813D1301D05F077FCB6480068A8
:10498000F16A884202D2F06AB3490860311DF06AC8
:104990001422B24B02FB003005F03AFC04E016F1A1
:1049A0001801B54805F034FCF06AA7490968C96ADE
:1049B000884202D30120050001E000200500280004
:1049C00070BDB24909680160A74909684160704734
:1049D00070B504000D0005F093FB286810F1010F7D
:1049E00002D10020060022E0A84800682168884221
:1049F00007D09D4800686168884202D30120060004
:104A000015E0994800686168401A296888420CD20C
:104A1000286895490968401A6168081828602000CC
:104A2000FFF7CFFF0020060001E00120060005F09F
:104A300070FB300070BD9448012101607047000098
:104A400010B5040000F045F8FCE7F8B504000D00CF
:104A500016001F000C22290014F1340005F08AFD15
:104A6000002084F83F00052E01D304200600E662F2
:104A7000A664201D05F0C9FB14F1180005F0C5FB64
:104A80002461D6F10500A0616462F1BD10B500207B
:104A90000400052C07D21420704900FB041005F017
:104AA000A5FB641CF5E77B4805F0A0FB7A4805F000
:104AB0009DFB714805F09AFB694805F097FB6D482E
:104AC00005F094FB6A4873490160684872490160C7
:104AD00010BD38B56348006800282AD0FFF7C0FD34
:104AE0005F480068002801D1012400E00024E4B2FE
:104AF000FFF7BEFD002C1CD105F002FB58480068F2
:104B0000002803D05648C068C56800E00025281D6D
:104B100005F0ABFB39480068401E38490860514831
:104B20000068401E4F49086005F0F3FA280000F0C5
:104B300024F831BD70B504000D004C2005F050FD87
:104B40000600002E17D0002D04D1A4B2A00005F05D
:104B500047FD00E028003063306B002805D13000AD
:104B600005F066FD0020060005E0A4B2A200A52124
:104B7000306B05F063FD300070BD10B50400206B94
:104B800005F056FD200005F053FD10BD2E490968C3
:104B90000800704738B504002500E86A2A4909680A
:104BA000C96A884229D228480068C06AD0F1050045
:104BB000A8616869E96A1422284B02FB0131884226
:104BC00017D1281D05F051FB1F480068C06AE86234
:104BD00021480068E96A884202D2E86A1E490860F2
:104BE000291DE86A14221D4B02FB003005F010FB62
:104BF00003E015480068C06AE86231BD906B0010A0
:104C000038B504002500002C1CD0E86AA96C884245
:104C100018D0281D05F029FBA86CE862E86AD0F1DD
:104C20000500A8610C480068E96A884202D2E86A77
:104C300009490860291DE86A1422084B02FB00306C
:104C400005F0E6FA31BD0000806B0010A06B00108B
:104C5000986B0010B46B00109C6B00100069001082
:104C6000DC6A00108C6B0010946B0010886B0010D5
:104C7000846B0010F06A0010C86A0010A46B00106A
:104C8000DC0C0100A86B0010AC6B0010B06B0010C6
:104C9000E4060100A06A0010B46A0010F0B583B009
:104CA00004000D001600280C8DF80000280A8DF86D
:104CB000010028008DF80200300C8DF80300300A46
:104CC0008DF8040030008DF805000622002100A8B0
:104CD00005F0CBFC0700BFB2380A8DF8060038009B
:104CE0008DF80700082200A9E4B2844850F8240097
:104CF00005F006FFF7BD7CB504000D001600082284
:104D000000A9E4B27D4850F8240005F015FF062202
:104D1000002100A805F0A9FC01009DF806009DF8FF
:104D2000072052EA002292B289B28A4217D19DF836
:104D300000009DF801301B0253EA00409DF802304C
:104D4000184328609DF803009DF804301B0253EAC5
:104D500000409DF8053018433060FF2000E000203F
:104D600076BD70B582B004000E00B6B2300A8DF880
:104D7000000030008DF801000222002100A805F09B
:104D800074FC0500ADB2280A8DF8020028008DF8E9
:104D90000300E4B2002C08D0022C14D00CD3042C55
:104DA0001FD017D3052C23D028E0042200A94FF4EC
:104DB000885005F0A5FE21E0042200A941F204106C
:104DC00005F09EFE1AE0042200A941F2081005F049
:104DD00097FE13E0042200A941F20C1005F090FEAA
:104DE0000CE0042200A941F2101005F089FE05E054
:104DF000042200A941F2141005F082FE73BD2DE9D2
:104E0000F04182B00400E4B2002C08D0022C1CD087
:104E100010D3042C33D025D3052C3BD045E00422FD
:104E200000A94FF4885005F087FE1E200600B4202C
:104E300007003AE0042200A941F2041005F07CFECC
:104E40003C200600C82007002FE0042200A941F200
:104E5000081005F071FE4FF4FA60060044F250604D
:104E6000070022E0042200A941F20C1005F064FEC4
:104E70004FF4FA60060044F25060070015E0042287
:104E800000A941F2101005F057FE01200600C820CD
:104E900007000AE0042200A941F2141005F04CFEBC
:104EA000012006004FF47A7007000222002100A8BA
:104EB00005F0DBFB80461FFA88F89DF802009DF89C
:104EC000031051EA0020804513D19DF800009DF8A1
:104ED000011051EA00200500ADB2B6B2B54200D2D1
:104EE0003500BFB2ADB2AF4200D23D00280080B263
:104EF00001E0300080B2BDE8F6810000A8080100A2
:104F00002DE9F04782B006000F00904699460A9CB2
:104F10000B9DF6B2002E01D0012000E000208DF89C
:104F20000000FFB2002F01D0022000E000209DF819
:104F3000001008438DF800005FFA88F8B8F1000F00
:104F400001D0042000E000209DF8001008438DF8F7
:104F500000005FFA89F9B9F1000F01D0082000E0E4
:104F600000209DF8001008438DF80000E4B2002CEA
:104F700001D0102000E000209DF8001008438DF8BB
:104F80000000EDB2002D01D0202000E000209DF8AF
:104F9000001008438DF800000122002100A805F050
:104FA00064FB82461FFA8AFA5FEA1A208DF8010034
:104FB00050468DF80200032200A941F2281005F0A6
:104FC0009FFDBDE8F3872DE9F84304000D001600AE
:104FD0001F00DDF82080DDF82490032200A941F2B3
:104FE000281005F0A9FD0122002100A805F03DFBD5
:104FF00080B29DF80110B0EB012F01D1012100E03A
:105000000021C9B29DF802201143002932D09DF839
:105010000010C90701D5FF2100E0002121709DF893
:105020000010890701D5FF2100E0002129709DF8BB
:105030000010490701D5FF2100E0002131709DF8E3
:105040000010090701D5FF2100E0002139709DF80B
:105050000010C90601D5FF2100E0002188F80010EA
:105060009DF80010890601D5FF2100E0002189F894
:1050700000100DE0FF212170FF212970FF21317008
:10508000FF213970FF2188F80010FF2189F80010F6
:10509000BDE8F1831CB5062200A94FF4005005F0CD
:1050A0004BFD0422002100A805F0DFFA0400A4B2A1
:1050B0009DF804009DF8051051EA002084420ED1AD
:1050C0009DF800009DF80110090451EA00609DF868
:1050D000021050EA01209DF80310084300E0002070
:1050E00016BD30B583B00400200E8DF80000200CF2
:1050F0008DF80100200A8DF8020020008DF80300D1
:105100000422002100A805F0B0FA0500ADB2280A7B
:105110008DF8040028008DF80500062200A94FF440
:10512000005005F0EDFC37BD1CB5062200A94FF478
:10513000A85005F001FD0422002100A805F095FA11
:105140000400A4B29DF804009DF8051051EA002067
:1051500084420ED19DF800009DF80110090451EA27
:1051600000609DF8021050EA01209DF803100843EA
:1051700000E0002016BD30B583B00400200E8DF88D
:105180000000200C8DF80100200A8DF8020020009C
:105190008DF803000422002100A805F066FA05003E
:1051A000ADB2280A8DF8040028008DF8050006220B
:1051B00000A94FF4A85005F0A3FC37BD1CB506228A
:1051C00000A941F2505005F0B7FC0422002100A8CC
:1051D00005F04BFA0400A4B29DF804009DF80510F8
:1051E00051EA002084420ED19DF800009DF8011084
:1051F000090451EA00609DF8021050EA01209DF870
:105200000310084300E0002016BD30B583B0040051
:10521000200E8DF80000200C8DF80100200A8DF87A
:10522000020020008DF803000422002100A805F0F0
:105230001CFA0500ADB2280A8DF8040028008DF88C
:105240000500062200A941F2505005F059FC37BD77
:1052500010B582B0042200A941F2705005F06CFC38
:105260000222002100A805F000FA0400A4B29DF873
:1052700002009DF8031051EA0020844207D19DF8F6
:1052800000009DF8011051EA002080B200E00020EB
:1052900016BD38B50400A4B2200A8DF80000200025
:1052A0008DF801000222002100A805F0DEF90500BA
:1052B000ADB2280A8DF8020028008DF80300042200
:1052C00000A941F2705005F01BFC31BD10B582B051
:1052D000042200A94FF4AC5005F02EFC022200215C
:1052E00000A805F0C2F90400A4B29DF802009DF8E0
:1052F000031051EA0020844207D19DF800009DF878
:10530000011051EA002080B200E0002016BD38B53F
:105310000400A4B2200A8DF8000020008DF80100DE
:105320000222002100A805F0A0F90500ADB2280A6C
:105330008DF8020028008DF80300042200A94FF424
:10534000AC5005F0DDFB31BD38B50400A4B2200A35
:105350008DF8000020008DF801000222002100A835
:1053600005F083F90500ADB2280A8DF80200280087
:105370008DF80300042200A941F2905005F0C0FB13
:1053800031BD38B50400A4B2200A8DF80000200019
:105390008DF801000222002100A805F066F9050041
:1053A000ADB2280A8DF8020028008DF8030004220F
:1053B00000A941F2955005F0A3FB31BD10B582B0B4
:1053C000042200A941F2955005F0B6FB022200210B
:1053D00000A805F04AF90400A4B29DF802009DF867
:1053E000031051EA0020844218D19DF800009DF876
:1053F000011051EA00200400A4B2B4F57A6F02DA79
:105400004FF47A600400A4B244F25160844202DB9B
:1054100044F250600400200080B201E041F2883084
:1054200016BD38B50400A4B2200A8DF80000200093
:105430008DF801000222002100A805F016F90500F0
:10544000ADB2280A8DF8020028008DF8030004226E
:1054500000A94FF4AD5005F053FB31BD10B582B03B
:10546000042200A94FF4AD5005F066FB0222002192
:1054700000A805F0FAF80400A4B29DF802009DF817
:10548000031051EA0020844218D19DF800009DF8D5
:10549000011051EA00200400A4B2B4F57A6F02DAD8
:1054A0004FF47A600400A4B244F25160844202DBFB
:1054B00044F250600400200080B201E041F28830E4
:1054C00016BD10B582B0042200A941F2A55005F026
:1054D00033FB0222002100A805F0C7F80400A4B2A3
:1054E0009DF802009DF8031051EA002084420ED17D
:1054F0009DF800009DF8011051EA00200400A4B2BC
:10550000652C01DB64200400200080B200E06420F0
:1055100016BD38B50400A4B2200A8DF800002000A2
:105520008DF801000222002100A805F09EF8050078
:10553000ADB2280A8DF8020028008DF8030004227D
:1055400000A941F2A55005F0DBFA31BD10B582B0DB
:10555000042200A941F2B05005F0EEFA0222002127
:1055600000A805F082F80400A4B29DF802009DF89E
:10557000031051EA0020844215D19DF800009DF8E7
:10558000011051EA00200400A4B2002C01D1012036
:105590000400A4B2B4F5166F02DD4FF416600400E7
:1055A000200080B200E0012016BD38B50400A4B28E
:1055B000200A8DF8000020008DF801000222002151
:1055C00000A805F052F80500ADB2280A8DF80200D7
:1055D00028008DF80300042200A941F2B05005F024
:1055E0008FFA31BD10B582B0042200A941F2B55046
:1055F00005F0A2FA0222002100A805F036F8040006
:10560000A4B29DF802009DF8031051EA00208442E4
:1056100018D19DF800009DF8011051EA0020040007
:10562000A4B2B4F57A6F02DA4FF47A600400A4B23F
:1056300044F62160844202DB44F62060040020002E
:1056400080B200E0012016BD38B50400A4B2200AE3
:105650008DF8000020008DF801000222002100A832
:1056600005F003F80500ADB2280A8DF80200280005
:105670008DF80300042200A941F2B55005F040FA6C
:1056800031BD10B582B0042200A94FF4AE5005F030
:1056900053FA0222002100A804F0E7FF0400A4B29C
:1056A0009DF802009DF8031051EA0020844218D1B1
:1056B0009DF800009DF8011051EA00200400A4B2FA
:1056C000B4F57A7F02DA4FF47A700400A4B243F69C
:1056D0009920844202DB43F698200400200080B227
:1056E00000E0012016BD38B50400A4B2200A8DF8F0
:1056F000000020008DF801000222002100A804F023
:10570000B4FF0500ADB2280A8DF8020028008DF81C
:105710000300042200A94FF4AE5005F0F1F931BDA9
:1057200010B582B0042200A941F2C55005F004FA78
:105730000222002100A804F098FF0400A4B29DF802
:1057400002009DF8031051EA002084420ED19DF81A
:1057500000009DF8011051EA00200400A4B2652C5D
:1057600001DB64200400200080B200E0642016BD4C
:1057700038B50400A4B2200A8DF8000020008DF88E
:1057800001000222002100A804F06FFF0500ADB265
:10579000280A8DF8020028008DF80300042200A9D1
:1057A00041F2C55005F0ACF931BD10B582B004220C
:1057B00000A941F2D05005F0BFF90222002100A853
:1057C00004F053FF0400A4B29DF802009DF80310FA
:1057D00051EA002084420ED19DF800009DF801108E
:1057E00051EA00200400A4B2652C01DB642004000F
:1057F000200080B200E0012016BD38B50400A4B23C
:10580000200A8DF8000020008DF8010002220021FE
:1058100000A804F02AFF0500ADB2280A8DF80200A6
:1058200028008DF80300042200A941F2D05005F0B1
:1058300067F931BD38B50400A4B2200A8DF8000024
:1058400020008DF801000222002100A804F00DFFC5
:105850000500ADB2280A8DF8020028008DF803007B
:10586000042200A941F2D45005F04AF931BD10B527
:1058700082B0042200A941F2D45005F05DF9022261
:10588000002100A804F0F1FE0400A4B29DF802007B
:105890009DF8031051EA0020844210D19DF80000C9
:1058A0009DF8011051EA00200400A4B2B4F5FA7F7B
:1058B00002DD4FF4FA700400200080B200E0012005
:1058C00016BD30B583B00400200E8DF80000200C0A
:1058D0008DF80100200A8DF8020020008DF80300E9
:1058E0000422002100A804F0C0FE0500ADB2280A81
:1058F0008DF8040028008DF80500062200A941F269
:10590000D85005F0FDF837BD1CB5062200A941F2BC
:10591000D85005F011F90422002100A804F0A5FEDA
:105920000400A4B29DF804009DF8051051EA00207F
:1059300084420ED19DF800009DF80110090451EA3F
:1059400000609DF8021050EA01209DF80310084302
:1059500000E0002016BD38B50400E4B2002C01D0F0
:10596000FF2004008DF800400122002100A804F06F
:105970007CFE0500ADB2280A8DF8010028008DF8E4
:105980000200032200A94FF4B05005F0B9F831BD70
:1059900010B582B0032200A94FF4B05005F0CCF846
:1059A0000122002100A804F060FE0400A4B29DF8CA
:1059B00001009DF8021051EA0020844202D19DF8B6
:1059C000000000E0002016BD38B50400A4B2200A93
:1059D0008DF8000020008DF801000222002100A8AF
:1059E00004F043FE0500ADB2280A8DF8020028003D
:1059F0008DF80300042200A941F2106005F080F840
:105A000031BD10B582B0042200A941F2106005F04A
:105A100093F80222002100A804F027FE0400A4B29B
:105A20009DF802009DF8031051EA0020844207D13E
:105A30009DF800009DF8011051EA002080B200E0BE
:105A4000412016BD10B582B0042200A941F20860C1
:105A500005F072F80222002100A804F006FE0400FE
:105A6000A4B29DF802009DF8031051EA0020844280
:105A700007D19DF800009DF8011051EA002080B286
:105A800000E0052016BD70B586B004000D0011229F
:105A9000290000A800F092FB1122002100A804F0C8
:105AA000E4FD0600B6B2300A8DF8110030008DF822
:105AB0001200132200A9E4B2132000FB04F010F539
:105AC000B85005F01DF806B070BD70B596B0040072
:105AD0000D0005A8DFF8A816442203F033FF1322B7
:105AE00000A9E4B2132000FB04F010F5B85005F053
:105AF00023F81122002100A804F0B7FD0600B6B279
:105B00009DF811009DF8121051EA0020864205D13F
:105B1000112200A9280000F051FB08E01122E4B294
:105B2000112005A900FB0411280000F047FB16B066
:105B300070BD38B50400E4B2002C01D0FF20040091
:105B40008DF800400122002100A804F08EFD050020
:105B5000ADB2280A8DF8010028008DF8020003225A
:105B600000A94FF4C85004F0CBFF31BD10B582B08E
:105B7000032200A94FF4C85004F0DEFF01220021E7
:105B800000A804F072FD0400A4B29DF801009DF885
:105B9000021051EA0020844202D19DF8000000E08A
:105BA000002016BD38B50400A4B2200A8DF800000C
:105BB00020008DF801000222002100A804F055FD0C
:105BC0000500ADB2280A8DF8020028008DF8030008
:105BD000042200A941F6041004F092FF31BD10B573
:105BE00082B0042200A941F6041004F0A5FF0222AD
:105BF000002100A804F039FD0400A4B29DF80200C1
:105C00009DF8031051EA0020844218D19DF800004D
:105C10009DF8011051EA00200400A4B2B4F57A6F97
:105C200002DA4FF47A600400A4B244F25160844274
:105C300002DB44F250600400200080B201E041F237
:105C4000707016BD10B582B0042200A941F608108C
:105C500004F072FF0222002100A804F006FD0400F7
:105C6000A4B29DF802009DF8031051EA002084427E
:105C700013D19DF800009DF8011051EA00200400A6
:105C8000A4B2322C01DA32200400A4B28D2C01DB44
:105C90008C200400200080B200E0502016BD38B5F2
:105CA0000400A4B2200A8DF8000020008DF8010045
:105CB0000222002100A804F0D8FC0500ADB2280A99
:105CC0008DF8020028008DF80300042200A941F697
:105CD000081004F015FF31BD38B50400A4B2200A45
:105CE0008DF8000020008DF801000222002100A89C
:105CF00004F0BBFC0500ADB2280A8DF802002800B4
:105D00008DF80300042200A94FF4F95004F0F8FEC6
:105D100031BD10B582B0042200A94FF4F95004F04F
