:10000000286F0010F1120100B5140100B9140100AD
:10001000BD140100C1140100C51401003616F9EF2A
:10002000000000000000000000000000CDA800005B
:10003000CD140100000000007BA8000011A7000003
:10004000D91401007BA50000A7730000C97200004D
:10005000E914010085AC00007F850000000000006D
:1000600087E50000FD1401000115010005150100E0
:10007000091501000D1501001115010015150100EC
:10008000191501001D15010021150100F77200006E
:10009000291501007F7D0000311501003515010093
:1000A000391501003D1501004115010045150100FC
:1000B000451501004D1501005115010055150100B0
:0400C00059150100CD
:1003000038B500250C2004F09FF82800C0B200F09A
:1003100055F804F0EFF900284CD004F082F90400FD
:10032000E4B2012C06D03AD3032C16D006D3042C09
:100330001FD034E00C2004F087F83EE0EDB2002D31
:1003400003D0EDB228006D1E02E008252800C0B2DF
:100350002800C0B200F032F821E0EDB2681C09219B
:1003600090FBF1F201FB12052800C0B200F026F864
:1003700015E0EDB2DFF8B40750F8250000280AD0E8
:10038000EDB2DFF8A80750F8250080472800C0B27A
:1003900000F014F803E00C2004F056F80DE03220D1
:1003A00004F083FADFF868080068401CDFF8601882
:1003B0000860AEE70C2004F047F831BD10B504002A
:1003C0000021002004F023F8DFF8C00704F05AF8F9
:1003D0000121002004F01BF8E4B2DFF8380850F8DF
:1003E000240004F04FF80121002004F010F87E20D2
:1003F00004F02AF810BD38B500250C2004F024F8CC
:100400002800C0B200F043F804F074F900283DD091
:1004100004F007F90400E4B2012C18D032D3032C05
:1004200025D015D3042C2DD1EDB2DFF8480850F8B3
:10043000250000280AD0EDB2DFF8380850F8250072
:1004400080472800C0B200F022F81BE01EE01DE04B
:10045000EDB2002D03D0EDB228006D1E02E007259D
:100460002800C0B22800C0B200F011F80AE0EDB2D6
:10047000681C082190FBF1F505FB11052800C0B2AE
:1004800000F005F8322004F010FABDE731BD10B5D8
:1004900004000021002003F0BAFFDFF8DC0703F0BE
:1004A000F1FF0121002003F0B2FFE4B2DFF864089D
:1004B00050F8240003F0E6FF0121002003F0A7FF1D
:1004C0007E2003F0C1FF10BD30B585B0002004F0E0
:1004D00012FE05000C2003F0B7FFDFF8A00703F0C1
:1004E000D1FF04F007F900282FD004F09AF8040097
:1004F000E4B2012C0AD016D3032C10D00AD3042C5A
:1005000011D1290089B2002004F0A7FD0C2003F0CE
:100510009BFF1AE0ADB21F2D00DB6D1E03E0ADB2F4
:10052000B42D00DA6D1CADB22A00DFF8741800A8F3
:1005300006F09AF80121062003F069FF00A803F0F5
:10054000A1FF322004F0B1F9CBE705B030BD30B5E2
:1005500085B0012004F0CFFD05000C2003F074FFEE
:10056000DFF8B40703F08EFF04F0C4F800282FD0A2
:1005700004F057F80400E4B2012C0AD016D3032C7F
:1005800010D00AD3042C11D1290089B2012004F023
:1005900064FD0C2003F058FF1AE0ADB23D2D00DBE6
:1005A0006D1E03E0ADB2C82D00DA6D1CADB22A009D
:1005B000DFF8F81700A806F057F80121062003F02D
:1005C00026FF00A803F05EFF322004F06EF9CBE7AF
:1005D00005B030BD30B585B0022004F08CFD0500BB
:1005E0000C2003F031FFDFF8BC0703F04BFF04F0F1
:1005F00081F800285CD004F014F80400E4B2012C67
:100600000AD03ED3032C23D00AD3042C39D129009D
:1006100089B2022004F021FD0C2003F015FF47E011
:10062000ADB2B5F5FA6F12DDDFF87C07006841F274
:100630008931884201D36D1E09E0DFF86C0700683C
:1006400040F6B931884201D30A3D00E0643D1DE027
:10065000ADB244F25060854212DADFF84C07006810
:1006600041F28931884201D36D1C09E0DFF8380777
:10067000006840F6B931884201D30A3500E064359C
:1006800004E0DFF8240741F288310160ADB22A00AE
:10069000DFF8F01700A805F0E7FF0121032003F0C1
:1006A000B6FE00A803F0EEFE322004F0FEF89EE74E
:1006B00005B030BD30B585B0052004F01CFD050047
:1006C0000C2003F0C1FEDFF8C00703F0DBFE04F0EE
:1006D00011F8002834D003F0A4FF0400E4B2012C88
:1006E0000AD01BD3032C13D00AD3042C16D1290013
:1006F00089B2052004F0B1FC0C2003F0A5FE1FE038
:10070000ADB2022D01DB6D1E01E00020050005E009
:10071000ADB240F2E730854200DA6D1CADB22A007E
:10072000DFF8441800A805F09FFF0121032003F023
:100730006EFE00A803F0A6FE322004F0B6F8C6E76D
:1007400005B030BD2DE9F04385B00400002600A8B7
:10075000DFF818180CC90CC0083908385FF0000819
:100760005FF001090C2003F06FFEDFF8040803F0CE
:1007700089FE03F0BFFF002800F0908003F051FFD6
:100780000500EDB2012D3ED060D3032D3DD04DD3F9
:10079000042D5BD1761CF6B2042E33DB9DF80000ED
:1007A0004FF47A719DF8012064235A4301FB002025
:1007B0009DF802100A2202FB01009DF803100818A0
:1007C00000F53C50B0300700BFB2A4B2A74201D13F
:1007D000FF2064E00C2003F037FEDFF81C0803F074
:1007E00051FE0121002003F012FEDFF8100803F093
:1007F00049FE40F6B83004F058F80C2003F024FE0F
:1008000000204CE022E0002049E0F6B200A8305C75
:10081000401CF6B200A97054F6B200A8305C3A2829
:1008200003DBF6B200A8302131540FE0F6B200A885
:10083000305C401EF6B200A97054F6B200A8305CDD
:10084000302803DAF6B200A839213154B9F1010990
:100850004846C0B200281DD1042081465FFA88F8BE
:100860007FEA0808042200A902A805F017FF00206B
:100870008DF80C005FFA88F8B8F1000F03D0F6B2DB
:1008800002A85F2131540121062003F0C0FD02A817
:1008900003F0F8FD322004F008F86AE7002005B004
:1008A000BDE8F08330B585B000250DF10D00019055
:1008B00003A800900DF10B030DF10A020DF10901DF
:1008C00002A804F0FCFC0C2003F0BEFDDFF85C0A7B
:1008D00003F0D8FDEDB202A8295C2800C0B200F0F8
:1008E0005AF803F007FF002853D003F09AFE0400E3
:1008F000E4B2012C28D048D3032C26D034D3042CC6
:1009000043D1EDB2062D10D19DF80D0001909DF858
:100910000C0000909DF80B309DF80A209DF80910FE
:100920009DF8080004F068FC33E0EDB202A8285CF2
:10093000C043EDB202A96854EDB202A8295C2800B8
:10094000C0B200F028F820E023E0EDB2681C0721D7
:1009500090FBF1F201FB1205EDB202A8295C280020
:10096000C0B200F018F810E0EDB2002D03D0EDB2E7
:1009700028006D1E02E006252800C0B2EDB202A8D4
:10098000295C2800C0B200F006F8322003F08DFF89
:10099000A7E705B030BD38B504000D0001210020E7
:1009A00003F035FDE4B2DFF8A40A50F8240003F0A8
:1009B00069FDE4B2062C09DAEDB2002D06D0012162
:1009C000022003F024FD582003F03EFD31BD10B598
:1009D00005F031FD80B2FFF7B5FE002833D00C20C2
:1009E00003F032FDDFF8480903F04CFD012100203F
:1009F00003F00DFDDFF83C0903F044FD03F07AFE3F
:100A0000002820D003F00DFE0400E4B220000128ED
:100A100018D00428F2D1082005F066FE0C2003F05F
:100A200013FDDFF82C0A03F02DFD0121002003F057
:100A3000EEFCDFF8780A03F025FD41F2883003F080
:100A400034FFDBE7FFE710BD38B5002505F0F3FC08
:100A500080B2FFF777FE00284AD00C2003F0F4FCA8
:100A60002800C0B200F045F803F044FE00283FD053
:100A700003F0D7FD0400E4B2012C17D034D3032CCB
:100A800018D023D3042C2FD1EDB2DFF8E00A50F8B0
:100A9000250000280AD0EDB2DFF8D00A50F8250072
:100AA00080472800C0B200F024F81DE00C2003F0BD
:100AB000CBFC1DE0EDB2681C082190FBF1F505FBB5
:100AC00011052800C0B200F014F80DE0EDB2002DC1
:100AD00003D0EDB228006D1E02E007252800C0B249
:100AE0002800C0B200F005F8642003F0DEFEBBE78A
:100AF00031BD10B504000021002003F088FCDFF8B0
:100B0000B00903F0BFFC0121002003F080FCE4B237
:100B1000DFF85C0A50F8240003F0B4FC0121002047
:100B200003F075FC7E2003F08FFC10BDA4FD0000D7
:100B300030B585B004F074FC05002A00DFF8381ADF
:100B400000A805F091FD0C2003F07EFCDFF8E80A18
:100B500003F098FC0121002003F059FC00A803F0E9
:100B600091FC03F0C7FD00280DD003F05AFD0400EE
:100B7000E4B22000012801D0042800D103E0642061
:100B800003F093FEEDE705B030BD0000880E0100D4
:100B900010B50C2003F058FCDFF8E00903F072FCFC
:100BA0000121002003F033FCDFF8D40903F06AFCD4
:100BB00003F037FD0400E4B2042C01D105F0E0FDA0
:100BC000E4B2012CF4D105F036FC80B2FFF7BAFD97
:100BD00000281BD00C2003F037FCDFF8A80903F035
:100BE00051FC0121002003F012FCDFF8500A03F051
:100BF00049FC002004F03BFC002004F0DEFF002054
:100C000005F08FFB41F2883003F04FFE10BD00006D
:100C10006C6B00108803001030B585B004F04AFCFE
:100C200005002A00DFF8501900A805F01DFD0C2072
:100C300003F00AFCDFF8100A03F024FC0121002075
:100C400003F0E5FB00A803F01DFC03F053FD0028B2
:100C50000DD003F0E6FC0400E4B22000012801D02E
:100C6000042800D103E0642003F01FFEEDE705B087
:100C700030BD0000F4FD0000980E0100D408010012
:100C800030B585B004F060FC05000C2003F0DCFBFF
:100C9000DFF8B80903F0F6FB03F02CFD002836D08E
:100CA00003F0BFFC0400E4B2012C09D01DD3032CD7
:100CB0000AD010D3042C18D1280080B204F065FCAF
:100CC0000C2003F0C1FB22E00A35ADB2792D01DB27
:100CD0000020050009E0ADB2002D03D00A3D280038
:100CE00080B202E07825280080B2ADB22A00DFF899
:100CF000FC1900A805F0B8FC0121062003F087FBD1
:100D000000A803F0BFFB642003F0CFFDC4E705B0EB
:100D100030BD0000AC030010E808010038B504F055
:100D200051FC0500ADB2002D03D04FF6FF70050059
:100D300001E0002005000C2003F086FBDFF8A80985
:100D400003F0A0FB03F0D6FC002827D003F069FCD9
:100D50000400E4B2012C09D00ED3032C0AD009D32D
:100D6000042C09D1280080B204F04DFC0C2003F0C3
:100D70006BFB13E0ADB2ED430121062003F047FB0E
:100D8000ADB2002D03D076A003F07CFB02E075A08D
:100D900003F078FB642003F088FDD3E731BD000049
:100DA0007C130100FC0801009C6B001084130100FF
:100DB00030B585B004F07EFC05000C2003F044FB48
:100DC000DFF8A80903F05EFB03F094FC002856D07E
:100DD00003F027FC0400E4B2012C09D039D3032C22
:100DE00020D009D3042C34D1280080B204F045FC73
:100DF0000C2003F029FB42E0ADB2B5F5FA6F10DD2F
:100E0000DFF86C090068B0F57A7F01D96D1E08E043
:100E1000DFF85C090068B0F5FA7F01D90A3D00E00F
:100E2000643D1BE0ADB244F25060854210DADFF859
:100E300040090068B0F57A7F01D96D1C08E0DFF841
:100E400030090068B0F5FA7F01D90A3500E0643551
:100E500004E0DFF81C0940F6B8310160ADB22A00A9
:100E6000084900A805F000FC0121032003F0CFFA97
:100E700000A803F007FB322003F017FDA4E705B03C
:100E800030BD0000341101001009010030B585B0FB
:100E900004F060FC05000C2003F0D6FADFF8F80936
:100EA00003F0F0FA03F026FC002857D003F0B9FB5A
:100EB0000400E4B2012C09D039D3032C20D009D38B
:100EC000042C34D1280080B204F027FC0C2003F05D
:100ED000BBFA43E0ADB2B5F5FA6F10DDDFF890086C
:100EE0000068B0F57A7F01D96D1E08E0DFF8800850
:100EF0000068B0F5FA7F01D90A3D00E0643D1BE0CF
:100F0000ADB244F25060854210DADFF86408006840
:100F1000B0F57A7F01D96D1C08E0DFF8540800684D
:100F2000B0F5FA7F01D90A3500E0643504E0DFF856
:100F3000400840F6B8310160ADB22A00DFF8601A0F
:100F400000A805F091FB0121032003F060FA00A83E
:100F500003F098FA322003F0A8FCA3E705B030BDF7
:100F600053494D004E414F00401101008C130100C8
:100F70002409010030B585B004F064FC05000C20A4
:100F800003F062FADFF8240A03F07CFA03F0B2FB04
:100F900000282ED003F045FB0400E4B2012C09D058
:100FA00015D3032C0FD009D3042C10D1280080B204
:100FB00004F077FC0C2003F047FA1AE0ADB2022DE2
:100FC00000DB6D1E03E0ADB2782D00DA6D1CADB212
:100FD0002A00DFF8E01A00A805F046FB01210620F0
:100FE00003F015FA00A803F04DFA322003F05DFC7F
:100FF000CCE705B030BD0000941301004C11010096
:1010000030B585B004F06AFC05000C2003F01CFA32
:10101000DFF8A40A03F036FA03F06CFB00285AD07C
:1010200003F0FFFA0400E4B2012C09D03CD3032CF6
:1010300023D009D3042C37D1280080B204F080FCDF
:101040000C2003F001FA46E0ADB241F2893085424E
:1010500012DBDFF81C07006841F28931884201D3B6
:101060006D1E09E0DFF80807006841F28931884207
:1010700001D30A3D00E0643D1BE0ADB244F2506094
:10108000854210DADFF8E8060068B0F57A7F01D90A
:101090006D1C08E0DFF8D8060068B0F5FA7F01D9CA
:1010A0000A3500E0643504E0DFF8C40640F6B831E4
:1010B0000160ADB22A00DFF8E81800A805F0D4FA04
:1010C0000121062003F0A3F900A803F0DBF9322088
:1010D00003F0EBFBA0E705B030BD000038B50025FC
:1010E0002800C0B200F044F803F004FB00283DD013
:1010F00003F097FA0400E4B2012C18D032D3032C89
:1011000025D015D3042C2DD1EDB2DFF8DC0A50F830
:10111000250000280AD0EDB2DFF8CC0A50F82500EF
:1011200080472800C0B200F023F81BE01EE01DE05D
:10113000EDB2002D03D0EDB228006D1E02E01225A5
:101140002800C0B22800C0B200F012F80AE0EDB2E8
:10115000681C132190FBF1F201FB12052800C0B2BC
:1011600000F006F8322003F0A0FBBDE731BD00001F
:1011700010B504000021002003F049F9DFF86C0AE3
:1011800003F080F90121002003F041F9E4B2DFF817
:10119000600A50F8240003F075F90121002003F0E3
:1011A00036F97E2003F050F910BD7FB50C2003F016
:1011B0004BF9DFF8400A03F065F903F032FA040056
:1011C000E4B2012C19D005F0D5FD05F035FE05007F
:1011D000280005F045FE06003200DFF81C1A00A8C2
:1011E00005F042FA0121002003F011F900A803F0F4
:1011F00049F9642003F059FBDFE77FBD70B586B085
:101200000C2003F021F9DFF8F40903F03BF9042086
:1012100003F071FF050003F004FA0400E4B2012CAE
:1012200046D0E4B2042C1DD10121002003F0EFF8D8
:10123000DFF8CC0903F026F90121002003F0E7F8DC
:10124000280005F026FE002804D0DFF8B80903F0D6
:1012500019F903E0DFF8B00903F014F940F6B830EB
:1012600003F023FB05F0C8FD0600B6B23200DFF83C
:101270009C1900A805F0F8F90121012003F0C7F836
:1012800000A803F0FFF80121082003F0C0F805F0E2
:1012900034FE002804D0DFF8780903F0F3F803E007
:1012A000DFF8700903F0EEF8642003F0FEFAB2E70D
:1012B00006B070BD38B50C2003F0C6F8DFF8580949
:1012C00003F0E0F803F0ADF90400E4B220000128D7
:1012D00014D0042813D10121002003F098F8DFF87E
:1012E0003C0903F0CFF805F032FE0121002003F0A5
:1012F0008EF8DFF82C0903F0C5F800E014E005F0E3
:1013000057FE05000121052003F081F8EDB2002D04
:1013100003D098A003F0B6F802E0C6A003F0B2F83C
:10132000642003F0C2FACDE731BD000038090100A6
:101330004C090100600901002DE9F04385B05FF020
:10134000000841F288364FF4E1670C2003F07CF886
:10135000DFF8D00803F096F803F063F90400E4B274
:10136000012C17D02ED3032C15D020D3042C29D137
:101370005FFA88F87FEA08085FFA88F8B8F1000F8A
:1013800004D0B6B2300006F048F802E0002006F0C3
:1013900044F817E057E0DFF8D80340F6B8310160B1
:1013A000B6B243F2C820864200DA64360AE0DFF8BB
:1013B000C00340F6B8310160B6B241F289308642CE
:1013C00000DB643EDFF8A803006800280DD1B6B248
:1013D000BFB2BE4209D05FFA88F8B8F1000F04D05E
:1013E000B6B2300006F019F837005FFA88F8B8F1A5
:1013F000000F02D00FF2482901E00FF24829DFF870
:1014000070030068002802D0B6B2300001E006F098
:101410003BF84B460200DFF89C1A00A805F024F9BF
:1014200000A806F0FFF805000121EDB2D5F110008B
:101430004010C0B202F0EBFF00A803F023F86420D4
:1014400003F033FA88E705B0BDE8F083EC03001041
:101450007409010010B586B00C2002F0F5FFDFF82A
:10146000500A03F00FF8FF2006F02DF803F0D9F82A
:101470000400E4B2012C03D1002006F024F813E0AC
:1014800005F08EFF80B20200DFF82C1A00A805F0EC
:10149000EBF80121052002F0BAFF00A802F0F2FFEC
:1014A000642003F002FAE1E706B010BD88090100EC
:1014B0009C09010070B50025042003F01CFE060005
:1014C0000C2002F0C1FFDFF8F40902F0DBFF03F0AB
:1014D000A8F80400E4B2012C32D032D3032C0FD090
:1014E0000ED3042C2DD1EDB2ED43EDB2002D03D07F
:1014F000012005F00EFD02E0002005F00AFD20E0CD
:101500000121002002F083FFDFF8F40602F0BAFFA9
:101510000121002002F07BFFB6B2300005F0B9FCDB
:10152000002804D0DFF8DC0602F0ACFF03E0DFF8AF
:10153000D80602F0A7FF40F6B83003F0B6F900E095
:1015400013E00121002002F062FFEDB2002D04D073
:10155000DFF86C0902F096FF03E0DFF8A40A02F05E
:1015600091FF642003F0A1F9B1E770BD14FE000003
:10157000CC0300105B315D0058110100C40901006B
:10158000D80901006411010070B586B00025002063
:1015900006F064FB0C2002F057FFDFF8680A02F047
:1015A00071FF03F03EF80400E4B2012C15D017D30C
:1015B000032C03D002D3042C03D011E006F0A8FBC7
:1015C0000EE0EDB2ED432800C0B206F080FB002231
:1015D0000021002006F0E5FE02E006F099FB27E07E
:1015E00006F0C1F90600300006F096FF02000B007D
:1015F000DFF8141A00A805F037F80121002002F0E6
:1016000006FF00A802F03EFF0121082002F0FFFEC5
:10161000EDB2002D04D0DFF8F40902F033FF03E04F
:10162000DFF8940A02F02EFF642003F03EF9B8E7D9
:1016300006B070BD5B305D00B009010070110100A3
:101640004F4E00004F464600EC090100000A010021
:1016500070B5052501260C2002F0F6FEDFF85C0AC5
:1016600002F010FF02F0DDFF0400E4B2012C39D0DB
:101670006D1E2800C0B2002830D1052005000022D0
:101680000021012006F08DFE00220021022006F03C
:1016900088FE00220021032006F083FE00220021A4
:1016A000042006F07EFE00220021052006F079FECF
:1016B00000220021062006F074FE012200210720EE
:1016C00006F06FFE012201213000C0B206F069FE73
:1016D000761CF6B2082E01DB01200600642003F020
:1016E000E4F8BFE770BD0000140A01007C1101009E
:1016F00038B504F0D6F90500ADB2002D02D04FF692
:10170000FF7005000C2002F09FFEDFF8100B02F0C6
:10171000B9FE02F0EFFF002827D002F082FF04009C
:10172000E4B2012C09D00ED3032C0AD009D3042C27
:1017300009D1280080B204F0DCF90C2002F084FE0C
:1017400013E0ADB2ED430121062002F060FEADB220
:10175000002D03D093A002F095FE02E092A002F0CB
:1017600091FE642003F0A1F8D3E731BD280A0100FF
:101770009C6B001030B583B000250C2002F064FE95
:10178000DFF89C0A02F07EFE04F0EDF9050002F09D
:10179000B1FF00285BD002F044FF0400E4B2012C4A
:1017A00009D00FD3032C07D008D3042C0AD128006A
:1017B00080B204F0BBF94AE06D1C03E0ADB2022D2B
:1017C00000DB6D1EADB24FF47A7095FBF0F00A218C
:1017D00090FBF1F201FB120030308DF80000ADB249
:1017E000642095FBF0F00A2190FBF1F201FB12005E
:1017F00030308DF80100ADB20A2095FBF0F00A21DF
:1018000090FBF1F201FB120030308DF802002E2027
:101810008DF80300ADB20A2095FBF0F100FB1150EA
:1018200030308DF8040020208DF8050025208DF83B
:10183000060000208DF807000121062002F0E7FDD8
:1018400000A802F01FFE642003F02FF89FE737BDC9
:1018500010B50C2002F0F8FDDFF8D00902F012FEFE
:1018600002F0DFFE0400E4B2012C14D001210320B9
:1018700002F0CDFD02F056FF002804D0DFF8B009D9
:1018800002F000FE03E0DFF8AC0902F0FBFD64208B
:1018900003F00BF8E4E710BD3C0A010010B50C2082
:1018A00002F0D2FDDFF8900902F0ECFD02F0B9FE83
:1018B0000400E4B2012C14D00121032002F0A7FDA2
:1018C00002F01BFF002804D0DFF8640902F0DAFD03
:1018D00003E0DFF8600902F0D5FD642002F0E5FFC7
:1018E000E4E710BD1CB50C2002F0AEFDDFF84C099A
:1018F00002F0C8FD02F095FE0400E4B2012C1CD0F9
:101900000121032002F083FD0020019000200090BF
:10191000002300220021012006F09DFE002804D0B3
:10192000DFF81C0902F0AEFD03E0DFF81C0902F04D
:10193000A9FD642002F0B9FFDCE713BD38B500252E
:101940000C2002F081FDDFF8FC0802F09BFD02F0A4
:1019500068FE0400E4B22000012804D0042806D167
:1019600095F0FF0503E0002004F0EDFE17E02800ED
:10197000C0B204F0E8FE0121032002F048FDEDB200
:10198000002D04D0DFF8C40802F07CFD03E0DFF88E
:10199000C00802F077FD642002F087FFD7E731BD71
:1019A0003411010053494D004E414F00500A0100CF
:1019B00030B585B077250C2002F046FDDFF894089D
:1019C00002F060FD022003F096FB80B205F025FDD9
:1019D0006421732005F055FD02F023FE0400E4B2FB
:1019E000012C08D01FD3032C0DD013D3042C1AD1F3
:1019F0000020050017E0002005F00FFD0021002069
:101A000005F03FFD54E06D1C6421ADB2280005F0E7
:101A100038FD08E0ADB2002D00D06D1E6421ADB2DE
:101A2000280005F02EFD01210A2002F0F0FC5B20C9
:101A30008DF80000ADB24FF47A7095FBF0F00A21FA
:101A400090FBF1F201FB120030308DF80100ADB2D5
:101A5000642095FBF0F00A2190FBF1F201FB1200EB
:101A600030308DF80200ADB20A2095FBF0F00A216B
:101A700090FBF1F201FB120030308DF80300ADB2A3
:101A80000A2095FBF0F100FB115030308DF8040076
:101A90005D208DF8050000208DF8060000A802F0FA
:101AA000F1FC002007F000FB642002F0FEFE93E74B
:101AB00005B030BD88110100640A010000B583B093
:101AC00040F68E40FEF73EFE002803D10C2002F0C7
:101AD000BBFC46E00521052003F0BFFA50210020A1
:101AE00003F0BBFA6421012003F0B7FA41F27C5104
:101AF000022003F0B2FA502003F0A2FD28210420B6
:101B000003F0ABFA42F6E06003F0B7FD42F6E060A6
:101B100003F003FE032003F0C4FE43F2B06003F0C1
:101B20000FFF41F27C5003F05AFF0F2003F06DFECF
:101B3000142003F099FF0C2002F086FC502004F0E2
:101B4000BFF8002001900020009000230022012116
:101B5000012003F051FB0A2003F017FD012003F0E0
:101B600052FD07BD38B504F066FC80B2FEF7EAFD11
:101B7000002803D10C2002F067FC34E00C2002F0B6
:101B800063FCDFF8BC0702F07DFC04F07DF8050083
:101B900002F0B0FD002826D002F043FD0400E4B2BC
:101BA000012C09D00BD3032C07D006D3042C06D16B
:101BB0002800C0B204F04BF815E095F0FF050121B4
:101BC000052002F024FCEDB2002D04D0DFF89C07C4
:101BD00002F058FC03E0DFF8980702F053FC3220D3
:101BE00002F063FED4E731BDACFA0000780A0100D0
:101BF0008C020010A80E01009C130100B80E010019
:101C0000C80E0100D80E0100E80E0100A413010067
:101C1000AC130100B413010094110100A0110100E4
:101C2000AC110100F80E01002DE9F0478AB0002543
:101C300000260127DFF83C07006808F0D3F808F019
:101C4000E1F842F2107190FBF1F201FB12090C2055
:101C500002F0FAFB1FFA89F94A46DFF81C1700A8C0
:101C600004F002FD00A802F00DFC0121002002F0AA
:101C7000CEFBDFF8080702F005FCDFF8041700A828
:101C800004F0F2FC02F036FD002800F0CD8002F0F6
:101C9000C8FC0400E4B2012C00F08180C0F0A180F7
:101CA000032C7DD0C0F08D80042C40F09A80EDB2E2
:101CB000052D72DB9DF80000DFF8C8169DF80120A5
:101CC00042F210735A4301FB00209DF802104FF4BA
:101CD0007A7202FB01009DF80310642202FB0100EE
:101CE0009DF804100A2202FB01009DF80510081857
:101CF000DFF8941611EB000A5FEA8A3A5FEA9A3A33
:101D000050468004800C40F6BC31484080460C2090
:101D100002F09AFB1FFA88F81FFA89F9C8452BD1FF
:101D2000DFF8680602F0AEFB0121002002F06FFB35
:101D3000DFF8BC0702F0A6FB002004F04CF90020FD
:101D400003F04BFB002003F092FB002003F0D9FBD3
:101D5000002003F032FF002004F0EBF9002004F033
:101D6000E0FA002004F027FB002004F034F941F2EF
:101D7000883002F09AFD0BE0DFF8780702F082FB72
:101D80000121002002F043FBDFF86C0702F07AFB30
:101D900040F6B83002F089FD46E06D1C21E043E0DA
:101DA000EDB200A8285C401CEDB200A96854EDB269
:101DB00000A8285C3A2803DBEDB200A830212954A2
:101DC0000FE0EDB200A8285C401EEDB200A96854F7
:101DD000EDB200A8285C302803DAEDB200A8392162
:101DE00029547F1E3800C0B2002819D104200700F2
:101DF000F6B2F643112200A905A804F04FFC00201A
:101E00008DF81B00F6B2002E03D0EDB205A85F21BD
:101E100029540121072002F0FAFA05A802F032FB4A
:101E2000322002F042FD2DE70AB0BDE8F08730B560
:101E300085B003F062FF05000C2002F005FBDFF81F
:101E4000BC0602F01FFB02F055FC00282ED002F069
:101E5000E8FB0400E4B2012C09D015D3032C0FD009
:101E600009D3042C10D1280080B203F029FF0C20E4
:101E700002F0EAFA1AE0ADB2242D00DB6D1E03E099
:101E8000ADB2C82D00DA6D1CADB22A00DFF85018D3
:101E900000A804F0E9FB0121062002F0B8FA00A82E
:101EA00002F0F0FA322002F000FDCCE705B030BDC0
:101EB0008C0A0100080F0100BC130100A00A0100F8
:101EC000B81101002DE9F0419CB004000AA8DFF828
:101ED0007018442208F016F85FF000080026012769
:101EE0000C2002F0B1FA0021002002F090FAE4B2D6
:101EF00011200AA900FB041002F0C4FA02F0CDFA86
:101F000000A92000C0B203F05CFF02F0F3FB002840
:101F100073D002F086FB0500EDB2012D13D04AD339
:101F2000032D2DD012D3042D45D118F101085FFAED
:101F300088F8B8F1100F05DB00A92000C0B203F04B
:101F40001EFF5AE037E002F0B5FA56E05FFA88F873
:101F500000A818F80000202806D15FFA88F800A829
:101F60007A2108F800100AE05FFA88F800A818F84B
:101F70000000401E5FFA88F800A908F801001AE086
:101F80005FFA88F800A818F800005FFA88F800A93E
:101F9000421C08F80120C0B200280CD05FFA88F873
:101FA00000A818F800007B2805DB5FFA88F800A875
:101FB000202108F800107F1E3800C0B2002818D178
:101FC0000A200700F6B2F643112200A905A804F082
:101FD00065FB0121002002F01AFAF6B2002E05D0AE
:101FE0005FFA88F805A85F2108F8001005A802F03C
:101FF00049FA322002F059FC87E71CB0BDE8F081B5
:10200000C4110100180F0100D0110100DC11010002
:1020100080B50020FFF756FF01BD80B50120FFF716
:1020200051FF01BD80B50220FFF74CFF01BD80B517
:102030000320FFF747FF01BD38B503F016FF050089
:10204000ADB2002D02D04FF6FF7005000C2002F05B
:10205000FBF9DFF8B00702F015FA02F04BFB00289D
:1020600029D002F0DEFA0400E4B2012C09D010D32A
:10207000032C0AD009D3042C0BD12800C0B203F0E2
:10208000D7FE0C2002F0E0F915E085F47F4595F0CD
:10209000FF050121062002F0BAF9ADB2002D03D0F0
:1020A00060A002F0EFF902E05FA002F0EBF90A2075
:1020B00002F0FBFBD1E731BDE8110100280F010060
:1020C00030B585B003F00AFF05000C2002F0BCF922
:1020D000DFF8F40702F0D6F902F00CFB002859D023
:1020E00002F09FFA0400E4B2012C09D03BD3032C88
:1020F00021D009D3042C36D1280080B203F0D1FEC0
:102100000C2002F0A1F945E0ADB2B5F5FA6F11DD92
:10211000DFF8B8070068B0F5FA5F01D96D1E09E075
:10212000DFF8A807006841F28931884201D30A3DEF
:1021300000E0643D1CE0ADB244F25060854211DA2B
:10214000DFF888070068B0F5FA5F01D96D1C09E077
:10215000DFF87807006841F28931884201D30A35F7
:1021600000E0643504E0DFF8640743F6982101607D
:10217000ADB22A00DFF8581700A804F075FA012163
:10218000032002F044F900A802F07CF9322002F0AA
:102190008CFBA1E705B030BD30B585B003F0D1FEB2
:1021A00005000C2002F050F9DFF8280702F06AF968
:1021B00002F0A0FA00282ED002F033FA0400E4B2B4
:1021C000012C09D015D3032C0FD009D3042C10D126
:1021D000280080B203F0E2FE0C2002F035F91AE08C
:1021E000ADB23D2D00DB6D1E03E0ADB2C82D00DAAF
:1021F0006D1CADB22A00DFF8E81400A804F034FA30
:102200000121062002F003F900A802F03BF9322078
:1022100002F04BFBCCE705B030BD0000B40A010072
:10222000380F010053494D004E414F00480F010047
:10223000F411010000120100580F0100680F0100A5
:102240000C120100C80A010018120100C413010099
:10225000CC130100DC0A010038B5002500F050F96C
:10226000002841D02800C0B200F03FF802F0D9F9B0
:102270000400E4B2012C18D032D3032C25D015D39E
:10228000042C2DD1EDB2DFF8500D50F825000028B8
:102290000AD0EDB2DFF8400D50F825008047280045
:1022A000C0B200F022F81BE01EE01DE0EDB2002DF0
:1022B00003D0EDB228006D1E02E004252800C0B254
:1022C0002800C0B200F011F80AE0EDB2681C052148
:1022D00090FBF1F201FB12052800C0B200F005F8F6
:1022E000322002F0E2FAC1E731BD10B5040000214E
:1022F000002002F08CF8DFF81C0C02F0C3F801217A
:10230000002002F084F8E4B2DFF8D00C50F824008A
:1023100002F0B8F810BD10B5DFF8C40C00F038F8C2
:102320000400200003F049FC10BD10B5DFF8B40C28
:1023300000F02EF80400200003F04FF810BD00005C
:10234000780F010010B5DFF8A00C00F021F80400B0
:10235000200003F08CF810BD10B5DFF8900C00F0F1
:1023600017F80400200003F0CCF810BDD4130100CE
:10237000DC1301006C6B001024120100E413010057
:10238000EC130100A0860100B09EAEFF30120100E8
:102390002DE9F04186B0040000A8DFF8541C2CC9D8
:1023A0002CC00C390C38002601275FF000080C20E7
:1023B00002F04AF80021002002F029F8200002F083
:1023C00061F802F02EF90500EDB2012D67D068D357
:1023D000032D03D018D3042D2CD062E0F6B200A850
:1023E000305C392805DB3020F6B200A97054C0B249
:1023F00009E0F6B200A8305CF6B200A9715C491C95
:10240000F6B200AAB1544CE0F6B200A8305C312814
:1024100005DA3920F6B200A97054C0B209E0F6B26C
:1024200000A8305CF6B200A9715C491EF6B200AAA1
:10243000B15436E0F6B2072E2FDB9DF80010DFF81E
:10244000B42B9DF80130DFF8B0CB0CFB03F302FB9B
:1024500001319DF80220DFF8A43B03FB02119DF837
:10246000032042F2107303FB02119DF804204FF485
:102470007A7303FB02119DF80520642303FB02110C
:102480009DF806200A2303FB02119DF8072051182E
:10249000DFF8982C5118080027E0761C01E0002096
:1024A00023E07F1E3800C0B200281AD10A2007009E
:1024B000092200A903A804F0F1F85FFA88F87FEA7E
:1024C00008085FFA88F8B8F1000F03D0F6B203A845
:1024D0005F2131540121042001F099FF03A801F08C
:1024E000D1FF322002F0E1F96BE706B0BDE8F081E0
:1024F000F4130100941301003C120100F00A0100E2
:102500002DE9F0438BB0002500260127DFF8200CD1
:10251000006807F067FC07F075FC42F2107190FB51
:10252000F1F201FB12090C2001F08EFF1FFA89F96C
:102530004A46DFF8001C00A804F096F800A801F055
:10254000A1FF0121002001F062FFDFF8EC0B01F098
:1025500099FFDFF8E81B00A804F086F802F0CAF83B
:10256000002800F08B8002F05CF80400E4B2012C3B
:102570003ED060D3032C3DD04DD3042C5BD1EDB2C3
:10258000052D33DB9DF80000DFF8701A9DF801205F
:1025900042F210735A4301FB00209DF802104FF4E1
:1025A0007A7202FB01009DF80310642202FB010015
:1025B0009DF804100A2202FB01009DF8051008187E
:1025C000DFF8A81C09188903890B08008004800C17
:1025D00040F6BC32504080461FFA88F81FFA89F94D
:1025E000C84501D1FF204AE0002048E06D1C22E0F0
:1025F000002044E0EDB200A8285C401CEDB200A928
:102600006854EDB200A8285C3A2803DBEDB200A8BC
:10261000302129540FE0EDB200A8285C401EEDB235
:1026200000A96854EDB200A8285C302803DAEDB2A6
:1026300000A8392129547F1E3800C0B2002819D1C2
:1026400004200700F6B2F643112200A905A804F001
:1026500025F800208DF81B00F6B2002E03D0EDB255
:1026600005A85F2129540121072001F0D0FE05A80B
:1026700001F008FF322002F018F96FE700200BB0DC
:10268000BDE8F08330B585B003F0BAFA05002A0042
:10269000DFF8DC1B00A803F0E7FF0C2001F0D4FEFC
:1026A000DFF8800C01F0EEFE0121002001F0AFFE0A
:1026B00000A801F0E7FE02F01DF800280DD001F09F
:1026C000B0FF0400E4B22000012801D0042800D1AA
:1026D00003E0642002F0E9F8EDE705B030BD00004A
:1026E0008413010030B585B002F050FE05002A00C9
:1026F000DFF87C1B00A803F0B7FF0C2001F0A4FE5C
:10270000DFF8200C01F0BEFE0121002001F07FFE69
:1027100000A801F0B7FE01F0EDFF00280DD001F098
:1027200080FF0400E4B22000012801D0042800D179
:1027300003E0642002F0B9F8EDE705B030BD000019
:1027400040FB000038B500252800C0B200F043F877
:1027500001F0D0FF00283DD001F063FF0400E4B297
:10276000012C18D032D3032C25D015D3042C2DD115
:10277000EDB2DFF8D80C50F8250000280AD0EDB2F1
:10278000DFF8C80C50F8250080472800C0B200F0E0
:1027900022F81BE01EE01DE0EDB2002D03D0EDB2EB
:1027A00028006D1E02E006252800C0B22800C0B235
:1027B00000F011F80AE0EDB2681C072190FBF1F27D
:1027C00001FB12052800C0B200F005F8322002F02B
:1027D0006CF8BDE731BD10B504000021002001F008
:1027E00016FEDFF8440B01F04DFE0121002001F040
:1027F0000EFEE4B2DFF8940C50F8240001F042FE23
:1028000010BD0000040B010070B590B00A25002136
:10281000002001F0FCFDDFF8140B01F033FE012174
:10282000002001F0F4FDDFF8080B01F02BFE00A8FA
:1028300005F0D7FF0600F6B2002E04D12800451E91
:10284000C0B20028F3D1F6B2002E14D1002100202E
:1028500001F0DDFDDFF8DC0A01F014FE01210020AB
:1028600001F0D5FDDFF8D00A01F00CFE40F6B830DB
:1028700002F01BF825E00C2001F0E6FD002100200D
:1028800001F0C5FDDFF8C40C01F0FCFD01210020C2
:1028900001F0BDFD00208DF8100000A801F0F2FD50
:1028A00001F028FF00280CD001F0BBFE0400E4B2C8
:1028B0002000401E032800D803E0322001F0F5FF7D
:1028C000EEE710B070BD0000FC0801009C6B00102A
:1028D00034110100180B01002DE9F04395B05FF0B1
:1028E0000A09002600275FF001080021002001F0FE
:1028F0008EFDDFF8380A01F0C5FD0121002001F04E
:1029000086FDDFF82C0A01F0BDFD00A805F069FF87
:102910000500EDB2002D05D14846B0F10109C0B265
:102920000028F2D1EDB2002D14D10021002001F0D9
:102930006EFDDFF8000A01F0A5FD0121002001F085
:1029400066FDDFF8F40901F09DFD40F6B83001F0B6
:10295000ACFFACE00C2001F077FD0021002001F07D
:1029600056FDDFF8E80B01F08DFD0121002001F09C
:102970004EFD00208DF8100000A801F083FD00201E
:10298000C0B2302806DAC0B200A9411800220A7489
:10299000401CF5E701F0AEFE002800F0888001F051
:1029A00040FE0400E4B2012C17D05CD3032C15D0F8
:1029B00037D3042C57D1F6B200A8305C002803D1DD
:1029C000F6B200A820213154761CF6B2102E03DB9B
:1029D00000A800F06FF86AE045E068E0F6B200A8F1
:1029E000305C7F2803DBF6B200A87E213154F6B2BA
:1029F00000A8305C202803DAF6B200A82021315468
:102A0000F6B200A8305C401CF6B200A97054F6B2D1
:102A100000A8305C7F2803DBF6B200A820213154E7
:102A200021E0F6B200A8305C7F2803DBF6B200A8F4
:102A30007E213154F6B200A8305C202803DAF6B2C9
:102A400000A820213154F6B200A8305C401EF6B236
:102A500000A97054F6B200A8305C202803DAF6B260
:102A600000A87E213154B8F101084046C0B20028C8
:102A700019D105208046FFB2FF43102200A910A8FB
:102A800003F00CFE00208DF85000FFB2002F03D0A1
:102A9000F6B210A85F2131540121002001F0B7FCEB
:102AA00010A801F0EFFC322001F0FFFE72E715B034
:102AB000BDE8F08370B504000A260021002001F073
:102AC000A6FCDFF84C0B01F0DDFC0121002001F039
:102AD0009EFCDFF85C0801F0D5FC200000F024F833
:102AE000200005F0CEFE0500EDB2002D04D130002F
:102AF000461EC0B20028F3D1EDB2002D13D1002143
:102B0000002001F084FCDFF8880B01F0BBFC012100
:102B1000002001F07CFCDFF8840C01F0B3FC40F6EF
:102B2000B83001F0C2FE70BD10F1100211000A7839
:102B3000212A02DB0A787F2A03DB00220A70491E61
:102B4000F5E7704770B592B000A8442107F006FA87
:102B500005250021002001F05AFCDFF8740B01F07C
:102B600091FC0121002001F052FCDFF8680B01F01C
:102B700089FC01F0BFFD002842D001F052FD0400A5
:102B8000E4B22000401E022835D9C01E34D10021F5
:102B9000002001F03CFCDFF8C40B01F073FC0121C4
:102BA000002001F034FCDFF8880701F06BFC00A87E
:102BB00005F067FE0600F6B2002E04D12800451E7F
:102BC000C0B20028F3D1F6B2002E13D100210020AC
:102BD00001F01DFCDFF8B80A01F054FC01210020CF
:102BE00001F015FCDFF8B40B01F04CFC40F6B830F6
:102BF00001F05BFE04E003E0322001F056FEB8E78E
:102C000012B070BD70B590B00A250021002001F00F
:102C1000FEFBDFF88C0B01F035FC0121002001F0F8
:102C2000F6FBDFF80C0701F02DFC00A805F07AFE9A
:102C30000600F6B2002E04D12800451EC0B20028BE
:102C4000F3D1F6B2002E14D10021002001F0DFFBF9
:102C5000DFF8E00601F016FC0121002001F0D7FBAF
:102C6000DFF8D40601F00EFC40F6B83001F01DFE8E
:102C700025E00C2001F0E8FB0021002001F0C7FB5B
:102C8000DFF8780C01F0FEFB0121002001F0BFFB12
:102C900000208DF8100000A801F0F4FB01F02AFDDF
:102CA00000280CD001F0BDFC0400E4B22000401E5E
:102CB000032800D803E0322001F0F7FDEEE710B062
:102CC00070BD00002DE9F04395B05FF00A090026C1
:102CD00000275FF001080021002001F098FBDFF8D9
:102CE000540B01F0CFFB0121002001F090FBDFF835
:102CF000400601F0C7FB00A805F014FE0500EDB288
:102D0000002D05D14846B0F10109C0B20028F2D12A
:102D1000EDB2002D14D10021002001F078FBDFF886
:102D2000140601F0AFFB0121002001F070FBDFF879
:102D3000080601F0A7FB40F6B83001F0B6FDACE0A4
:102D40000C2001F081FB0021002001F060FBDFF886
:102D5000AC0B01F097FB0121002001F058FB002093
:102D60008DF8100000A801F08DFB0020C0B23028C3
:102D700006DAC0B200A9411800220A74401CF5E727
:102D800001F0B8FC002800F0888001F04AFC040043
:102D9000E4B2012C17D05CD3032C15D037D3042C0C
:102DA00057D1F6B200A8305C002803D1F6B200A8D3
:102DB00020213154761CF6B2102E03DB00A800F05F
:102DC0006FF86AE045E068E0F6B200A8305C7F2862
:102DD00003DBF6B200A87E213154F6B200A8305CC5
:102DE000202803DAF6B200A820213154F6B200A858
:102DF000305C401CF6B200A97054F6B200A8305CFA
:102E00007F2803DBF6B200A82021315421E0F6B27E
:102E100000A8305C7F2803DBF6B200A87E21315485
:102E2000F6B200A8305C202803DAF6B200A8202110
:102E30003154F6B200A8305C401EF6B200A97054BE
:102E4000F6B200A8305C202803DAF6B200A87E2192
:102E50003154B8F101084046C0B2002819D105200C
:102E60008046FFB2FF43102200A910A803F016FC11
:102E700000208DF85000FFB2002F03D0F6B210A84A
:102E80005F2131540121002001F0C1FA10A801F0A6
:102E9000F9FA322001F009FD72E715B0BDE8F083C0
:102EA00070B504000A260021002001F0B0FADFF816
:102EB000600701F0E7FA0121002001F0A8FADFF82D
:102EC000700401F0DFFA2000FFF72EFE200005F06D
:102ED00079FD0500EDB2002D04D13000461EC0B2D0
:102EE0000028F3D1EDB2002D13D10021002001F014
:102EF0008EFADFF89C0701F0C5FA0121002001F0ED
:102F000086FADFF8980801F0BDFA40F6B83001F013
:102F1000CCFC70BD2C0B010070B592B000A8442110
:102F200007F01CF805250021002001F070FADFF8F9
:102F3000A00701F0A7FA0121002001F068FADFF8EC
:102F4000940701F09FFA01F0D5FB002842D001F070
:102F500068FB0400E4B22000401E022835D9C01EE0
:102F600034D10021002001F052FADFF8B80B01F053
:102F700089FA0121002001F04AFADFF8B40301F0D8
:102F800081FA00A805F01EFD0600F6B2002E04D15D
:102F90002800451EC0B20028F3D1F6B2002E13D18E
:102FA0000021002001F033FADFF8E40601F06AFAAC
:102FB0000121002001F02BFADFF8E00701F062FAAE
:102FC00040F6B83001F071FC04E003E0322001F07B
:102FD0006CFCB8E712B070BDAC0D010080040010AD
:102FE000400B0100540B0100680B01007C0B010039
:102FF000481201008096980040420F00A086010010
:1030000070B59AB000A8DFF8A41B682206F07AFF1A
:1030100003F03CF8050000260C2001F015FADFF85B
:103020001C0C01F02FFA0121002001F0F0F9EDB2A3
:10303000F6B2B54201D1012000E000201121F6B224
:10304000222200AB02FB063201FB002001F01AFA3B
:1030500001F050FB002867D001F0E3FA0400E4B26D
:10306000012C23D05CD3032C21D03DD3042C57D189
:10307000F6B2022E58D035002800C0B202F0EBFFA5
:103080000121002001F0C3F9EDB2F6B2B54201D141
:10309000012000E000201121F6B2222200AB02FB49
:1030A000063201FB002001F0EDF939E03CE0F6B218
:1030B000701C032190FBF1F201FB1206012100209C
:1030C00001F0A5F9EDB2F6B2B54201D1012000E060
:1030D00000201121F6B2222200AB02FB063201FBD6
:1030E000002001F0CFF91BE0F6B2002E01D0761ED1
:1030F00001E0022006000121002001F088F9EDB274
:10310000F6B2B54201D1012000E000201121F6B253
:10311000222200AB02FB063201FB002001F0B2F9D3
:10312000322001F0C2FB93E71AB070BDB0FA35E06F
:103130006C6B001024120100E4130100EC13010079
:1031400070B59AB000A8DFF8F81A682206F0DAFE27
:1031500002F0D3FF050000260C2001F075F9DFF81E
:10316000100C01F08FF90121002001F050F9EDB2AF
:10317000F6B2B54201D1012000E000201121F6B2E3
:10318000222200AB02FB063201FB002001F07AF99B
:1031900001F0B0FA002867D001F043FA0400E4B26D
:1031A000012C23D05CD3032C21D03DD3042C57D148
:1031B000F6B2022E58D035002800C0B202F082FFCD
:1031C0000121002001F023F9EDB2F6B2B54201D1A0
:1031D000012000E000201121F6B2222200AB02FB08
:1031E000063201FB002001F04DF939E03CE0F6B277
:1031F000701C032190FBF1F201FB1206012100205B
:1032000001F005F9EDB2F6B2B54201D1012000E0BE
:1032100000201121F6B2222200AB02FB063201FB94
:10322000002001F02FF91BE0F6B2002E01D0761E2F
:1032300001E0022006000121002001F0E8F8EDB2D3
:10324000F6B2B54201D1012000E000201121F6B212
:10325000222200AB02FB063201FB002001F012F932
:10326000322001F022FB93E71AB070BDB09EAEFF92
:10327000FC13010070B5A2B000A8DFF8F81A88228C
:1032800006F040FE002602F0A4FF05000C2001F02D
:10329000DBF8DFF8E40A01F0F5F801F02BFA00287A
:1032A0003DD001F0BEF90400E4B2012C0ED01DD3D4
:1032B000032C0CD013D3042C18D1F6B2032E2ED02D
:1032C00035002800C0B202F0A0FF0FE027E0F6B200
:1032D000701C042190FBF1F606FB110606E0F6B225
:1032E000002E01D0761E01E00320060001210020FF
:1032F00001F08DF8EDB2F6B2B54201D1012000E047
:1033000000201121F6B2222200AB02FB063201FBA3
:10331000002001F0B7F8322001F0C7FABDE722B073
:1033200070BD0000B0090100900B0100A40B01006A
:10333000B80B0100CC0B0100E00B010080B506F0DA
:1033400011FE01BD80B506F05FFF01BD2DE9F04122
:103350008CB002F075FF050002A8DFF8F41B142200
:1033600006F0D0FD002707A8DFF8E81B102206F0C2
:10337000C9FD00A8DFF8E01B0CC90CC008390838EB
:103380005FF000080C2001F05FF8DFF8D00B01F0CF
:1033900079F801F0AFF9002855D001F042F90400A6
:1033A000E4B2012C0FD026D3032C10D016D3042C5A
:1033B00021D15FFA88F818F10100042190FBF1F89F
:1033C00008FB110817E0280002F061FF3BE05FFAFC
:1033D00088F800A830F9180045190CE05FFA88F861
:1033E00000A830F91800854205D35FFA88F800A8D4
:1033F00030F918002D1A5FFA88F807A850F828301D
:103400002A00DFF8F81B02A803F02EF902A804F046
:1034100009F90600F6B2FFB2BE4207D00121002032
:1034200000F0F5FFDFF8E00C01F02CF83700012187
:10343000F6B2D6F110004010C0B200F0E8FF02A8CA
:1034400001F020F8A5E70CB0BDE8F08174FE0000A3
:1034500010B504000021002000F0D9FFDFF8A00B18
:1034600001F010F80121012000F0D1FFE4B2DFF8F3
:103470009C0C50F8240001F005F80121002000F018
:10348000C6FF7E2000F0E0FF10BD00000804001021
:1034900038B500250C2000F0D7FF2800C0B2FFF798
:1034A000D7FF01F027F9002832D001F0BAF8040064
:1034B000E4B2012C14D023D3032C12D019D3042C42
:1034C0001ED1EDB2DFF8480C50F82500002806D0D8
:1034D000EDB2DFF83C0C50F82500804710E017E013
:1034E00016E0EDB2681C0A2190FBF1F201FB120517
:1034F00006E0EDB2002D01D06D1E01E009200500AF
:103500002800C0B2FFF7A4FF322001F0CEF9C8E7CF
:1035100031BD10B504000021002000F078FFDFF875
:10352000F40B00F0AFFF0121012000F070FFE4B2C6
:10353000DFF8600C50F8240000F0A4FF0121002007
:1035400000F065FF7E2000F07FFF10BD0414010035
:1035500038B500250C2000F077FF2800C0B2FFF737
:10356000D8FF01F0C7F8002832D001F05AF8040063
:10357000E4B2012C14D023D3032C12D019D3042C81
:103580001ED1EDB2DFF8100C50F82500002806D04F
:10359000EDB2DFF8040C50F82500804710E017E08A
:1035A00016E0EDB2681C062190FBF1F201FB12055A
:1035B00006E0EDB2002D01D06D1E01E005200500F2
:1035C0002800C0B2FFF7A5FF322001F06EF9C8E76E
:1035D00031BD10B504000021002000F018FFDFF815
:1035E000BC0B00F04FFF0121012000F010FFE4B2FE
:1035F000DFF8AC0B50F8240000F044FF012100205C
:1036000000F005FF7E2000F01FFF10BD000000004D
:10361000F40B010038B500252800C0B2FFF7D9FF30
:1036200001F068F8002832D000F0FBFF0400E4B29B
:10363000012C14D023D3032C12D019D3042C1ED167
:10364000EDB2DFF8600B50F82500002806D0EDB28F
:10365000DFF8500B50F82500804710E017E016E027
:10366000EDB2681C042190FBF1F505FB110506E0A5
:10367000EDB2002D01D06D1E01E0032005002800F1
:10368000C0B2FFF7A6FF322001F00FF9C8E731BD45
:10369000080C010010B504000021002000F0B7FE66
:1036A000DFF8040B00F0EEFE0121012000F0AFFE78
:1036B000E4B2DFF8F80A50F8240000F0E3FE01213C
:1036C000002000F0A4FE7E2000F0BEFE10BD000031
:1036D000300C0100440C010038B500250C2000F02E
:1036E000B3FE2800C0B2FFF7D5FF01F003F80028B1
:1036F00032D000F096FF0400E4B2012C14D023D3A2
:10370000032C12D019D3042C1ED1EDB2DFF8A00A7D
:1037100050F82500002806D0EDB2DFF8940A50F8E2
:103720002500804710E017E016E0EDB2681C052187
:1037300090FBF1F201FB120506E0EDB2002D01D085
:103740006D1E01E0042005002800C0B2FFF7A2FFB3
:10375000322001F0AAF8C8E731BD0000580C010082
:1037600010B504000021002000F051FEDFF8380AF7
:1037700000F088FE0121012000F049FEE4B2DFF8EC
:10378000340A50F8240000F07DFE0121002000F0F2
:103790003EFE7E2000F058FE10BD00001C0C010013
:1037A0006C0C010038B5002541F6FB10FCF7CAFF90
:1037B000002803D10C2000F047FE3AE02800C0B2F8
:1037C000FFF7CEFF00F096FF002832D000F029FF6F
:1037D0000400E4B2012C14D023D3032C12D019D34B
:1037E000042C1ED1EDB2DFF8D00950F825000028D6
:1037F00006D0EDB2DFF8C00950F82500804710E090
:1038000017E016E0EDB2681C0D2190FBF1F201FB10
:10381000120506E0EDB2002D01D06D1E01E00C2076
:1038200005002800C0B2FFF79BFF322001F03DF8F1
:10383000C8E731BD800C010030B587B001F0BDFF95
:10384000050000A8DFF874190CC90CC00839083845
:103850000C2000F0F9FDDFF8680900F013FE00F01D
:10386000E0FE0400E4B2012C16D02FD3032C20D0AC
:1038700026D3042C2AD106F06AFE0A2001F015F89E
:10388000280080B201F0C1FF0A2001F00EF80021EB
:10389000012006F027FE19E006F059FE0A2001F08B
:1038A00004F8280080B201F0B0FF0C2000F0CCFD3D
:1038B00022E0ADB21E2D00DA6D1C06F048FE05E0D8
:1038C000ADB2022D00DB6D1E06F041FE06F0A5FE36
:1038D000002801D0009B00E0019BADB22A00DFF878
:1038E000E41802A802F0C0FE0121002000F08FFDC4
:1038F00002A800F0C7FDB2E707B030BD9413010085
:1039000030B587B002F088F8050000A8DFF8B818D5
:103910000CC90CC0083908380C2000F095FDDFF800
:10392000AC0800F0AFFD00F07CFE0400E4B2012C16
:1039300016D02CD3032C1DD023D3042C27D106F072
:1039400006FE012000F0B1FF280080B202F08CF8E2
:10395000012000F0AAFF0021002006F0C3FD16E0C0
:1039600006F0F5FD280080B202F07EF80C2000F091
:103970006BFD22E0ADB21E2D00DA6D1C06F0E7FDF6
:1039800005E0ADB2022D00DB6D1E06F0E0FD06F095
:1039900044FE002801D0009B00E0019BADB22A004C
:1039A000DFF8201802A802F05FFE0121002000F0DD
:1039B0002EFD02A800F066FDB5E707B030BD30B5BA
:1039C0008BB0042001F097FB05000C2000F03CFDBB
:1039D000DFF8FC0700F056FD00F023FE0400E4B21F
:1039E000012C1ED02BD3032C24D025D3042C26D17C
:1039F000290089B2042001F030FB0121002000F0F1
:103A000006FDDFF8D00700F03DFD280003F041FA85
:103A10000121002000F0FBFCDFF8EC0600F032FD95
:103A20000DE0290089B2042001F017FB0C2000F002
:103A30000BFD36E06D1C02E0062D00D36D1E6420E8
:103A4000B5FBF0F00A21B0FBF1F201FB12003030BF
:103A50008DF800000A20B5FBF0F00A21B0FBF1F26E
:103A600001FB120030308DF801002C208DF802008F
:103A70000A20B5FBF0F100FB115030308DF8030047
:103A800000208DF8040000AADFF84C1705A802F00A
:103A9000EBFD0121002000F0BAFC05A800F0F2FCCB
:103AA0009AE70BB030BD70B586B002F013FC05008C
:103AB00002F05AFC06000C2000F0C6FC00F01AFED2
:103AC00000282CD000F0ADFD0400E4B2012C06D09B
:103AD00007D3032C04D004D3042C02D101E01EE050
:103AE000FFE72A00DFF8F41600A802F0BDFD002170
:103AF000002000F08CFC00A800F0C4FC3200DFF8CD
:103B0000E01600A802F0B0FD0121002000F07FFCCB
:103B100000A800F0B7FC322000F0C7FECEE706B0E8
:103B200070BD0000940C010038B500250C2000F099
:103B30008BFC0021002000F06AFCDFF8A80600F0F2
:103B4000A1FC00F0D7FD00282ED000F06AFD040093
:103B5000E4B2012C08D00DD3032C06D008D3042CDA
:103B600008D195F0FF0505E01EE00020050001E00A
:103B7000FF200500322000F098FE2800C0B204F0BB
:103B8000B3FC0121002000F042FCEDB2002D04D175
:103B9000DFF8540600F076FC03E0DFF8500600F092
:103BA00071FC04F04FFACCE731BD0000DCF90000F5
:103BB00080B502F040FC80B2FCF7C4FD00283CD088
:103BC000DFF82C0600F03EF8ADF80000DFF8240620
:103BD00000F038F8ADF80200BDF80000BDF80210A2
:103BE000884217D1BDF8000002F008FC0C2000F05C
:103BF0002BFCDFF8040600F045FC0121002000F05A
:103C000006FCDFF8F80500F03DFC40F6B83000F0A7
:103C10004CFE12E00C2000F017FCDFF8E40500F089
:103C200031FC0121002000F0F2FBDFF8D80500F0A4
:103C300029FC40F6B83000F038FE01BDA80C0100A8
:103C400044FA00002DE9F04385B00400002600A8E6
:103C5000DFF8B4150CC90CC0083908385FF000084B
:103C60005FF001090C2000F0EFFB200000F00AFCDF
:103C700000F040FD002875D000F0D3FC0500EDB247
:103C8000012D23D046D3032D23D033D3042D41D18E
:103C9000761CF6B2042E18DB9DF800004FF47A7102
:103CA0009DF8012064235A4301FB00209DF8021077
:103CB0000A2202FB01009DF80310081800F53C5091
:103CC000B0300700380080B24EE023E04FF6FF70BE
:103CD0004AE0F6B200A8305C401CF6B200A970546D
:103CE000F6B200A8305C3A2803DBF6B200A8302117
:103CF00031540FE0F6B200A8305C401EF6B200A9C5
:103D00007054F6B200A8305C302803DAF6B200A88E
:103D100039213154B9F101094846C0B200281DD1FA
:103D2000042081465FFA88F87FEA0808042200A987
:103D300002A802F0B3FC00208DF80C005FFA88F8AE
:103D4000B8F1000F03D0F6B202A85F21315401216F
:103D5000062000F05CFB02A800F094FB322000F08B
:103D6000A4FD85E74FF6FF7005B0BDE8F0830000C5
:103D7000BC0C010054F90000880F01002DE9F04748
:103D80008AB0002500260127DFF88004006806F0CD
:103D900029F806F037F842F2107190FBF1F201FBBE
:103DA00012090C2000F050FB1FFA89F94A46DFF88F
:103DB000601400A802F058FC00A800F063FB012189
:103DC000002000F024FBDFF84C0400F05BFBDFF880
:103DD000481400A802F048FC00F08CFC002800F019
:103DE000B38000F01EFC0400E4B2012C67D0C0F0E8
:103DF0008880032C64D074D3042C40F08280EDB210
:103E0000052D5ADB9DF80000DFF810149DF8012005
:103E100042F210735A4301FB00209DF802104FF448
:103E20007A7202FB01009DF80310642202FB01007C
:103E30009DF804100A2202FB01009DF805100818E5
:103E4000DFF8DC1311EB000A5FEA8A3A5FEA9A3A7C
:103E500050468004800C40F6BC31484080460C201F
:103E600000F0F2FA1FFA88F81FFA89F9C84513D151
:103E7000DFF8B00300F006FB0121002000F0C7FAD4
:103E8000DFF8A40300F0FEFA002002F0B7FA41F2D6
:103E9000883000F00AFD0BE0DFF8880300F0F2FA4A
:103EA0000121002000F0B3FADFF8800300F0EAFA05
:103EB00040F6B83000F0F9FC46E06D1C21E043E02C
:103EC000EDB200A8285C401CEDB200A96854EDB228
:103ED00000A8285C3A2803DBEDB200A83021295461
:103EE0000FE0EDB200A8285C401EEDB200A96854B6
:103EF000EDB200A8285C302803DAEDB200A8392121
:103F000029547F1E3800C0B2002819D104200700B0
:103F1000F6B2F643112200A905A802F0BFFB00206B
:103F20008DF81B00F6B2002E03D0EDB205A85F217C
:103F300029540121072000F06AFA05A800F0A2FA2E
:103F4000322000F0B2FC47E70AB0BDE8F08700007D
:103F5000D00C0100980F01001C140100E40C0100BA
:103F600070B586B00C2000F06FFAB14800F08AFA04
:103F700002F09FFA040000F0BDFB00283CD000F0E6
:103F800050FB0500EDB2012D09D014D3032D07D04D
:103F90000DD3042D0FD1200080B202F06DFA2BE07A
:103FA000A4B242F21070844200DA193403E0A4B2E1
:103FB000002C00D0193CA4B2642094FBF0F100FB6B
:103FC0001143A4B2642094FBF0F29A4900A802F0D5
:103FD0004BFB00A803F026FB06000121F6B2D6F148
:103FE00010004010C0B200F012FA00A800F04AFA27
:103FF000322000F05AFCBEE706B070BD2414010068
:10400000A80F01002DE9F04186B004000D00A8467C
:104010000C2000F019FA200000F034FA00F06AFBDE
:10402000002833D000F0FDFA0600F6B2012E08D0C9
:1040300013D3032E08D00CD3042E0ED1280080B247
:1040400026E0404680B223E0ADB2642D00DA6D1C5C
:1040500003E0ADB2002D00D06D1EADB22A0076494E
:1040600000A802F001FB00A803F0DCFA0700012120
:10407000FFB2D7F110004010C0B200F0C8F900A89C
:1040800000F000FA322000F010FCC7E7280080B2F0
:1040900006B0BDE8F08180B502F049FA010089B2AE
:1040A0006648FFF7AFFF80B202F024FA01BD80B589
:1040B00002F07BFA010089B26148FFF7A3FF80B2EA
:1040C00002F056FA01BD80B502F0ADFA010089B2E6
:1040D0005C48FFF797FF80B202F088FA01BD10B587
:1040E00004000021002000F092F9574800F0CAF9BE
:1040F0000121002000F08BF9E4B2544850F824006C
:1041000000F0C0F910BD0000F80C010038030010E9
:1041100054FD00000C0D010038B500250C2000F006
:1041200093F92800C0B2FFF7DAFF00F0E3FA0028A5
:104130002FD000F076FA0400E4B2012C11D023D382
:10414000032C0FD016D3042C1ED1EDB2404850F8EA
:104150002500002804D0EDB23D4850F825008047E6
:1041600012E016E0EDB2681C042190FBF1F505FBAE
:10417000110509E0EDB2002D03D0EDB228006D1E4F
:1041800002E003252800C0B22800C0B2FFF7A7FF55
:10419000CBE731BD3C04001000FF0000200D010002
:1041A0009404001018100100340D01006C0400107C
:1041B000980D0100D802001040FC00003C140100E2
:1041C000480D0100B80F0100441401005C0D01000E
:1041D000700D0100840D010054120100C80F010090
:1041E000D80F0100C80A0100601201006C12010022
:1041F0007812010084120100E80F01004C14010044
:1042000054140100901201005C1401006C6B00104A
:1042100024120100E4130100EC130100A086010048
:10422000B09EAEFF941301009C1201003C120100ED
:10423000F80F010008100100641401006C14010063
:10424000741401007C140100A8120100A4040010E1
:104250002810010070B504000D009D48006850F062
:1042600080009B4908609A48006850F040009849D7
:1042700008609748006850F020009549086094480D
:10428000006850F01000924908609148006850F4AE
:1042900000708F4908608E48006850F400708C49A7
:1042A00008608B48006850F48070894908604FF4BA
:1042B000FA7000F0FAFA00200600F6B2032E07DAD0
:1042C000032000F030F8642000F0EFFA761CF4E7E9
:1042D000022000F028F8142000F0E7FA54F0200142
:1042E000C9B2002000F074F8142000F0DEFA55F096
:1042F0000801C9B2002000F06BF8142000F0D5FAD4
:1043000055F00800734908701021002000F060F893
:104310000A2000F0CAFA0621002000F059F80A200D
:1043200000F0C3FA70BD6C49096851F480716A4AA3
:10433000116000BF00BF00BF00BF00BF00BFC107CA
:1043400006D56549096851F08001634A116005E0AE
:104350006249096851F08001604A1160810706D501
:104360005D49096851F040015B4A116005E05B4915
:10437000096851F04001594A1160410706D5564974
:10438000096851F02001544A116005E05349096859
:1043900051F02001514A1160010706D54E490968C4
:1043A00051F010014C4A116005E04C49096851F088
:1043B00010014A4A116000BF00BF00BF00BF00BF2C
:1043C00000BF4649096851F48071444A1160704742
:1043D00038B504000D00E4B2002C06D03E48006859
:1043E00050F400703C49086005E03C48006850F417
:1043F00000703A490860EDB22809FFF794FF2800E1
:10440000C0B2FFF790FF022000F04FFA31BD38B57F
:1044100004000D00E4B2102C09DAEDB2002D06D133
:10442000B4F18001C9B20020FFF7D2FF08E0EDB27D
:10443000012D05D1B4F14001C9B20020FFF7C8FF3A
:10444000042000F032FA31BD10B50400E4B22000BF
:104450000A280CD00C2802D00D2808D00CE001212D
:104460000020FFF7B5FF0C2000F01FFA09E0022141
:104470000120FFF7ADFF04E02100C9B20120FFF7E2
:10448000A7FF10BD10B504002078002804D02078C4
:10449000FFF7DAFF641CF7E710BD80B50D48007820
:1044A00050F002000B4908700A4801780020FFF71D
:1044B0008FFF01BD80B50748007810F0FD00054969
:1044C0000870044801780020FFF782FF01BD00005A
:1044D00000C00920206C001018C009201CC0092051
:1044E0009B480068002804D099480068401E9849FD
:1044F000086098480088002804D096480088401E2C
:104500009449088094480088002805D09248008883
:10451000401E9149088083E090480078904900222D
:1045200042548E4800788E49405C8E490968C1F338
:10453000002111F0010191F00101C9B2084387493E
:104540000978874A885487480068400501D50020CB
:1045500000E0022081490978814A895C08437F494B
:1045600009787F4A88547F480068800501D500207B
:1045700000E0042079490978794A895C0843774941
:104580000978774A885477480068400401D50020AC
:1045900000E0082071490978714A895C08436F4935
:1045A00009786F4A88546F480068800001D5002060
:1045B00000E0102069490978694A895C0843674925
:1045C0000978674A885467480068002801D5402068
:1045D00000E0002061490978614A895C08435F492D
:1045E00009785F4A88545F480068400001D5202060
:1045F00000E0002059490978594A895C0843574925
:104600000978574A885455480078401C082190FB87
:10461000F1F202FB1102514802704F48062101805D
:10462000704710B4002001000020C0B2082809DA49
:10463000C0B24B4A825C12F00902092A00D1491C1F
:10464000401CF2E7C9B2052901DB082050E0002038
:10465000C0B2052848DA002211000022D2B2082A8E
:1046600009DAD2B23E4BD35C01248440234200D00D
:10467000491C521CF2E7C9B2052933DB354A1288BE
:10468000002A1BD1384A1278002A0DD0364A00235E
:104690001370304A4FF4FA6313802D4A4EF66023AC
:1046A0001360401CC0B223E02A4A32231380284AF8
:1046B0004EF660231360401CC0B219E02A4A1278FB
:1046C000002A0DD0284A00231370224A4FF4FA63BF
:1046D00013801F4A4EF660231360401CC0B207E0EF
:1046E000002005E0401CB3E71F48012202700020B3
:1046F00010BC704716480068704700200021C9B2FE
:10470000082907DAC9B2164A8A5C520600D5401C4D
:10471000491CF4E7C0B2052801DB012000E00020BD
:10472000C0B2704700200021C9B2082907DAC9B217
:104730000B4A8A5C920600D5401C491CF4E7C0B2C3
:10474000052801DB012000E00020C0B27047000016
:10475000986B00100C0500100E0500101E6C001068
:10476000246B001034C009201F6C00102DE9FB4F92
:1047700082B014000E9D0F9E109FDDF8448039001A
:10478000200080B200F052FB8246BAF1000F75D0D3
:10479000A4B2DAF8300010EB8400001F83465FEA11
:1047A000DB0B5FEACB0BA4B2009443462A000399CB
:1047B000504600F0C6FA049A0299584605F06AFF7E
:1047C000CAF80000002E01D0C6F800A005F08AFF4C
:1047D000DFF820070068401CDFF818170860DFF8D2
:1047E0006007006800280BD1DFF85407C0F800A06C
:1047F000DFF800070068012811D100F0C3FA0EE0CD
:10480000DFF840070068002809D1DFF834070068A6
:10481000C06A854203D3DFF82807C0F800A0DFF89C
:1048200028070068DAF82C10884204D2DAF82C0045
:10483000DFF814170860DFF814070068401CDFF881
:104840000C170860DFF808070068DAF82C108842B7
:1048500004D2DAF82C00DFF8F81608601AF1040127
:10486000DAF82C001422DFF8EC3602FB003005F0F9
:10487000C1FF0120814605F03EFF02E05FF0FF30FE
:104880008146B9F1010F0CD1DFF8B80600680028A5
:1048900007D0DFF8AC060068C06AA84201D205F074
:1048A0001CFF484605B0BDE8F08F70B50400002637
:1048B000002C2BD000F050F8DFF8A4060068201878
:1048C0000500DFF87C060068001D05F0C0FFDFF87A
:1048D000700600684560DFF888060068854209D2E6
:1048E000DFF85C060068011DDFF87806006805F057
:1048F00090FF08E0DFF848060068011DDFF8680651
:10490000006805F086FF00F02FF80600002E01D1A8
:1049100005F0E3FE70BD1FB500200390002002905B
:10492000002001900020009000235022DFF848165C
:104930000FF20540FFF71AFF0400012C0BD105F020
:10494000B7FFDFF8000601210160DFF8140600213F
:10495000016005F0ACFE1FBDDFF818060068401CC2
:10496000DFF810160860704770B5002505F0BAFE34
:10497000DFF800060068401EDFF8F8150860DFF871
:10498000F405006800285BD1DFF86805006800289E
:1049900056D00026DFF8D8050068002804D0DFF8DC
:1049A000D005C068C46800E00024002C23D014F1B6
:1049B000180005F04CFF201D05F049FFDFF89005B9
:1049C0000068E16A884203D2E06ADFF88415086073
:1049D000211DE06A1422DFF87C3502FB003005F06F
:1049E00009FFE06ADFF858150968C96A8842D1D31F
:1049F00001200600CEE7DFF884050068002810D00B
:104A0000DFF878050068002809D000F01DF8DFF80D
:104A10006C050068401EDFF864150860F0E70120AF
:104A20000600012E04D0DFF858050068012807D1E0
:104A300001200500DFF848050021016005F04DFE6A
:104A400005F059FE280070BD10B5DFF82805006894
:104A5000002852D1DFF808050068401CDFF8001577
:104A60000860DFF8FC040068002813D1DFF8F814B0
:104A700009680800DFF8F014DFF8E82412680A601B
:104A8000DFF8E0140860DFF8FC140968491CDFF85F
:104A9000F4241160DFF8D00400680068002805D015
:104AA000DFF8C4040068C068C46800E00024002C7B
:104AB0002AD0DFF8AC0400686168884224D3201D46
:104AC00005F0C5FEA06A002803D014F1180005F017
:104AD000BEFEDFF87C040068E16A884203D2E06A27
:104AE000DFF86C140860211DE06A1422DFF86434DA
:104AF00002FB003005F07EFECCE7DFF880040068A2
:104B0000401CDFF87814086010BD80B5DFF864043D
:104B10000068002804D0DFF868040121016054E037
:104B2000DFF81C040068006BDFF8141409680968DA
:104B3000884209D3DFF80804006810F13401DFF877
:104B40000004006805F0D4FF1422DFF83C14DFF8FD
:104B5000F0030068006B05F0CDFF002809D0DFF8F6
:104B6000E003006810F13401DFF8D403006805F0B9
:104B7000BFFFDFF8DC0300681421DFF8D82301FB56
:104B800000200068002807D1DFF8C4030068401E39
:104B9000DFF8BC130860ECE7DFF8B41309681422EF
:104BA000DFF8B03302FB0131080041684968416019
:104BB000416810F10802914202D1416849684160A0
:104BC0004068C068DFF87813086001BD70B5040064
:104BD0000D00DFF86C03006810F11801200005F0EB
:104BE00018FEDFF85C030068001D05F030FE15F1CB
:104BF000010F08D1DFF848030068011DDFF86C03DE
:104C000005F0F8FD20E0DFF85803006828180600DA
:104C1000DFF82C0300684660DFF844030068864232
:104C200009D2DFF81C030068011DDFF838030068B3
:104C300005F0EFFD08E0DFF808030068011DDFF86C
:104C40002803006805F0E5FD70BD70B5040020681C
:104C5000002802D0E068C66800E0002616F11800BF
:104C600005F0F5FDDFF80C030068002813D1301DB6
:104C700005F0EDFDB6480068F16A884202D2F06A9C
:104C8000B3490860311DF06A1422B24B02FB0030B8
:104C900005F0B0FD04E016F11801B54805F0AAFDD5
:104CA000F06AA7490968C96A884202D30120050051
:104CB00001E000200500280070BDB24909680160CC
:104CC000A74909684160704770B504000D0005F000
:104CD00009FD286810F1010F02D10020060022E032
:104CE000A84800682168884207D09D48006861682C
:104CF000884202D30120060015E0994800686168E7
:104D0000401A296888420CD2286895490968401AD7
:104D10006168081828602000FFF7CFFF0020060018
:104D200001E00120060005F0E6FC300070BD94486B
:104D3000012101607047000010B5040000F045F843
:104D4000FCE7F8B504000D0016001F000C22290036
:104D500014F1340005F000FF002084F83F00052E18
:104D600001D304200600E662A664201D05F03FFD85
:104D700014F1180005F03BFD2461D6F10500A06197
:104D80006462F1BD10B500200400052C07D2142088
:104D9000704900FB041005F01BFD641CF5E77B481F
:104DA00005F016FD7A4805F013FD714805F010FD79
:104DB000694805F00DFD6D4805F00AFD6A48734924
:104DC000016068487249016010BD38B563480068E9
:104DD00000282AD0FFF7C0FD5F480068002801D1F5
:104DE000012400E00024E4B2FFF7BEFD002C1CD13A
:104DF00005F078FC58480068002803D05648C06881
:104E0000C56800E00025281D05F021FD394800682F
:104E1000401E3849086051480068401E4F490860EC
:104E200005F069FC280000F024F831BD70B50400DD
:104E30000D004C2005F0C6FE0600002E17D0002DF8
:104E400004D1A4B2A00005F0BDFE00E0280030634C
:104E5000306B002805D1300005F0DCFE0020060094
:104E600005E0A4B2A200A521306B05F0D9FE300008
:104E700070BD10B50400206B05F0CCFE200005F0DD
:104E8000C9FE10BD2E4909680800704738B50400F6
:104E90002500E86A2A490968C96A884229D228484F
:104EA0000068C06AD0F10500A8616869E96A142247
:104EB000284B02FB0131884217D1281D05F0C7FCA1
:104EC0001F480068C06AE86221480068E96A8842B1
:104ED00002D2E86A1E490860291DE86A14221D4BA7
:104EE00002FB003005F086FC03E015480068C06A4C
:104EF000E86231BDBC6B001038B504002500002C01
:104F00001CD0E86AA96C884218D0281D05F09FFCC7
:104F1000A86CE862E86AD0F10500A8610C48006856
:104F2000E96A884202D2E86A09490860291DE86AEC
:104F30001422084B02FB003005F05CFC31BD000080
:104F4000AC6B0010CC6B0010C46B0010E06B001059
:104F5000C86B001018690010F46A0010B86B0010DC
:104F6000C06B0010B46B0010B06B0010086B001029
:104F7000E06A0010D06B00109C140100D46B00108C
:104F8000D86B0010DC6B0010240E0100B86A001012
:104F9000CC6A0010F0B583B004000D001600280C98
:104FA0008DF80000280A8DF8010028008DF8020015
:104FB000300C8DF80300300A8DF8040030008DF8B5
:104FC00005000622002100A805F041FE0700BFB23F
:104FD000380A8DF8060038008DF80700082200A96D
:104FE000E4B2844850F8240006F07CF8F7BD7CB5A4
:104FF00004000D001600082200A9E4B27D4850F814
:10500000240006F08BF80622002100A805F01FFE00
:1050100001009DF806009DF8072052EA002292B296
:1050200089B28A4217D19DF800009DF801301B0219
:1050300053EA00409DF80230184328609DF80300B1
:105040009DF804301B0253EA00409DF805301843D8
:105050003060FF2000E0002076BD70B582B0040013
:105060000E00B6B2300A8DF8000030008DF8010055
:105070000222002100A805F0EAFD0500ADB2280AD1
:105080008DF8020028008DF80300E4B2002C08D04F
:10509000022C14D00CD3042C1FD017D3052C23D0F2
:1050A00028E0042200A94FF4885006F01BF821E004
:1050B000042200A941F2041006F014F81AE00422B8
:1050C00000A941F2081006F00DF813E0042200A92F
:1050D00041F20C1006F006F80CE0042200A941F29F
:1050E000101005F0FFFF05E0042200A941F21410A2
:1050F00005F0F8FF73BD2DE9F04182B00400E4B281
:10510000002C08D0022C1CD010D3042C33D025D373
:10511000052C3BD045E0042200A94FF4885005F04F
:10512000FDFF1E200600B42007003AE0042200A97B
:1051300041F2041005F0F2FF3C200600C8200700F1
:105140002FE0042200A941F2081005F0E7FF4FF418
:10515000FA60060044F25060070022E0042200A931
:1051600041F20C1005F0DAFF4FF4FA60060044F249
:105170005060070015E0042200A941F2101005F06C
:10518000CDFF01200600C82007000AE0042200A984
:1051900041F2141005F0C2FF012006004FF6E8505E
:1051A00007000222002100A805F051FD80461FFAE9
:1051B00088F89DF802009DF8031051EA0020804510
:1051C00013D19DF800009DF8011051EA0020050060
:1051D000ADB2B6B2B54200D23500BFB2ADB2AF4249
:1051E00000D23D00280080B201E0300080B2BDE86E
:1051F000F6810000481001002DE9F04782B006005A
:105200000F00904699460A9C0B9DF6B2002E01D0E5
:10521000012000E000208DF80000FFB2002F01D037
:10522000022000E000209DF8001008438DF80000E7
:105230005FFA88F8B8F1000F01D0042000E00020E8
:105240009DF8001008438DF800005FFA89F9B9F164
:10525000000F01D0082000E000209DF80010084356
:105260008DF80000E4B2002C01D0102000E00020F6
:105270009DF8001008438DF80000EDB2002D01D01C
:10528000202000E000209DF8001008438DF8000069
:105290000122002100A805F0DAFC82461FFA8AFAF2
:1052A0005FEA1A208DF8010050468DF802000322B3
:1052B00000A941F2281005F015FFBDE8F3872DE99C
:1052C000F84304000D0016001F00DDF82080DDF813
:1052D0002490032200A941F2281005F01FFF0122AB
:1052E000002100A805F0B3FC80B29DF80110B0EBDE
:1052F000012F01D1012100E00021C9B29DF8022057
:105300001143002932D09DF80010C90701D5FF21B3
:1053100000E0002121709DF80010890701D5FF21D0
:1053200000E0002129709DF80010490701D5FF21F8
:1053300000E0002131709DF80010090701D5FF2120
:1053400000E0002139709DF80010C90601D5FF2149
:1053500000E0002188F800109DF80010890601D5B2
:10536000FF2100E0002189F800100DE0FF212170ED
:10537000FF212970FF213170FF213970FF2188F84A
:105380000010FF2189F80010BDE8F1831CB506224A
:1053900000A94FF4005005F0C1FE0422002100A82E
:1053A00005F055FC0400A4B29DF804009DF805101A
:1053B00051EA002084420ED19DF800009DF80110B2
:1053C000090451EA00609DF8021050EA01209DF89E
:1053D0000310084300E0002016BD30B583B0040080
:1053E000200E8DF80000200C8DF80100200A8DF8A9
:1053F000020020008DF803000422002100A805F01F
:1054000026FC0500ADB2280A8DF8040028008DF8AE
:105410000500062200A94FF4005005F063FE37BDD9
:105420001CB5062200A94FF4A85005F077FE04220F
:10543000002100A805F00BFC0400A4B29DF80400B4
:105440009DF8051051EA002084420ED19DF800001D
:105450009DF80110090451EA00609DF8021050EA1D
:1054600001209DF80310084300E0002016BD30B570
:1054700083B00400200E8DF80000200C8DF8010090
:10548000200A8DF8020020008DF80300042200217C
:1054900000A805F0DCFB0500ADB2280A8DF8040079
:1054A00028008DF80500062200A94FF4A85005F049
:1054B00019FE37BD1CB5062200A941F2505005F077
:1054C0002DFE0422002100A805F0C1FB0400A4B2B7
:1054D0009DF804009DF8051051EA002084420ED189
:1054E0009DF800009DF80110090451EA00609DF844
:1054F000021050EA01209DF80310084300E000204C
:1055000016BD30B583B00400200E8DF80000200CCD
:105510008DF80100200A8DF8020020008DF80300AC
:105520000422002100A805F092FB0500ADB2280A74
:105530008DF8040028008DF80500062200A941F22C
:10554000505005F0CFFD37BD10B582B0042200A940
:1055500041F2705005F0E2FD0222002100A805F0A2
:1055600076FB0400A4B29DF802009DF8031051EAF6
:105570000020844207D19DF800009DF8011051EAF7
:10558000002080B200E0002016BD38B50400A4B2AF
:10559000200A8DF8000020008DF801000222002171
:1055A00000A805F054FB0500ADB2280A8DF80200F2
:1055B00028008DF80300042200A941F2705005F084
:1055C00091FD31BD10B582B0042200A94FF4AC505A
:1055D00005F0A4FD0222002100A805F038FB04001C
:1055E000A4B29DF802009DF8031051EA0020844205
:1055F00007D19DF800009DF8011051EA002080B20B
:1056000000E0002016BD38B50400A4B2200A8DF8D1
:10561000000020008DF801000222002100A805F002
:1056200016FB0500ADB2280A8DF8020028008DF89F
:105630000300042200A94FF4AC5005F053FD31BD26
:1056400038B50400A4B2200A8DF8000020008DF8BF
:1056500001000222002100A805F0F9FA0500ADB210
:10566000280A8DF8020028008DF80300042200A902
:1056700041F2905005F036FD31BD38B50400A4B2BA
:10568000200A8DF8000020008DF801000222002180
:1056900000A805F0DCFA0500ADB2280A8DF802007A
:1056A00028008DF80300042200A941F2955005F06E
:1056B00019FD31BD10B582B0042200A941F2955008
:1056C00005F02CFD0222002100A805F0C0FA04001C
:1056D000A4B29DF802009DF8031051EA0020844214
:1056E00018D19DF800009DF8011051EA0020040037
:1056F000A4B2B4F57A6F02DA4FF47A600400A4B26F
:1057000044F25160844202DB44F250600400200005
:1057100080B201E041F2883016BD38B50400A4B271
:10572000200A8DF8000020008DF8010002220021DF
:1057300000A805F08CFA0500ADB2280A8DF8020029
:1057400028008DF80300042200A94FF4AD5005F0A5
:10575000C9FC31BD10B582B0042200A94FF4AD5090
:1057600005F0DCFC0222002100A805F070FA04001C
:10577000A4B29DF802009DF8031051EA0020844273
:1057800018D19DF800009DF8011051EA0020040096
:10579000A4B2B4F57A6F02DA4FF47A600400A4B2CE
:1057A00044F25160844202DB44F250600400200065
:1057B00080B201E041F2883016BD10B582B00422FB
:1057C00000A941F2A55005F0A9FC0222002100A881
:1057D00005F03DFA0400A4B29DF802009DF8031004
:1057E00051EA002084420ED19DF800009DF801107E
:1057F00051EA00200400A4B2652C01DB64200400FF
:10580000200080B200E0642016BD38B50400A4B2C8
:10581000200A8DF8000020008DF8010002220021EE
:1058200000A805F014FA0500ADB2280A8DF80200B0
:1058300028008DF80300042200A941F2A55005F0CC
:1058400051FC31BD10B582B0042200A941F2B05024
:1058500005F064FC0222002100A805F0F8F904001C
:10586000A4B29DF802009DF8031051EA0020844282
:1058700015D19DF800009DF8011051EA00200400A8
:10588000A4B2002C01D101200400A4B2B4F5166F1B
:1058900002DD4FF416600400200080B200E0012019
:1058A00016BD38B50400A4B2200A8DF8000020000F
:1058B0008DF801000222002100A805F0C8F90500BA
:1058C000ADB2280A8DF8020028008DF803000422EA
:1058D00000A941F2B05005F005FC31BD10B582B011
:1058E000042200A941F2B55005F018FC0222002163
:1058F00000A805F0ACF90400A4B29DF802009DF8E0
:10590000031051EA0020844218D19DF800009DF850
:10591000011051EA00200400A4B2B4F57A6F02DA53
:105920004FF47A600400A4B244F62160844202DBA2
:1059300044F620600400200080B200E0012016BD83
:1059400038B50400A4B2200A8DF8000020008DF8BC
:1059500001000222002100A805F079F90500ADB28E
:10596000280A8DF8020028008DF80300042200A9FF
:1059700041F2B55005F0B6FB31BD10B582B004223E
:1059800000A94FF4AE5005F0C9FB0222002100A887
:1059900005F05DF90400A4B29DF802009DF8031023
:1059A00051EA0020844218D19DF800009DF80110B2
:1059B00051EA00200400A4B2B4F57A7F02DA4FF471
:1059C0007A700400A4B243F69920844202DB43F6C5
:1059D00098200400200080B200E0012016BD38B5F8
:1059E0000400A4B2200A8DF8000020008DF8010008
:1059F0000222002100A805F02AF90500ADB2280A0C
:105A00008DF8020028008DF80300042200A94FF44D
:105A1000AE5005F067FB31BD10B582B0042200A97D
:105A200041F2C55005F07AFB0222002100A805F0E2
:105A30000EF90400A4B29DF802009DF8031051EA8B
:105A4000002084420ED19DF800009DF8011051EA1B
:105A500000200400A4B2652C01DB642004002000B7
:105A600080B200E0642016BD38B50400A4B2200A5C
:105A70008DF8000020008DF801000222002100A80E
:105A800005F0E5F80500ADB2280A8DF802002800FF
:105A90008DF80300042200A941F2C55005F022FB55
:105AA00031BD10B582B0042200A941F2D05005F0FA
:105AB00035FB0222002100A805F0C9F80400A4B2B9
:105AC0009DF802009DF8031051EA002084420ED197
:105AD0009DF800009DF8011051EA00200400A4B2D6
:105AE000652C01DB64200400200080B200E001206E
:105AF00016BD38B50400A4B2200A8DF800002000BD
:105B00008DF801000222002100A805F0A0F8050090
:105B1000ADB2280A8DF8020028008DF80300042297
:105B200000A941F2D05005F0DDFA31BD38B50400CE
:105B3000A4B2200A8DF8000020008DF80100022296
:105B4000002100A805F083F80500ADB2280A8DF801
:105B5000020028008DF80300042200A941F2D4506D
:105B600005F0C0FA31BD10B582B0042200A941F29F
:105B7000D45005F0D3FA0222002100A805F067F8FE
:105B80000400A4B29DF802009DF8031051EA002021
:105B9000844210D19DF800009DF8011051EA0020C8
:105BA0000400A4B2B4F5FA7F02DD4FF4FA700400E9
:105BB000200080B200E0012016BD30B583B00400A3
:105BC000200E8DF80000200C8DF80100200A8DF8C1
:105BD000020020008DF803000422002100A805F037
:105BE00036F80500ADB2280A8DF8040028008DF8BB
:105BF0000500062200A941F2D85005F073FA37BD1E
:105C00001CB5062200A941F2D85005F087FA0422FB
:105C1000002100A805F01BF80400A4B29DF80400C0
:105C20009DF8051051EA002084420ED19DF8000035
:105C30009DF80110090451EA00609DF8021050EA35
:105C400001209DF80310084300E0002016BD38B580
:105C50000400E4B2002C01D0FF2004008DF80040C5
:105C60000122002100A804F0F2FF0500ADB2280ACD
:105C70008DF8010028008DF80200032200A94FF4DE
:105C8000B05005F02FFA31BD10B582B0032200A943
:105C90004FF4B05005F042FA0122002100A804F0B0
:105CA000D6FF0400A4B29DF801009DF8021051EA4D
:105CB0000020844202D19DF8000000E0002016BDC3
:105CC00038B50400A4B2200A8DF8000020008DF839
:105CD00001000222002100A804F0B9FF0500ADB2C6
:105CE000280A8DF8020028008DF80300042200A97C
:105CF00041F2106005F0F6F931BD10B582B0042212
:105D000000A941F2106005F009FA0222002100A862
:105D100004F09DFF0400A4B29DF802009DF803105A
