:10000000206F0010B5030100590501005D050100D6
:100010006105010065050100690501004672F9EFFF
:10002000000000000000000000000000D19B000064
:1000300071050100000000007F9B0000219A000074
:100040007D0501009F9800005B6A0000496900007F
:100050008D0501007F9F00004B7B00000000000029
:100060001BD70000A1050100A5050100A90501009D
:10007000AD050100B1050100B5050100B90501009C
:10008000BD050100C1050100C5050100CF690000E3
:10009000CD0501004F730000D5050100D905010011
:1000A000DD050100E1050100E5050100E9050100AC
:1000B000E9050100F1050100F5050100F905010060
:0400C000FD05010039
:1003000010B500240C2003F007FE2000C0B200F05E
:1003100053F81BE00C2003F0FFFD4CE0E4B2002C8E
:1003200003D0E4B22000641E02E008242000C0B222
:100330002000C0B200F040F8322003F0CAFEDFF81F
:100340000C080068401CDFF80418086004F020FB6B
:1003500000282DD004F0B5FAC0B20128DAD0EBD3D2
:10036000032803D0DAD304280CD0E5E7E4B2601CFC
:10037000092190FBF1F201FB12042000C0B200F051
:100380001BF8D9E7E4B2DFF8B00850F824000028E1
:100390000AD0E4B2DFF8A00850F82400804720001B
:1003A000C0B200F009F8C7E70C2003F0B5FD02E089
:1003B0000C2003F0B1FD10BD10B504000021002099
:1003C00003F08FFDDFF8880703F0C3FD0121002053
:1003D00003F087FDE4B2DFF8640850F8240003F06E
:1003E000B8FD0121002003F07CFD7E2003F094FD88
:1003F00010BD10B500240C2003F08EFD2000C0B20B
:1004000000F042F80DE0E4B2601C082190FBF1F42A
:1004100004FB11042000C0B200F036F8322003F0D3
:1004200058FE04F0B5FA00282DD004F04AFAC0B204
:10043000012818D0F2D30328E5D015D30428EDD134
:10044000E4B2DFF8500850F8240000280AD0E4B2E3
:10045000DFF8400850F8240080472000C0B200F0C8
:1004600013F8DBE70FE00EE0E4B2002C03D0E4B2B7
:100470002000641E02E007242000C0B22000C0B2A9
:1004800000F002F8CAE710BD10B5040000210020FA
:1004900003F027FDDFF8000803F05BFD01210020D9
:1004A00003F01FFDE4B2DFF8780850F8240003F0F1
:1004B00050FD0121002003F014FD7E2003F02CFDEF
:1004C00010BD10B586B0002004F043FB04000C20E2
:1004D00003F022FDDFF8C40703F03BFD14E0A4B2F3
:1004E000B42C00DA641CA4B22200DFF8901800A833
:1004F00005F004FC0121062003F0F3FC00A803F042
:1005000028FD322003F0E5FD04F042FA002818D05F
:1005100004F0D7F9C0B201280AD0E4D30328DED012
:100520000AD30428DFD1210089B2002004F0C7FAE1
:100530000C2003F0F1FC04E0A4B21F2C00DB641ECD
:10054000D1E706B010BD10B586B0012004F001FB64
:1005500004000C2003F0E0FCDFF8C80703F0F9FC0E
:1005600014E0A4B2C82C00DA641CA4B22200DFF8A4
:10057000A41800A805F0C2FB0121062003F0B1FC7D
:1005800000A803F0E6FC322003F0A3FD04F000FA1B
:10059000002818D004F095F9C0B201280AD0E4D39D
:1005A0000328DED00AD30428DFD1210089B201203C
:1005B00004F085FA0C2003F0AFFC04E0A4B23D2C5B
:1005C00000DB641ED1E706B010BD10B586B0022076
:1005D00004F0BFFA04000C2003F09EFCDFF8A00733
:1005E00003F0B7FC15E0DFF8A40841F288310160A0
:1005F000A4B22200DFF8201800A805F07FFB01213B
:10060000032003F06EFC00A803F0A3FC322003F0EB
:1006100060FD04F0BDF9002844D004F052F9C0B2E6
:1006200001280AD0DFD3032823D00AD30428DAD143
:10063000210089B2022004F042FA0C2003F06CFC85
:1006400030E0A4B2B4F5FA6F12DDDFF840080068BC
:1006500041F28931884201D3641E09E0DFF82C0899
:10066000006840F6B931884201D30A3C00E0643C9E
:10067000BEE7A4B244F25060844212DADFF80C08FC
:10068000006841F28931884201D3641C09E0DFF837
:10069000FC07006840F6B931884201D30A3400E013
:1006A0006434A5E706B010BD10B586B0052004F08F
:1006B00050FA04000C2003F02FFCDFF8A80803F028
:1006C00048FC16E0A4B240F2E730844200DA641C31
:1006D000A4B22200DFF8901800A805F00FFB01215A
:1006E000032003F0FEFB00A803F033FC322003F0EC
:1006F000F0FC04F04DF9002818D004F0E2F8C0B284
:1007000001280AD0E4D30328DCD00AD30428DFD19F
:10071000210089B2052004F0D2F90C2003F0FCFB83
:1007200004E0A4B2022C00DB641ED1E706B010BDC9
:10073000F0B585B00400002500A8DFF830180CC91A
:100740000CC008390838002601270C2003F0E4FB10
:10075000DFF81C0803F0FDFB30E0EDB200A8285CD8
:10076000401EEDB200A96854EDB200A8285C302804
:1007700003DAEDB200A8392129547F1E3800C0B237
:10078000002818D10427F6B2F643042200A902A8D3
:1007900005F0CEFA00208DF80C00F6B2002E03D042
:1007A000EDB202A85F2129540121062003F099FB34
:1007B00002A803F0CEFB322003F08BFC04F0E8F833
:1007C000002855D004F07DF8C0B201283DD0D4D324
:1007D00003283CD0C1D30428CFD16D1CEDB2042D29
:1007E00032DB9DF800004FF47A719DF801206423FC
:1007F0005A4301FB00209DF802100A2202FB01006F
:100800009DF80310081800F53C50B03080B2A4B237
:10081000A04201D1FF202CE00C2003F07DFBDFF88B
:10082000300803F096FB0121002003F05AFBDFF8AB
:10083000A80803F08EFB40F6B83003F04AFC0C2009
:1008400003F06AFB002014E097E7002011E0EDB20E
:1008500000A8285C401CEDB200A96854EDB200A8C5
:10086000285C3A2803DBEDB200A83021295484E744
:10087000002005B0F0BD1FB500240DF10D00019062
:1008800003A800900DF10B030DF10A020DF109010F
:1008900002A804F01FFA0C2003F03EFBDFF8E80A80
:1008A00003F057FBE4B202A8215C2000C0B200F0C4
:1008B00058F80CE006242000C0B2E4B202A8215C83
:1008C0002000C0B200F04DF8322003F002FC04F02A
:1008D0005FF8002844D003F0F4FFC0B2012828D00C
:1008E000F2D3032826D034D30428EDD1E4B2062C69
:1008F00010D19DF80D0001909DF80C0000909DF81E
:100900000B309DF80A209DF809109DF8080004F0AE
:100910008DF925E0E4B202A8205CC043E4B202A94C
:100920006054E4B202A8215C2000C0B200F019F8C3
:10093000CAE715E0E4B2601C072190FBF1F201FB6D
:100940001204E4B202A8215C2000C0B200F009F851
:10095000BAE7E4B2002CADD0E4B22000641EACE7EC
:100960001FBD38B504000D000121002003F0B9FAC5
:10097000E4B2DFF8880A50F8240003F0EAFAE4B29F
:10098000062C09DAEDB2002D06D00121022003F079
:10099000A8FA582003F0C0FA31BDF0B58BB000249E
:1009A000002501266948006805F0CEF905F0DCF95C
:1009B00042F2107190FBF1F201FB12070C2003F0E0
:1009C000ABFABFB23A00DFF8381A00A805F096F982
:1009D00000A803F0BEFA0121002003F082FADFF83C
:1009E000240A03F0B6FADFF8201A00A805F086F909
:1009F00030E0E4B200A8205C401EE4B200A96054DC
:100A0000E4B200A8205C302803DAE4B200A839215F
:100A10002154761E3000C0B2002818D10426EDB251
:100A2000ED43112200A905A805F082F900208DF8F8
:100A30001B00EDB2002D03D0E4B205A85F212154C4
:100A40000121072003F04DFA05A803F082FA3220B5
:100A500003F03FFB03F09CFF002874D003F031FF4C
:100A6000C0B201285DD0D4D303285BD0C1D3042801
:100A7000CFD1E4B2052C52DB9DF80000DFF8D4158D
:100A80009DF8012042F210735A4301FB00209DF8AB
:100A900002104FF47A7202FB01009DF803106422E9
:100AA00002FB01009DF804100A2202FB01009DF8E0
:100AB00005100818DFF8FC1608188003800B840B5B
:100AC0008004800C40F6BC3191EA00050C2003F054
:100AD00023FAADB2BFB2BD4210D1E4B2200005F09E
:100AE000BDF9DFF81C0A03F034FA0121002003F0FD
:100AF000F8F9DFF8640A03F02CFA0BE0DFF8500590
:100B000003F027FA0121002003F0EBF9DFF84C0A8B
:100B100003F01FFA40F6B83003F0DBFA13E0641C70
:100B200077E710E0E4B200A8205C401CE4B200A922
:100B30006054E4B200A8205C3A2803DBE4B200A8C9
:100B40003021215465E70BB0F0BD0000646B00104C
:100B500078FF000010B5002405F0A0F880B2FFF780
:100B6000E7FD002849D00C2003F0D6F92000C0B2E0
:100B700000F044F809E007242000C0B22000C0B211
:100B800000F03CF8642003F0A4FA03F001FF002811
:100B900033D003F096FEC0B2012817D0F2D3032859
:100BA00018D023D30428EDD1E4B2DFF86C0A50F852
:100BB000240000280AD0E4B2DFF85C0A50F82400D0
:100BC00080472000C0B200F019F8DBE70C2003F0EA
:100BD000A3F912E0E4B2601C082190FBF1F404FBDD
:100BE00011042000C0B200F009F8CBE7E4B2002CF9
:100BF000C1D0E4B22000641EC0E710BD10B50400EF
:100C00000021002003F06DF9DFF8100A03F0A1F9CC
:100C10000121002003F065F9E4B2DFF8B00A50F8D2
:100C2000240003F096F90121002003F05AF97E20F8
:100C300003F072F910BD0000C4EF00008003001043
:100C400000B585B004F0EBF80200DFF8D41900A875
:100C500005F054F80C2003F05FF9DFF87C0A03F08C
:100C600078F90121002003F03CF900A803F071F9A4
:100C700002E0642003F02DFA03F08AFE002807D07A
:100C800003F01FFEC0B2012801D00428F1D1FFE714
:100C900005B000BD14F0000088FF000068FA0000F5
:100CA00010B50C2003F038F9DFF8240A03F051F9ED
:100CB0000121002003F015F9DFF8180A03F049F9C3
:100CC00003F0FFFD0400E4B2042C01D105F012F999
:100CD000E4B2012CF4D104F0E1FF80B2FFF728FD6B
:100CE00000281BD00C2003F017F9DFF8F00903F0FF
:100CF00030F90121002003F0F4F8DFF8740A03F062
:100D000028F9002004F0B2F8002004F0E7FB0020EE
:100D100004F046FF41F2883003F0DBF910BD00001B
:100D2000A40300107CFA000000B585B004F0BDF803
:100D30000200DFF8EC1800A804F0E0FF0C2003F03C
:100D4000EBF8DFF8380A03F004F90121002003F082
:100D5000C8F800A803F0FDF802E0642003F0B9F938
:100D600003F016FE002807D003F0ABFDC0B2012847
:100D700001D00428F1D1FFE705B000BD4004010017
:100D800090FA000010B586B004F0D5F804000C20ED
:100D900003F0C2F8DFF8E80903F0DBF813E0782489
:100DA000200080B2A4B22200DFF8D81900A804F015
:100DB000A5FF0121062003F094F800A803F0C9F86C
:100DC000642003F086F903F0E3FD00281FD003F050
:100DD00078FDC0B2012809D0E4D303280AD00FD38C
:100DE0000428DFD1200080B204F0C4F80C2003F006
:100DF00093F80CE00A34A4B2792C00DB0024D1E78C
:100E0000A4B2002CCBD00A3C200080B2CAE706B0C6
:100E100010BD000048040100F801010010B504F005
:100E2000C2F804000C2003F077F8DFF85C0903F047
:100E300090F805E084A003F08CF8642003F049F9F1
:100E400003F0A6FD00281FD003F03BFDC0B201282F
:100E500009D00ED303280AD009D3042809D12000D1
:100E600080B204F0BFF80C2003F056F80CE0A4B2F6
:100E7000E4430121062003F034F8A4B2002CD9D0B9
:100E800072A003F066F8D8E710BD0000906B001068
:100E900010B586B004F0F1F804000C2003F03CF823
:100EA000DFF8380A03F055F815E0DFF8C40A40F619
:100EB000B8310160A4B22200DFF8241A00A804F0BF
:100EC0001DFF0121032003F00CF800A803F041F8F6
:100ED000322003F0FEF803F05BFD00283FD003F062
:100EE000F0FCC0B2012809D0DFD3032820D009D3F9
:100EF0000428DAD1200080B204F0A6F80C2003F018
:100F00000BF82CE0A4B2B4F5FA6F10DDDFF8600A3C
:100F10000068B0F57A7F01D9641E08E0DFF8500A56
:100F20000068B0F5FA7F01D90A3C00E0643CC1E7F3
:100F3000A4B244F25060844210DADFF8340A006848
:100F4000B0F57A7F01D9641C08E0DFF8240A006854
:100F5000B0F5FA7F01D90A3400E06434AAE706B09C
:100F600010BD0000A4FA00000402010050040100BA
:100F7000B8FA000010B586B004F0C5F804000C20E3
:100F800002F0CAFFDFF8EC0902F0E3FF15E0DFF83A
:100F9000E00940F6B8310160A4B22200DFF8401940
:100FA00000A804F0ABFE0121032002F09AFF00A884
:100FB00002F0CFFF322003F08CF803F0E9FC0028A8
:100FC0003FD003F07EFCC0B2012809D0DFD3032854
:100FD00020D009D30428DAD1200080B204F07AF8B6
:100FE0000C2002F099FF2CE0A4B2B4F5FA6F10DDEA
:100FF000DFF87C090068B0F57A7F01D9641E08E04B
:10100000DFF86C090068B0F5FA7F01D90A3C00E00E
:10101000643CC1E7A4B244F25060844210DADFF8C5
:1010200050090068B0F57A7F01D9641C08E0DFF848
:1010300040090068B0F5FA7F01D90A3400E0643451
:10104000AAE706B010BD00004E414F0053494D00C5
:1010500058040100A086010010B586B004F0BCF869
:1010600004000C2002F058FFDFF8C80A02F071FFFC
:1010700014E0A4B2782C00DA641CA4B22200DFF8D9
:10108000B81A00A804F03AFE0121062002F029FF58
:1010900000A802F05EFF322003F01BF803F078FC9A
:1010A000002817D003F00DFCC0B2012809D0E4D30A
:1010B0000328DED009D30428DFD1200080B204F059
:1010C000B4F80C2002F028FF04E0A4B2022C00DBEC
:1010D000641ED2E706B010BD1002010010B586B044
:1010E00004F0BCF804000C2002F016FFDFF84C0AF4
:1010F00002F02FFF15E0DFF8780840F6B831016004
:10110000A4B22200DFF8D81700A804F0F7FD0121EF
:10111000062002F0E6FE00A802F01BFF322002F0DB
:10112000D8FF03F035FC002842D003F0CAFBC0B260
:10113000012809D0DFD3032823D009D30428DAD12A
:10114000200080B204F0B6F80C2002F0E5FE2FE09B
:10115000A4B241F28930844212DBDFF8140800683F
:1011600041F28931884201D3641E09E0DFF80008AA
:10117000006841F28931884201D30A3C00E0643CB6
:10118000BEE7A4B244F25060844210DADFF8E00710
:101190000068B0F57A7F01D9641C08E0DFF8D00759
:1011A0000068B0F5FA7F01D90A3400E06434A7E79B
:1011B00006B010BDB09EAEFF10B500242000C0B236
:1011C00000F042F80DE0E4B2601C132190FBF1F254
:1011D00001FB12042000C0B200F036F8322002F009
:1011E00078FF03F0D5FB00282DD003F06AFBC0B2D6
:1011F000012818D0F2D30328E5D015D30428EDD167
:10120000E4B2DFF8600A50F8240000280AD0E4B203
:10121000DFF8500A50F8240080472000C0B200F0E8
:1012200013F8DBE70FE00EE0E4B2002C03D0E4B2E9
:101230002000641E02E012242000C0B22000C0B2D0
:1012400000F002F8CAE710BD10B50400002100202C
:1012500002F047FEDFF8100A02F07BFE01210020B9
:1012600002F03FFEE4B2DFF8040A50F8240002F076
:1012700070FE0121002002F034FE7E2002F04CFEC0
:1012800010BD00B585B00C2002F046FEDFF8E00985
:1012900002F05FFE15E005F018F905F079F905F0A8
:1012A00087F90200DFF8CC1900A804F027FD01211E
:1012B000002002F016FE00A802F04BFE642002F0AF
:1012C00008FF03F0FEFAC0B20128E4D105B000BD6A
:1012D000000010B586B00C2002F01EFEDFF8980961
:1012E00002F037FE042003F034FC040006E0DFF8CF
:1012F0008C0902F02EFE642002F0EBFE03F0E1FA0E
:10130000C0B2012801D106B010BDC0B204281DD161
:101310000121002002F0E5FDDFF8640902F019FE6A
:101320000121002002F0DDFD200005F05AF900281F
:1013300004D0DFF8500902F00CFE03E0DFF84809A2
:1013400002F007FE40F6B83002F0C3FE05F0FFF8E9
:1013500080B20200DFF8341900A804F0CFFC0121AC
:10136000012002F0BEFD00A802F0F3FD01210820DB
:1013700002F0B7FD05F067F90028B8D0DFF8FC0AE5
:1013800002F0E7FDB7E70000CCFA000010B50C2032
:1013900002F0C2FDDFF8F80802F0DBFD05E09DA0D9
:1013A00002F0D7FD642002F094FE03F08AFAC0B286
:1013B000012821D0042811D10121002002F091FD43
:1013C000DFF8BC0A02F0C5FD05F067F90121002035
:1013D00002F087FDDFF8AC0A02F0BBFD05F08DF9E5
:1013E00004000121052002F07CFDE4B2002CD6D0DF
:1013F000B5A002F0AEFDD5E710BD0000E40300107B
:101400001C0201006004010068040100F0B585B011
:1014100000244FF47A654FF4E1660C2002F07CFD65
:10142000DFF8640A02F095FD19E005F070FB020098
:101430003B00DFF8581A00A804F060FC00A805F093
:1014400009FC0121C0B2D0F110004010C0B202F07E
:1014500048FD00A802F07DFD642002F03AFE03F092
:1014600030FAC0B2012813D02AD3032812D01DD3DA
:10147000042825D1E4B2E443E4B2002C04D0ADB298
:10148000280005F021FB02E0002005F01DFB17E01D
:1014900005B0F0BDDFF8D80440F6B8310160ADB258
:1014A00042F6E060854200DA643509E0DFF8C00406
:1014B00040F6B8310160ADB2B5F5167F00DD643D90
:1014C000DFF8AC04006800280BD1ADB2B6B2B5426B
:1014D00007D0E4B2002C04D0ADB2280005F0F4FA35
:1014E0002E00E4B2002C01D0A2A700E0A2A7DFF8F2
:1014F00080040068002898D0ADB22A0098E7000068
:101500002802010000B585B00C2002F005FDDFF8CF
:10151000000A02F01EFDFF2005F010FB12E005F0AE
:1015200099FA80B20200DFF8EC1900A804F0E6FB9B
:101530000121052002F0D5FC00A802F00AFD64207C
:1015400002F0C7FD03F0BDF9C0B20128E7D10020C9
:1015500005F0F4FA05B000BD3402010040020100BC
:1015600038B50024042003F0F4FA05000C2002F042
:10157000D3FCDFF8A40902F0ECFC06E0DFF89C09DC
:1015800002F0E7FC642002F0A4FD03F09AF9C0B277
:1015900001283DD010D303281AD019D304280BD129
:1015A000E4B2E443E4B2002C03D0012005F056F885
:1015B00002E0002005F052F80121002002F091FC29
:1015C000E4B2002CDAD0DFF8600A02F0C2FCD9E7FE
:1015D0000121002002F085FCDFF8A40602F0B9FC2E
:1015E0000121002002F07DFCADB2280004F0F9FFDB
:1015F000002804D0DFF88C0602F0ABFC03E0DFF833
:10160000880602F0A6FC40F6B83002F062FDD3E78F
:1016100031BD00005B305D0034F00000E0FA0000F6
:101620004C02010010B586B00024002005F003FE36
:101630000C2002F071FCDFF8F40902F08AFC06E0ED
:10164000DFF8EC0902F085FC642002F042FD03F0B3
:1016500038F9C0B2012832D007D3032803D002D30F
:10166000042820D001E005F03BFE05F071FC05F0F8
:10167000D3FF02000B00DFF8601A00A804F03EFB65
:101680000121002002F02DFC00A802F062FC0121E3
:10169000082002F026FCE4B2002CD1D0DFF83C0A8E
:1016A00002F057FCD0E7E4B2E4432000C0B205F0FA
:1016B000F8FD00220021002006F085F9D5E705F0AD
:1016C0000FFE06B010BD00005B315D00C4030010CA
:1016D00008FB00001CFB0000F4FA000058020100A7
:1016E00038B5052401250C2002F016FCDFF8C80AE5
:1016F00002F02FFC36E0641E2000C0B200282ED17C
:10170000052400220021012006F05DF900220021BD
:10171000022006F058F900220021032006F053F9B8
:1017200000220021042006F04EF9002200210520AD
:1017300006F049F900220021062006F044F90122B2
:101740000021072006F03FF9012201212800C0B244
:1017500006F039F96D1CEDB2082D00DB012564207F
:1017600002F0B7FC03F0ADF8C0B20128C3D131BD1F
:10177000640201004F4E00004F46460030FB00005F
:1017800044FB00007002010058FB000010B503F09C
:101790002BFE0400A4B2002C01D04FF6FF740C20E5
:1017A00002F0BAFBDFF8940A02F0D3FB05E09FA039
:1017B00002F0CFFB642002F08CFC03F0E9F8002873
:1017C0001FD003F07EF8C0B2012809D00ED3032841
:1017D0000AD009D3042809D1200080B203F027FEE3
:1017E0000C2002F099FB0CE0A4B2E4430121062096
:1017F00002F077FBA4B2002CD9D0CDA002F0A9FB57
:10180000D8E710BD1CB500240C2002F085FBDFF8E2
:10181000340A02F09EFB03F03CFE040047E0A4B251
:10182000022C00DB641EA4B24FF47A7094FBF0F03B
:101830000A2190FBF1F201FB120030308DF800001C
:10184000A4B2642094FBF0F00A2190FBF1F201FBBA
:10185000120030308DF80100A4B20A2094FBF0F0A1
:101860000A2190FBF1F201FB120030308DF80200EA
:101870002E208DF80300A4B20A2094FBF0F100FBA7
:10188000114030308DF8040020208DF8050025200F
:101890008DF8060000208DF807000121062002F0D7
:1018A00020FB00A802F055FB642002F012FC03F0BC
:1018B0006FF8002811D003F004F8C0B2012809D055
:1018C000B1D3032807D0AAD30428ACD1200080B21A
:1018D00003F0C6FD01E0641CA5E713BD6CFB00002E
:1018E000F801010080B50C2002F016FBDFF85C095E
:1018F00002F02FFB06E0DFF8580902F02AFB642013
:1019000002F0E7FB02F0DDFFC0B2012800D101BD0B
:101910000121032002F0E5FA03F052F80028EAD092
:10192000DFF8380902F015FBE9E780B50C2002F07A
:10193000F3FADFF8200902F00CFB06E0DFF81009EB
:1019400002F007FB642002F0C4FB02F0BAFFC0B251
:10195000012800D101BD0121032002F0C2FA03F0E9
:101960001AF80028EAD0DFF8F40802F0F2FAE9E702
:10197000906B001080FB000000B583B00C2002F0DB
:10198000CBFADFF8D40802F0E4FA06E0DFF8D0087A
:1019900002F0DFFA642002F09CFB02F092FFC0B27A
:1019A000012800D107BD0121032002F09AFA00208E
:1019B000019000200090002300220021012006F069
:1019C0002EF90028E2D0DFF89C0802F0C2FAE1E725
:1019D00010B500240C2002F09FFADFF88C0802F00A
:1019E000B8FA06E0DFF8840802F0B3FA642002F0E7
:1019F00070FB02F066FFC0B2012813D0042801D1A9
:101A000094F0FF042000C0B204F056FA0121032034
:101A100002F067FAE4B2002CE4D0DFF8540802F0D8
:101A200098FAE3E7002004F047FA10BD4E414F005A
:101A300010B586B077240C2002F06EFADFF8340877
:101A400002F087FA022003F084F880B205F03CF837
:101A50006421732005F058F84CE0A4B2002C00D0AB
:101A6000641E6421A4B2200005F04EF801210A2072
:101A700002F037FA5B208DF80000A4B24FF47A70C0
:101A800094FBF0F00A2190FBF1F201FB12003030E0
:101A90008DF80100A4B2642094FBF0F00A2190FBC1
:101AA000F1F201FB120030308DF80200A4B20A20DE
:101AB00094FBF0F00A2190FBF1F201FB12003030B0
:101AC0008DF80300A4B20A2094FBF0F100FB114052
:101AD00030308DF804005D208DF8050000208DF871
:101AE000060000A802F035FA002006F07BFD642015
:101AF00002F0EFFA02F0E5FEC0B2012807D0B5D33C
:101B000003280DD0A9D30428B0D10024AEE70020CB
:101B100004F0DAFF0021002004F0F6FF06B010BD4B
:101B2000641C6421A4B2200004F0EEFF9EE70000D4
:101B300053494D0094FB00007C020100A8FB00000B
:101B400000B583B040F68E40FEF7F2FD002803D1C9
:101B50000C2002F0E1F942E05021002002F0AFFF3A
:101B60006421012002F0ABFF41F2EC31022002F0CF
:101B7000A6FF412003F04FFA2821042002F09FFF26
:101B800043F2D40003F060FA43F2C82003F0A2FA53
:101B9000032003F04AFB43F6982003F08BFB41F24D
:101BA0004A5003F0CCFB052003F0FDFA142003F0AB
:101BB00002FC0C2002F0B0F9412003F008FD0020E7
:101BC000019000200090002300220121012003F059
:101BD0002DF80A2003F0CEF9012003F003FA07BD27
:101BE00010B504F05BF880B2FEF7A2FD002803D127
:101BF0000C2002F091F933E00C2002F08DF9DFF8AF
:101C0000740702F0A6F903F0C8FC040006E0DFF850
:101C1000680702F09EF9322002F05BFA02F0B8FE8B
:101C200000281DD002F04DFEC0B2012809D00BD310
:101C3000032807D006D3042806D12000C0B203F041
:101C400093FC0DE094F0FF040121052002F049F916
:101C5000E4B2002CDBD0DFF8240702F07AF9DAE7EF
:101C600010BD0000D4EC0000BCFB00008C02001092
:101C700098FF000070040100A8FF00008804010024
:101C8000B8FF0000C8FF0000D8FF00007804010082
:101C9000880201002DE9F0418AB0002500260127C5
:101CA0000024DFF8DC06006804F04EF804F05CF86D
:101CB00042F2107190FBF1F201FB12080C2002F0CD
:101CC0002BF91FFA88F84246DFF8B81600A804F08E
:101CD00015F800A802F03DF90121002002F001F9F9
:101CE000DFF8A40602F035F9DFF8A01600A804F02A
:101CF00005F830E0EDB200A8285C401EEDB200A966
:101D00006854EDB200A8285C302803DAEDB200A8D0
:101D1000392129547F1E3800C0B2002818D1042769
:101D2000F6B2F643112200A905A804F001F800203C
:101D30008DF81B00F6B2002E03D0EDB205A85F218E
:101D400029540121072002F0CCF805A802F001F97E
:101D5000322002F0BEF902F01BFE002800F08B805A
:101D600002F0AFFDC0B2012873D0D3D3032871D0E5
:101D7000C0D30428CED1EDB2052D68DB9DF800005C
:101D8000DFF850179DF8012042F210735A4301FB0F
:101D900000209DF802104FF47A7202FB01009DF8BA
:101DA0000310642202FB01009DF804100A2202FBCA
:101DB00001009DF805100818DFF81C1708188003AB
:101DC000800B840B8004800C40F6BC3191EA000546
:101DD0000C2002F0A1F8ADB21FFA88F8454525D1D4
:101DE000DFF8F80602F0B5F80121002002F079F8DA
:101DF000DFF8EC0602F0ADF8002002F0F1FF002061
:101E000003F034F8002003F077F8002003F066FBBD
:101E1000002003F0DAFD002003F0C2FE002003F0F2
:101E200005FF41F2883002F054F90BE0DFF8B40608
:101E300002F08FF80121002002F053F8DFF82808A3
:101E400002F087F840F6B83002F043F913E06D1C59
:101E500060E710E0EDB200A8285C401CEDB200A9DC
:101E60006854EDB200A8285C3A2803DBEDB200A864
:101E7000302129544EE70AB0BDE8F081800401000A
:101E800094020100A0020100E8FF0000F8FF00003A
:101E900010B586B003F0B4FB04000C2002F03CF84F
:101EA000DFF8440602F055F814E0A4B2C82C00DABA
:101EB000641CA4B22200DFF8081800A803F01EFF7B
:101EC0000121062002F00DF800A802F042F83220AD
:101ED00002F0FFF802F05CFD002817D002F0F1FCE0
:101EE000C0B2012809D0E4D30328DED009D30428E6
:101EF000DFD1200080B203F06AFB0C2002F00CF866
:101F000004E0A4B2242C00DB641ED2E706B010BDAE
:101F1000D0FB000090040100E4FB0000B8020100C7
:101F2000F0B59BB004000AA8DFF8A818442207F017
:101F300087F90025002601270C2001F0EDFF002184
:101F4000002001F0CEFFE4B211200AA900FB04102A
:101F500001F0FFFF02F008F800A92000C0B203F072
:101F6000ABFB30E0EDB200A8285CEDB200A9421C4A
:101F70006A54C0B2002808D0EDB200A8285C7B28C3
:101F800003DBEDB200A8202129547F1E3800C0B227
:101F9000002815D10A27F6B2F643112200A905A898
:101FA00003F0C6FE0121002001F09BFFF6B2002ED7
:101FB00003D0EDB205A85F21295405A801F0C9FF9F
:101FC000322002F086F802F0E3FC00282AD002F06A
:101FD00078FCC0B2012810D0D7D30328C2D00FD3C9
:101FE0000428D2D16D1CEDB2102D05DB00A9200014
:101FF000C0B203F043FB15E0C7E701F0C2FF11E0F8
:10200000EDB200A8285C202804D1EDB200A87A2106
:10201000295406E0EDB200A8285C401EEDB200A9EC
:102020006854B2E71BB0F0BDAC020100080001002B
:10203000DC02010080B50020FFF772FF01BD80B512
:102040000120FFF76DFF01BD80B50220FFF768FF9B
:1020500001BD80B50320FFF763FF01BD10B503F09C
:1020600078FB0400A4B2002C01D04FF6FF740C20C2
:1020700001F052FFDFF8600701F06BFF05E070A090
:1020800001F067FF0A2002F024F802F081FC00282A
:1020900021D002F016FCC0B2012809D010D30328C9
:1020A0000AD009D304280BD12000C0B203F038FBBA
:1020B0000C2001F031FF0EE084F47F4494F0FF0423
:1020C0000121062001F00DFFA4B2002CD7D05EA0A4
:1020D00001F03FFFD6E710BDC4020100D0020100AD
:1020E00010B586B003F068FB04000C2001F014FF6B
:1020F000DFF8A00701F02DFF15E0DFF89C0743F69D
:1021000098210160A4B22200DFF8901700A803F024
:10211000F5FD0121032001F0E4FE00A801F019FF04
:10212000322001F0D6FF02F033FC002841D002F04B
:10213000C8FBC0B2012809D0DFD3032821D009D3BE
:102140000428DAD1200080B203F01DFB0C2001F03E
:10215000E3FE2EE0A4B2B4F5FA6F11DDDFF8380724
:102160000068B0F5FA5F01D9641E09E0DFF82807BE
:10217000006841F28931884201D30A3C00E0643CA6
:10218000C0E7A4B244F25060844211DADFF80807D5
:102190000068B0F5FA5F01D9641C09E0DFF8F806C1
:1021A000006841F28931884201D30A3400E0643486
:1021B000A8E706B010BD00001800010010B586B0F9
:1021C00003F027FB04000C2001F0A6FEDFF8D00688
:1021D00001F0BFFE14E0A4B2C82C00DA641CA4B263
:1021E0002200DFF8DC1400A803F088FD012106209E
:1021F00001F077FE00A801F0ACFE322001F069FF8B
:1022000002F0C6FB002817D002F05BFBC0B2012829
:1022100009D0E4D30328DED009D30428DFD120007D
:1022200080B203F01DFB0C2001F076FE04E0A4B2A6
:102230003D2C00DB641ED2E706B010BDF8FB0000A9
:102240004E414F002800010053494D003800010065
:10225000F40201004800010058000100E8020100FA
:102260000C030100000301000CFC0000A0040100AD
:102270009804010020FC000010B5002400F036F99D
:10228000002800D110BD2000C0B200F03DF80DE0E4
:10229000E4B2601C052190FBF1F201FB1204200066
:1022A000C0B200F031F8322001F013FF02F009FB58
:1022B000C0B2012818D0F6D30328E9D015D30428DA
:1022C000F1D1E4B2DFF8A00C50F8240000280AD0C5
:1022D000E4B2DFF8940C50F8240080472000C0B22C
:1022E00000F012F8DFE7CDE7CCE7E4B2002C03D032
:1022F000E4B22000641E02E004242000C0B22000EA
:10230000C0B200F001F8CEE710B5040000210020B3
:1023100001F0E7FDDFF8900B01F01BFE012100202A
:1023200001F0DFFDE4B2DFF8440C50F8240001F0C6
:1023300010FE10BD80B5DFF8380C00F029F803F06E
:10234000CDF801BD80B5DFF82C0C00F021F802F0CB
:1023500047FD01BD80B5DFF84C0D00F019F802F023
:1023600085FD01BD80B5DFF8400D00F011F802F0E9
:10237000C3FD01BD68000100B0040100A804010014
:10238000646B00101C02010060040100680401007D
:10239000F0B587B0040000A8DFF8DC1B2CC92CC006
:1023A0000C390C380025012600270C2001F0B4FD63
:1023B0000021002001F095FD200001F0CAFD32E06F
:1023C000EDB200A8285C392805DB3020EDB200A969
:1023D0006854C0B209E0EDB200A8285CEDB200A9D3
:1023E000695C491CEDB200AAA954761E3000C0B247
:1023F000002815D10A26092200A903A803F098FC99
:10240000FFB2FF43FFB2002F03D0EDB203A85F215C
:1024100029540121042001F064FD03A801F099FD75
:10242000322001F056FE02F04CFAC0B201284ED024
:10243000DBD30328C4D002D3042816D0D5E7EDB2ED
:1024400000A8285C312805DA3920EDB200A96854CB
:10245000C0B209E0EDB200A8285CEDB200A9695C49
:10246000491EEDB200AAA954BFE7EDB2072D2CDB3F
:102470009DF80000DFF8341C9DF80120DFF8303CA7
:102480005A4301FB00209DF80210124A02FB010092
:102490009DF8031042F2107202FB01009DF8041037
:1024A0004FF47A7202FB01009DF80510642202FBD2
:1024B00001009DF806100A2202FB01009DF807109A
:1024C0000818DFF8281D081802E06D1C8DE70020B1
:1024D00007B0F0BDA0860100B09EAEFF180301005A
:1024E000B80401005804010034FC00002DE9F0415B
:1024F0008AB00025002601270024DFF8B80B006809
:1025000003F022FC03F030FC42F2107190FBF1F278
:1025100001FB12080C2001F0FFFC1FFA88F842466C
:10252000DFF8941B00A803F0E9FB00A801F011FDFF
:102530000121002001F0D5FCDFF8800B01F009FD3E
:10254000DFF87C1B00A803F0D9FB30E0EDB200A857
:10255000285C401EEDB200A96854EDB200A8285CCA
:10256000302803DAEDB200A8392129547F1E380043
:10257000C0B2002818D10427F6B2F643112200A9F0
:1025800005A803F0D5FB00208DF81B00F6B2002E45
:1025900003D0EDB205A85F2129540121072001F0E5
:1025A000A0FC05A801F0D5FC322001F092FD02F05C
:1025B000EFF9002854D002F084F9C0B201283CD0D1
:1025C000D4D303283BD0C1D30428CFD1EDB2052DFD
:1025D00031DB9DF80000DFF8181C9DF8012042F265
:1025E00010735A4301FB00209DF802104FF47A72D9
:1025F00002FB01009DF80310642202FB01009DF81C
:1026000004100A2202FB01009DF805100818DFF8EB
:10261000941C08188003800B840B8004800C40F607
:10262000BC31484080B21FFA88F8404501D1FF20F4
:1026300017E0002015E06D1C98E7002011E0EDB2D6
:1026400000A8285C401CEDB200A96854EDB200A8B7
:10265000285C3A2803DBEDB200A83021295485E735
:1026600000200AB0BDE8F0814002010000B585B04D
:1026700002F053FF0200DFF87C1B00A803F03EFBD2
:102680000C2001F049FCDFF8200C01F062FC012174
:10269000002001F026FC00A801F05BFC02E06420B1
:1026A00001F017FD02F074F9002807D002F009F9D3
:1026B000C0B2012801D00428F1D1FFE705B000BD68
:1026C0004804010000B585B002F063FB0200DFF8AA
:1026D000241B00A803F012FB0C2001F01DFCDFF806
:1026E000C80B01F036FC0121002001F0FAFB00A824
:1026F00001F02FFC02E0642001F0EBFC02F048F94D
:10270000002807D002F0DDF8C0B2012801D004286B
:10271000F1D1FFE705B000BD10B500242000C0B224
:1027200000F042F80DE0E4B2601C072190FBF1F2EA
:1027300001FB12042000C0B200F036F8322001F094
:10274000C8FC02F025F900282DD002F0BAF8C0B27A
:10275000012818D0F2D30328E5D015D30428EDD1F1
:10276000E4B2DFF88C0C50F8240000280AD0E4B260
:10277000DFF87C0C50F8240080472000C0B200F045
:1027800013F8DBE70FE00EE0E4B2002C03D0E4B274
:102790002000641E02E006242000C0B22000C0B267
:1027A00000F002F8CAE710BD10B5040000210020B7
:1027B00001F097FBDFF8F40A01F0CBFB01210020C8
:1027C00001F08FFBE4B2DFF8B40C50F8240001F004
:1027D000C0FB10BD68ED000048FC000010B590B0D3
:1027E0000A240021002001F07CFBDFF8C00B01F07F
:1027F000B0FB0121002001F074FBDFF8B40B01F005
:10280000A8FB00A805F0C1FAC0B2002804D121003D
:102810004C1EC9B20029F4D1C0B2002814D1002145
:10282000002001F05EFBDFF8CC0B01F092FB0121F0
:10283000002001F056FBDFF8C00B01F08AFB40F6E8
:10284000B83001F046FC23E00C2001F065FB0021CC
:10285000002001F046FBDFF8640C01F07AFB012157
:10286000002001F03EFB00208DF8100000A801F0D0
:1028700070FB02E0322001F02CFC02F089F8002805
:1028800006D002F01EF8C0B2401E0328F2D8FFE7BF
:1028900010B010BD90FA0000906B0010F80101001C
:1028A0005CFC0000F0B595B00A2700240025012645
:1028B0000021002001F015FBDFF8F00A01F049FBD0
:1028C0000121002001F00DFBDFF8E40A01F041FBDB
:1028D00000A805F05AFAC0B2002804D139004F1EF2
:1028E000C9B20029F4D1C0B2002814D100210020BF
:1028F00001F0F7FADFF8FC0A01F02BFB01210020C0
:1029000001F0EFFADFF8F00A01F023FB40F6B830EF
:1029100001F0DFFBA9E00C2001F0FEFA002100200D
:1029200001F0DFFADFF8940B01F013FB0121002026
:1029300001F0D7FA00208DF8100000A801F009FB83
:10294000002005E0C0B200A9411800220A74401C12
:10295000C0B23028F6DB02F01BF8002800F08580BA
:1029600001F0AFFFC0B2012817D05CD3032815D007
:1029700037D3042857D1E4B200A8205C002803D143
:10298000E4B200A820212154641CE4B2102C03DB23
:1029900000A800F06DF868E045E066E0E4B200A849
:1029A000205C7F2803DBE4B200A87E212154E4B23E
:1029B00000A8205C202803DAE4B200A820212154DA
:1029C000E4B200A8205C401CE4B200A96054E4B268
:1029D00000A8205C7F2803DBE4B200A8202121545A
:1029E00021E0E4B200A8205C7F2803DBE4B200A869
:1029F0007E212154E4B200A8205C202803DAE4B24E
:102A000000A820212154E4B200A8205C401EE4B2BA
:102A100000A96054E4B200A8205C202803DAE4B2E4
:102A200000A87E212154761E3000C0B2002818D1A3
:102A30000526EDB2ED43102200A910A803F078F9A5
:102A400000208DF85000EDB2002D03D0E4B210A8A4
:102A50005F2121540121002001F043FA10A801F068
:102A600078FA322001F035FB75E715B0F0BD0000B3
:102A700038B504000A250021002001F032FADFF801
:102A8000AC0B01F066FA0121002001F02AFADFF810
:102A9000200901F05EFA200000F024F8200005F083
:102AA000C4F9C0B2002804D129004D1EC9B20029C2
:102AB000F4D1C0B2002813D10021002001F011FA96
:102AC000DFF86C0B01F045FA0121002001F009FA52
:102AD000DFF8240C01F03DFA40F6B83001F0F9FAC5
:102AE00031BD0000103002E000210170401E01786D
:102AF00021395E29F8D2704710B592B000A8442160
:102B000006F0CAFB05240021002001F0EAF9DFF8F5
:102B1000A40B01F01EFA0121002001F0E2F9DFF818
:102B2000980B01F016FA02E0322001F0D2FA01F01F
:102B30002FFF00283BD001F0C4FEC0B2401E022887
:102B400034D9C01EF0D10021002001F0CAF9DFF80D
:102B5000AC0B01F0FEF90121002001F0C2F9DFF811
:102B6000500801F0F6F900A805F05FF9C0B200289E
:102B700004D121004C1EC9B20029F4D1C0B20028F2
:102B800013D10021002001F0ACF9DFF8A40A01F014
:102B9000E0F90121002001F0A4F9DFF85C0B01F05D
:102BA000D8F940F6B83001F094FA00E0FFE712B02F
:102BB00010BD000010B590B00A240021002001F0E3
:102BC00090F9DFF8C80B01F0C4F90121002001F0F1
:102BD00088F9DFF8DC0701F0BCF900A805F075F909
:102BE000C0B2002804D121004C1EC9B20029F4D182
:102BF000C0B2002814D10021002001F072F9DFF8E2
:102C0000F40701F0A6F90121002001F06AF9DFF8CC
:102C1000E80701F09EF940F6B83001F05AFA23E0D7
:102C20000C2001F079F90021002001F05AF9DFF8B9
:102C3000200C01F08EF90121002001F052F9002052
:102C40008DF8100000A801F084F902E0322001F0B4
:102C500040FA01F09DFE002806D001F032FEC0B21D
:102C6000401E0328F2D8FFE710B010BDF0B595B0B4
:102C70000A270024002501260021002001F031F957
:102C8000DFF8D00B01F065F90121002001F029F9EE
:102C9000DFF81C0701F05DF900A805F016F9C0B2D5
:102CA000002804D139004F1EC9B20029F4D1C0B2A6
:102CB000002814D10021002001F013F9DFF83407B7
:102CC00001F047F90121002001F00BF9DFF8280796
:102CD00001F03FF940F6B83001F0FBF9A9E00C2013
:102CE00001F01AF90021002001F0FBF8DFF8600B79
:102CF00001F02FF90121002001F0F3F800208DF8F8
:102D0000100000A801F025F9002005E0C0B200A9DC
:102D1000411800220A74401CC0B23028F6DB01F0D2
:102D200037FE002800F0858001F0CBFDC0B20128FD
:102D300017D05CD3032815D037D3042857D1E4B279
:102D400000A8205C002803D1E4B200A8202121546F
:102D5000641CE4B2102C03DB00A800F06CF868E0FF
:102D600045E066E0E4B200A8205C7F2803DBE4B223
:102D700000A87E212154E4B200A8205C202803DAB8
:102D8000E4B200A820212154E4B200A8205C401C39
:102D9000E4B200A96054E4B200A8205C7F2803DB01
:102DA000E4B200A82021215421E0E4B200A8205C74
:102DB0007F2803DBE4B200A87E212154E4B200A8FE
:102DC000205C202803DAE4B200A820212154E4B2D8
:102DD00000A8205C401EE4B200A96054E4B200A840
:102DE000205C202803DAE4B200A87E212154761E5C
:102DF0003000C0B2002818D10526EDB2ED431022F4
:102E000000A910A802F094FF00208DF85000EDB248
:102E1000002D03D0E4B210A85F212154012100202D
:102E200001F05FF810A801F094F8322001F051F998
:102E300075E715B0F0BD38B504000A250021002063
:102E400001F04FF8DFF8E40701F083F801210020DA
:102E500001F047F8DFF8580501F07BF82000FFF794
:102E600041FE200005F081F8C0B2002804D12900FD
:102E70004D1EC9B20029F4D1C0B2002813D10021DF
:102E8000002001F02EF8DFF8A80701F062F8012118
:102E9000002001F026F8DFF8600801F05AF840F64B
:102EA000B83001F016F931BD70FC000010B592B0D9
:102EB00000A8442106F0F0F905240021002001F0CB
:102EC00010F8DFF8F00701F044F80121002001F0CC
:102ED00008F8DFF8E40701F03CF802E0322001F0E6
:102EE000F8F801F055FD00283BD001F0EAFCC0B233
:102EF000401E022834D9C01EF0D10021002000F06D
:102F0000F0FFDFF8DC0B01F024F80121002000F0D5
:102F1000E8FFDFF89C0401F01CF800A805F025F894
:102F2000C0B2002804D121004C1EC9B20029F4D13E
:102F3000C0B2002813D10021002000F0D2FFDFF83A
:102F4000F00601F006F80121002000F0CAFFDFF8CA
:102F5000A80700F0FEFF40F6B83001F0BAF800E034
:102F6000FFE712B010BD0000DCFE0000640400109A
:102F700084FC000098FC00002403010030B59BB0E5
:102F800000A8DFF8601B682206F05AF902F0D1FCB5
:102F9000040000250C2000F0BFFFDFF8CC0B00F090
:102FA000D8FF0121002000F09CFFE4B2EDB2AC425A
:102FB00001D1012000E000201121EDB2222200AB5E
:102FC00002FB053201FB002000F0C3FF0DE00020F2
:102FD0001121EDB2222200AB02FB053201FB0020E1
:102FE00000F0B7FF322001F074F801F0D1FC0028A6
:102FF00056D001F066FCC0B2012823D0F2D30328DA
:1030000021D03DD30428EDD1EDB2022D48D02C00C3
:103010002000C0B202F075FC0121002000F061FF29
:10302000E4B2EDB2AC4201D1012000E00020112158
:10303000EDB2222200AB02FB053201FB002000F0C2
:1030400088FFCFE72CE0EDB2681C032190FBF1F282
:1030500001FB12050121002000F043FFE4B2EDB2B4
:10306000AC4201D1012000E000201121EDB222226A
:1030700000AB02FB053201FB002000F06AFFB1E764
:10308000EDB2002D01D06D1E00E0022501210020CF
:1030900000F027FFE4B2EDB2AC4298D1012097E7EF
:1030A0001BB030BDACFC0000C0FC00008096980056
:1030B00040420F00646B00101C020100600401001C
:1030C0006804010030B59BB000A8DFF8B01B68228F
:1030D00006F0B6F802F05FFC040000250C2000F0BA
:1030E0001BFFDFF89C0B00F034FF0121002000F0F3
:1030F000F8FEE4B2EDB2AC4201D1012000E00020C4
:103100001121EDB2222200AB02FB053201FB0020AF
:1031100000F01FFF0DE000201121EDB2222200ABD4
:1031200002FB053201FB002000F013FF322000F00B
:10313000D0FF01F02DFC002856D001F0C2FBC0B238
:10314000012823D0F2D3032821D03DD30428EDD188
:10315000EDB2022D48D02C002000C0B202F003FCDA
:103160000121002000F0BDFEE4B2EDB2AC4201D17D
:10317000012000E000201121EDB2222200AB02FB71
:10318000053201FB002000F0E4FECFE72CE0EDB2B9
:10319000681C032190FBF1F201FB120501210020C4
:1031A00000F09FFEE4B2EDB2AC4201D1012000E09C
:1031B00000201121EDB2222200AB02FB053201FBFF
:1031C000002000F0C6FEB1E7EDB2002D01D06D1E6B
:1031D00000E002250121002000F083FEE4B2EDB200
:1031E000AC4298D1012097E71BB030BDB0FA35E072
:1031F000A0860100C004010030B5A3B000A8DFF82C
:10320000841A882206F01CF8002502F02AFC04002B
:103210000C2000F081FEDFF8700A00F09AFE0DE04D
:1032200000201121EDB2222200AB02FB053201FB8E
:10323000002000F08EFE322000F04BFF01F0A8FBD2
:1032400000282CD001F03DFBC0B201280ED01CD3C9
:1032500003280CD013D3042817D1EDB2032D1ED0B0
:103260002C002000C0B202F016FC0EE017E0EDB218
:10327000681C042190FBF1F505FB110505E0EDB29A
:10328000002D01D06D1E00E003250121002000F07B
:1032900028FEE4B2EDB2AC42C2D10120C1E723B0B6
:1032A00030BD0000B09EAEFFF4FA0000D4FC000078
:1032B00080B505F0F5FF01BD80B506F042F901BD0E
:1032C000F0B58BB002F0FFFB040002A8DFF8BC19D8
:1032D000142205F0B5FF002507A8DFF8B419102265
:1032E00005F0AEFF00A8DFF8AC190CC90CC0083916
:1032F000083800260C2000F00FFEDFF89C0900F0D3
:1033000028FE30E0F6B200A830F91600844204D35B
:10331000F6B200A830F91600241AF6B207A850F841
:1033200026302200DFF8741902A802F0E7FC02A898
:1033300003F090FC0700FFB2EDB2AF4207D00121CD
:10334000002000F0CEFDDFF8580900F002FE3D003D
:103350000121FFB2D7F110004010C0B200F0C1FD52
:1033600002A800F0F6FD01F013FB00281CD001F0CC
:10337000A8FAC0B201280DD0CFD303280ED0C1D3F4
:103380000428CAD1F6B2701C042190FBF1F606FBAA
:103390001106C2E7200002F0BDFB05E0F6B200A86E
:1033A00030F916000419B8E70BB0F0BDE8FC0000D6
:1033B000FCFC000010B504000021002000F091FD8D
:1033C000DFF8E00800F0C5FD0121012000F089FDD3
:1033D000E4B2DFF8D40850F8240000F0BAFD01216F
:1033E000002000F07EFD7E2000F096FD10BD000064
:1033F00094F0000010FD000024FD000010B5002432
:103400000C2000F089FD2000C0B2FFF7D3FF07E0D9
:1034100009242000C0B2FFF7CDFF322000F059FE92
:1034200001F0B6FA002827D001F04BFAC0B201280B
:1034300014D0EED3032812D019D30428E9D1E4B272
:10344000DFF8680850F82400002806D0E4B2DFF85E
:103450005C0850F824008047DBE70DE00CE0E4B2A4
:10346000601C0A2190FBF1F201FB1204D1E7E4B2E7
:10347000002CCDD0641ECCE710BD0000000400106D
:1034800010B504000021002000F02BFDDFF820081B
:1034900000F05FFD0121012000F023FDE4B2DFF820
:1034A000140850F8240000F054FD0121002000F021
:1034B00018FD7E2000F030FD10BD0000C8040100A2
:1034C00010B500240C2000F027FD2000C0B2FFF74B
:1034D000D7FF07E005242000C0B2FFF7D1FF32205C
:1034E00000F0F7FD01F054FA002827D001F0E9F9C7
:1034F000C0B2012814D0EED3032812D019D3042867
:10350000E9D1E4B2DFF8B00750F82400002806D073
:10351000E4B2DFF8A40750F824008047DBE70DE0B1
:103520000CE0E4B2601C062190FBF1F201FB1204F6
:10353000D1E7E4B2002CCDD0641ECCE710BD10B5AD
:1035400004000021002000F0CCFCDFF8700700F040
:1035500000FD0121012000F0C4FCE4B2DFF86007A7
:1035600050F8240000F0F5FC0121002000F0B9FC27
:103570007E2000F0D1FC10BD10B500242000C0B2A8
:10358000FFF7DDFF07E003242000C0B2FFF7D7FFFD
:10359000322000F09EFD01F0FBF9002827D001F059
:1035A00090F9C0B2012814D0EED3032812D019D359
:1035B0000428E9D1E4B2DFF80C0750F82400002811
:1035C00006D0E4B2DFF8FC0650F824008047DBE7C1
:1035D0000DE00CE0E4B2601C042190FBF1F404FB6C
:1035E0001104D1E7E4B2002CCDD0641ECCE710BDAD
:1035F00010B504000021002000F073FCDFF8C806BD
:1036000000F0A7FC0121012000F06BFCE4B2DFF820
:10361000BC0650F8240000F09CFC0121002000F0C2
:1036200060FC7E2000F078FC10BD000038FD00003A
:103630004CFD000010B500240C2000F06DFC2000B3
:10364000C0B2FFF7D5FF07E003242000C0B2FFF7A8
:10365000CFFF322000F03DFD01F09AF9002827D07D
:1036600001F02FF9C0B2012814D0EED3032812D0F4
:1036700019D30428E9D1E4B2DFF8540650F8240045
:10368000002806D0E4B2DFF8480650F8240080474E
:10369000DBE70DE00CE0E4B2601C042190FBF1F4E8
:1036A00004FB1104D1E7E4B2002CCDD0641ECCE7BA
:1036B00010BD000074FD000088FD000010B504007E
:1036C0000021002000F00DFCDFF8FC0500F041FCBB
:1036D0000121012000F005FCE4B2DFF8F80550F804
:1036E000240000F036FC0121002000F0FAFB7E20CF
:1036F00000F012FC10BD000060FD00009CFD000009
:1037000010B5002441F6FB10FDF712F8002803D194
:103710000C2000F001FC38E02000C0B2FFF7CEFF23
:1037200007E00A242000C0B2FFF7C8FF322000F0F3
:10373000D0FC01F02DF9002827D001F0C2F8C0B26A
:10374000012814D0EED3032812D019D30428E9D1CC
:10375000E4B2DFF8840550F82400002806D0E4B273
:10376000DFF8740550F824008047DBE70DE00CE03B
:10377000E4B2601C0B2190FBF1F201FB1204D1E7D3
:10378000E4B2002CCDD0641ECCE710BDB0FD00002B
:1037900010B588B001F0E4FC040000A8DFF83C1587
:1037A0000CC90CC0083908380C2000F0B5FBDFF854
:1037B000300500F0CEFB0EE0019BA4B22200DFF842
:1037C000241502A802F09AFA0121002000F089FBDA
:1037D00002A800F0BEFB01F074F8C0B2012816D0B8
:1037E00030D3032821D027D304282BD106F047F863
:1037F0000A2000F06EFC200080B201F0D4FC0A2008
:1038000000F067FC0021012006F008F81AE006F03D
:1038100036F80A2000F05DFC200080B201F0C3FC05
:103820000C2000F079FB08B010BDA4B2642C00DAC3
:10383000641C06F024F805E0A4B2022C00DB641E30
:1038400006F01DF806F07BF80028B5D0009BB4E721
:1038500058040100C4FD000010B588B001F088FDD7
:10386000040000A8DFF880140CC90CC0083908381F
:103870000C2000F051FBDFF8740400F06AFB0EE04E
:10388000019BA4B22200DFF85C1402A802F036FA11
:103890000121002000F025FB02A800F05AFB01F0F6
:1038A00010F8C0B2012816D02DD303281ED024D37F
:1038B000042828D105F0E3FF012000F00AFC2000D5
:1038C00080B201F078FD012000F003FC002100200F
:1038D00005F0A4FF17E005F0D2FF200080B201F050
:1038E0006AFD0C2000F018FB08B010BDA4B2642CD7
:1038F00000DA641C05F0C3FF05E0A4B2022C00DB73
:10390000641E05F0BCFF06F01AF80028B8D0009B32
:10391000B7E710B58AB0042001F01BF904000C20B1
:1039200000F0FAFADFF8C80300F013FB33E0062CCE
:1039300000D3641E6420B4FBF0F00A21B0FBF1F266
:1039400001FB120030308DF800000A20B4FBF0F0CB
:103950000A21B0FBF1F201FB120030308DF80100BA
:103960002C208DF802000A20B4FBF0F100FB11407E
:1039700030308DF8030000208DF8040000AADFF835
:10398000741305A802F0BAF90121002000F0A9FA89
:1039900005A800F0DEFA00F094FFC0B201281CD0A8
:1039A000C8D3032823D0C2D30428C3D1210089B2AD
:1039B000042001F084F80121002000F092FACE48A2
:1039C00000F0C7FA200002F00CFE0121002000F0F8
:1039D00088FAB34800F0BDFAACE7210089B20420B0
:1039E00001F06DF80C2000F097FA0AB010BD641CCD
:1039F000A0E730B585B002F0ACF8040002F0EFF8B3
:103A000005000C2000F088FA1AE02200BB4900A84B
:103A100002F074F90021002000F063FA00A800F021
:103A200098FA2A00B64900A802F068F9012100209E
:103A300000F057FA00A800F08CFA322000F049FBA1
:103A400000F0A6FF00280DD000F03BFFC0B2012817
:103A500006D0DAD3032804D0D7D30428D5D1D4E7AD
:103A600000E0D2E705B030BD10B500240C2000F016
:103A700053FA0021002000F034FAA24800F069FA5D
:103A800004E0A14800F065FA03F0EEFD00F080FFCD
:103A9000002823D000F015FFC0B2012808D00BD3B6
:103AA000032806D007D3042806D194F0FF0403E0CE
:103AB00014E0002400E0FF24322000F00AFB200084
:103AC000C0B204F01FF80121002000F00AFAE4B2AD
:103AD000002CD6D18D4800F03CFAD5E710BD00008F
:103AE000D8FD000004EC000080B502F0D7F880B2E9
:103AF000FCF71EFE002836D0854800F037F8ADF8F8
:103B00000000844800F032F8ADF80200BDF8000073
:103B1000BDF80210884215D1BDF8000002F0A5F8EA
:103B20000C2000F0F9F97C4800F013FA0121002084
:103B300000F0D7F9794800F00CFA40F6B83000F000
:103B4000C8FA10E00C2000F0E7F9754800F001FA1F
:103B50000121002000F0C5F9724800F0FAF940F6A2
:103B6000B83000F0B6FA01BDECFD0000F0B585B04C
:103B70000700002400A86C490CC90CC0083908389B
:103B8000002501260C2000F0C7F9380000F0E1F90B
:103B900030E0E4B200A8205C401EE4B200A960540A
:103BA000E4B200A8205C302803DAE4B200A839218E
:103BB0002154761E3000C0B2002818D10426EDB280
:103BC000ED43042200A902A802F0B2F800208DF80B
:103BD0000C00EDB2002D03D0E4B202A85F21215405
:103BE0000121062000F07DF902A800F0B2F9322090
:103BF00000F06FFA00F0CCFE00283AD000F061FE31
:103C0000C0B2012821D0D4D3032821D0C1D30428A5
:103C1000CFD1641CE4B2042C16DB9DF800004FF4F5
:103C20007A719DF8012064235A4301FB00209DF81E
:103C300002100A2202FB01009DF80310081800F58B
:103C40003C50B03080B216E0B3E74FF6FF7012E0A0
:103C5000E4B200A8205C401CE4B200A96054E4B2C5
:103C600000A8205C3A2803DBE4B200A830212154EC
:103C70009FE74FF6FF7005B0F0BD00006CEC000050
:103C800000FE00007CEB00007800010014FE000044
:103C900088000100E004010028FE0000E8040100A3
:103CA0003CFE0000980001003003001074EF00009B
:103CB00050FE00003404001020F1000064FE0000FB
:103CC00078040010E800010078FE0000880400106D
:103CD000F8000100D802001098EE00000005010075
:103CE0008CFE0000A800010008050100A0FE0000F5
:103CF000B4FE000030030100C8FE0000B80001005F
:103D0000C80001000CFC0000480301003C03010056
:103D10005403010060030100D800010010050100F8
:103D2000180501006C0301002005010070B50400B6
:103D30000D009A48006850F0800098490860974844
:103D4000006850F04000954908609448006850F0C1
:103D50002000924908609148006850F010008F4997
:103D600008608E48006850F400708C4908608B48E9
:103D7000006850F40070894908608848006850F471
:103D80008070864908604FF4FA7000F0A2F90026AE
:103D900006E0032000F032F8642000F09AF9761C67
:103DA000F6B2032EF5DB022000F028F8142000F014
:103DB00090F954F02001C9B2002000F074F81420EA
:103DC00000F087F955F00801C9B2002000F06BF847
:103DD000142000F07EF955F0080071490870102198
:103DE000002000F060F80A2000F073F9062100209E
:103DF00000F059F80A2000F06CF970BD69490968B3
:103E000051F48071674A116000BF00BF00BF00BF5E
:103E100000BF00BFC10706D56249096851F08001A3
:103E2000604A116005E06049096851F080015E4A0E
:103E30001160810706D55B49096851F04001594A74
:103E4000116005E05849096851F04001564A116077
:103E5000410706D55349096851F02001514A1160C4
:103E600005E05149096851F020014F4A11600007EF
:103E700006D54C48006850F010004A49086005E03B
:103E80004948006850F010004749086000BF00BF73
:103E900000BF00BF00BF00BF4348006850F48070FF
:103EA00041490860704710B50C00C0B2002806D028
:103EB0003C48006850F400703A49086005E03A4810
:103EC000006850F4007038490860E4B22009FFF738
:103ED00095FF2000C0B2FFF791FF022000F0F9F833
:103EE00010BD80B5C0B2102809DAC9B2002906D1C8
:103EF000B0F18001C9B20020FFF7D5FF08E0C9B2D8
:103F0000012905D1B0F14001C9B20020FFF7CBFF74
:103F1000042000F0DEF801BD80B5C0B201000A291E
:103F20000CD00C2902D00D2908D00CE00121002072
:103F3000FFF7B9FF0C2000F0CCF809E002210120C6
:103F4000FFF7B1FF04E00100C9B20120FFF7ABFFAA
:103F500001BD10B5040003E02078FFF7DDFF641C0D
:103F600020780028F8D110BD80B50D48007850F0B9
:103F700002000B4908700A4801780020FFF793FF00
:103F800001BD80B50648007810F0FD0004490870B6
:103F9000034801780020FFF786FF01BD00C009201B
:103FA000166C001018C009201CC009202DE9F84F1C
:103FB00006000F00904699460C99DDF834A0404663
:103FC00080B200F02DFB05000A9C002D6DD01FFA79
:103FD00088F8286B10EB8800B0F1040B5FEADB0B6C
:103FE0005FEACB0B1FFA88F8CDF800805346220019
:103FF0003900280000F0A4FA4A463100584605F07E
:10400000D1FC28600B98002800D0056005F0F2FC78
:10401000DFF814070068401CDFF80C170860DFF8B1
:104020000C07006800280AD1DFF800070560DFF8F8
:10403000F8060068012810D100F09FFA0DE0DFF8C3
:10404000F0060068002808D1DFF8E0060068C06AC2
:10405000844202D3DFF8D4060560DFF8D806006892
:10406000E96A884203D2E86ADFF8C8160860DFF818
:10407000C8060068401CDFF8C0160860DFF8BC0600
:104080000068E96A884203D2E86ADFF8B01608607F
:10409000291DE86A1422DFF8A83602FB003005F07B
:1040A0002FFD012505F0AFFC01E05FF0FF35012D8C
:1040B0000CD1DFF87C060068002807D0DFF86C061A
:1040C0000068C06AA04201D205F08FFC2800BDE85C
:1040D000F28F10B504000020002C29D000F04FF81A
:1040E000DFF8680600682418DFF840060068001D45
:1040F00005F02FFDDFF8340600684460DFF84C0659
:104100000068844209D2DFF824060068011DDFF848
:104110004006006805F002FD08E0DFF810060068C0
:10412000011DDFF83006006805F0F8FC00F02FF8FC
:10413000002801D105F059FC10BD00B585B0002064
:1041400003900020029000200190002000900023A6
:104150005022DFF810160FF2E130FFF727FF012899
:104160000BD105F027FDDFF8C80501210160DFF85C
:10417000DC050021016005F022FC05B000BDDFF880
:10418000E0050068401CDFF8D8150860704770B57E
:10419000002405F02FFCDFF8C8050068401EDFF89A
:1041A000C0150860DFF8B8050068002858D1DFF8AE
:1041B00078050068002853D0002521E016F118008A
:1041C00005F0C7FC301D05F0C4FCDFF87005006881
:1041D000F16A884203D2F06ADFF860150860311D89
:1041E000F06A1422DFF8583502FB003005F088FC35
:1041F000F06ADFF838150968C96A884200D30125DA
:10420000DFF858050068002804D0DFF85005C068C2
:10421000C66800E00026002ED0D1DFF84C0500680B
:10422000002809D10EE000F01FF8DFF83C05006817
:10423000401EDFF834150860DFF82C050068002800
:10424000F1D10125012D04D0DFF8200500680128F7
:1042500006D10124DFF814050021016005F0C5FB3B
:1042600005F0D1FB200070BD10B5DFF8F404006844
:10427000002852D1DFF8D4040068401CDFF8CC14C9
:104280000860DFF8C8040068002812D1DFF8C40411
:104290000068DFF8C014DFF8B82412680A60DFF89D
:1042A000B0140860DFF8C8040068401CDFF8C014D0
:1042B00008601CE0201D05F04CFCA06A002803D01B
:1042C00014F1180005F045FCDFF870040068E16A9D
:1042D000884203D2E06ADFF864140860211DE06AB6
:1042E0001422DFF85C3402FB003005F009FCDFF833
:1042F000640400680068002805D0DFF858040068EE
:10430000C068C46800E00024002C0DD0DFF83C0435
:10431000006861688842CDD206E0DFF84C0400688E
:10432000401CDFF84414086010BD80B5DFF830048D
:104330000068002804D0DFF834040121016053E054
:10434000DFF8E8030068006BDFF8E013096809682C
:10435000884209D3DFF8D403006810F13401DFF894
:10436000CC03006805F046FD1422DFF80814DFF8DE
:10437000BC030068006B05F03FFD002811D0DFF89A
:10438000AC03006810F13401DFF8A003006805F009
:1043900031FD06E0DFF8A4030068401EDFF89C133F
:1043A0000860DFF8980300681421DFF8942301FB0C
:1043B000002000680028EDD0DFF880030068142199
:1043C000DFF87C2301FB00204168496841604168B7
:1043D00010F10802914202D1416849684160406889
:1043E000C068DFF84813086001BD10B50C00DFF8A5
:1043F0003C130968183105F091FBDFF830030068C1
:10440000001D05F0A6FB14F1010F08D1DFF81C0315
:104410000068011DDFF8400305F072FB1CE0DFF8C7
:104420002C0300682018DFF8041309684860DFF8DF
:104430001C130968884208D2BC480068011DDFF8D7
:104440001003006805F06AFB06E0B8480068011D2B
:10445000C048006805F062FB10BD10B50168002976
:1044600002D0C068C46800E0002414F1180005F010
:1044700070FBBB480068002813D1201D05F069FBC4
:10448000AE480068E16A884202D2E06AAB4908603F
:10449000211DE06A1422AA4B02FB003005F030FB1C
:1044A00004E014F11801AD4805F02AFBE06A9F49C9
:1044B0000968C96A884201D3012000E0002010BDCC
:1044C000AB4909680160A14909684160704738B586
:1044D00004000D0005F08EFA286810F1010F01D1DB
:1044E00000241FE0A24800682168884206D097484F
:1044F00000686168884201D3012413E09348006892
:104500006168401A296888420BD228688F49096877
:10451000401A6168081828602000FFF7D1FF0024C6
:1045200000E0012405F06FFA200032BD8F48012120
:10453000016070470000000080B500F040F8FCE723
:1045400038B5040015000C2214F1340005F086FC87
:10455000002084F83F00052D00D30425E562A56402
:10456000201D05F0CAFA14F1180005F0C6FA2461FE
:10457000D5F10500A061646231BD10B5002406E0EC
:1045800014206F4900FB041005F0A8FA641C052CE8
:10459000F6D3794805F0A2FA784805F09FFA6F48FB
:1045A00005F09CFA674805F099FA6B4805F096FA11
:1045B00068487149016066487049016010BD10B5D6
:1045C0006148006800282AD0FFF7D9FD5D480068DF
:1045D000002801D1012400E00024E4B2FFF7D7FD58
:1045E000002C1CD105F006FA56480068002803D0BC
:1045F0005448C068C46800E00024201D05F0A9FAF2
:1046000049480068401E484908604F480068401EFD
:104610004D49086005F0F7F9200000F023F810BDBF
:1046200070B504000D004C2005F04EFC0600002E75
:1046300016D0002D05D1A4B2A00005F045FC050060
:10464000FFE73563306B002804D1300005F063FCD0
:10465000002605E0A4B2A200A521306B05F060FCA5
:10466000300070BD10B50400206B05F054FC200034
:1046700005F051FC10BD2D480068704710B50400CE
:10468000E06A2A490968C96A884229D2274800682D
:10469000C06AD0F10500A0616069E16A1422284B6C
:1046A00002FB0131884217D1201D05F052FA1F4844
:1046B0000068C06AE06221480068E16A884202D26C
:1046C000E06A1E490860211DE06A14221C4B02FBAF
:1046D000003005F015FA03E014480068C06AE06293
:1046E00010BD10B50400002C1CD0E06AA16C8842FB
:1046F00018D0201D05F02DFAA06CE062E06AD0F120
:104700000500A0610D480068E16A884202D2E06AB3
:104710000A490860211DE06A1422094B02FB00309F
:1047200005F0EEF910BD0000AC6B00109C6B0010A2
:10473000BC6B0010B46B0010D06B0010B86B001095
:1047400000690010DC6A0010A86B0010B06B00104C
:10475000A46B0010A06B0010F06A0010C86A001073
:10476000C06B001040050100C46B0010C86B001046
:10477000CC6B001054FF0000A06A0010B46A001057
:104780009A480068002804D098480068401E97495D
:10479000086097480088002804D095480088401E8B
:1047A0009349088093480088002805D091480088E4
:1047B000401E9049088083E08F4800788F4900228E
:1047C00042548D4800788D49405C8D490968C1F399
:1047D000002111F0010191F00101C9B2084386499D
:1047E0000978864A885486480068400501D500202B
:1047F00000E0022080490978804A895C08437E49AC
:1048000009787E4A88547E480068800501D50020DA
:1048100000E0042078490978784A895C08437649A1
:104820000978764A885476480068400401D500200B
:1048300000E0082070490978704A895C08436E4995
:1048400009786E4A88546E480068800001D50020BF
:1048500000E0102068490978684A895C0843664985
:104860000978664A885466480068002801D54020C7
:1048700000E0002060490978604A895C08435E498D
:1048800009785E4A88545E480068400001D52020BF
:1048900000E0002058490978584A895C0843564985
:1048A0000978564A885454480078401C082190FBE7
:1048B000F1F202FB1102504802704E4806210180BD
:1048C000704710B40021002008E0C0B24B4A825C5F
:1048D00012F00902092A00D1491C401CC0B2082864
:1048E000F3DBC9B2052901DB08204FE0002000E01E
:1048F000401CC0B2052845DA0021002208E0D2B2EF
:104900003E4BD35C01248440234200D0491C521CFE
:10491000D2B2082AF3DBC9B20529E9DB3449098898
:1049200000291BD13749097800290DD035490022CB
:104930000A702F494FF4FA620A802C494EF6602221
:104940000A60401CC0B221E0294932220A8027496E
:104950004EF660220A60401CC0B217E0294909786F
:1049600000290DD0274900220A7021494FF4FA622C
:104970000A801E494EF660220A60401CC0B205E063
:10498000002003E01F4801210170002010BC704787
:104990001648006870470020002106E0C9B2174A97
:1049A0008A5C520600D5401C491CC9B20829F5DBB7
:1049B000C0B2052801DB012000E00020C0B2704732
:1049C0000020002106E0C9B20C4A8A5C920600D59C
:1049D000401C491CC9B20829F5DBC0B2052801DB1F
:1049E000012000E00020C0B2704700008C6B001076
:1049F000F0040010F2040010146C00102C6B001076
:104A000034C00920156C00101CB50400080C8DF88A
:104A10000000080A8DF801008DF80210100C8DF8C6
:104A20000300100A8DF804008DF8052006220021ED
:104A300000A805F08AFA80B2010A8DF806108DF8F8
:104A40000700082200A9E4B2774850F8240005F0D6
:104A500094FC13BD30B583B00C001500082200A9EA
:104A6000C0B2714B53F8200005F0A3FC06220021D0
:104A700000A805F06AFA9DF806109DF8072052EA92
:104A8000012189B280B2814217D19DF800009DF8C2
:104A90000110090251EA00409DF80210084320600D
:104AA0009DF803009DF80410090251EA00409DF8AA
:104AB000051008432860FF2000E000203EBD10B52F
:104AC00082B0040089B2080A8DF800008DF8011048
:104AD0000222002100A805F038FA80B2010A8DF800
:104AE00002108DF80300E4B2002C08D0022C14D080
:104AF0000CD3042C1FD017D3052C23D028E004227C
:104B000000A94FF4885005F038FC21E0042200A9E8
:104B100041F2041005F031FC1AE0042200A941F230
:104B2000081005F02AFC13E0042200A941F20C1041
:104B300005F023FC0CE0042200A941F2101005F05E
:104B40001CFC05E0042200A941F2141005F015FC3C
:104B500013BD38B5C0B2002808D0022818D00ED333
:104B600004282BD01FD3052831D039E0042200A916
:104B70004FF4885005F01DFC1E24B42530E00422BB
:104B800000A941F2041005F014FC3C24C82527E0DC
:104B9000042200A941F2081005F00BFC4FF4FA645E
:104BA00044F250651CE0042200A941F20C1005F00B
:104BB00000FC4FF4FA6444F2506511E0042200A9AD
:104BC00041F2101005F0F5FB0124C82508E004228D
:104BD00000A941F2141005F0ECFB01244FF47A75A2
:104BE0000222002100A805F0B0F980B29DF8021061
:104BF0009DF8032052EA0121884211D19DF800005E
:104C00009DF8011051EA002080B2A4B2A04200D267
:104C10002000ADB280B2854200D2280080B201E00F
:104C2000200080B232BD00001801010038B5049D9B
:104C3000059CC0B2002801D0012000E000208DF8C2
:104C40000000C9B2002901D0022000E000209DF838
:104C5000001008438DF80000D2B2002A01D00420D1
:104C600000E000209DF8001008438DF80000DBB242
:104C7000002B01D0082000E000209DF80010084320
:104C80008DF80000EDB2002D01D0102000E00020D2
:104C90009DF8001008438DF80000E4B2002C01D00C
:104CA000202000E000209DF8001008438DF800004F
:104CB0000122002100A805F048F980B2010A8DF810
:104CC00001108DF80200032200A941F2281005F01E
:104CD00054FB31BDF8B507000C0015001E0003227F
:104CE00000A941F2281005F064FB0122002100A870
:104CF00005F02BF980B29DF80110B0EB012F01D126
:104D0000012200E0002206990798D2B29DF80230F5
:104D10001A43002A30D09DF80020D20701D5FF2287
:104D200000E000223A709DF80020920701D5FF2292
:104D300000E0002222709DF80020520701D5FF22DA
:104D400000E000222A709DF80020120701D5FF2202
:104D500000E0002232709DF80020D20601D5FF222B
:104D600000E000220A709DF80010890601D5FF219D
:104D700000E0002101700BE0FF223A70FF22227058
:104D8000FF222A70FF223270FF220A70FF21017079
:104D9000F1BD00B583B0062200A94FF4005005F024
:104DA00008FB0422002100A805F0CFF880B29DF88E
:104DB00004109DF8052052EA012188420ED19DF889
:104DC00000009DF80110090451EA00609DF80210EE
:104DD00050EA01209DF80310084300E000200EBDBA
:104DE00000B583B0010E8DF80010010C8DF8011094
:104DF000010A8DF802108DF803000422002100A89A
:104E000005F0A3F880B2010A8DF804108DF80500B2
:104E1000062200A94FF4005005F0AFFA07BD00B517
:104E200083B0062200A94FF4A85005F0C2FA04226C
:104E3000002100A805F089F880B29DF804109DF8C3
:104E4000052052EA012188420ED19DF800009DF80C
:104E50000110090451EA00609DF8021050EA012097
:104E60009DF80310084300E000200EBD00B583B09C
:104E7000010E8DF80010010C8DF80110010A8DF85B
:104E800002108DF803000422002100A805F05DF84F
:104E900080B2010A8DF804108DF80500062200A9E1
:104EA0004FF4A85005F069FA07BD00B583B006229B
:104EB00000A941F2505005F07CFA0422002100A81C
:104EC00005F043F880B29DF804109DF8052052EAE1
:104ED000012188420ED19DF800009DF801100904BF
:104EE00051EA00609DF8021050EA01209DF803107D
:104EF000084300E000200EBD00B583B0010E8DF820
:104F00000010010C8DF80110010A8DF802108DF8C7
:104F100003000422002100A805F017F880B2010A5E
:104F20008DF804108DF80500062200A941F25050BA
:104F300005F023FA07BD80B5042200A941F27050A4
:104F400005F037FA0222002100A804F0FEFF80B22B
:104F50009DF802109DF8032052EA0121884207D1F2
:104F60009DF800009DF8011051EA002080B200E099
:104F7000002002BD80B580B2010A8DF800108DF8C6
:104F800001000222002100A804F0DFFF80B2010A24
:104F90008DF802108DF80300042200A941F2705030
:104FA00005F0EBF901BD80B5042200A94FF4AC5027
:104FB00005F0FFF90222002100A804F0C6FF80B22C
:104FC0009DF802109DF8032052EA0121884207D182
:104FD0009DF800009DF8011051EA002080B200E029
:104FE000002002BD80B580B2010A8DF800108DF856
:104FF00001000222002100A804F0A7FF80B2010AEC
:105000008DF802108DF80300042200A94FF4AC5073
:1050100005F0B3F901BD80B580B2010A8DF800102A
:105020008DF801000222002100A804F08EFF80B25A
:10503000010A8DF802108DF80300042200A941F244
:10504000905005F09AF901BD80B580B2010A8DF843
:1050500000108DF801000222002100A804F075FF65
:1050600080B2010A8DF802108DF80300042200A915
:1050700041F2955005F081F901BD80B5042200A9E7
:1050800041F2955005F095F90222002100A804F0A4
:105090005CFF80B29DF802109DF8032052EA0121C6
:1050A000884214D19DF800009DF8011051EA0020BB
:1050B00080B2B0F57A6F01DA4FF47A6080B244F2D0
:1050C0005161884201DB44F2506080B201E041F25C
:1050D000883002BD80B580B2010A8DF800108DF8CD
:1050E00001000222002100A804F02FFF80B2010A73
:1050F0008DF802108DF80300042200A94FF4AD5082
:1051000005F03BF901BD80B5042200A94FF4AD5074
:1051100005F04FF90222002100A804F016FF80B22A
:105120009DF802109DF8032052EA0121884214D113
:105130009DF800009DF8011051EA002080B2B0F502
:105140007A6F01DA4FF47A6080B244F2516188429A
:1051500001DB44F2506080B201E041F2883002BDD0
:1051600080B5042200A941F2A55005F022F90222DF
:10517000002100A804F0E9FE80B29DF802109DF81D
:10518000032052EA012188420BD19DF800009DF8CE
:10519000011051EA002080B2652800DB642080B253
:1051A00000E0642002BD80B580B2010A8DF80010D5
:1051B0008DF801000222002100A804F0C6FE80B292
:1051C000010A8DF802108DF80300042200A941F2B3
:1051D000A55005F0D2F801BD80B5042200A941F226
:1051E000B05005F0E6F80222002100A804F0ADFE60
:1051F00080B29DF802109DF8032052EA01218842F6
:1052000011D19DF800009DF8011051EA002080B2F4
:10521000002800D1012080B2B0F5166F01DD4FF4F7
:10522000166080B200E0012002BD80B580B2010AA4
:105230008DF800108DF801000222002100A804F072
:1052400084FE80B2010A8DF802108DF8030004225A
:1052500000A941F2B05005F090F801BD80B50422DC
:1052600000A941F2B55005F0A4F80222002100A8DF
:1052700004F06BFE80B29DF802109DF8032052EA04
:105280000121884214D19DF800009DF8011051EAD7
:10529000002080B2B0F57A6F01DA4FF47A6080B204
:1052A00044F62161884201DB44F6206080B200E0D0
:1052B000012002BD80B580B2010A8DF800108DF882
:1052C00001000222002100A804F03FFE80B2010A82
:1052D0008DF802108DF80300042200A941F2B550A8
:1052E00005F04BF801BD80B5042200A94FF4AE5083
:1052F00005F05FF80222002100A804F026FE80B22B
:105300009DF802109DF8032052EA0121884214D131
:105310009DF800009DF8011051EA002080B2B0F520
:105320007A7F01DA4FF47A7080B243F6992188428D
:1053300001DB43F6982080B200E0012002BD80B579
:1053400080B2010A8DF800108DF8010002220021C0
:1053500000A804F0FAFD80B2010A8DF802108DF861
:105360000300042200A94FF4AE5005F006F801BD79
:1053700080B5042200A941F2C55005F01AF80222B6
:10538000002100A804F0E1FD80B29DF802109DF814
:10539000032052EA012188420BD19DF800009DF8BC
:1053A000011051EA002080B2652800DB642080B241
:1053B00000E0642002BD80B580B2010A8DF80010C3
:1053C0008DF801000222002100A804F0BEFD80B289
:1053D000010A8DF802108DF80300042200A941F2A1
:1053E000C55004F0CAFF01BD80B5042200A941F2F6
:1053F000D05004F0DEFF0222002100A804F0A5FD39
:1054000080B29DF802109DF8032052EA01218842E3
:105410000BD19DF800009DF8011051EA002080B2E8
:10542000652800DB642080B200E0012002BD80B569
:1054300080B2010A8DF800108DF8010002220021CF
:1054400000A804F082FD80B2010A8DF802108DF8E8
:105450000300042200A941F2D05004F08EFF01BDE8
:1054600080B580B2010A8DF800108DF8010002228B
:10547000002100A804F069FD80B2010A8DF8021035
:105480008DF80300042200A941F2D45004F075FF06
:1054900001BD80B5042200A941F2D45004F089FF77
:1054A0000222002100A804F050FD80B29DF80210F5
:1054B0009DF8032052EA012188420DD19DF8000099
:1054C0009DF8011051EA002080B2B0F5FA7F01DDAD
:1054D0004FF4FA7080B200E0012002BD00B583B045
:1054E000010E8DF80010010C8DF80110010A8DF8E5
:1054F00002108DF803000422002100A804F025FD0D
:1055000080B2010A8DF804108DF80500062200A96A
:1055100041F2D85004F031FF07BD00B583B0062238
:1055200000A941F2D85004F044FF0422002100A851
:1055300004F00BFD80B29DF804109DF8052052EA9E
:10554000012188420ED19DF800009DF80110090448
:1055500051EA00609DF8021050EA01209DF8031006
:10556000084300E000200EBD80B5C0B2002800D086
:10557000FF208DF800000122002100A804F0E5FCC6
:1055800080B2010A8DF801108DF80200032200A9F3
:105590004FF4B05004F0F1FE01BD80B5032200A924
:1055A0004FF4B05004F005FF0122002100A804F0E0
:1055B000CCFC80B29DF801109DF8022052EA012136
:1055C000884202D19DF8000000E0002002BD80B5B5
:1055D00080B2010A8DF800108DF80100022200212E
:1055E00000A804F0B2FC80B2010A8DF802108DF818
:1055F0000300042200A941F2106004F0BEFE01BDC8
:1056000080B5042200A941F2106004F0D2FE02220B
:10561000002100A804F099FC80B29DF802109DF8CA
:10562000032052EA0121884207D19DF800009DF82D
:10563000011051EA002080B200E0412002BD80B597
:10564000042200A941F2086004F0B3FE0222002106
:1056500000A804F07AFC80B29DF802109DF80320A7
:1056600052EA0121884207D19DF800009DF80110FF
:1056700051EA002080B200E0052002BD10B586B0DE
:105680000400112200A800F053FB1122002100A801
:1056900004F05BFC80B2010A8DF811108DF8120045
:1056A000132200A9E4B2132000FB04F010F5B85057
:1056B00004F063FE06B010BD30B597B005000C00D5
:1056C00005A81649442203F0BBFD132200A9EDB240
:1056D000132000FB05F010F5B85004F06AFE11220B
:1056E000002100A804F031FC80B29DF811109DF853
:1056F000122052EA0121884205D1112200A920007E
:1057000000F016FB08E01122EDB2112005A900FB04
:105710000511200000F00CFB17B030BDACED00000F
:1057200080B5C0B2002800D0FF208DF80000012213
:10573000002100A804F009FC80B2010A8DF80110D4
:105740008DF80200032200A94FF4C85004F015FEA2
:1057500001BD80B5032200A94FF4C85004F029FE12
:105760000122002100A804F0F0FB80B29DF8011096
:105770009DF8022052EA0121884202D19DF80000E2
:1057800000E0002002BD80B580B2010A8DF8001053
:105790008DF801000222002100A804F0D6FB80B29F
:1057A000010A8DF802108DF80300042200A941F6C9
:1057B000041004F0E2FD01BD80B5042200A941F609
:1057C000041004F0F6FD0222002100A804F0BDFB45
:1057D00080B29DF802109DF8032052EA0121884210
:1057E00014D19DF800009DF8011051EA002080B20C
:1057F000B0F57A6F01DA4FF47A6080B244F2516109
:10580000884201DB44F2506080B201E041F27070E6
:1058100002BD80B5042200A941F6081004F0C9FDBC
:105820000222002100A804F090FB80B29DF8021033
:105830009DF8032052EA012188420FD19DF8000013
:105840009DF8011051EA002080B2322800DA32209F
:1058500080B28D2800DB8C2080B200E0502002BD99
:1058600080B580B2010A8DF800108DF80100022287
:10587000002100A804F069FB80B2010A8DF8021033
:105880008DF80300042200A941F6081004F075FD0C
:1058900001BD80B580B2010A8DF800108DF80100BD
:1058A0000222002100A804F050FB80B2010A8DF80A
:1058B00002108DF80300042200A94FF4F95004F0FF
:1058C0005CFD01BD80B5042200A94FF4F95004F03D
:1058D00070FD0222002100A804F037FB80B29DF881
:1058E00002109DF8032052EA0121884207D19DF859
:1058F00000009DF8011051EA002080B200E0002075
:1059000002BD80B500218DF800108DF80100022243
:10591000002100A804F019FB80B2010A8DF80210E2
:105920008DF80300042200A94FF4FC5004F025FD7B
:1059300001BD80B5042200A94FF4FC5004F039FDEC
:105940000222002100A804F000FB80B29DF80210A2
:105950009DF8032052EA0121884202D19DF80100FE
:1059600000E0002002BD80B500218DF800108DF808
:1059700001000222002100A804F0E7FA80B2010A27
:105980008DF802108DF80300042200A941F6B070D2
:1059900004F0F3FC01BD80B5042200A941F6B0700B
:1059A00004F007FD0222002100A804F0CEFA80B224
:1059B0009DF802109DF8032052EA0121884202D18D
:1059C0009DF8010000E0012002BD00B583B0010E8A
:1059D0008DF80010010C8DF80110010A8DF80210ED
:1059E0008DF803000422002100A804F0AEFA80B272
:1059F000010A8DF804108DF80500062200A94FF465
:105A0000FE5004F0BAFC07BD00B583B0062200A921
:105A10004FF4FE5004F0CDFC0422002100A804F055
:105A200094FA80B29DF80410B0EB012F01D101204F
:105A300000E00020C0B29DF80510084300280ED0F9
:105A40009DF800009DF80110090451EA00609DF8DE
:105A5000021050EA01209DF80310084300E00020E6
:105A60000EBD80B5042200A942F2100004F0A1FC92
:105A70000222002100A804F068FA80B29DF802100A
:105A80009DF8032052EA0121884202D19DF80100CD
:105A900000E0012002BD80B500218DF800108DF8D6
:105AA00001000222002100A804F04FFA80B2010A8E
:105AB0008DF802108DF80300042200A942F21000B4
:105AC00004F05BFC01BD00B583B0062200A942F2E0
:105AD000200004F06EFC0422002100A804F035FA36
:105AE00080B29DF804109DF8052052EA01218842F9
:105AF0000ED19DF800009DF80110090451EA0060E4
:105B00009DF8021050EA01209DF80310084300E0C0
:105B100064200EBD00B583B0010E8DF80010010C9D
:105B20008DF80110010A8DF802108DF8030004228F
:105B3000002100A804F009FA80B2010A8DF80410CF
:105B40008DF80500062200A942F2200004F015FCA1
:105B500007BD00B583B0062200A942F2300004F070
:105B600028FC0422002100A804F0EFF980B29DF87F
:105B700004109DF8052052EA012188420ED19DF8BB
:105B800000009DF80110090451EA00609DF8021020
:105B900050EA01209DF80310084300E000200EBDEC
:105BA00000B583B0010E8DF80010010C8DF80110C6
:105BB000010A8DF802108DF803000422002100A8CC
:105BC00004F0C3F980B2010A8DF804108DF80500C5
:105BD000062200A942F2300004F0CFFB07BD00B559
:105BE00083B0062200A94FF4015004F0E2FB042226
:105BF000002100A804F0A9F980B29DF804109DF8D6
:105C0000052052EA012188420ED19DF800009DF83E
:105C10000110090451EA00609DF8021050EA0120C9
:105C20009DF80310084300E000200EBD00B583B0CE
:105C3000010E8DF80010010C8DF80110010A8DF88D
:105C400002108DF803000422002100A804F07DF961
:105C500080B2010A8DF804108DF80500062200A913
:105C60004FF4015004F089FB07BD80B580B2010AF2
:105C70008DF800108DF801000222002100A804F028
:105C800064F980B2010A8DF802108DF80300042235
:105C900000A942F2500004F070FB01BD80B504225F
:105CA00000A942F2500004F084FB0222002100A867
:105CB00004F04BF980B29DF802109DF8032052EADF
:105CC0000121884207D19DF800009DF8011051EA9A
:105CD000002080B200E0002002BD50F8041B61B13A
:105CE00050F8042BD30744BFA9F101039A180023ED
:105CF00042F8043B091FFAD1EFE770470CB41CB51A
:105D0000044604A801900A46009401AB00A9074884
:105D10007844183004F078FB009900220A700028BB
