:10000000006F0010AD0A01005D0C0100610C0100E1
:10001000650C0100690C01006D0C01005A48F9EFF4
:1000200000000000000000000000000051A20000DD
:10003000750C010000000000FFA1000095A0000069
:10004000810C0100139F00000B6F00000D6E00007B
:10005000910C010009A600005F8000000000000074
:100060006BDE0000A50C0100A90C0100AD0C010025
:10007000B10C0100B50C0100B90C0100BD0C010070
:10008000C10C0100C50C0100C90C01007F6E00000D
:10009000D10C01005F780000D90C0100DD0C0100DB
:1000A000E10C0100E50C0100E90C0100ED0C010080
:1000B000ED0C0100F50C0100F90C0100FD0C010034
:0400C000010D01002D
:1003000038B500250C2003F01DFF2800C0B200F016
:1003100055F804F06DF800284CD004F000F8040003
:10032000E4B2012C06D03AD3032C16D006D3042C09
:100330001FD034E00C2003F005FF3EE0EDB2002DAD
:1003400003D0EDB228006D1E02E008252800C0B2DF
:100350002800C0B200F032F821E0EDB2681C09219B
:1003600090FBF1F201FB12052800C0B200F026F864
:1003700015E0EDB2DFF8500650F8250000280AD04D
:10038000EDB2DFF8440650F8250080472800C0B2DF
:1003900000F014F803E00C2003F0D4FE0DE032204E
:1003A00004F001F9DFF8A8080068401CDFF8A01885
:1003B0000860AEE70C2003F0C5FE31BD10B50400A7
:1003C0000021002003F0A1FEDFF8D40703F0D8FEDF
:1003D0000121002003F099FEE4B2DFF8780850F81C
:1003E000240003F0CDFE0121002003F08EFE7E20CC
:1003F00003F0A8FE10BD38B500250C2003F0A2FEC6
:100400002800C0B200F043F803F0F2FF00283DD00E
:1004100003F085FF0400E4B2012C18D032D3032C82
:1004200025D015D3042C2DD1EDB2DFF8680850F893
:10043000250000280AD0EDB2DFF8580850F8250052
:1004400080472800C0B200F022F81BE01EE01DE04B
:10045000EDB2002D03D0EDB228006D1E02E007259D
:100460002800C0B22800C0B200F011F80AE0EDB2D6
:10047000681C082190FBF1F505FB11052800C0B2AE
:1004800000F005F8322004F08EF8BDE731BD10B55C
:1004900004000021002003F038FEDFF8FC0703F021
:1004A0006FFE0121002003F030FEE4B2DFF84C08BB
:1004B00050F8240003F064FE0121002003F025FE23
:1004C0007E2003F03FFE10BD30B585B0002004F063
:1004D00090FC05000C2003F035FEDFF8C00703F0A8
:1004E0004FFE03F085FF00282FD003F018FF040013
:1004F000E4B2012C0AD016D3032C10D00AD3042C5A
:1005000011D1290089B2002004F025FC0C2003F051
:1005100019FE1AE0ADB21F2D00DB6D1E03E0ADB277
:10052000B42D00DA6D1CADB22A00DFF8B01800A8B7
:1005300005F020FE0121062003F0E7FD00A803F0EE
:100540001FFE322004F02FF8CBE705B030BD30B5E8
:1005500085B0012004F04DFC05000C2003F0F2FDF5
:10056000DFF89C0703F00CFE03F042FF00282FD0B9
:1005700003F0D5FE0400E4B2012C0AD016D3032CFC
:1005800010D00AD3042C11D1290089B2012004F023
:10059000E2FB0C2003F0D6FD1AE0ADB23D2D00DBEE
:1005A0006D1E03E0ADB2C82D00DA6D1CADB22A009D
:1005B000DFF82C1800A805F0DDFD0121062003F06E
:1005C000A4FD00A803F0DCFD322003F0ECFFCBE734
:1005D00005B030BD30B585B0022004F00AFC05003E
:1005E0000C2003F0AFFDDFF8FC0703F0C9FD03F0BA
:1005F000FFFE00285CD003F092FE0400E4B2012C60
:100600000AD03ED3032C23D00AD3042C39D129009D
:1006100089B2022004F09FFB0C2003F093FD47E019
:10062000ADB2B5F5FA6F12DDDFF8BC07006841F234
:100630008931884201D36D1E09E0DFF8AC070068FC
:1006400040F6B931884201D30A3D00E0643D1DE027
:10065000ADB244F25060854212DADFF88C070068D0
:1006600041F28931884201D36D1C09E0DFF8780737
:10067000006840F6B931884201D30A3500E064359C
:1006800004E0DFF8640741F288310160ADB22A006E
:10069000DFF85C1800A805F06DFD0121032003F0D0
:1006A00034FD00A803F06CFD322003F07CFF9EE7D0
:1006B00005B030BD30B585B0052004F09AFB0500CB
:1006C0000C2003F03FFDDFF82C0803F059FD03F088
:1006D0008FFE002831D003F022FE0400E4B2012C8A
:1006E0000AD018D3032C10D00AD3042C13D129001C
:1006F00089B2052004F02FFB0C2003F023FD1CE041
:10070000ADB2022D00DB6D1E05E0ADB240F2E73068
:10071000854200DA6D1CADB22A00DFF8B01800A8DF
:1007200005F028FD0121032003F0EFFC00A803F0F1
:1007300027FD322003F037FFC9E705B030BD2DE9B2
:10074000F04385B00400002600A8DFF884180CC927
:100750000CC0083908385FF000085FF001090C2070
:1007600003F0F0FCDFF86C0803F00AFD03F040FE34
:10077000002800F0908003F0D2FD0500EDB2012DBD
:100780003ED060D3032D3DD04DD3042D5BD1761CDC
:10079000F6B2042E33DB9DF800004FF47A719DF819
:1007A000012064235A4301FB00209DF802100A2215
:1007B00002FB01009DF80310081800F53C50B03012
:1007C0000700BFB2A4B2A74201D1FF2064E00C2011
:1007D00003F0B8FCDFF8000803F0D2FC0121002090
:1007E00003F093FCDFF8C80803F0CAFC40F6B83009
:1007F00003F0D9FE0C2003F0A5FC00204CE022E021
:10080000002049E0F6B200A8305C401CF6B200A916
:100810007054F6B200A8305C3A2803DBF6B200A8A8
:10082000302131540FE0F6B200A8305C401EF6B221
:1008300000A97054F6B200A8305C302803DAF6B292
:1008400000A839213154B9F101094846C0B2002845
:100850001DD1042081465FFA88F87FEA0808042247
:1008600000A902A805F0A0FC00208DF80C005FFA9A
:1008700088F8B8F1000F03D0F6B202A85F21315416
:100880000121062003F041FC02A803F079FC32208C
:1008900003F089FE6AE7002005B0BDE8F08330B5BB
:1008A00085B000250DF10D00019003A800900DF119
:1008B0000B030DF10A020DF1090102A804F07DFB02
:1008C0000C2003F03FFCDFF8780A03F059FCEDB28E
:1008D00002A8295C2800C0B200F05AF803F088FD95
:1008E000002853D003F01BFD0400E4B2012C28D0F3
:1008F00048D3032C26D034D3042C43D1EDB2062D9B
:1009000010D19DF80D0001909DF80C0000909DF80D
:100910000B309DF80A209DF809109DF8080004F09E
:10092000E9FA33E0EDB202A8285CC043EDB202A9B7
:100930006854EDB202A8295C2800C0B200F028F883
:1009400020E023E0EDB2681C072190FBF1F201FBEF
:100950001205EDB202A8295C2800C0B200F018F818
:1009600010E0EDB2002D03D0EDB228006D1E02E0C4
:1009700006252800C0B2EDB202A8295C2800C0B24A
:1009800000F006F8322003F00EFEA7E705B030BDF8
:1009900038B504000D000121002003F0B6FBE4B2DD
:1009A000DFF8DC0A50F8240003F0EAFBE4B2062C7E
:1009B00009DAEDB2002D06D00121022003F0A5FBDB
:1009C000582003F0BFFB31BDBCF600002DE9F04F0D
:1009D0008BB00026002701249D48006805F000FC2C
:1009E00005F00EFC42F2107190FBF1F201FB120ACD
:1009F0000C2003F0A7FB1FFA8AFA5246DFF8FC1915
:100A000000A805F0B7FB00A803F0BAFB0121002005
:100A100003F07BFBDFF8E80903F0B2FBDFF8E41931
:100A200000A805F0A7FB03F0E3FC002800F0B48069
:100A300003F075FC0500EDB2012D68D0C0F089808F
:100A4000032D65D075D3042D40F08380F6B2052EBA
:100A50005BDB9DF80000DFF864169DF8012042F290
:100A600010735A4301FB00209DF802104FF47A7274
:100A700002FB01009DF80310642202FB01009DF8B7
:100A800004100A2202FB01009DF805100818DFF887
:100A90008C1711EB000B5FEA8B3B5FEA9B3B5FEA35
:100AA0009B30804658468004800C40F6BC3148405C
:100AB00081460C2003F046FB1FFA89F91FFA8AFAD7
:100AC000D14511D15FFA88F8404605F013FCDFF8F4
:100AD000B40903F055FB0121002003F016FBDFF8F9
:100AE000A80903F04DFB0BE0DFF8EC0403F048FB32
:100AF0000121002003F009FBDFF8FC0A03F040FBB2
:100B000040F6B83003F04FFD46E0761C21E043E0AC
:100B1000F6B200A8305C401CF6B200A97054F6B2E0
:100B200000A8305C3A2803DBF6B200A8302131542B
:100B30000FE0F6B200A8305C401EF6B200A9705477
:100B4000F6B200A8305C302803DAF6B200A83921EA
:100B50003154601E0400C0B2002819D104200400E2
:100B6000FFB2FF43112200A905A805F01DFB0020DC
:100B70008DF81B00FFB2002F03D0F6B205A85F214D
:100B800031540121072003F0C0FA05A803F0F8FA58
:100B9000322003F008FD46E70BB0BDE8F08F0000FF
:100BA0007006010038B5002505F0C3FA80B2FFF7E2
:100BB000C6FD00284AD00C2003F0C4FA2800C0B2B9
:100BC00000F04AF803F014FC00283FD003F0A7FB24
:100BD0000400E4B2012C17D034D3032C18D023D353
:100BE000042C2FD1EDB2DFF8D00A50F825000028F0
:100BF0000AD0EDB2DFF8C00A50F82500804728007F
:100C0000C0B200F029F81DE00C2003F09BFA1DE0B3
:100C1000EDB2681C082190FBF1F505FB11052800D9
:100C2000C0B200F019F80DE0EDB2002D03D0EDB226
:100C300028006D1E02E007252800C0B22800C0B2BF
:100C400000F00AF8642003F0AEFCBBE731BD000001
:100C5000486B00108003001010B504000021002034
:100C600003F053FADFF8940903F08AFA0121002017
:100C700003F04BFAE4B2DFF8480A50F8240003F01E
:100C80007FFA0121002003F040FA7E2003F05AFA97
:100C900010BD00000CF7000080060100600101009B
:100CA00030B585B004F03AFA05002A00DFF8141ACE
:100CB00000A805F05FFA0C2003F044FADFF8C00A40
:100CC00003F05EFA0121002003F01FFA00A803F0F0
:100CD00057FA03F08DFB00280DD003F020FB040031
:100CE000E4B22000012801D0042800D103E06420F0
:100CF00003F059FCEDE705B030BD0000A40300107F
:100D00007401010010B50C2003F01CFADFF8B809DB
:100D100003F036FA0121002003F0F7F9DFF8AC09FF
:100D200003F02EFA03F0FBFA0400E4B2042C01D124
:100D300005F02CFBE4B2012CF4D105F0FAF980B2F5
:100D4000FFF7FDFC00281BD00C2003F0FBF9DFF8B7
:100D5000340A03F015FA0121002003F0D6F9DFF878
:100D6000280A03F00DFA002004F0FFF9002004F037
:100D7000A2FD002005F053F941F2883003F013FC86
:100D800010BD30B585B004F013FA05002A00DFF875
:100D9000341900A805F0EEF90C2003F0D3F9DFF8C0
:100DA000900A03F0EDF90121002003F0AEF900A84C
:100DB00003F0E6F903F01CFB00280DD003F0AFFAB6
:100DC0000400E4B22000012801D0042800D103E08F
:100DD000642003F0E8FBEDE705B030BD380B0100FF
:100DE000400B010088010100746B001030B585B024
:100DF00004F028FA05000C2003F0A4F9DFF89409A8
:100E000003F0BEF903F0F4FA002836D003F087FAB5
:100E10000400E4B2012C09D01DD3032C0AD010D356
:100E2000042C18D1280080B204F02DFA0C2003F015
:100E300089F922E00A35ADB2792D01DB00200500E9
:100E400009E0ADB2002D03D00A3D280080B202E0D7
:100E50007825280080B2ADB22A00DFF8DC1900A89E
:100E600005F088F90121062003F04FF900A803F0EE
:100E700087F9642003F097FBC4E705B030BD00009C
:100E800038B504F01DFA05000C2003F05BF9DFF81B
:100E9000A40903F075F903F0ABFA002827D003F09A
:100EA0003EFA0400E4B2012C09D00ED3032C0AD080
:100EB00009D3042C09D1280080B204F022FA0C20B6
:100EC00003F040F913E0ADB2ED430121062003F039
:100ED0001CF9ADB2002D03D076A003F051F902E069
:100EE00075A003F04DF9642003F05DFBD3E731BD3D
:100EF000F00801009C01010030B585B004F058FAFB
:100F000005000C2003F01EF9DFF8AC0903F038F9F6
:100F100003F06EFA002857D003F001FA0400E4B29F
:100F2000012C09D039D3032C20D009D3042C34D17F
:100F3000280080B204F01FFA0C2003F003F943E00C
:100F4000ADB2B5F5FA6F10DDDFF870090068B0F5E5
:100F50007A7F01D96D1E08E0DFF860090068B0F5FE
:100F6000FA7F01D90A3D00E0643D1BE0ADB244F2D6
:100F70005060854210DADFF844090068B0F57A7FE6
:100F800001D96D1C08E0DFF834090068B0F5FA7F7C
:100F900001D90A3500E0643504E0DFF8200940F6A5
:100FA000B8310160ADB22A00DFF8841A00A805F05C
:100FB000E1F80121032003F0A8F800A803F0E0F80D
:100FC000322003F0F0FAA3E705B030BDFC080100C1
:100FD000480B0100B0010100500B010030B585B095
:100FE00004F036FA05000C2003F0ACF8DFF8F40941
:100FF00003F0C6F803F0FCF9002857D003F08FF98E
:101000000400E4B2012C09D039D3032C20D009D339
:10101000042C34D1280080B204F0FDF90C2003F038
:1010200091F843E0ADB2B5F5FA6F10DDDFF88C084A
:101030000068B0F57A7F01D96D1E08E0DFF87C0802
:101040000068B0F5FA7F01D90A3D00E0643D1BE07D
:10105000ADB244F25060854210DADFF860080068F3
:10106000B0F57A7F01D96D1C08E0DFF85008006800
:10107000B0F5FA7F01D90A3500E0643504E0DFF805
:101080003C0840F6B8310160ADB22A00DFF8A01983
:1010900000A805F06FF80121032003F036F800A83E
:1010A00003F06EF8322003F07EFAA3E705B030BDFE
:1010B0000809010053494D004E414F00A086010030
:1010C00030B585B004F03CFA05000C2003F03AF886
:1010D000DFF82C0A03F054F803F08AF900282ED028
:1010E00003F01DF90400E4B2012C09D015D3032C40
:1010F0000FD009D3042C10D1280080B204F04FFA8D
:101100000C2003F01FF81AE0ADB2022D00DB6D1EBB
:1011100003E0ADB2782D00DA6D1CADB22A00DFF825
:10112000E81A00A805F026F80121062002F0EDFFDC
:1011300000A803F025F8322003F035FACCE705B01B
:1011400030BD30B585B004F047FA05000C2002F040
:10115000F9FFDFF8B80A03F013F803F049F90028A3
:101160005AD003F0DCF80400E4B2012C09D03CD3DF
:10117000032C23D009D3042C37D1280080B204F0EB
:101180005DFA0C2002F0DEFF46E0ADB241F289309C
:10119000854212DBDFF82407006841F2893188427A
:1011A00001D36D1E09E0DFF81407006841F28931B0
:1011B000884201D30A3D00E0643D1BE0ADB244F239
:1011C0005060854210DADFF8F4060068B0F57A7FE7
:1011D00001D96D1C08E0DFF8E4060068B0F5FA7F7D
:1011E00001D90A3500E0643504E0DFF8D00640F6A6
:1011F000B8310160ADB22A00DFF8341800A804F05D
:10120000B9FF0121062002F080FF00A802F0B8FF1C
:10121000322003F0C8F9A0E705B030BDB09EAEFFA4
:1012200038B500252800C0B200F043F803F0E0F81C
:1012300000283DD003F073F80400E4B2012C18D06C
:1012400032D3032C25D015D3042C2DD1EDB2DFF8E9
:10125000E40A50F8250000280AD0EDB2DFF8D40ADD
:1012600050F8250080472800C0B200F022F81BE0AB
:101270001EE01DE0EDB2002D03D0EDB228006D1E82
:1012800002E012252800C0B22800C0B200F011F818
:101290000AE0EDB2681C132190FBF1F201FB12058C
:1012A0002800C0B200F005F8322003F07CF9BDE759
:1012B00031BD10B504000021002002F026FFDFF848
:1012C000780A02F05DFF0121002002F01EFFE4B267
:1012D000DFF8680A50F8240002F052FF01210020D4
:1012E00002F013FF7E2002F02DFF10BD7FB50C2011
:1012F00002F028FFDFF8480A02F042FF03F00FF87F
:101300000400E4B2012C19D005F03AFB05F09AFB79
:101310000500280005F0AAFB06003200DFF8241AB9
:1013200000A804F027FF0121002002F0EEFE00A833
:1013300002F026FF642003F036F9DFE77FBD0000EE
:10134000C401010070B586B00C2002F0FBFEDFF88E
:10135000F80902F015FF042003F04BFD050002F030
:10136000DEFF0400E4B2012C46D0E4B2042C1DD10F
:101370000121002002F0C9FEDFF8D00902F000FFD1
:101380000121002002F0C1FE280005F088FB0028A2
:1013900004D0DFF8BC0902F0F3FE03E0DFF8B40983
:1013A00002F0EEFE40F6B83003F0FDF805F02AFB3F
:1013B0000600B6B23200DFF8A01900A804F0DAFE89
:1013C0000121012002F0A1FE00A802F0D9FE0121B6
:1013D000082002F09AFE05F096FB002804D0DFF802
:1013E0007C0902F0CDFE03E0DFF8740902F0C8FECC
:1013F000642003F0D8F8B2E706B070BD140901000C
:10140000580B0100600B010038B50C2002F09AFE69
:10141000DFF8500902F0B4FE02F081FF0400E4B2EC
:101420002000012814D0042813D10121002002F04B
:101430006CFEDFF8340902F0A3FE05F08EFB0121FB
:10144000002002F062FEDFF8240902F099FE00E0BD
:1014500014E005F0B3FB05000121052002F055FE64
:10146000EDB2002D03D095A002F08AFE02E0C3A0E9
:1014700002F086FE642003F096F8CDE731BD00004F
:10148000E4030010200901002C0901002DE9F043BC
:1014900085B05FF000084FF47A664FF4E1670C20E6
:1014A00002F050FEDFF8C80802F06AFE02F037FFD3
:1014B0000400E4B2012C17D02DD3032C15D020D377
:1014C000042C28D15FFA88F87FEA08085FFA88F8C8
:1014D000B8F1000F04D0B6B2300005F050FD02E0C4
:1014E000002005F04CFD16E056E0DFF8D00340F692
:1014F000B8310160B6B242F6E060864200DA643686
:1015000009E0DFF8B80340F6B8310160B6B2B6F5CD
:10151000167F00DD643EDFF8A403006800280DD1CB
:10152000B6B2BFB2BE4209D05FFA88F8B8F1000F78
:1015300004D0B6B2300005F022FD37005FFA88F81B
:10154000B8F1000F02D00FF2442901E00FF2402958
:10155000DFF868030068002802D0B6B2300001E06E
:1015600005F030FD4B460200DFF8981A00A804F0A1
:1015700001FE00A805F0D4FD05000121EDB2D5F172
:1015800010004010C0B202F0C0FD00A802F0F8FD4B
:10159000642003F008F889E705B0BDE8F08310B5D2
:1015A00086B00C2002F0CEFDDFF8540A02F0E8FD10
:1015B000FF2005F01FFD02F0B2FE0400E4B2012C92
:1015C00003D1002005F016FD13E005F09BFC80B26E
:1015D0000200DFF8341A00A804F0CCFD0121052038
:1015E00002F093FD00A802F0CBFD642002F0DBFFC7
:1015F000E1E706B010BD000038090100D801010084
:1016000070B50025042003F0F4FB06000C2002F066
:1016100099FDDFF8F80902F0B3FD02F080FE040046
:10162000E4B2012C32D032D3032C0FD00ED3042CD1
:101630002DD1EDB2ED43EDB2002D03D0012005F028
:101640006EFA02E0002005F06AFA20E00121002095
:1016500002F05BFDDFF8F40602F092FD01210020AC
:1016600002F053FDB6B2300005F019FA002804D09C
:10167000DFF8DC0602F084FD03E0DFF8D80602F0B4
:101680007FFD40F6B83002F08EFF00E013E001214C
:10169000002002F03AFDEDB2002D04D0DFF8700911
:1016A00002F06EFD03E0DFF8A80A02F069FD642095
:1016B00002F079FFB1E770BD2CF700005B315D00EF
:1016C000C4030010440901000002010014020100DB
:1016D00070B586B00025002006F030F80C2002F02E
:1016E00031FDDFF8700A02F04BFD02F018FE040035
:1016F000E4B2012C15D017D3032C03D002D3042C51
:1017000003D011E006F074F80EE0EDB2ED432800CE
:10171000C0B206F04CF800220021002006F0B1FB18
:1017200002E006F065F827E005F08DFE06003000C7
:1017300006F062FC02000B00DFF81C1A00A804F09F
:1017400019FD0121002002F0E0FC00A802F018FDC4
:101750000121082002F0D9FCEDB2002D04D0DFF801
:10176000FC0902F00DFD03E0DFF89C0A02F008FD21
:10177000642002F018FFB8E706B070BD5B305D0072
:10178000EC010100500901005C0901004F4E00000E
:101790004F4646003C02010070B5052501260C208D
:1017A00002F0D0FCDFF8640A02F0EAFC02F0B7FDB8
:1017B0000400E4B2012C39D06D1E2800C0B200280C
:1017C00030D10520050000220021012006F059FB40
:1017D00000220021022006F054FB002200210320F9
:1017E00006F04FFB00220021042006F04AFB0022F5
:1017F0000021052006F045FB00220021062006F00E
:1018000040FB01220021072006F03BFB01220121C1
:101810003000C0B206F035FB761CF6B2082E01DBB4
:1018200001200600642002F0BEFEBFE770BD00008C
:1018300028020100500201006809010038B503F0D8
:10184000AEFF0500ADB2002D02D04FF6FF700500CF
:101850000C2002F077FCDFF8140B02F091FC02F090
:10186000C7FD002827D002F05AFD0400E4B2012C85
:1018700009D00ED3032C0AD009D3042C09D1280097
:1018800080B203F0B4FF0C2002F05CFC13E0ADB2B8
:10189000ED430121062002F038FCADB2002D03D04B
:1018A00095A002F06DFC02E094A002F069FC6420B7
:1018B00002F079FED3E731BD64020100746B0010C1
:1018C00030B583B000250C2002F03CFCDFF8A00A04
:1018D00002F056FC03F0C5FF050002F089FD002868
:1018E0005BD002F01CFD0400E4B2012C09D00FD340
:1018F000032C07D008D3042C0AD1280080B203F0AF
:1019000093FF4AE06D1C03E0ADB2022D00DB6D1EBB
:10191000ADB24FF47A7095FBF0F00A2190FBF1F232
:1019200001FB120030308DF80000ADB2642095FB51
:10193000F0F00A2190FBF1F201FB120030308DF83B
:101940000100ADB20A2095FBF0F00A2190FBF1F204
:1019500001FB120030308DF802002E208DF80300BC
:10196000ADB20A2095FBF0F100FB115030308DF83C
:10197000040020208DF8050025208DF806000020A9
:101980008DF807000121062002F0BFFB00A802F03D
:10199000F7FB642002F007FE9FE737BD10B50C206F
:1019A00002F0D0FBDFF8D40902F0EAFB02F0B7FC4A
:1019B0000400E4B2012C14D00121032002F0A5FBA5
:1019C00002F02EFD002804D0DFF8B40902F0D8FBA5
:1019D00003E0DFF8B00902F0D3FB642002F0E3FD7E
:1019E000E4E710BD7802010010B50C2002F0AAFB5C
:1019F000DFF8940902F0C4FB02F091FC0400E4B2A9
:101A0000012C14D00121032002F07FFB02F0F3FC33
:101A1000002804D0DFF8680902F0B2FB03E0DFF829
:101A2000640902F0ADFB642002F0BDFDE4E710BDE7
:101A3000F00801001FB50C2002F084FBDFF84C0910
:101A400002F09EFB02F06BFC0400E4B2012C20D0FB
:101A50000121032002F059FB002003900020029096
:101A6000002001900020009000230022002101208E
:101A700006F061FB002804D0DFF8140902F080FBB7
:101A800003E0DFF8140902F07BFB642002F08BFD19
:101A9000D8E71FBD38B500250C2002F053FBDFF856
:101AA000F40802F06DFB02F03AFC0400E4B22000FE
:101AB000012804D0042806D195F0FF0503E000209A
:101AC00004F047FC17E02800C0B204F042FC0121FA
:101AD000032002F01AFBEDB2002D04D0DFF8BC08A1
:101AE00002F04EFB03E0DFF8B80802F049FB642087
:101AF00002F059FDD7E731BD53494D004E414F002B
:101B00008C02010030B585B077250C2002F01AFB5D
:101B1000DFF8900802F034FB022003F06AF980B28B
:101B200005F02DFA6421732005F049FA02F0F7FB65
:101B30000400E4B2012C08D01FD3032C0DD013D322
:101B4000042C1AD10020050017E0002005F017FA38
:101B50000021002005F033FA54E06D1C6421ADB281
:101B6000280005F02CFA08E0ADB2002D00D06D1E63
:101B70006421ADB2280005F022FA01210A2002F00A
:101B8000C4FA5B208DF80000ADB24FF47A7095FB7B
:101B9000F0F00A2190FBF1F201FB120030308DF8D9
:101BA0000100ADB2642095FBF0F00A2190FBF1F248
:101BB00001FB120030308DF80200ADB20A2095FB17
:101BC000F0F00A2190FBF1F201FB120030308DF8A9
:101BD0000300ADB20A2095FBF0F100FB115030304C
:101BE0008DF804005D208DF8050000208DF80600BA
:101BF00000A802F0C5FA002006F0DAFF642002F027
:101C0000D2FC93E705B030BD74090100A0020100C9
:101C100000B583B040F68E40FEF791FD002803D159
:101C20000C2002F08FFA42E05021002003F093F8DC
:101C30006421012003F08FF841F2EC31022003F01F
:101C40008AF8412003F07AFB2821042003F083F86E
:101C500043F2D40003F08FFB43F2C82003F0DBFB18
:101C6000032003F09CFC43F6982003F0E7FC41F2CC
:101C70004A5003F032FD052003F045FC142003F028
:101C800071FD0C2002F05EFA412003F097FE002067
:101C9000019000200090002300220121012003F088
:101CA00029F90A2003F0EFFA012003F02AFB07BD0F
:101CB00038B504F03EFA80B2FEF741FD002803D1AA
:101CC0000C2002F03FFA34E00C2002F03BFADFF87F
:101CD000AC0702F055FA03F055FE050002F088FB50
:101CE000002826D002F01BFB0400E4B2012C09D02E
:101CF0000BD3032C07D006D3042C06D12800C0B286
:101D000003F023FE15E095F0FF050121052002F008
:101D1000FCF9EDB2002D04D0DFF8A00702F030FA94
:101D200003E0DFF89C0702F02BFA322002F03BFCC4
:101D3000D4E731BDC4F30000B40201008C020010EE
:101D400090060100680B0100A0060100B00601002A
:101D5000C0060100D0060100700B0100780B0100E5
:101D6000800B0100800901008C0901009809010025
:101D7000E00601002DE9F04F8BB00026002701247A
:101D80005FF00008DFF83C07006804F029FA04F06F
:101D900037FA42F2107190FBF1F201FB120A0C20AB
:101DA00002F0D0F91FFA8AFA5246DFF81C1700A891
:101DB00004F0E0F900A802F0E3F90121002002F0AC
:101DC000A4F9DFF8080702F0DBF9DFF8041700A830
:101DD00004F0D0F902F00CFB002800F0CD8002F0F6
:101DE0009EFA0500EDB2012D00F08180C0F0A180C7
:101DF000032D7DD0C0F08D80042D40F09A80F6B286
:101E0000052E72DB9DF80000DFF8C8169DF8012052
:101E100042F210735A4301FB00209DF802104FF468
:101E20007A7202FB01009DF80310642202FB01009C
:101E30009DF804100A2202FB01009DF80510081805
:101E4000DFF8941611EB000B5FEA8B3B5FEA9B3BDC
:101E50005FEA9B30804658468004800C40F6BC31D7
:101E6000484081460C2002F06DF91FFA89F91FFAEB
:101E70008AFAD14528D1DFF8640602F081F9012100
:101E8000002002F042F9DFF8B80702F079F90020EB
:101E900003F021F9002003F068F9002003F0AFF906
:101EA000002003F008FD002003F0C1FF002004F033
:101EB000B6F8002004F0FDF8002003F00AFF41F21C
:101EC000883002F070FB0BE0DFF8780702F058F979
:101ED0000121002002F019F9DFF86C0702F050F937
:101EE00040F6B83002F05FFB46E0761C21E043E0AC
:101EF000F6B200A8305C401CF6B200A97054F6B2ED
:101F000000A8305C3A2803DBF6B200A83021315437
:101F10000FE0F6B200A8305C401EF6B200A9705483
:101F2000F6B200A8305C302803DAF6B200A83921F6
:101F30003154601E0400C0B2002819D104200400EE
:101F4000FFB2FF43112200A905A804F02DF90020DB
:101F50008DF81B00FFB2002F03D0F6B205A85F2159
:101F600031540121072002F0D0F805A802F008F949
:101F7000322002F018FB2DE70BB0BDE8F08F30B532
:101F800085B003F038FD05000C2002F0DBF8DFF827
:101F9000BC0602F0F5F802F02BFA00282ED002F071
:101FA000BEF90400E4B2012C09D015D3032C0FD0E4
:101FB00009D3042C10D1280080B203F0FFFC0C20C0
:101FC00002F0C0F81AE0ADB2242D00DB6D1E03E074
:101FD000ADB2C82D00DA6D1CADB22A00DFF8FC17D7
:101FE00000A804F0C7F80121062002F08EF800A82E
:101FF00002F0C6F8322002F0D6FACCE705B030BDC8
:10200000C8020100F0060100880B0100DC0201009B
:10201000A40901002DE9F0419CB004000AA8DFF8F2
:102020007418442207F042FC5FF0000800260127E4
:102030000C2002F087F80021002002F066F8E4B2DC
:1020400011200AA900FB041002F09AF802F0A3F88C
:1020500000A92000C0B203F032FD02F0C9F9002847
:1020600073D002F05CF90500EDB2012D13D04AD314
:10207000032D2DD012D3042D45D118F101085FFA9C
:1020800088F8B8F1100F05DB00A92000C0B203F0FA
:10209000F4FC5AE037E002F08BF856E05FFA88F87B
:1020A00000A818F80000202806D15FFA88F800A8D8
:1020B0007A2108F800100AE05FFA88F800A818F8FA
:1020C0000000401E5FFA88F800A908F801001AE035
:1020D0005FFA88F800A818F800005FFA88F800A9ED
:1020E000421C08F80120C0B200280CD05FFA88F822
:1020F00000A818F800007B2805DB5FFA88F800A824
:10210000202108F800107F1E3800C0B2002818D126
:102110000A200700F6B2F643112200A905A804F030
:1021200043F80121002001F0F0FFF6B2002E05D0A7
:102130005FFA88F805A85F2108F8001005A802F0EA
:102140001FF8322002F02FFA87E71CB0BDE8F081BB
:10215000B009010000070100BC090100C809010025
:1021600080B50020FFF756FF01BD80B50120FFF7C5
:1021700051FF01BD80B50220FFF74CFF01BD80B5C6
:102180000320FFF747FF01BD38B503F0ECFC050065
:10219000ADB2002D02D04FF6FF7005000C2001F00B
:1021A000D1FFDFF8B40701F0EBFF02F021F90028BE
:1021B00029D002F0B4F80400E4B2012C09D010D305
:1021C000032C0AD009D3042C0BD12800C0B203F091
:1021D000ADFC0C2001F0B6FF15E085F47F4595F0CD
:1021E000FF050121062001F090FFADB2002D03D0C4
:1021F00060A001F0C5FF02E05FA001F0C1FF0A206E
:1022000002F0D1F9D1E731BDD40901001007010076
:1022100030B585B003F0E0FC05000C2001F092FF22
:10222000DFF8F80701F0ACFF02F0E2F8002859D01F
:1022300002F075F80400E4B2012C09D03BD3032C62
:1022400021D009D3042C36D1280080B203F0A7FC9A
:102250000C2001F077FF45E0ADB2B5F5FA6F11DD66
:10226000DFF8BC070068B0F5FA5F01D96D1E09E020
:10227000DFF8AC07006841F28931884201D30A3D9A
:1022800000E0643D1CE0ADB244F25060854211DADA
:10229000DFF88C070068B0F5FA5F01D96D1C09E022
:1022A000DFF87C07006841F28931884201D30A35A2
:1022B00000E0643504E0DFF8680743F69821016028
:1022C000ADB22A00DFF85C1700A803F053FF01212C
:1022D000032001F01AFF00A801F052FF322002F0A3
:1022E00062F9A1E705B030BD30B585B003F0A7FCB9
:1022F00005000C2001F026FFDFF82C0701F040FF5D
:1023000002F076F800282ED002F009F80400E4B2BA
:10231000012C09D015D3032C0FD009D3042C10D1D4
:10232000280080B203F0B8FC0C2001F00BFF1AE08B
:10233000ADB23D2D00DB6D1E03E0ADB2C82D00DA5D
:102340006D1CADB22A00DFF8941400A803F012FF50
:102350000121062001F0D9FE00A801F011FF322072
:1023600002F021F9CCE705B030BD0000F002010019
:102370002007010053494D004E414F003007010036
:10238000E0090100EC0901004007010050070100CD
:10239000F809010004030100040A0100900B010088
:1023A000980B01001803010038B5002500F050F922
:1023B000002841D02800C0B200F03FF801F0AFFF84
:1023C0000400E4B2012C18D032D3032C25D015D34D
:1023D000042C2DD1EDB2DFF8540D50F82500002863
:1023E0000AD0EDB2DFF8440D50F8250080472800F0
:1023F000C0B200F022F81BE01EE01DE0EDB2002D9F
:1024000003D0EDB228006D1E02E004252800C0B202
:102410002800C0B200F011F80AE0EDB2681C0521F6
:1024200090FBF1F201FB12052800C0B200F005F8A4
:10243000322002F0B8F8C1E731BD10B50400002128
:10244000002001F062FEDFF8200C01F099FE01216E
:10245000002001F05AFEE4B2DFF8D40C50F824005A
:1024600001F08EFE10BD10B5DFF8C80C00F038F892
:102470000400200003F01FFA10BD000060070100F7
:1024800010B5DFF8B40C00F02BF80400200002F0C7
:1024900022FE10BD10B5DFF8A40C00F021F80400F6
:1024A000200002F062FE10BD10B5DFF8940C00F0C1
:1024B00017F80400200002F0A2FE10BDA00B0100DE
:1024C000A80B0100486B001014090100580B010013
:1024D000600B0100A0860100B09EAEFF100A010053
:1024E0002DE9F04186B0040000A8DFF8581C2CC983
:1024F0002CC00C390C38002601275FF000080C2096
:1025000001F020FE0021002001F0FFFD200001F07D
:1025100037FE01F004FF0500EDB2012D67D068D34E
:10252000032D03D018D3042D2CD062E0F6B200A8FE
:10253000305C392805DB3020F6B200A97054C0B2F7
:1025400009E0F6B200A8305CF6B200A9715C491C43
:10255000F6B200AAB1544CE0F6B200A8305C3128C3
:1025600005DA3920F6B200A97054C0B209E0F6B21B
:1025700000A8305CF6B200A9715C491EF6B200AA50
:10258000B15436E0F6B2072E2FDB9DF80010DFF8CD
:10259000B82B9DF80130DFF8B4CB0CFB03F302FB42
:1025A00001319DF80220DFF8A83B03FB02119DF8E2
:1025B000032042F2107303FB02119DF804204FF434
:1025C0007A7303FB02119DF80520642303FB0211BB
:1025D0009DF806200A2303FB02119DF807205118DD
:1025E000DFF89C2C5118080027E0761C01E0002041
:1025F00023E07F1E3800C0B200281AD10A2007004D
:10260000092200A903A803F0CFFD5FFA88F87FEA4A
:1026100008085FFA88F8B8F1000F03D0F6B203A8F3
:102620005F2131540121042001F06FFD03A801F066
:10263000A7FD322001F0B7FF6BE706B0BDE8F081DF
:10264000B00B0100500B0100380901002C03010000
:102650002DE9F0478AB00026002701245FF000082A
:10266000DFF8200C006803F0BBFD03F0C9FD42F267
:10267000107190FBF1F201FB120A0C2001F062FDD7
:102680001FFA8AFA5246DFF8001C00A803F072FD18
:1026900000A801F075FD0121002001F036FDDFF8F2
:1026A000EC0B01F06DFDDFF8E81B00A803F062FD04
:1026B00001F09EFE002800F08D8001F030FE050044
:1026C000EDB2012D40D062D3032D3FD04FD3042D66
:1026D0005DD1F6B2052E35DB9DF80000DFF8701AEB
:1026E0009DF8012042F210735A4301FB00209DF82F
:1026F00002104FF47A7202FB01009DF8031064226D
:1027000002FB01009DF804100A2202FB01009DF863
:1027100005100818DFF8A81C09188903890B880B15
:10272000804608008004800C40F6BC325040814650
:102730001FFA89F91FFA8AFAD14501D1FF204AE030
:10274000002048E0761C22E0002044E0F6B200A819
:10275000305C401CF6B200A97054F6B200A8305CA0
:102760003A2803DBF6B200A8302131540FE0F6B26C
:1027700000A8305C401EF6B200A97054F6B200A862
:10278000305C302803DAF6B200A839213154601EDB
:102790000400C0B2002819D104200400FFB2FF4396
:1027A000112200A905A803F0FFFC00208DF81B00F2
:1027B000FFB2002F03D0F6B205A85F2131540121EA
:1027C000072001F0A2FC05A801F0DAFC322001F09C
:1027D000EAFE6DE700200AB0BDE8F087400B01007B
:1027E00030B585B003F08AF805002A00DFF8D41B65
:1027F00000A803F0BFFC0C2001F0A4FCDFF8780C6B
:1028000001F0BEFC0121002001F07FFC00A801F0D6
:10281000B7FC01F0EDFD00280DD001F080FD0400B3
:10282000E4B22000012801D0042800D103E0642094
:1028300001F0B9FEEDE705B030BD30B585B002F06E
:1028400023FC05002A00DFF87C1B00A803F092FCA3
:102850000C2001F077FCDFF8200C01F091FC012145
:10286000002001F052FC00A801F08AFC01F0C0FD3C
:1028700000280DD001F053FD0400E4B2200001282F
:1028800001D0042800D103E0642001F08CFEEDE7C4
:1028900005B030BD58F4000038B500252800C0B29E
:1028A00000F043F801F0A4FD00283DD001F037FD11
:1028B0000400E4B2012C18D032D3032C25D015D358
:1028C000042C2DD1EDB2DFF8D80C50F825000028EB
:1028D0000AD0EDB2DFF8C80C50F825008047280078
:1028E000C0B200F022F81BE01EE01DE0EDB2002DAA
:1028F00003D0EDB228006D1E02E006252800C0B20C
:102900002800C0B200F011F80AE0EDB2681C0721FF
:1029100090FBF1F201FB12052800C0B200F005F8AF
:10292000322001F040FEBDE731BD10B504000021AA
:10293000002001F0EAFBDFF8440B01F021FC01214B
:10294000002001F0E2FBE4B2DFF8940C50F8240020
:1029500001F016FC10BD00004003010070B590B0FE
:102960000A250021002001F0D0FBDFF8140B01F054
:1029700007FC0121002001F0C8FBDFF8080B01F083
:10298000FFFB00A805F0C8FC0600F6B2002E04D13B
:102990002800451EC0B20028F3D1F6B2002E14D193
:1029A0000021002001F0B1FBDFF8DC0A01F0E8FBB8
:1029B0000121002001F0A9FBDFF8D00A01F0E0FBC3
:1029C00040F6B83001F0EFFD25E00C2001F0BAFB35
:1029D0000021002001F099FBDFF8C40C01F0D0FBCE
:1029E0000121002001F091FB00208DF8100000A8CB
:1029F00001F0C6FB01F0FCFC00280CD001F08FFCBC
:102A00000400E4B22000401E032800D803E0322076
:102A100001F0C9FDEEE710B070BD000088010100B3
:102A2000746B0010F0080100540301002DE9F0431D
:102A300095B05FF00A09002600275FF00108002129
:102A4000002001F062FBDFF8380A01F099FB012158
:102A5000002001F05AFBDFF82C0A01F091FB00A8DE
:102A600005F05AFC0500EDB2002D05D14846B0F145
:102A70000109C0B20028F2D1EDB2002D14D100211D
:102A8000002001F042FBDFF8000A01F079FB012190
:102A9000002001F03AFBDFF8F40901F071FB40F689
:102AA000B83001F080FDACE00C2001F04BFB0021C0
:102AB000002001F02AFBDFF8E80B01F061FB0121A7
:102AC000002001F022FB00208DF8100000A801F08A
:102AD00057FB0020C0B2302806DAC0B200A9411866
:102AE00000220A74401CF5E701F082FC002800F087
:102AF000888001F014FC0400E4B2012C17D05CD3F0
:102B0000032C15D037D3042C57D1F6B200A8305C73
:102B1000002803D1F6B200A820213154761CF6B269
:102B2000102E03DB00A800F06FF86AE045E068E0D3
:102B3000F6B200A8305C7F2803DBF6B200A87E2145
:102B40003154F6B200A8305C202803DAF6B200A8AF
:102B500020213154F6B200A8305C401CF6B200A926
:102B60007054F6B200A8305C7F2803DBF6B200A8F0
:102B70002021315421E0F6B200A8305C7F2803DB2D
:102B8000F6B200A87E213154F6B200A8305C2028AD
:102B900003DAF6B200A820213154F6B200A8305C66
:102BA000401EF6B200A97054F6B200A8305C20288E
:102BB00003DAF6B200A87E213154B8F1010840468C
:102BC000C0B2002819D105208046FFB2FF43102271
:102BD00000A910A803F0E8FA00208DF85000FFB219
:102BE000002F03D0F6B210A85F213154012100203C
:102BF00001F08BFA10A801F0C3FA322001F0D3FCE7
:102C000072E715B0BDE8F08370B504000A26002114
:102C1000002001F07AFADFF84C0B01F0B1FA012143
:102C2000002001F072FADFF85C0801F0A9FA200038
:102C300000F024F8200005F0BFFB0500EDB2002DE8
:102C400004D13000461EC0B20028F3D1EDB2002DF1
:102C500013D10021002001F058FADFF8880B01F0B1
:102C60008FFA0121002001F050FADFF8840C01F006
:102C700087FA40F6B83001F096FC70BD10F11002F2
:102C800011000A78212A02DB0A787F2A03DB00225E
:102C90000A70491EF5E7704770B592B000A844214C
:102CA00006F030FE05250021002001F02EFADFF8A5
:102CB000740B01F065FA0121002001F026FADFF81B
:102CC000680B01F05DFA01F093FB002842D001F09F
:102CD00026FB0400E4B22000401E022835D9C01EA5
:102CE00034D10021002001F010FADFF8C40B01F00C
:102CF00047FA0121002001F008FADFF8880701F007
:102D00003FFA00A805F058FB0600F6B2002E04D1E9
:102D10002800451EC0B20028F3D1F6B2002E13D110
:102D20000021002001F0F1F9DFF8B80A01F028FADB
:102D30000121002001F0E9F9DFF8B40B01F020FADD
:102D400040F6B83001F02FFC04E003E0322001F03F
:102D50002AFCB8E712B070BD70B590B00A2500210A
:102D6000002001F0D2F9DFF88C0B01F009FA012103
:102D7000002001F0CAF9DFF80C0701F001FA00A801
:102D800005F06BFB0600F6B2002E04D12800451EAC
:102D9000C0B20028F3D1F6B2002E14D100210020D9
:102DA00001F0B3F9DFF8E00601F0EAF901210020B3
:102DB00001F0ABF9DFF8D40601F0E2F940F6B830E3
:102DC00001F0F1FB25E00C2001F0BCF9002100200E
:102DD00001F09BF9DFF8780C01F0D2F90121002015
:102DE00001F093F900208DF8100000A801F0C8F957
:102DF00001F0FEFA00280CD001F091FA0400E4B2D0
:102E00002000401E032800D803E0322001F0CBFB55
:102E1000EEE710B070BD00002DE9F04395B05FF013
:102E20000A09002600275FF001080021002001F0B8
:102E30006CF9DFF8540B01F0A3F90121002001F037
:102E400064F9DFF8400601F09BF900A805F005FBE6
:102E50000500EDB2002D05D14846B0F10109C0B220
:102E60000028F2D1EDB2002D14D10021002001F094
:102E70004CF9DFF8140601F083F90121002001F07C
:102E800044F9DFF8080601F07BF940F6B83001F0AC
:102E90008AFBACE00C2001F055F90021002001F084
:102EA00034F9DFF8AC0B01F06BF90121002001F0DF
:102EB0002CF900208DF8100000A801F061F9002025
:102EC000C0B2302806DAC0B200A9411800220A7444
:102ED000401CF5E701F08CFA002800F0888001F032
:102EE0001EFA0400E4B2012C17D05CD3032C15D0D9
:102EF00037D3042C57D1F6B200A8305C002803D198
:102F0000F6B200A820213154761CF6B2102E03DB55
:102F100000A800F06FF86AE045E068E0F6B200A8AB
:102F2000305C7F2803DBF6B200A87E213154F6B274
:102F300000A8305C202803DAF6B200A82021315422
:102F4000F6B200A8305C401CF6B200A97054F6B28C
:102F500000A8305C7F2803DBF6B200A820213154A2
:102F600021E0F6B200A8305C7F2803DBF6B200A8AF
:102F70007E213154F6B200A8305C202803DAF6B284
:102F800000A820213154F6B200A8305C401EF6B2F1
:102F900000A97054F6B200A8305C202803DAF6B21B
:102FA00000A87E213154B8F101084046C0B2002883
:102FB00019D105208046FFB2FF43102200A910A8B6
:102FC00003F0F2F800208DF85000FFB2002F03D07C
:102FD000F6B210A85F2131540121002001F095F8CC
:102FE00010A801F0CDF8322001F0DDFA72E715B03B
:102FF000BDE8F08370B504000A260021002001F02E
:1030000084F8DFF8600701F0BBF80121002001F02F
:103010007CF8DFF8700401F0B3F82000FFF72EFE13
:10302000200005F06AFA0500EDB2002D04D1300051
:10303000461EC0B20028F3D1EDB2002D13D10021FD
:10304000002001F062F8DFF89C0701F099F80121F7
:10305000002001F05AF8DFF8980801F091F840F6E6
:10306000B83001F0A0FA70BD6803010070B592B0ED
:1030700000A8442106F046FC05250021002001F0AF
:1030800044F8DFF8A00701F07BF80121002001F0EF
:103090003CF8DFF8940701F073F801F0A9F9002873
:1030A00042D001F03CF90400E4B22000401E0228A6
:1030B00035D9C01E34D10021002001F026F8DFF8F8
:1030C000B00B01F05DF80121002001F01EF8DFF8DF
:1030D000B40301F055F800A805F00FFA0600F6B2A7
:1030E000002E04D12800451EC0B20028F3D1F6B24C
:1030F000002E13D10021002001F007F8DFF8E406CC
:1031000001F03EF80121002000F0FFFFDFF8E007AA
:1031100001F036F840F6B83001F045FA04E003E07B
:10312000322001F040FAB8E712B070BDD4050100BA
:10313000640400107C03010090030100A40301005B
:10314000B80301001C0A01008096980040420F005D
:10315000A086010070B59AB000A8DFF8941B682221
:1031600006F0A4FB02F010FE050000260C2000F083
:10317000E9FFDFF8000C01F003F80121002000F066
:10318000C4FFEDB2F6B2B54201D1012000E000204B
:103190001121F6B2222200AB02FB063201FB002015
:1031A00000F0EEFF01F024F9002867D001F0B7F835
:1031B0000400E4B2012C23D05CD3032C21D03DD3F6
:1031C000042C57D1F6B2022E58D035002800C0B2D8
:1031D00002F0BFFD0121002000F097FFEDB2F6B232
:1031E000B54201D1012000E000201121F6B22222D7
:1031F00000AB02FB063201FB002000F0C1FF39E00A
:103200003CE0F6B2701C032190FBF1F201FB1206C8
:103210000121002000F079FFEDB2F6B2B54201D1F4
:10322000012000E000201121F6B2222200AB02FBB7
:10323000063201FB002000F0A3FF1BE0F6B2002ED7
:1032400001D0761E01E0022006000121002000F0DE
:103250005CFFEDB2F6B2B54201D1012000E00020E2
:103260001121F6B2222200AB02FB063201FB002044
:1032700000F086FF322001F096F993E71AB070BD96
:10328000B0FA35E0486B001014090100580B01003A
:10329000600B010070B59AB000A8DFF8DC1A682254
:1032A00006F004FB02F0A7FD050000260C2000F04C
:1032B00049FFDFF8F00B00F063FF0121002000F070
:1032C00024FFEDB2F6B2B54201D1012000E00020AA
:1032D0001121F6B2222200AB02FB063201FB0020D4
:1032E00000F04EFF01F084F8002867D001F017F8D5
:1032F0000400E4B2012C23D05CD3032C21D03DD3B5
:10330000042C57D1F6B2022E58D035002800C0B296
:1033100002F056FD0121002000F0F7FEEDB2F6B2FA
:10332000B54201D1012000E000201121F6B2222295
:1033300000AB02FB063201FB002000F021FF39E068
:103340003CE0F6B2701C032190FBF1F201FB120687
:103350000121002000F0D9FEEDB2F6B2B54201D154
:10336000012000E000201121F6B2222200AB02FB76
:10337000063201FB002000F003FF1BE0F6B2002E36
:1033800001D0761E01E0022006000121002000F09D
:10339000BCFEEDB2F6B2B54201D1012000E0002042
:1033A0001121F6B2222200AB02FB063201FB002003
:1033B00000F0E6FE322001F0F6F893E71AB070BD97
:1033C000B09EAEFFB80B010070B5A2B000A8DFF848
:1033D000D81A882206F06AFA002602F078FD050065
:1033E0000C2000F0AFFEDFF8C40A00F0C9FE00F0C8
:1033F000FFFF00283DD000F092FF0400E4B2012C52
:103400000ED01DD3032C0CD013D3042C18D1F6B23C
:10341000032E2ED035002800C0B202F074FD0FE05C
:1034200027E0F6B2701C042190FBF1F606FB1106B2
:1034300006E0F6B2002E01D0761E01E00320060061
:103440000121002000F061FEEDB2F6B2B54201D1DB
:10345000012000E000201121F6B2222200AB02FB85
:10346000063201FB002000F08BFE322001F09BF8B9
:10347000BDE722B070BD0000EC010100CC030100EB
:10348000E0030100F4030100080401001C04010032
:1034900080B506F03BFA01BD80B506F089FB01BDA1
:1034A0002DE9F0418CB002F049FD050002A8DFF8DB
:1034B000001A142206F0FAF9002707A8DFF8F41919
:1034C000102206F0F3F900A8DFF8EC190CC90CC0C3
:1034D000083908385FF000080C2000F033FEDFF8F0
:1034E000DC0900F04DFE00F083FF002855D000F00D
:1034F00016FF0400E4B2012C0FD026D3032C10D009
:1035000016D3042C21D15FFA88F818F101000421A8
:1035100090FBF1F808FB110817E0280002F035FDD8
:103520003BE05FFA88F800A830F9180045190CE074
:103530005FFA88F800A830F91800854205D35FFAD1
:1035400088F800A830F918002D1A5FFA88F807A843
:1035500050F828302A00DFF8681902A802F00AFEA5
:1035600002A803F0DDFD0600F6B2FFB2BE4207D0AE
:103570000121002000F0C9FDDFF8480900F000FE3D
:1035800037000121F6B2D6F110004010C0B200F0B1
:10359000BCFD02A800F0F4FDA5E70CB0BDE8F08189
:1035A0008CF7000010B504000021002000F0ADFDF4
:1035B000DFF8140900F0E4FD0121012000F0A5FD71
:1035C000E4B2DFF8080950F8240000F0D9FD012129
:1035D000002000F09AFD7E2000F0B4FD10BD000038
:1035E0000004001038B500250C2000F0ABFD2800C9
:1035F000C0B2FFF7D7FF00F0FBFE002832D000F08A
:103600008EFE0400E4B2012C14D023D3032C12D07C
:1036100019D3042C1ED1EDB2DFF8B40850F8250000
:10362000002806D0EDB2DFF8A80850F82500804742
:1036300010E017E016E0EDB2681C0A2190FBF1F2F1
:1036400001FB120506E0EDB2002D01D06D1E01E078
:10365000092005002800C0B2FFF7A4FF322000F0C7
:10366000A2FFC8E731BD10B504000021002000F022
:103670004CFDDFF8600800F083FD0121012000F01F
:1036800044FDE4B2DFF8500850F8240000F078FD63
:103690000121002000F039FD7E2000F053FD10BD17
:1036A000C00B010038B500250C2000F04BFD2800B0
:1036B000C0B2FFF7D8FF00F09BFE002832D000F028
:1036C0002EFE0400E4B2012C14D023D3032C12D01C
:1036D00019D3042C1ED1EDB2DFF8000850F82500F4
:1036E000002806D0EDB2DFF8F40750F82500804737
:1036F00010E017E016E0EDB2681C062190FBF1F235
:1037000001FB120506E0EDB2002D01D06D1E01E0B7
:10371000052005002800C0B2FFF7A5FF322000F009
:1037200042FFC8E731BD10B504000021002000F0C1
:10373000ECFCDFF8AC0700F023FD0121012000F0D4
:10374000E4FCE4B2DFF89C0750F8240000F018FD18
:103750000121002000F0D9FC7E2000F0F3FC10BD18
:10376000000000003004010038B500252800C0B278
:10377000FFF7D9FF00F03CFE002832D000F0CFFD6B
:103780000400E4B2012C14D023D3032C12D019D39B
:10379000042C1ED1EDB2DFF8500750F825000028A8
:1037A00006D0EDB2DFF8400750F82500804710E062
:1037B00017E016E0EDB2681C042190FBF1F505FB63
:1037C000110506E0EDB2002D01D06D1E01E00320D1
:1037D00005002800C0B2FFF7A6FF322000F0E3FE8C
:1037E000C8E731BD4404010010B5040000210020E9
:1037F00000F08BFCDFF8F40600F0C2FC0121012090
:1038000000F083FCE4B2DFF8E80650F8240000F092
:10381000B7FC0121002000F078FC7E2000F092FC33
:1038200010BD00006C0401008004010038B50025C3
:103830000C2000F087FC2800C0B2FFF7D5FF00F095
:10384000D7FD002832D000F06AFD0400E4B2012C5C
:1038500014D023D3032C12D019D3042C1ED1EDB2D3
:10386000DFF8900650F82500002806D0EDB2DFF80A
:10387000840650F82500804710E017E016E0EDB20E
:10388000681C042190FBF1F505FB110506E0EDB283
:10389000002D01D06D1E01E0032005002800C0B2FC
:1038A000FFF7A2FF322000F07EFEC8E731BD000026
:1038B0009404010010B504000021002000F025FC54
:1038C000DFF8280600F05CFC0121012000F01DFC5F
:1038D000E4B2DFF8240650F8240000F051FC012186
:1038E000002000F012FC7E2000F02CFC10BD000037
:1038F00058040100A804010038B5002541F6FB106A
:10390000FCF71DFF002803D10C2000F01BFC3AE05F
:103910002800C0B2FFF7CEFF00F06AFD002832D0C9
:1039200000F0FDFC0400E4B2012C14D023D3032CDE
:1039300012D019D3042C1ED1EDB2DFF8C00550F817
:103940002500002806D0EDB2DFF8B00550F82500BC
:10395000804710E017E016E0EDB2681C0B2190FBE9
:10396000F1F201FB120506E0EDB2002D01D06D1E53
:1039700001E00A2005002800C0B2FFF79BFF3220BB
:1039800000F011FEC8E731BDBC04010030B587B0BE
:1039900001F091FD050000A8DFF864150CC90CC00A
:1039A000083908380C2000F0CDFBDFF8580500F08E
:1039B000E7FB00F0B4FC0400E4B2012C16D02FD3D6
:1039C000032C20D026D3042C2AD106F092FA0A2008
:1039D00000F0E9FD280080B201F095FD0A2000F01A
:1039E000E2FD0021012006F051FA19E006F081FA0B
:1039F0000A2000F0D8FD280080B201F084FD0C20E0
:103A000000F0A0FB22E0ADB2642D00DA6D1C06F0E0
:103A100070FA05E0ADB2022D00DB6D1E06F069FA0A
:103A200006F0C7FA002801D0009B00E0019BADB270
:103A30002A00DFF8D41402A802F09CFB0121002028
:103A400000F063FB02A800F09BFBB2E707B030BDBB
:103A5000500B010030B587B001F05CFE050000A8F6
:103A6000DFF8A8140CC90CC0083908380C2000F085
:103A700069FBDFF89C0400F083FB00F050FC0400BD
:103A8000E4B2012C16D02CD3032C1DD023D3042C4C
:103A900027D106F02EFA012000F085FD280080B223
:103AA00001F060FE012000F07EFD0021002006F004
:103AB000EDF916E006F01DFA280080B201F052FE82
:103AC0000C2000F03FFB22E0ADB2642D00DA6D1C4B
:103AD00006F00FFA05E0ADB2022D00DB6D1E06F018
:103AE00008FA06F066FA002801D0009B00E0019B6E
:103AF000ADB22A00DFF8101402A802F03BFB01214E
:103B0000002000F002FB02A800F03AFBB5E707B086
:103B100030BD30B58BB0042001F06BF905000C20EE
:103B200000F010FBDFF8EC0300F02AFB00F0F7FBDD
:103B30000400E4B2012C1DD02AD3032C23D024D3BB
:103B4000042C25D1290089B2042001F004F90121B7
:103B5000002000F0DAFADFF8C00300F011FB2800C3
:103B600002F09DFF0121002000F0CFFAD54800F0BF
:103B700007FB0DE0290089B2042001F0ECF80C20CD
:103B800000F0E0FA35E06D1C02E0062D00D36D1E5A
:103B90006420B5FBF0F00A21B0FBF1F201FB12004A
:103BA00030308DF800000A20B5FBF0F00A21B0FBA0
:103BB000F1F201FB120030308DF801002C208DF85D
:103BC00002000A20B5FBF0F100FB115030308DF8F7
:103BD000030000208DF8040000AAD04905A802F0D7
:103BE000C9FA0121002000F090FA05A800F0C8FAF7
:103BF0009CE70BB030BD70B586B002F0E9F9050066
:103C000002F030FA06000C2000F09CFA00F0F0FB05
:103C100000282AD000F083FB0400E4B2012C06D077
:103C200007D3032C04D004D3042C02D101E01CE000
:103C3000FFE72A00BA4900A802F09CFA0021002000
:103C400000F063FA00A800F09BFA3200B54900A822
:103C500002F090FA0121002000F057FA00A800F0CD
:103C60008FFA322000F09FFCD0E706B070BD000054
:103C7000D004010038B500250C2000F063FA0021C3
:103C8000002000F042FAA84800F07AFA00F0B0FBF9
:103C900000282CD000F043FB0400E4B2012C08D033
:103CA0000DD3032C06D008D3042C08D195F0FF05C2
:103CB00005E01CE00020050001E0FF2005003220A7
:103CC00000F071FC2800C0B204F07EF90121002050
:103CD00000F01BFAEDB2002D03D1944800F050FA29
:103CE00002E0934800F04CFA03F01CFFCEE731BD30
:103CF000F4F2000080B502F01CFA80B2FCF71FFD60
:103D0000002836D08B4800F039F8ADF800008A481A
:103D100000F034F8ADF80200BDF80000BDF8021064
:103D2000884215D1BDF8000002F0E6F90C2000F041
:103D300009FA824800F024FA0121002000F0E5F998
:103D40007F4800F01DFA40F6B83000F02CFC10E07F
:103D50000C2000F0F7F97B4800F012FA0121002056
:103D600000F0D3F9784800F00BFA40F6B83000F0D4
:103D70001AFC01BDE40401005CF300002DE9F043EE
:103D800085B00400002600A870490CC90CC0083991
:103D900008385FF000085FF001090C2000F0D2F94C
:103DA000200000F0EDF900F023FB002875D000F0B2
:103DB000B6FA0500EDB2012D23D046D3032D23D052
:103DC00033D3042D41D1761CF6B2042E18DB9DF8B6
:103DD00000004FF47A719DF8012064235A4301FBDF
:103DE00000209DF802100A2202FB01009DF803103A
:103DF000081800F53C50B0300700380080B24EE0A3
:103E000023E04FF6FF704AE0F6B200A8305C401C99
:103E1000F6B200A97054F6B200A8305C3A2803DB71
:103E2000F6B200A8302131540FE0F6B200A8305CA1
:103E3000401EF6B200A97054F6B200A8305C3028DB
:103E400003DAF6B200A839213154B9F10109484624
:103E5000C0B200281DD1042081465FFA88F87FEAAD
:103E60000808042200A902A802F09EF900208DF89B
:103E70000C005FFA88F8B8F1000F03D0F6B202A880
:103E80005F2131540121062000F03FF902A800F023
:103E900077F9322000F087FB85E74FF6FF7005B019
:103EA000BDE8F083F80401006CF200007007010027
:103EB0000C05010080070100D80B0100200501005E
:103EC000E00B0100340501009007010030030010F1
:103ED0006CF60000480501003404001018F80000DA
:103EE0005C05010078040010E00701007005010086
:103EF00088040010F0070100D802001090F50000BF
:103F0000F80B010084050100A0070100000C01006E
:103F100098050100AC050100C0050100280A010058
:103F2000B0070100C007010004030100340A0100CA
:103F3000400A01004C0A0100580A0100D0070100A4
:103F4000080C0100100C0100640A0100180C0100AB
:103F500070B504000D009D48006850F080009B493A
:103F600008609A48006850F04000984908609748F7
:103F7000006850F02000954908609448006850F0AF
:103F80001000924908609148006850F400708F4911
:103F900008608E48006850F400708C4908608B48B7
:103FA000006850F48070894908604FF4FA7000F09E
:103FB000FAFA00200600F6B2032E07DA032000F01A
:103FC00030F8642000F0EFFA761CF4E7022000F0ED
:103FD00028F8142000F0E7FA54F02001C9B20020BC
:103FE00000F074F8142000F0DEFA55F00801C9B2B0
:103FF000002000F06BF8142000F0D5FA55F008000E
:10400000734908701021002000F060F80A2000F0C9
:10401000CAFA0621002000F059F80A2000F0C3FA7D
:1040200070BD6C49096851F480716A4A116000BF23
:1040300000BF00BF00BF00BF00BFC10706D5654974
:10404000096851F08001634A116005E0624909681E
:1040500051F08001604A1160810706D55D49096809
:1040600051F040015B4A116005E05B49096851F07D
:104070004001594A1160410706D55649096851F077
:104080002001544A116005E05349096851F02001AC
:10409000514A1160010706D54E49096851F01001D7
:1040A0004C4A116005E04C49096851F010014A4A38
:1040B000116000BF00BF00BF00BF00BF00BF464986
:1040C000096851F48071444A1160704738B50400A2
:1040D0000D00E4B2002C06D03E48006850F4007099
:1040E0003C49086005E03C48006850F400703A49DB
:1040F0000860EDB22809FFF794FF2800C0B2FFF76F
:1041000090FF022000F04FFA31BD38B504000D00D9
:10411000E4B2102C09DAEDB2002D06D1B4F1800121
:10412000C9B20020FFF7D2FF08E0EDB2012D05D1A2
:10413000B4F14001C9B20020FFF7C8FF042000F02D
:1041400032FA31BD10B50400E4B220000A280CD0C8
:104150000C2802D00D2808D00CE001210020FFF728
:10416000B5FF0C2000F01FFA09E002210120FFF743
:10417000ADFF04E02100C9B20120FFF7A7FF10BD89
:1041800010B504002078002804D02078FFF7DAFF6B
:10419000641CF7E710BD80B50D48007850F00200B0
:1041A0000B4908700A4801780020FFF78FFF01BD16
:1041B00080B50748007810F0FD00054908700448F4
:1041C00001780020FFF782FF01BD000000C0092038
:1041D000F46B001018C009201CC009209B4800681F
:1041E000002804D099480068401E98490860984803
:1041F0000088002804D096480088401E9449088012
:1042000094480088002805D092480088401E9149B3
:10421000088083E0904800789049002242548E48FC
:1042200000788E49405C8E490968C1F3002111F085
:10423000010191F00101C9B2084387490978874A11
:10424000885487480068400501D5002000E002201E
:1042500081490978814A895C08437F4909787F4A06
:1042600088547F480068800501D5002000E00420C4
:1042700079490978794A895C084377490978774A06
:10428000885477480068400401D5002000E00820E9
:1042900071490978714A895C08436F4909786F4A06
:1042A00088546F480068800001D5002000E010208D
:1042B00069490978694A895C084367490978674A06
:1042C000885467480068002801D5402000E000209D
:1042D00061490978614A895C08435F4909785F4A06
:1042E00088545F480068400001D5202000E000208D
:1042F00059490978594A895C084357490978574A06
:10430000885455480078401C082190FBF1F202FBCC
:104310001102514802704F4806210180704710B4C5
:10432000002001000020C0B2082809DAC0B24B4AC0
:10433000825C12F00902092A00D1491C401CF2E7F4
:10434000C9B2052901DB082050E00020C0B20528D1
:1043500048DA002211000022D2B2082A09DAD2B2C9
:104360003E4BD35C01248440234200D0491C521CA4
:10437000F2E7C9B2052933DB354A1288002A1BD17E
:10438000384A1278002A0DD0364A00231370304A7A
:104390004FF4FA6313802D4A4EF660231360401CDD
:1043A000C0B223E02A4A32231380284A4EF6602303
:1043B0001360401CC0B219E02A4A1278002A0DD0BE
:1043C000284A00231370224A4FF4FA6313801F4ACD
:1043D0004EF660231360401CC0B207E0002005E0E9
:1043E000401CB3E71F4801220270002010BC704738
:1043F00016480068704700200021C9B2082907DA72
:10440000C9B2164A8A5C520600D5401C491CF4E722
:10441000C0B2052801DB012000E00020C0B27047D7
:1044200000200021C9B2082907DAC9B20B4A8A5C08
:10443000920600D5401C491CF4E7C0B2052801DBF8
:10444000012000E00020C0B270470000706B001037
:10445000F0040010F2040010F26B00100C6B00105E
:1044600034C00920F36B00102DE9FB4F82B014001B
:104470000E9D0F9E109FDDF844803900200080B211
:1044800000F052FB8246BAF1000F75D0A4B2DAF800
:10449000300010EB8400001F83465FEADB0B5FEA0D
:1044A000CB0BA4B2009443462A000399504600F077
:1044B000C6FA049A0299584605F0AEFDCAF8000003
:1044C000002E01D0C6F800A005F0CEFDDFF82007D1
:1044D0000068401CDFF818170860DFF86007006804
:1044E00000280BD1DFF85407C0F800A0DFF8000760
:1044F0000068012811D100F0C3FA0EE0DFF8400790
:104500000068002809D1DFF834070068C06A8542D6
:1045100003D3DFF82807C0F800A0DFF828070068F9
:10452000DAF82C10884204D2DAF82C00DFF81417DD
:104530000860DFF814070068401CDFF80C170860FB
:10454000DFF808070068DAF82C10884204D2DAF89D
:104550002C00DFF8F81608601AF10401DAF82C00D4
:104560001422DFF8EC3602FB003005F005FE0120D6
:10457000814605F082FD02E05FF0FF308146B9F12F
:10458000010F0CD1DFF8B8060068002807D0DFF86B
:10459000AC060068C06AA84201D205F060FD48463A
:1045A00005B0BDE8F08F70B504000026002C2BD0BC
:1045B00000F050F8DFF8A406006820180500DFF8C6
:1045C0007C060068001D05F004FEDFF87006006838
:1045D0004560DFF888060068854209D2DFF85C068E
:1045E0000068011DDFF87806006805F0D4FD08E0DA
:1045F000DFF848060068011DDFF86806006805F06E
:10460000CAFD00F02FF80600002E01D105F027FDAD
:1046100070BD1FB500200390002002900020019083
:104620000020009000235022DFF848160FF20540CA
:10463000FFF71AFF0400012C0BD105F0FBFDDFF89A
:10464000000601210160DFF814060021016005F079
:10465000F0FC1FBDDFF818060068401CDFF81016DC
:104660000860704770B5002505F0FEFCDFF8000615
:104670000068401EDFF8F8150860DFF8F4050068F0
:1046800000285BD1DFF868050068002856D00026B6
:10469000DFF8D8050068002804D0DFF8D005C0682E
:1046A000C46800E00024002C23D014F1180005F0A9
:1046B00090FD201D05F08DFDDFF890050068E16A92
:1046C000884203D2E06ADFF884150860211DE06AA1
:1046D0001422DFF87C3502FB003005F04DFDE06A66
:1046E000DFF858150968C96A8842D1D3012006004D
:1046F000CEE7DFF884050068002810D0DFF87805E1
:104700000068002809D000F01DF8DFF86C0500688B
:10471000401EDFF864150860F0E701200600012E56
:1047200004D0DFF858050068012807D101200500F2
:10473000DFF848050021016005F091FC05F09DFCC3
:10474000280070BD10B5DFF828050068002852D198
:10475000DFF808050068401CDFF800150860DFF886
:10476000FC040068002813D1DFF8F8140968080079
:10477000DFF8F014DFF8E82412680A60DFF8E014CC
:104780000860DFF8FC140968491CDFF8F4241160A4
:10479000DFF8D00400680068002805D0DFF8C40402
:1047A0000068C068C46800E00024002C2AD0DFF84C
:1047B000AC0400686168884224D3201D05F009FD1F
:1047C000A06A002803D014F1180005F002FDDFF8FC
:1047D0007C040068E16A884203D2E06ADFF86C1466
:1047E0000860211DE06A1422DFF8643402FB003007
:1047F00005F0C2FCCCE7DFF880040068401CDFF85D
:104800007814086010BD80B5DFF8640400680028E3
:1048100004D0DFF868040121016054E0DFF81C04D3
:104820000068006BDFF8141409680968884209D32E
:10483000DFF80804006810F13401DFF800040068B4
:1048400005F018FE1422DFF83C14DFF8F0030068CE
:10485000006B05F011FE002809D0DFF8E0030068C6
:1048600010F13401DFF8D403006805F003FEDFF82F
:10487000DC0300681421DFF8D82301FB0020006866
:10488000002807D1DFF8C4030068401EDFF8BC131E
:104890000860ECE7DFF8B41309681422DFF8B033DE
:1048A00002FB01310800416849684160416810F12C
:1048B0000802914202D14168496841604068C0687D
:1048C000DFF87813086001BD70B504000D00DFF853
:1048D0006C03006810F11801200005F05CFCDFF8A3
:1048E0005C030068001D05F074FC15F1010F08D190
:1048F000DFF848030068011DDFF86C0305F03CFC9D
:1049000020E0DFF85803006828180600DFF82C03C1
:1049100000684660DFF844030068864209D2DFF889
:104920001C030068011DDFF83803006805F033FC44
:1049300008E0DFF808030068011DDFF828030068BD
:1049400005F029FC70BD70B504002068002802D075
:10495000E068C66800E0002616F1180005F039FC92
:10496000DFF80C030068002813D1301D05F031FC7E
:10497000B6480068F16A884202D2F06AB34908601A
:10498000311DF06A1422B24B02FB003005F0F4FB3B
:1049900004E016F11801B54805F0EEFBF06AA749EE
:1049A0000968C96A884202D30120050001E000209D
:1049B0000500280070BDB24909680160A74909686F
:1049C0004160704770B504000D0005F04DFB28688C
:1049D00010F1010F02D10020060022E0A848006873
:1049E0002168884207D09D4800686168884202D3E8
:1049F0000120060015E0994800686168401A29689E
:104A000088420CD2286895490968401A61680818DC
:104A100028602000FFF7CFFF0020060001E0012002
:104A2000060005F02AFB300070BD944801210160AA
:104A30007047000010B5040000F045F8FCE7F8B539
:104A400004000D0016001F000C22290014F1340090
:104A500005F044FD002084F83F00052E01D304201A
:104A60000600E662A664201D05F083FB14F1180021
:104A700005F07FFB2461D6F10500A0616462F1BD01
:104A800010B500200400052C07D21420704900FB4B
:104A9000041005F05FFB641CF5E77B4805F05AFB4A
:104AA0007A4805F057FB714805F054FB694805F05A
:104AB00051FB6D4805F04EFB6A4873490160684838
:104AC0007249016010BD38B56348006800282AD0DB
:104AD000FFF7C0FD5F480068002801D1012400E015
:104AE0000024E4B2FFF7BEFD002C1CD105F0BCFA97
:104AF00058480068002803D05648C068C56800E0E0
:104B00000025281D05F065FB39480068401E38491E
:104B1000086051480068401E4F49086005F0ADFA32
:104B2000280000F024F831BD70B504000D004C20C1
:104B300005F00AFD0600002E17D0002D04D1A4B206
:104B4000A00005F001FD00E028003063306B002874
:104B500005D1300005F020FD0020060005E0A4B2DC
:104B6000A200A521306B05F01DFD300070BD10B511
:104B70000400206B05F010FD200005F00DFD10BDB8
:104B80002E4909680800704738B504002500E86A16
:104B90002A490968C96A884229D228480068C06A37
:104BA000D0F10500A8616869E96A1422284B02FB6C
:104BB0000131884217D1281D05F00BFB1F48006802
:104BC000C06AE86221480068E96A884202D2E86A5D
:104BD0001E490860291DE86A14221D4B02FB0030A3
:104BE00005F0CAFA03E015480068C06AE86231BD02
:104BF000906B001038B504002500002C1CD0E86A2A
:104C0000A96C884218D0281D05F0E3FAA86CE86268
:104C1000E86AD0F10500A8610C480068E96A88429A
:104C200002D2E86A09490860291DE86A1422084B83
:104C300002FB003005F0A0FA31BD0000806B0010CF
:104C4000A06B0010986B0010B46B00109C6B0010F0
:104C500000690010DC6A00108C6B0010946B00106F
:104C6000886B0010846B0010F06A0010C86A001096
:104C7000A46B0010380C0100A86B0010AC6B001086
:104C8000B06B00104C060100A06A0010B46A00105E
:104C9000F0B583B004000D001600280C8DF800005C
:104CA000280A8DF8010028008DF80200300C8DF8DC
:104CB0000300300A8DF8040030008DF8050006224C
:104CC000002100A805F085FC0700BFB2380A8DF866
:104CD000060038008DF80700082200A9E4B28448D5
:104CE00050F8240005F0C0FEF7BD7CB504000D00AF
:104CF0001600082200A9E4B27D4850F8240005F00F
:104D0000CFFE0622002100A805F063FC01009DF8FB
:104D100006009DF8072052EA002292B289B28A4228
:104D200017D19DF800009DF801301B0253EA0040A6
:104D30009DF80230184328609DF803009DF8043068
:104D40001B0253EA00409DF8053018433060FF20F5
:104D500000E0002076BD70B582B004000E00B6B24F
:104D6000300A8DF8000030008DF801000222002189
:104D700000A805F02EFC0500ADB2280A8DF802004F
:104D800028008DF80300E4B2002C08D0022C14D0C7
:104D90000CD3042C1FD017D3052C23D028E00422D9
:104DA00000A94FF4885005F05FFE21E0042200A91D
:104DB00041F2041005F058FE1AE0042200A941F265
:104DC000081005F051FE13E0042200A941F20C1076
:104DD00005F04AFE0CE0042200A941F2101005F093
:104DE00043FE05E0042200A941F2141005F03CFE48
:104DF00073BD2DE9F04182B00400E4B2002C08D06C
:104E0000022C1CD010D3042C33D025D3052C3BD03E
:104E100045E0042200A94FF4885005F041FE1E2011
:104E20000600B42007003AE0042200A941F2041071
:104E300005F036FE3C200600C82007002FE00422C3
:104E400000A941F2081005F02BFE4FF4FA600600AD
:104E500044F25060070022E0042200A941F20C1045
:104E600005F01EFE4FF4FA60060044F250600700A1
:104E700015E0042200A941F2101005F011FE0120F6
:104E80000600C82007000AE0042200A941F214101D
:104E900005F006FE012006004FF47A70070002229A
:104EA000002100A805F095FB80461FFA88F89DF8C0
:104EB00002009DF8031051EA0020804513D19DF8AF
:104EC00000009DF8011051EA00200500ADB2B6B215
:104ED000B54200D23500BFB2ADB2AF4200D23D0004
:104EE000280080B201E0300080B2BDE8F681000009
:104EF000100801002DE9F04782B006000F0090462F
:104F000099460A9C0B9DF6B2002E01D0012000E0CC
:104F100000208DF80000FFB2002F01D0022000E039
:104F200000209DF8001008438DF800005FFA88F813
:104F3000B8F1000F01D0042000E000209DF800101F
:104F400008438DF800005FFA89F9B9F1000F01D02C
:104F5000082000E000209DF8001008438DF80000B4
:104F6000E4B2002C01D0102000E000209DF80010D9
:104F700008438DF80000EDB2002D01D0202000E0A4
:104F800000209DF8001008438DF800000122002148
:104F900000A805F01EFB82461FFA8AFA5FEA1A2073
:104FA0008DF8010050468DF80200032200A941F25D
:104FB000281005F059FDBDE8F3872DE9F8430400FA
:104FC0000D0016001F00DDF82080DDF8249003227C
:104FD00000A941F2281005F063FD0122002100A87C
:104FE00005F0F7FA80B29DF80110B0EB012F01D166
:104FF000012100E00021C9B29DF8022011430029DF
:1050000032D09DF80010C90701D5FF2100E0002132
:1050100021709DF80010890701D5FF2100E00021D3
:1050200029709DF80010490701D5FF2100E00021FB
:1050300031709DF80010090701D5FF2100E0002123
:1050400039709DF80010C90601D5FF2100E000214C
:1050500088F800109DF80010890601D5FF2100E0B6
:10506000002189F800100DE0FF212170FF21297037
:10507000FF213170FF213970FF2188F80010FF21D6
:1050800089F80010BDE8F1831CB5062200A94FF491
:10509000005005F005FD0422002100A805F099FA52
:1050A0000400A4B29DF804009DF8051051EA002008
:1050B00084420ED19DF800009DF80110090451EAC8
:1050C00000609DF8021050EA01209DF8031008438B
:1050D00000E0002016BD30B583B00400200E8DF82E
:1050E0000000200C8DF80100200A8DF8020020003D
:1050F0008DF803000422002100A805F06AFA0500DB
:10510000ADB2280A8DF8040028008DF805000622AB
:1051100000A94FF4005005F0A7FC37BD1CB50622CE
:1051200000A94FF4A85005F0BBFC0422002100A800
:1051300005F04FFA0400A4B29DF804009DF8051094
:1051400051EA002084420ED19DF800009DF8011024
:10515000090451EA00609DF8021050EA01209DF810
:105160000310084300E0002016BD30B583B00400F2
:10517000200E8DF80000200C8DF80100200A8DF81B
:10518000020020008DF803000422002100A805F091
:1051900020FA0500ADB2280A8DF8040028008DF829
:1051A0000500062200A94FF4A85005F05DFC37BDAC
:1051B0001CB5062200A941F2505005F071FC0422F2
:1051C000002100A805F005FA0400A4B29DF804002F
:1051D0009DF8051051EA002084420ED19DF8000090
:1051E0009DF80110090451EA00609DF8021050EA90
:1051F00001209DF80310084300E0002016BD30B5E3
:1052000083B00400200E8DF80000200C8DF8010002
:10521000200A8DF8020020008DF8030004220021EE
:1052200000A805F0D6F90500ADB2280A8DF80400F3
:1052300028008DF80500062200A941F2505005F023
:1052400013FC37BD10B582B0042200A941F27050A2
:1052500005F026FC0222002100A805F0BAF904009E
:10526000A4B29DF802009DF8031051EA0020844288
:1052700007D19DF800009DF8011051EA002080B28E
:1052800000E0002016BD38B50400A4B2200A8DF855
:10529000000020008DF801000222002100A805F086
:1052A00098F90500ADB2280A8DF8020028008DF8A3
:1052B0000300042200A941F2705005F0D5FB31BD76
:1052C00010B582B0042200A94FF4AC5005F0E8FB01
:1052D0000222002100A805F07CF90400A4B29DF888
:1052E00002009DF8031051EA0020844207D19DF886
:1052F00000009DF8011051EA002080B200E000207B
:1053000016BD38B50400A4B2200A8DF800002000B4
:105310008DF801000222002100A805F05AF90500CD
:10532000ADB2280A8DF8020028008DF8030004228F
:1053300000A94FF4AC5005F097FB31BD38B504001F
:10534000A4B2200A8DF8000020008DF8010002228E
:10535000002100A805F03DF90500ADB2280A8DF83E
:10536000020028008DF80300042200A941F29050A9
:1053700005F07AFB31BD38B50400A4B2200A8DF8DF
:10538000000020008DF801000222002100A805F095
:1053900020F90500ADB2280A8DF8020028008DF82A
:1053A0000300042200A941F2955005F05DFB31BDD8
:1053B00010B582B0042200A941F2955005F070FBAF
:1053C0000222002100A805F004F90400A4B29DF80F
:1053D00002009DF8031051EA0020844218D19DF884
:1053E00000009DF8011051EA00200400A4B2B4F5B9
:1053F0007A6F02DA4FF47A600400A4B244F251608A
:10540000844202DB44F250600400200080B201E0DC
:1054100041F2883016BD38B50400A4B2200A8DF8D8
:10542000000020008DF801000222002100A805F0F4
:10543000D0F80500ADB2280A8DF8020028008DF8DA
:105440000300042200A94FF4AD5005F00DFB31BD5F
:1054500010B582B0042200A94FF4AD5005F020FB36
:105460000222002100A805F0B4F80400A4B29DF8BF
:1054700002009DF8031051EA0020844218D19DF8E3
:1054800000009DF8011051EA00200400A4B2B4F518
:105490007A6F02DA4FF47A600400A4B244F25160E9
:1054A000844202DB44F250600400200080B201E03C
:1054B00041F2883016BD10B582B0042200A941F235
:1054C000A55005F0EDFA0222002100A805F081F8B0
:1054D0000400A4B29DF802009DF8031051EA0020D8
:1054E00084420ED19DF800009DF8011051EA002081
:1054F0000400A4B2652C01DB64200400200080B20B
:1055000000E0642016BD38B50400A4B2200A8DF86E
:10551000000020008DF801000222002100A805F003
:1055200058F80500ADB2280A8DF8020028008DF861
:105530000300042200A941F2A55005F095FA31BDFF
:1055400010B582B0042200A941F2B05005F0A8FACB
:105550000222002100A805F03CF80400A4B29DF846
:1055600002009DF8031051EA0020844215D19DF8F5
:1055700000009DF8011051EA00200400A4B2002CA4
:1055800001D101200400A4B2B4F5166F02DD4FF47E
:1055900016600400200080B200E0012016BD38B57E
:1055A0000400A4B2200A8DF8000020008DF801004C
:1055B0000222002100A805F00CF80500ADB2280A6F
:1055C0008DF8020028008DF80300042200A941F2A2
:1055D000B05005F049FA31BD10B582B0042200A9DF
:1055E00041F2B55005F05CFA0222002100A804F057
:1055F000F0FF0400A4B29DF802009DF8031051EAE8
:105600000020844218D19DF800009DF8011051EA55
:1056100000200400A4B2B4F57A6F02DA4FF47A6085
:105620000400A4B244F62160844202DB44F6206008
:105630000400200080B200E0012016BD38B504004F
:10564000A4B2200A8DF8000020008DF8010002228B
:10565000002100A804F0BDFF0500ADB2280A8DF8B6
:10566000020028008DF80300042200A941F2B55081
:1056700005F0FAF931BD10B582B0042200A94FF44B
:10568000AE5005F00DFA0222002100A804F0A1FF9F
:105690000400A4B29DF802009DF8031051EA002016
:1056A000844218D19DF800009DF8011051EA0020B5
:1056B0000400A4B2B4F57A7F02DA4FF47A700400E1
:1056C000A4B243F69920844202DB43F698200400FA
:1056D000200080B200E0012016BD38B50400A4B25D
:1056E000200A8DF8000020008DF801000222002120
:1056F00000A804F06EFF0500ADB2280A8DF8020084
:1057000028008DF80300042200A94FF4AE5005F0E4
:10571000ABF931BD10B582B0042200A941F2C550E9
:1057200005F0BEF90222002100A804F052FF040097
:10573000A4B29DF802009DF8031051EA00208442B3
:105740000ED19DF800009DF8011051EA00200400E0
:10575000A4B2652C01DB64200400200080B200E0CC
:10576000642016BD38B50400A4B2200A8DF80000EC
:1057700020008DF801000222002100A804F029FF7A
:105780000500ADB2280A8DF8020028008DF803004C
:10579000042200A941F2C55005F066F931BD10B5EB
:1057A00082B0042200A941F2D05005F079F902221A
:1057B000002100A804F00DFF0400A4B29DF802002F
:1057C0009DF8031051EA002084420ED19DF800009C
:1057D0009DF8011051EA00200400A4B2652C01DB01
:1057E00064200400200080B200E0012016BD38B51E
:1057F0000400A4B2200A8DF8000020008DF80100FA
:105800000222002100A804F0E4FE0500ADB2280A3F
:105810008DF8020028008DF80300042200A941F24F
:10582000D05005F021F931BD38B50400A4B2200AEA
:105830008DF8000020008DF801000222002100A850
:1058400004F0C7FE0500ADB2280A8DF8020028005A
:105850008DF80300042200A941F2D45005F004F9A8
:1058600031BD10B582B0042200A941F2D45005F038
:1058700017F90222002100A804F0ABFE0400A4B234
:105880009DF802009DF8031051EA0020844210D1D7
:105890009DF800009DF8011051EA00200400A4B218
:1058A000B4F5FA7F02DD4FF4FA700400200080B2F4
:1058B00000E0012016BD30B583B00400200E8DF845
:1058C0000000200C8DF80100200A8DF80200200055
:1058D0008DF803000422002100A804F07AFE0500E0
:1058E000ADB2280A8DF8040028008DF805000622C4
:1058F00000A941F2D85005F0B7F837BD1CB5062213
:1059000000A941F2D85005F0CBF80422002100A8EC
:1059100004F05FFE0400A4B29DF804009DF8051099
:1059200051EA002084420ED19DF800009DF801103C
:10593000090451EA00609DF8021050EA01209DF828
:105940000310084300E0002016BD38B50400E4B29F
:10595000002C01D0FF2004008DF80040012200211E
:1059600000A804F036FE0500ADB2280A8DF801004B
:1059700028008DF80200032200A94FF4B05005F072
:1059800073F831BD10B582B0032200A94FF4B050B6
:1059900005F086F80122002100A804F01AFE040098
:1059A000A4B29DF801009DF8021051EA0020844243
:1059B00002D19DF8000000E0002016BD38B50400BB
:1059C000A4B2200A8DF8000020008DF80100022208
:1059D000002100A804F0FDFD0500ADB2280A8DF8F5
:1059E000020028008DF80300042200A941F2106093
:1059F00005F03AF831BD10B582B0042200A941F299
:105A0000106005F04DF80222002100A804F0E1FD2D
:105A10000400A4B29DF802009DF8031051EA002092
:105A2000844207D19DF800009DF8011051EA002042
:105A300080B200E0412016BD10B582B0042200A95A
:105A400041F2086005F02CF80222002100A804F0C1
:105A5000C0FD0400A4B29DF802009DF8031051EAB5
:105A60000020844207D19DF800009DF8011051EA02
:105A7000002080B200E0052016BD70B586B004009D
:105A80000D001122290000A800F08EFB1122002138
:105A900000A804F09EFD0600B6B2300A8DF8110091
:105AA00030008DF81200132200A9E4B2132000FB8D
:105AB00004F010F5B85004F0D7FF06B070BD70B513
:105AC00096B004000D0005A81749442203F0EEFE2D
:105AD000132200A9E4B2132000FB04F010F5B85023
:105AE00004F0DEFF1122002100A804F072FD060080
:105AF000B6B29DF811009DF8121051EA00208642BE
:105B000005D1112200A9280000F04EFB08E0112267
:105B1000E4B2112005A900FB0411280000F044FBA9
:105B200016B070BD000000009CF4000038B5040001
:105B3000E4B2002C01D0FF2004008DF800400122C7
:105B4000002100A804F045FD0500ADB2280A8DF83B
:105B5000010028008DF80200032200A94FF4C8506C
:105B600004F082FF31BD10B582B0032200A94FF4CA
:105B7000C85004F095FF0122002100A804F029FD7F
:105B80000400A4B29DF801009DF8021051EA002023
:105B9000844202D19DF8000000E0002016BD38B517
:105BA0000400A4B2200A8DF8000020008DF8010046
:105BB0000222002100A804F00CFD0500ADB2280A65
:105BC0008DF8020028008DF80300042200A941F698
:105BD000041004F049FF31BD10B582B0042200A9C1
:105BE00041F6041004F05CFF0222002100A804F03A
:105BF000F0FC0400A4B29DF802009DF8031051EAE5
:105C00000020844218D19DF800009DF8011051EA4F
:105C100000200400A4B2B4F57A6F02DA4FF47A607F
:105C20000400A4B244F25160844202DB44F25060AA
:105C30000400200080B201E041F2707016BD10B582
:105C400082B0042200A941F6081004F029FF0222C4
:105C5000002100A804F0BDFC0400A4B29DF80200DD
:105C60009DF8031051EA0020844213D19DF80000F2
:105C70009DF8011051EA00200400A4B2322C01DA90
:105C800032200400A4B28D2C01DB8C200400200003
:105C900080B200E0502016BD38B50400A4B2200A3E
:105CA0008DF8000020008DF801000222002100A8DC
:105CB00004F08FFC0500ADB2280A8DF80200280020
:105CC0008DF80300042200A941F6081004F0CCFE70
:105CD00031BD38B50400A4B2200A8DF800002000C0
:105CE0008DF801000222002100A804F072FC0500DA
:105CF000ADB2280A8DF8020028008DF803000422B6
:105D000000A94FF4F95004F0AFFE31BD10B582B0D8
:105D1000042200A94FF4F95004F0C2FE022200212F
